:1000000017C11F001301C1FFB72224009382C23819
:1000100083A2020063880200B70200809382A200DC
:100020002322500093021000372324001303C33807
:100030002320530097310400938141281755040071
:100040001305051B175604001306063B3306A6408E
:1000500093050000EF00000917350200130505B4F1
:10006000EF20D22EEF2052390325010093054100E5
:1000700013060000EF20520C6F20922E67800000C4
:10008000130101FF232021013719000023248100DF
:100090000324098123261100232291001305040063
:1000A000EF00505D63100502130504008320C100BA
:1000B000032481008324410003290100130101016D
:1000C0006780000093040500930505003735240080
:1000D0001305852BEF201240130400002322998082
:1000E0006FF09FFC1303F00013070500637EC3024B
:1000F0009377F7006390070A63920508937606FFEB
:100100001376F600B386E6002320B7002322B7005B
:100110002324B7002326B70013070701E366D7FEA1
:100120006314060067800000B306C3409396260060
:1001300097020000B38656006780C6002307B70009
:10014000A306B7002306B700A305B7002305B70031
:10015000A304B7002304B700A303B7002303B70029
:10016000A302B7002302B700A301B7002301B70021
:10017000A300B7002300B7006780000093F5F50FD8
:1001800093968500B3E5D50093960501B3E5D500B8
:100190006FF0DFF69396270097020000B3865600B3
:1001A00093820000E78006FA93800200938707FF9E
:1001B0003307F7403306F600E378C3F66FF0DFF35A
:1001C0003367B5009303F0FF137737006310071010
:1001D000B7877F7F9387F7F70326050083A605007F
:1001E000B372F6003363F600B382F200B3E262004A
:1001F000639272106316D6080326450083A6450055
:10020000B372F6003363F600B382F200B3E2620029
:10021000639E720C6316D6060326850083A68500AE
:10022000B372F6003363F600B382F200B3E2620009
:100230006398720C6316D6040326C50083A6C50016
:10024000B372F6003363F600B382F200B3E26200E9
:100250006392720C6316D6020326050183A605017C
:10026000B372F6003363F600B382F200B3E26200C9
:10027000639C720A1305450193854501E30ED6F48C
:100280001317060193970601631EF7001357060123
:1002900093D706013305F7409375F50F6390050278
:1002A000678000001357070193D707013305F74014
:1002B0009375F50F63940500678000001377F70FBF
:1002C00093F7F70F3305F7406780000003460500FA
:1002D00083C6050013051500938515006314D60029
:1002E000E31606FE3305D64067800000130545007F
:1002F00093854500E31CD6FC1305000067800000D1
:100300001305850093858500E312D6FC13050000D4
:10031000678000001305C5009385C500E318D6FA71
:100320001305000067800000130505019385050192
:10033000E31ED6F8130500006780000013060500D1
:100340001305000093F61500638406003305C5000D
:1003500093D5150013161600E39605FE678000007E
:100360006340050663C60506138605009305050070
:100370001305F0FF630C060293061000637AB600C3
:100380006358C0001316160093961600E36AB6FE73
:100390001305000063E6C500B385C5403365D5008D
:1003A00093D6160013561600E39606FE67800000EB
:1003B00093820000EFF05FFB138505006780020069
:1003C0003305A04063D80500B305B0406FF0DFF9F6
:1003D000B305B04093820000EFF01FF93305A04051
:1003E000678002009382000063CA0500634C050029
:1003F000EFF09FF71385050067800200B305B0405A
:10040000E35805FE3305A040EFF01FF63305B0407A
:1004100067800200130101FE232A91009724040043
:1004200083A4440B83A70400232C810023263101DD
:100430001304C0029389050093851700B3858502D4
:1004400023282101172904000329890B23244101B2
:10045000130A050003250900232E1100EFF0C34302
:1004600083A704002320A9001386F9FFB307F40231
:100470003306CA0093050A00930610003305F50001
:1004800013054500EF00D05383A70400032709009C
:100490008320C10133848702938717000329010158
:1004A0008329C100032A810033048700232004002C
:1004B0000324810123A0F4008324410113010102DC
:1004C00067800000130101FF23229100972404009C
:1004D00083A4440083A50400232481001304C002E4
:1004E00093851500B3858502232021011729040077
:1004F000032909010325090023261100EFF0C33960
:1005000083A704002320A9008320C100338487022D
:100510001307100093871700032901003305850096
:10052000032481002320E50023A0F400832441005C
:1005300013010101678000009307C0023305F50233
:100540009727040083A7C7FB83A707003385A7006D
:10055000130545006F0050719307C0023305F50283
:100560009727040083A7C7F983A707003385A7004F
:10057000130545006F005072130101FC232C81020A
:100580001304C00233048502232A91022328210385
:100590002326310323244103232251032320610313
:1005A000232E7101232C8101232A9101232E110274
:1005B000138C0500130B0600938A0600130A07002C
:1005C000930CC1009729040083A989F31309F0FF54
:1005D00093042000973B0400938B4BDC03A5090098
:1005E00013070A0093860A003305850013060B00E3
:1005F00093850C001305450023262101EF10001000
:10060000630C0500630E95009305050013850B0030
:10061000EF20426C6FF09FFC8327C100E39087FDC1
:100620008320C1030324810383244103032901039D
:100630008329C102032A8102832A4102032B01027A
:10064000832BC101032C8101832C4101130101047F
:1006500067800000130101FE232C8100232A9100F2
:100660002328210123263101232441012322510182
:10067000232E1100930A0500138A05009309060032
:100680001389060093040700130420001387040055
:10069000930609001386090093050A0013850A00D2
:1006A000EFF09FEDE30485FE8320C1010324810167
:1006B00083244101032901018329C100032A810008
:1006C000832A410013010102678000009307C002E2
:1006D0003305F5029727040083A787E283A7070065
:1006E0003385A700130545006F00D07A130101FE82
:1006F000930600001306000093050000232A9100D2
:10070000232E1100232C810093040500EFF01FFC21
:10071000631E05021306C1001385040013070000C1
:10072000930600009305100023260100EFF09FF2CE
:1007300013040500130504008320C1010324810173
:1007400083244101130101026780000013040500A6
:100750001306050093850400173504001305C5C86A
:10076000EF204257130504008320C10103248101B7
:100770008324410113010102678000009307C00236
:100780003305F5029727040083A787D783A70700BF
:100790003385A700130545006F0010539307000F22
:1007A00063EEC722130101ED232E311197290400B6
:1007B00083A949D22322911283A409002320211363
:1007C0002328611193D7F441232611122324811287
:1007D000232C4111232A5111232671112324811125
:1007E00023229111232C9100232EF100130B0600DC
:1007F000130905006306060013050102EFA0421568
:1008000037050080130B0B013369A900635E90125A
:10081000930B000013040000130A0000972A040041
:1008200083AA0ACE130C010183A70A001307140040
:1008300023288100B387770183A70700232A41017A
:10084000B33687006388071413040700338A460110
:10085000938BCB02E34A97FC6358900E930B0000F6
:1008600013040000130A0000930C0101173C04005C
:10087000130C8CBA6F00C0019307140033B78700C4
:10088000330A470113840700938BCB0263D6970486
:1008900083A70A0023288100232A4101B387770117
:1008A00083A70700E38A07FC13860C0093050B005F
:1008B00013050900EF1000206312050C83A4090042
:1008C0009307140033B78700330A470113840700E6
:1008D000938BCB02E3CE97FA63589006130A00007D
:1008E00013040000130C8100130BC100973B04009C
:1008F000938B8BB26F00C0001304140063569404F2
:1009000083A70A00B387470183A70700130ACA0217
:10091000E39407FE9305090013070C0093064000BB
:1009200013060B00130504002324010023260100F5
:10093000EFF05FD2832581006398050883A4090046
:1009400013041400E34E94FA8320C112032481128D
:1009500083244112032901128329C111032A811121
:10096000832A4111032B0111832BC110032C811009
:10097000832C4110130101136780000093050500CB
:100980001306040013050C00EF20C23483A40900F1
:100990006FF01FF31305040093060C0013060B0001
:1009A00093050900EFF09FD283A409009307140078
:1009B00033B78700330A470113840700938BCB02B8
:1009C000E3C497E66FF05FE91306040013850B009C
:1009D000EF20423083A409006FF09FF6678000008B
:1009E00083270502635CF01E130101FD232291029F
:1009F000232611022324810223202103232E3101E7
:100A0000232C4101232A510123286101930405006D
:100A10006398050E130400001309000093090100F8
:100A2000130A00176F00C006B386460303A747F8F2
:100A30009355F741B386D40003A6C60E03A5060F4F
:100A4000B306C70033B7E6003386A5003307C700F7
:100A500023A6D70E23A8E70E1306000193850900ED
:100A600037050080232481002326210123209100C3
:100A700023220100EFF09FD203A704029307140082
:100A8000B3B68700338926011384070063DCE702CD
:100A9000B3074403B387F40003A7C70E83A6070F69
:100AA0003367D700E31A07FA9306F4FFE31E04F650
:100AB00003A7440283A7840223A6E40E23A8F40E0E
:100AC0006FF09FF99727040083A7C7A283A70700A9
:100AD00083A707008320C1020324810283244102EB
:100AE000032901028329C101032A8101832A4101CB
:100AF000032B0101130500001301010367800000AF
:100B00001309450313040000130A000093090100B0
:100B1000930A0017173B0400130B8B926F00C0065B
:100B200003A7440283A7840223A6E40E23A8F40E9D
:100B30001305090093050000EF10401F1306050080
:100B40009305040013050B00EF20C21813060001E3
:100B50009385090037050080232481002326410165
:100B60002320910023220100EFF05FC303A70402BA
:100B700093071400B3B687001309091713840700FD
:100B8000338A4601E3D0E7F4B3075403B387F40094
:100B900003A7C70E83A6070F3367D700E31A07F82A
:100BA0001307F4FFE30E04F633075703032609F592
:100BB0001355F6413387E4008326C70E8325070FBC
:100BC0003387C600B336D7003386A500B386C60088
:100BD00023A6E70E23A8D70E6FF09FF597270400F2
:100BE00083A7479183A7070083A707001305000089
:100BF00067800000832885000326C500032E850139
:100C0000130F45033386C800330EC50113070000D8
:100C1000930E0017631406026F00000723AA6702F1
:100C200023AC0702832885000326C5003386C8004D
:100C300013071700938585006378C704931727006F
:100C4000B386C70103A8450083A705003383A740E7
:100C5000B3E70701E38E07FC83A70600B387FE0214
:100C6000B307FF00E36C17FB23AE670223A0070462
:100C7000832885000326C500130717009385850088
:100C80003386C800E36CC7FA6780000083278501BC
:100C90008326C5003307F50063ECB6028326850082
:100CA00093074503B385D50093952500B305B70099
:100CB00083A60500130700173307D702B387E700A1
:100CC0006388070083A7C7033305F500678000002A
:100CD0001305000067800000832785010327850036
:100CE000B307F5006368B70293952500B387B70093
:100CF00083A6070013070017930745033307D7029E
:100D0000B387E7006388070083A747033305F5002F
:100D100067800000130500006780000083278501BD
:100D200003278500B307F5006368B7029395250094
:100D3000B387B70083A6070013070017930745037F
:100D40003307D70213054000B387E7006388070025
:100D500003A547006780000013054000678000007E
:100D6000832785018326C5003307F50063ECB602AF
:100D7000832685009307450313054000B385D500FE
:100D800093952500B305B70083A605001307001748
:100D90003307D702B387E7006388070003A58700FE
:100DA00067800000130540006780000083278501ED
:100DB00003278500B307F5006366B7029395250006
:100DC000B387B70003A70700930700171305450370
:100DD000B387E7023305F5006306050003254501E7
:100DE000678000001305F0FF6780000083278501FE
:100DF0000327C500B307F500636AB7020327850020
:100E000013054503B385E50093952500B387B70027
:100E100003A7070093070017B387E7023305F50020
:100E20006306050003258501678000001305F0FFB8
:100E300067800000832785010327C500B307F500FD
:100E40006366B70203278500B385E5009395250007
:100E5000B387B70083A7070013070017B387E7021C
:100E60003305F5000325050C678000008327C008C3
:100E70007300100003270503B717BE1A9387D71E08
:100E80006312F708130101FE232C8100232E1100A9
:100E9000232A910023282101232631012324410103
:100EA0008325050037866481130646261304050052
:100EB000639CC51CB717000083A7878203274500E2
:100EC0001305900093D7870093F7F70F631CF70083
:100ED0008327C40E0327040F13050000B3E7E700C0
:100EE000638607028320C101032481018324410119
:100EF000032901018329C100032A81001301010292
:100F0000678000001305700067800000171A040056
:100F1000032A0A6283270A0003A7C71503A68705C9
:100F200093064701939626001307170023AEE71494
:100F3000B387D70023A6C70083244402EF00922979
:100F400093050500B3099400930405000325C4022A
:100F5000EFF00FC11309050013850400EF00921D87
:100F60009718040083A8085983A7080013072000D6
:100F70009716040083A6065C23A0E70023A297002F
:100F80001307100003A8060023A4E70023A6E70028
:100F90006374F812370701001307471C23A0E7000A
:100FA00023A2070023A4070023A6A7001713040009
:100FB000032303512320030023A0F800634A901861
:100FC000378701001307170023A0E70023A20700BB
:100FD00023A4270123A607003707010023A0E70069
:100FE00023A2970023A4070023A6070037070400C5
:100FF00023A0E70023A2370123A4A70023A697007C
:101000002320030023A0F800B38424030327C40291
:10101000330797406302070223A00700B3849900B7
:1010200023A2970023A4A70023A6E7006378F8165D
:101030002320030023A0F80083A7080083A707004C
:1010400003270A008320C101032481018326C715D9
:1010500083244101032901019387360193972700D7
:10106000B307F70083A7C7009386F6FF232ED71494
:10107000232CF7048329C100032A810013050000F3
:101080001301010267800000172504001305453C89
:10109000EF1052448320C1010324810183244101C4
:1010A000032901018329C100032A8100130580005F
:1010B000130101026780000017130400032343405B
:1010C00003260300B70601009385461C131726006C
:1010D000B387E70023A0B70023A2070023A40700DB
:1010E00023A6A700E368F8ECB387E70023A0F80085
:1010F00063429006378601001306160023A0C7003E
:1011000023A2070023A4270123A60700E366F8EC27
:10111000B387E70023A0D70023A2970023A40700EA
:1011200023A60700E364F8ECB387E700B7060400E2
:1011300023A0D70023A2370123A4A70023A697004A
:10114000E360F8ECB387E70023A0F8006FF0DFEB73
:1011500013060000E35A20EB93860900130E0000EB
:10116000130700006F004001B387B7001307170093
:10117000B3869600630EE90223A0070023A2D700DE
:1011800023A4A70023A6970093152600E37EF8FC6E
:10119000130E1000130600006FF05FFD032703001D
:1011A00013172700B387E70023A0F8006FF0DFE8EC
:1011B00023A0F800E30A0EE42320C3006FF0DFE46D
:1011C0003306B640930716FF1306160033B6C70062
:1011D0001306F6FF1316F60193D71700B367F60050
:1011E0001387F7FF93870501130101FB3388E7009D
:1011F000138E4500138385009388C5002326810440
:10120000232491042322210523203105232E410389
:10121000232C5103232A61032328710323268103EE
:10122000232491032322A1032320B10313061800D2
:101230002300D5003307E60093DD850013DD0501AB
:1012400093DC8501135C8E00935B0E01135B8E01B2
:10125000935A8300135A03019359830113D98800C9
:1012600093D4080113D4880193D3870093D2070144
:1012700093DF8701135F8800638E06109356080181
:101280002324D100A302F50083278100935688010F
:101290002326D100935686002328D100A305F5000C
:1012A000935606018327C100232AD1009356860155
:1012B000232CD10093568700232ED1002306F5005E
:1012C000A306B5002307B501A307A50123089501CF
:1012D000A308C50123098501A3097501230A650136
:1012E000A30E6500230F5501A30F4501230035030D
:1012F000A300150323012503A30195022302850200
:1013000023037500A30355002304F501A30405017D
:101310002305E501A30AC5008327010193560701B0
:10132000935E8701230BF50083274101A30CE500A1
:10133000A30DD500A30BF50083278101230ED50152
:10134000230CF5008327C101230DF50023A0050020
:1013500023A2050023A4050023A605000324C1043D
:10136000832481040329410483290104032AC1033E
:10137000832A8103032B4103832B0103032CC10226
:10138000832C8102032D4102832D010213010105EB
:1013900067800000935608012324D100A30AF500BA
:1013A00083278100935688012326D1009356860017
:1013B0002328D100A30DF500935606018327C10011
:1013C000232AD10093568601232CD10093568700FF
:1013D000232ED100230EF500A30EB500230FB50177
:1013E000A30FA50123009503A300C50323018503D3
:1013F000A301750323026503A306650023075501B6
:10140000A307450123083501A30815012309250178
:10141000A3099500230A8500230B7500A30B550033
:10142000230CF501A30C0501230DE501A302C50062
:101430008327010193560701935E87012303F5007B
:1014400083274101A304E500A305D500A303F5000C
:10145000832781012306D5012304F5008327C101D9
:101460002305F5006FF09FEF032785008347C50034
:10147000032545009356870093978701B3E7D7006C
:101480001317870113558500938797FF3365A700CE
:101490003385A74067800000032785018347C50186
:1014A000032545019356870093978701B3E7D7003B
:1014B0001317870113558500938797FF3365A7009E
:1014C0003385A74067800000130101FD23248102BA
:1014D0002322910223202103232E310123261102EE
:1014E0001309060013040500938905009384060080
:1014F000EFF09FF7636025190327C40083470401B9
:101500000F00F00F1357870093978701B3E7E700A9
:1015100003A607000F00F00F8326040103474401D0
:101520000F00F00F93D68600131787013367D7009B
:10153000832707000F00F00F0F00F00F3387C7401D
:101540006368F600130785003307F7003307C740C9
:1015500093068900130510006360D71083274400A9
:10156000034784001305810093D6870093178701F2
:10157000B3E7D700B387C700232431012326210115
:10158000130601010F00F00F034705002380E70059
:101590000F00F00F832584000347C40093871700D2
:1015A00093D68500131787013367D70013051500FD
:1015B000939585016378F7008327440093D78700CC
:1015C000B3E7F500E310A6FC630809049386040062
:1015D000338624010F00F00F03C706002380E700C5
:1015E0000F00F00F832584000347C4009387170082
:1015F00013D58500131787013367A700938616005C
:10160000939585016378F7008327440093D787007B
:10161000B3E7F500E390C6FC0F00F00F832544000C
:10162000834684000326C4000347040193D5850044
:101630009396860113568600B3E6B600131787010A
:101640003367C700B387D7400F00F00F2320F700A0
:101650000F00F00F130500008320C1020324810254
:1016600083244102032901028329C10113010103DB
:10167000678000008320C102032481028324410289
:10168000032901028329C10113053000130101035D
:1016900067800000130101FE232C8100232A9100A2
:1016A000232821012326310123244101232E110067
:1016B000130A0500938905001309060093840600A8
:1016C0001304100093860400130609009385090093
:1016D00013050A00EFF05FDFE30685FE8320C101FA
:1016E0000324810183244101032901018329C100CD
:1016F000032A81001301010267800000130101FD2C
:101700002324810223229102232021039304050034
:10171000232E3101232C410123261102130A070035
:10172000938905001309060013840600EFF0DFD645
:1017300003A7040283C744020F00F00F135787006A
:1017400093978701B3E7E70003A607000F00F00FA8
:1017500083A6C40103C704020F00F00F93D68600CE
:10176000131787013367D700032E07000F00F00F10
:101770000F00F00F6376CE00330EC501130E8E00FE
:10178000330ECE401305200063020E1C9307700039
:101790001305600063FCC71B03A7440183C78401D2
:1017A000930881001357870093978701B3E7E700F9
:1017B00023240100B387C70023260100130701017A
:1017C0000F00F00F03C307000F00F00F03A8840100
:1017D00003C5C401238068001353880013158501D5
:1017E00093871700336565009388180013188801E4
:1017F0006378F50083A7440193D78700B367F800A7
:10180000E390E8FC23A009002320090003A70900B6
:10181000034681000345C100834691003367C7003A
:1018200023A0E90083250900139686000347D10011
:10183000B3E6A5002320D90083A60900131587006D
:101840000347A100B3E6C60023A0D9008325090001
:10185000131607018346E10033E7A5002320E900C2
:1018600003A70900139506018346B1003367C7003B
:1018700023A0E90083250900139686010347F100A0
:10188000B3E6A5002320D90083A60900131787011A
:1018900013055000B3E6C60023A0D9008326090033
:1018A0003367D7002320E900930687006360DE0AD0
:1018B00013054000636CE408630A07041305000085
:1018C0000F00F00F83C607000F00F00F3307AA00C8
:1018D0002300D70083A5840183C6C4019387170022
:1018E00013D7850093968601B3E6E600130515002D
:1018F0009395850163F8F60083A7440193D7870089
:10190000B3E7F50083260900E36CD5FA0F00F00F6A
:1019100083A5440183C6840103A6040203C74402CD
:1019200093D585009396860113568600B3E6B600DC
:10193000131787013367C700B387D7400F00F00F35
:101940002320F7000F00F00F130500008320C102D1
:101950000324810283244102032901028329C10156
:10196000032A81011301010367800000130101FEB6
:10197000232C8100232A91002328210123263101D1
:101980002324410123225101232E1100930A050033
:10199000138A0500930906001389060093040700C3
:1019A000130420001387040093060900138609001E
:1019B00093050A0013850A00EFF05FD4E30485FE67
:1019C0008320C101032481018324410103290101F2
:1019D0008329C100032A8100832A410013010102E7
:1019E00067800000130101FE232C8100232A91004F
:1019F000232E11009307F0011304050093840600C1
:101A000063C8A70693162500938701D8B387D7002C
:101A100083A70700638E07041387050003250600CC
:101A20008325860093060601130607FFE78007005B
:101A30002326A1009306C10013064000930504006D
:101A400013850400EFF01FC5630C05049305050022
:101A500017250400130585A6EF1090158320C101FA
:101A600003248101832441011301010267800000E6
:101A70009305040017250400130505A1EF1050136A
:101A80009307F0FF9306C10013064000930504007E
:101A9000138504002326F100EFF0DFBFE31805FAF9
:101AA0008320C10103248101832441011301010228
:101AB000678000009307F00163C8A7029316250012
:101AC000938701D8B387D70003A30700630E0300F1
:101AD000138705000325060083258600930606016B
:101AE000130607FF67000300130101FF93050500BC
:101AF000172504001305459923261100EF10821DB8
:101B00008320C1001305F0FF13010101678000006D
:101B100013151500135515009307000263C6A7029D
:101B2000938701D8131525003385A7008327050067
:101B3000639807002320B5001305000067800000AC
:101B40001305F0FF678000001305E0FF67800000C9
:101B50001305F5FF9357150033E5A70093572500AC
:101B6000B3E7A70013D54700B367F50013D5870087
:101B70003365F5009357050133E5A70013051500FC
:101B8000678000009357150033E5A70093572500A1
:101B900033E5A70093574500B3E7A70013D58700A7
:101BA0003365F50093570501B3E7A70013D5170078
:101BB0003385A74067800000832705001307600274
:101BC0006360F716138701E093972700B387E70058
:101BD00083A70700B387E700678007001725040085
:101BE000130585916780000017250400130585A45F
:101BF0006780000017250400130545A367800000D7
:101C0000172504001305C5A16780000017250400EF
:101C1000130545A067800000172504001305C59E25
:101C200067800000172504001305459D67800000AC
:101C3000172504001305C59B6780000017250400C5
:101C40001305459A67800000172504001305859841
:101C500067800000172504001305059767800000C2
:101C600017250400130585956780000017250400DB
:101C7000130505946780000017250400130585925D
:101C80006780000017250400130505916780000098
:101C9000172504001305C58F678000001725040071
:101CA0001305058E67800000172504001305458C79
:101CB00067800000172504001305C58A67800000AF
:101CC00017250400130545896780000017250400C7
:101CD0001305C587678000001725040013050586D6
:101CE00067800000172504001305858467800000C5
:101CF00017250400130505836780000017250400DD
:101D000013058581678000001725040013050580F1
:101D100067800000172504001305459267800000C6
:101D2000171504001305457C678000008327050014
:101D3000130790006362F7101387C1E99397270098
:101D4000B387E70083A70700B387E7006780070032
:101D50001725040013050596638C050E67800000A7
:101D60001725040013050594E39A05FE17250400C2
:101D70001305C59267800000172504001305459CD4
:101D8000E39E05FC172504001305458D67800000C0
:101D9000172504001305C599E39205FC17250400D7
:101DA0001305458C6780000017250400130545972F
:101DB000E39605FA172504001305458B678000009C
:101DC0001725040013058594E39A05F817250400E8
:101DD0001305058A67800000172504001305059286
:101DE000E39E05F6172504001305C58867800000EB
:101DF000172504001305458FE39205F61725040007
:101E00001305858767800000172504001305858C5E
:101E1000E39605F4172504001305C58667800000C6
:101E2000172504001305058AE39A05F21725040017
:101E30001305C58567800000172504001305C580BC
:101E4000E39E05F0172504001305859067800000C8
:101E5000172504001305058467800000130101FFA6
:101E60002324810013040500172504001305C58EE3
:101E700023261100EF00527F8326440003268400AE
:101E80008325C400172504001305858DEF00926497
:101E90000326440183250401172504001305C58D7D
:101EA000EF005263032604028325C401032481004A
:101EB0008320C100172504001305058D13010101BE
:101EC0006F005261B7170000138F976A6378BF0CD9
:101ED000938EA76A37FEFFFF378380803306D501D4
:101EE0001307000093070000130E6E9513031308E9
:101EF0003305C601130515008346F5FFB387D700E8
:101F00003307F700E318C5FE33B86702B385C50190
:101F10003306D501B336670213587800931888004A
:101F200033880841B387074193D67600139886001B
:101F3000B306D8403307D740E36CBFFA6386050485
:101F4000B305B500130515008346F5FFB387D70029
:101F50003307F700E318B5FEB7868080938616082E
:101F600033B6D702B336D7021356760093158600E0
:101F70003386C540B387C74093D676001396860054
:101F8000B306D6403307D74013178700B367F7006F
:101F90001395070113550501678000001307000022
:101FA000930700006FF09FF99307701663F2B70C68
:101FB000378300801306052D1307000093070000E8
:101FC00013031300130E7016130506D31305250013
:101FD0008356E5FFB387D7003307F700E318C5FE44
:101FE00033B86702938585E91306052DB33667027A
:101FF0001358F8009318080133880841B387074144
:1020000093D6F60013980601B306D8403307D7409D
:10201000E36CBEFA6388050493961500B306D500F9
:10202000130525000356E5FFB387C7003307F70004
:10203000E398A6FEB78600809386160033B6D702D3
:10204000B336D7021356F600931506013386C54002
:10205000B387C74093D6F60013960601B306D64061
:102060003307D740131707013365F7006780000077
:1020700013070000930700006FF0DFF9130101FA66
:1020800023206105232A9103232E1104232C81048C
:10209000232A9104232821052326310523244105E1
:1020A00023225105232E7103232C81032328A1030E
:1020B0002326B103232CB10023261101938C0600A3
:1020C000138B060063C4F600138B0700130C070084
:1020D0006354E600130C06009707040083A78741AA
:1020E00083A7070083A70700832781016352F00EAF
:1020F000B3079603130D1000331D0D0123280100B3
:10210000971B0400938B4B6B971A0400938ACA6940
:10211000232EF100B3076501232AF1008325010175
:102120001715040013058567130A0000EF00923AA3
:102130000324410163588007635C600513050D00AB
:10214000EFE0931B8327C100130905009389050065
:10215000639E070AB304644183CD04009384140092
:1021600013850D00EFE0531913060900938609004B
:10217000EF108310EF00440293050000EFF0833E60
:1021800093850D0013850A00EF00D234E31694FC0A
:102190001305A000130A1A00EFD0436E3304940114
:1021A000E31C8AF9832701011305A000138417009B
:1021B00023288100EFD0836C832741010327C101CD
:1021C000B387E700232AF10083278101E39887F48E
:1021D0008320C105032481058324410503290105CA
:1021E0008329C104032A8104832A4104032B0104A7
:1021F000832BC103032C8103832C4103032D010393
:10220000832DC1021301010667800000B30D6441F4
:102210006F00400213850400EFF0136813060500F9
:102220009386050013850B00EF00D22A938D1D00C5
:10223000E3808DF603C50D00EFE0130C13060900D3
:1022400093860900EF104303EFF013759305000028
:1022500093040500EFF00331E35E05FA13850400F3
:10226000EFF093631306050093860500171504002D
:1022700013050554EF0012266FF05FFB130101FAFE
:1022800023206105232A9103232E1104232C81048A
:10229000232A9104232821052326310523244105DF
:1022A00023225105232E7103232C81032328A1030C
:1022B0002326B103232CB10023261101938C0600A1
:1022C000138B060063C4F600138B0700130C070082
:1022D0006354E600130C06009707040083A78721C8
:1022E00083A7070083A70700832781016352F00EAD
:1022F000B3079603130D1000331D0D0123280100B1
:10230000971B0400938B4B4B971A0400938ACA497E
:10231000232EF100B3076501232AF1008325010173
:102320001715040013058547130A0000EF00921AE1
:102330000324410163588007635C600513050D00A9
:10234000EFE0837B8327C100130905009389050013
:10235000639E070AB3046441838D040093841400D0
:1023600013850D00EFE043791306090093860900F9
:10237000EF009370EFF0536293050000EFF0831EBF
:1023800093850D0013850A00EF00D214E39684FCB8
:102390001305A000130A1A00EFD0434E3304940132
:1023A000E31C8AF9832701011305A0001384170099
:1023B00023288100EFD0834C832741010327C101EB
:1023C000B387E700232AF10083278101E39887F48C
:1023D0008320C105032481058324410503290105C8
:1023E0008329C104032A8104832A4104032B0104A5
:1023F000832BC103032C8103832C4103032D010391
:10240000832DC1021301010667800000B30D6441F2
:102410006F00400213850400EFF013481306050017
:102420009386050013850B00EF00D20A938D1D00E3
:10243000E3808DF603850D00EFE0036C13060900C1
:1024400093860900EF005363EFF0135593050000E6
:1024500093040500EFF00311E35E05FA1385040011
:10246000EFF093431306050093860500171504004B
:1024700013050534EF0012066FF05FFB170304002D
:102480000323430703230300032303006356B01E03
:10249000130101FA232C8103139C1600232A9103B4
:1024A000938C0700B3078603232E7103930B070059
:1024B000130710002328A10333170701330D9041A0
:1024C0002322510523206105232E1104232CF10022
:1024D00093971C00B307F500232C8104232A910451
:1024E0002328210523263105232441052326B10372
:1024F00023261101232EB1002324E100232AF10019
:10250000131D1D0023280100171B0400130B4B2C67
:10251000971A0400938ACA2A83250101171504001B
:102520001305C527130A0000EF00C27A03244101F6
:1025300063587007635C900503258100EFE0C35B7F
:102540008327C1001309050093890500639E070ACC
:10255000B304A401839D04009384240013850D001B
:10256000EFE083591306090093860900EF00D3506A
:10257000EFF0934293050000EFE0D37E93850D00CA
:1025800013850A00EF000275E39684FC1305A00092
:10259000130A1A00EFD0832E33048401E39C4BF915
:1025A000832701011305A00013841700232881004D
:1025B000EFD0C32C8327410103278101B387E700B4
:1025C000232AF1008327C101E39887F48320C10502
:1025D0000324810583244105032901058329C104BE
:1025E000032A8104832A4104032B0104832BC103A2
:1025F000032C8103832C4103032D0103832DC1028E
:102600001301010667800000B30DA4016F004002B2
:1026100013850400EFF05328130605009386050088
:1026200013050B00EF00026B938D2D00E3808DF6F8
:1026300003950D00EFE0434C130609009386090053
:10264000EF009343EFF0533593050000930405002A
:10265000EFE05371E35E05FA13850400EFF0D32336
:102660001306050093860500171504001305C5150C
:10267000EF0042666FF05FFB67800000130101F915
:102680002326710523261106232481062322910681
:1026900023202107232E3105232C4105232A510510
:1026A0002328610523248105232291052320A105E8
:1026B000232EB103832B410717030400032383E375
:1026C0000323030003230300635CC018232AE100F3
:1026D0003387E6022328F100B385A540B30705013F
:1026E0002322F102B3870541232CF100B7070080B4
:1026F000232601012326C1022324E102130710002F
:1027000033171701232EE10023200102B3CD7701F7
:10271000832501021715040013054508130C00005A
:10272000EF00425B83270101032A4102971C04004A
:10273000938C0C0B6350F0108327C100635EF00C88
:102740000325C101EFE0433B832701071304050084
:1027500093840500639E07148327C1003309FA4060
:1027600083278101B38947016F00400213850D0063
:10277000EFE09353634CA00613850C00EF008255E5
:10278000130919009389190063084909030D090009
:10279000038B090013050D00EFE003361306040058
:1027A00093860400EF00532DEFF0131F930A0500EA
:1027B00013050B00EFE04334130604009386040076
:1027C000EF00932BEFF0531D9305050013850A00CE
:1027D000EFF0C32093050500930A050013850B0055
:1027E000EFE0535893850A00E35205F89305000083
:1027F00013850A00EFE01357B3056D416340050AE6
:1028000017150400130545FD13091900EF00824C4C
:1028100093891900E31C49F71305A000EFD00306C4
:1028200083274101130C1C00330AFA00832701019E
:10283000E39487F1832701021305A0001384170096
:1028400023208102EFD083038327410203278102E3
:10285000B387E7002322F1028327C102E39A87EAC4
:102860008320C1060324810683244106032901062F
:102870008329C105032A8105832A4105032B01050C
:10288000832BC104032C8104832C4104032D0104F8
:10289000832DC1031301010767800000B3056D415B
:1028A00017150400130545F0EF00C2426FF05FED0D
:1028B0008327C1003309FA4083278101B389470187
:1028C0006F00400213850A00EFE0D3496346050616
:1028D00013850C00EF0002401309190093891900B9
:1028E000E30C2AF303050900EFE0032113060400BB
:1028F00093860400EF005318EFF0130A930A0500C3
:1029000003850900EFE0431F1306040093860400CB
:10291000EF009316EFF053089305050013850A00A6
:10292000EFF0C30B93850B00930A0500EFE0D3375C
:1029300093850D00E358A0F89305000013850A0065
:10294000EFE053426342050213850A00EFF0C374BF
:102950001306050093860500171504001305C5E549
:10296000EF0042376FF05FF713850A00EFF0C37294
:10297000130605009386050017150400130545E3AB
:10298000EF0042356FF05FF5130101F92326710561
:1029900023261106232481062322910623202107C2
:1029A000232E3105232C4105232A510523286105B7
:1029B00023248105232291052320A105232EB10381
:1029C000832B4107170304000323C3B2032303002F
:1029D000032303006350C01A131717002326E100D6
:1029E0003387E602938C0700B3060041B385A54008
:1029F0002326C102130610003316160123280101F5
:102A0000232EC100232001022324E1021317180002
:102A1000B307A7002322F10293971600232CF1009D
:102A2000B387E540232AF100B7070080B3CD7701D3
:102A30008325010217150400130545D6130C000069
:102A4000EF004229032A41026350901183270101BC
:102A50006350F00E0325C101EFE0030A832701074D
:102A60001304050093840500639E071483278101E6
:102A70003309FA0083274101B309FA006F0080028D
:102A800013850D00EFE05322634EA00617150400D6
:102A9000130505D6EF0002241309290093892900A4
:102AA00063084909031D0900039B090013050D0074
:102AB000EFE083041306040093860400EF00C37B59
:102AC000EFF0836D930A050013050B00EFE0C302DE
:102AD0001306040093860400EF00037AEFF0C36B43
:102AE0009305050013850A00EFE0536F9305050079
:102AF000930A050013850B00EFE0D32693850A00A7
:102B0000E35005F89305000013850A00EFE09325D4
:102B1000B3056D41634E0508171504001305C5CCB8
:102B200013092900EF00021B93892900E31C49F7D0
:102B30001305A000EFC093548327C100130C1C00A1
:102B4000330AFA00E3948CF1832701021305A000F5
:102B50001384170023208102EFC0535283274102C0
:102B600003278102B387E7002322F1028327C102F2
:102B7000E39087EC8320C106032481068324410669
:102B8000032901068329C105032A8105832A4105FA
:102B9000032B0105832BC104032C8104832C4104E6
:102BA000032D0104832DC103130101076780000079
:102BB000B3056D4117150400130585C0EF008211A0
:102BC0006FF09FED832781013309FA0083274101CC
:102BD000B309FA006F00800213850A00EFE0931832
:102BE0006348050617150400130585BFEF00820E24
:102BF0001309290093892900E30C49F303150900FF
:102C0000EFD0936F1306040093860400EF00C366B1
:102C1000EFF08358930A050003950900EFD0D36DB8
:102C20001306040093860400EF000365EFF0C3561B
:102C30009305050013850A00EFE0535A93850B00B6
:102C4000930A0500EFE0530693850D00E356A0F8C4
:102C50009305000013850A00EFE0D31063420502DC
:102C600013850A00EFF04343130605009386050021
:102C7000171504001305C5B5EF00C2056FF05FF727
:102C800013850A00EFF04341130605009386050003
:102C900017150400130545B3EF00C2036FF05FF58D
:102CA0001703040003230385032303000323030006
:102CB000635EC030130101FA23206105130B070086
:102CC000B38666032328A103232EC100138D0700BA
:102CD00013061000B38705013316160133070501EB
:102CE0002328F100232E7103232CD100B386A540A5
:102CF000B3870641232A9103232E1104232C810438
:102D0000232A910423282105232631052324410564
:102D100023225105232C81032326B103930B0800A2
:102D20002322C1002326E100232A0100971C04006E
:102D3000938C8CA82324F1008325410117150400EE
:102D40001305C5A5EFF01179232001000329010126
:102D50008329C100930A0000171C0400130CCCA7A0
:102D6000635EA0096350700903254100EFD0D3587A
:102D7000832701001304050093840500638E070870
:102D8000832701066398070E83278100338A370162
:102D90006F00400113050C00130A1A00EFF0917345
:102DA00063024905830D0A0013850D00EFD0D3544B
:102DB0001306040093860400EF00034CEFF0C33DBC
:102DC00093050000EFE0037A93850D00E35405FCC2
:102DD000171504001305459D130A1A00EFF0916FB3
:102DE000E31249FD1305A000938A1A00EFC01329CE
:102DF000B389690133096901E3165DF71305A00082
:102E0000EFC0D327832701006398071493071000AE
:102E10002320F1006FF09FF3832701066396070CD0
:102E2000338A79416F00400113050C00EFF0916A7D
:102E3000130A1A00E38849FB830D0A0013850D006D
:102E4000EFD0934B1306040093860400EF00C342B7
:102E5000EFF0833493050000EFE0C37093850D001D
:102E6000E35405FC1715040013050594EFF0916673
:102E70006FF01FFC83278100B38D37016F00400284
:102E800013050A00EFF043211306050093860500A1
:102E900013850C00EFF01164938D1D00E3842DF574
:102EA00003850D00EFD053451306040093860400FC
:102EB000EF00833CEFF0432E93050000130A05005A
:102EC000EFE0436AE35E05FA13050A00EFF0C31C66
:102ED0001306050093860500171504001305458D9C
:102EE000EFF0515F6FF05FFBB38D79416F004002EF
:102EF00013050A00EFF0431A130605009386050038
:102F000013850C00EFF0115D938D1D00E38CB9ED7E
:102F100003850D00EFD0533E130604009386040092
:102F2000EF008335EFF0432793050000130A0500F7
:102F3000EFE04363E35E05FA13050A00EFF0C31503
:102F40001306050093860500171504001305458632
:102F5000EFF051586FF05FFB832741011305A0008C
:102F600013841700232A8100EFC053110327C100E7
:102F7000832781013307F7002326E100032701019E
:102F8000B307F7002328F1008327C101E39687DA0E
:102F90008320C105032481058324410503290105FC
:102FA0008329C104032A8104832A4104032B0104D9
:102FB000832BC103032C8103832C4103032D0103C5
:102FC000832DC102130101066780000067800000A5
:102FD00017F3030003230352032303000323030017
:102FE000635EC030130101FA23206105131B170033
:102FF000232A9103938C0700B3876603930610007E
:10300000B3961601330700412322D100232C8103FC
:10301000232E1104232C8104232A91042328210523
:10302000232CF10093171800B306F500B387F500C1
:103030002328F10093171700232631052324410587
:1030400023225105232E71032328A1032326B10334
:1030500023200101232EC1002326D1002324F100C7
:10306000232A0100170C0400130C8C7683254101E0
:103070001705040013058572130D0000EFF091454C
:10308000970B0400938B4B76032901018329C10020
:10309000930A0000635E900983270100635EF006D7
:1030A00003254100EFD05325130405009384050048
:1030B0008327010663080D086394070E83278100A8
:1030C000330AF9006F00400113850B00130A2A0030
:1030D000EFF0514063022A05831D0A0013850D009D
:1030E000EFD093211306040093860400EF00C31869
:1030F000EFF0830A93050000EFE0C34693850D00CF
:10310000E35405FC170504001305856B130A2A0018
:10311000EFF0513CE3122AFD1305A000938A1A0038
:10312000EFC0C375B389690133096901E3965CF7A0
:103130001305A000EFC0837463180D14130D100065
:103140006FF09FF46398070C83278100338AF9009E
:103150006F00400113850B00EFF0D137130A2A00EE
:10316000E30C3AFB831D0A0013850D00EFD0D31842
:103170001306040093860400EF000310EFF0C30170
:1031800093050000EFE0033E93850D00E35405FC3A
:10319000170504001305C562EFF0D1336FF01FFC73
:1031A00083278100B30DF9006F00400213050A0068
:1031B000EFE0936E130605009386050013050C00DF
:1031C000EFF05131938D2D00E3882DF503950D001F
:1031D000EFD093121306040093860400EF00C30996
:1031E000EFE0937B93050000130A0500EFE08337BF
:1031F000E35E05FA13050A00EFE0136A1306050003
:1032000093860500170504001305055CEFF0912C6B
:103210006FF05FFB83278100B38DF9006F004002E0
:1032200013050A00EFE053671306050093860500B7
:1032300013050C00EFF0112A938D2D00E38E3DED68
:1032400003950D00EFD0530B130604009386040082
:10325000EF008302EFE0537493050000130A0500AA
:10326000EFE04330E35E05FA13050A00EFE0D362B6
:103270001306050093860500170504001305C554C1
:10328000EFF051256FF05FFB832741011305A0008C
:1032900013841700232A8100EFC0435E0327C10077
:1032A000832781013307F7002326E100032701016B
:1032B000B307F7002328F1008327C101E39887DAD9
:1032C0008320C105032481058324410503290105C9
:1032D0008329C104032A8104832A4104032B0104A6
:1032E000832BC103032C8103832C4103032D010392
:1032F000832DC10213010106678000006780000072
:10330000130101FE232E1100232C8100232A91009A
:103310002328210123263101930700016310F606BB
:1033200083A786001304001703A90600B307F4025D
:103330009304050013044903938905003304F40042
:1033400003250400EF0000509305040003248101CD
:103350008320C10113030500138714009386040022
:1033600013860900832441018329C1001305090044
:10337000032901011301010267000300170504007E
:103380001305854793060001938541ECEF00400249
:103390008320C10103248101832441010329010108
:1033A0008329C1001305F0FF1301010267800000AB
:1033B000130101FB232611022324810223229102FF
:1033C000232021032326110523240105232ED102C6
:1033D0002320E1042322F104232AB102232CC10279
:1033E00013090500EFF09129970704009387C7435D
:1033F00083A5070003A6470083A6870003D7C7005D
:1034000083C7E70093040500130595012328B10045
:10341000232AC100232CD100231EE100230FF10039
:10342000EFC0C34283264101032781010328010124
:103430008357C10113040500138614009305090086
:103440001305E500232004012322D4002324E400F3
:103450002316F400EF70C24F9307410393850700D2
:10346000130504002326F100EFC083441305040074
:10347000EFC0033F8320C102032481028324410261
:10348000032901021301010567800000130101FBFC
:1034900023248104130481003306B5009306000041
:1034A000930505001305040023261104232291042B
:1034B00023202105232E3103232C4103232A5103EA
:1034C00023286103EFD0DFCF13050400EFD0DFF92D
:1034D000EFC0C3379727040023A4A7D41305040023
:1034E000EFD09FFBEFC083369727040023ACA7D211
:1034F000972404009384C4D2130A41009309010065
:10350000970A0400938A0A3A170B0400130BCB3670
:103510001709040013094932130504002320010090
:1035200023220100EFD05FF703A744009385090031
:103530009306050013060A0013050400EFE00FC30D
:10354000930705009305050013050900638A07002A
:103550008326410003260100EFF09FE56FF0DFFBBB
:103560008327010063C207041306000093051000BF
:10357000130504006390070283A60400EFE08F9117
:10358000E30C05F89305050013050B00EFF05FE26F
:103590006FF09FF8032641009385070013850A000A
:1035A000EFF01FE16FF05FF703A7040003A64400EC
:1035B000832541009306040013850700EFE08FC2C6
:1035C0006FF09FF583A6C50283A7050103A305003D
:1035D000032805043386F60203A7050317F5030045
:1035E000032545F18327050083A84502330707011A
:1035F0001308100023A0070117F80300032888F31D
:1036000003280800B38666023307C70023A2E70039
:1036100023A4170117F70300032787EA23A6D7007F
:103620006366F8020327070083A6C5011317270066
:10363000B387E70003A705022320F50023A0D502E6
:1036400023AEE500130500006780000083A6C501D6
:103650002320070003A705022320F50023A0D5029D
:1036600023AEE50013050000678000009307700299
:1036700063E6A71C138781ED131525003305E500CC
:1036800083270500B387E7006780070017F503006D
:103690000325C5EA6780000017F503000325C5E090
:1036A0006780000017F50300032545EC67800000E4
:1036B00017F50300032505EB6780000017F50300ED
:1036C000032505E66780000017F50300032545E2A2
:1036D0006780000017F50300032585DA6780000086
:1036E00017F50300032585DC6780000017F503004C
:1036F000032585DE6780000017F50300032545DB01
:103700006780000017F503000325C5D76780000018
:1037100017F50300032505E66780000017F5030091
:10372000032585E16780000017F50300032545D4D4
:103730006780000017F503000325C5E067800000DF
:1037400017F50300032545D56780000017F5030032
:10375000032505D96780000017F50300032585E2DE
:103760006780000017F50300032585DD67800000F2
:1037700017F50300032585DA6780000017F50300BD
:10378000032585D36780000017F503000325C5DCFA
:103790006780000017F50300032505DE6780000041
:1037A00017F50300032505D86780000017F503000F
:1037B000032545D66780000017F503000325C5D40F
:1037C0006780000017F50300032545D367800000DC
:1037D00017F503000325C5D36780000017F5030024
:1037E0000325C5D96780000017F50300032585D19F
:1037F0006780000017F50300032505CF67800000F0
:1038000017F503000325C5D66780000017F50300F0
:10381000032505D56780000017F503000325C5CAF9
:103820006780000017F50300032585C76780000047
:1038300017F50300032585C367800000130500000A
:10384000678000009307900063EAA708138781F759
:10385000131525003305E50083270500B387E7002E
:103860006780070017F50300032585CE67800000F9
:1038700017F50300032585C16780000017F50300D5
:10388000032545C66780000017F503000325C5C65C
:103890006780000017F50300032505CD6780000051
:1038A00017F50300032505C06780000017F5030026
:1038B0000325C5BE6780000017F50300032505C07A
:1038C0006780000017F50300032505C86780000026
:1038D00017F50300032545C46780000013050000A9
:1038E000678000000328060003A3060083A84600A3
:1038F0009307F8FF13D7F7013307F7009357F80141
:10390000B3870701135717403307670293D7174050
:10391000032846009306F8FF13D6F6013306D600B7
:103920009356F801B3860601B38767021356164013
:1039300093D616403307B702330616033385A50224
:103940003307C700B387B7023305E540B3861603D4
:10395000B387D7003305F54067800000130101FDF0
:10396000232E310183294700232C4101032A07001C
:103970009387F9FFB387B700232481029385090059
:103980001304050013850700232611022322910248
:1039900023202103232A51012328610123267101B9
:1039A000232481011309060093840600EFC05F9B66
:1039B000130B0500032C09001305FAFF93050A00F9
:1039C00033058500EFC0DF991307FCFF9357F7011C
:1039D000B387E70003A40400B30A650393050A0054
:1039E00013D51740EFC0DF97832B490003A944008C
:1039F000938509001387FBFF9357F701B387E7000F
:103A0000B304850213D51740EFC09F959357FC016F
:103A1000B387870193050A003307250313D51740A1
:103A2000B3846403B384E400EFC09F93330485023E
:103A300013D5FB0133057501938509001355154016
:103A4000EFC01F928320C102B3849A408329C10131
:103A5000032A810133046403832A4101032B0101FA
:103A6000832BC100032C81003305250303290102A8
:103A70003305A400032481023385A440832441023A
:103A80001301010367800000032348000328080096
:103A9000130101F7832E0109130E08002322910759
:103AA000232C0101130EFEFF1308F3FF2326110838
:103AB000232481082322910823202109232E310762
:103AC000232C4107232A5107232861072326710746
:103AD000232481072320A107232EB10533880E411B
:103AE000B38CC841635CE02233840C03635C9005B3
:103AF000635A000513192800131F2700330E0041D5
:103B000093192400B3022501338FE601131E2E0002
:103B10009384020093030000B38FC40103AA06003C
:103B2000938F4F0023AE4FFFE39A9FFE93831300C2
:103B3000B3842F01E3927CFE93864600B382320168
:103B4000E398E6FD635CF01C832681016358D01C7A
:103B50006356601C6354901D6352001D2326F104BC
:103B6000B387F6022324B104938506002322E104DF
:103B70009316230033076040939D2E00931B28006B
:103B8000B306D60033080041B3876702131D28002F
:103B9000131E240033057501232AD1009316270034
:103BA00013173700130C0D002328C103138D0C00CD
:103BB0003303B30293972700232CF1022320A100A3
:103BC000232ED102232201022320E104938C0B0037
:103BD000B38ED803931723002324F10293972E006A
:103BE000232AF10283278104232001022328F100E4
:103BF000832741012324F10083270101232E0100A3
:103C00002326F100832781002322F1008327C103AB
:103C100003274100032BC100B387E7002326F102ED
:103C2000938A070003A90A0083240100130A0B00EA
:103C30009309000033049C00930B0A0083A50B003A
:103C40001305090013044400EFD0531E930505002B
:103C50000325C4FF938B4B00EFC01376232EA4FEE5
:103C6000E31E94FC93891900330ABA01B30494014A
:103C7000E3123DFD83274100938A4A00130B4B005A
:103C8000E39257FB0327C102832601048327C10166
:103C90003307D7402322E1000327C1009387170091
:103CA000232EF1003307B7012326E100032781010A
:103CB000E31EF7F403278100832681028327010294
:103CC0003307D7002324E1008326410303270101A2
:103CD000938717002320F1023307D7002328E10040
:103CE0000327C104E31AF7F0032701008326010329
:103CF000832741023307D7002320E1008326810375
:103D000003274101938717002322F1023307D700CD
:103D1000232AE10003274104E316F7EC8320C108BE
:103D20000324810883244108032901088329C1074A
:103D3000032A8107832A4107032B0107832BC1062E
:103D4000032C8106832C4106032D0106832DC1051A
:103D50001301010967800000130101FB032E4800D5
:103D6000232221050329080003280105232C5103E0
:103D7000930EFEFF930FF9FF232681042324910461
:103D800023203105232E4103232A610323287103B5
:103D900023268103232491032322A1032320B1039B
:103DA0002328B100938A070003234105B307D841B4
:103DB000B38FF8416358E024130A0700338BFF02E6
:103DC0006350F011635EF00E9385F7FF13870600D2
:103DD00093B6C50093C61600131F1A0093DE170092
:103DE000B305E7012324D100B70601002322B10067
:103DF0009386F6FF93952E00931D1B009394170056
:103E00002320B10093FBE7FF930E0500130400008D
:103E10002326D100B382D401130F040093850E0032
:103E20009303000093092700B3B63501333C5700D4
:103E3000134C1C0093C61600B3E68601032C8100C8
:103E4000B376DC00638C061EB366B70093F63600CB
:103E50006396061E032C010083560700B30CBC00BA
:103E6000032CC100139D0601B3F68601B3E6A6013B
:103E7000138C05002320DC00130C4C00E31C9CFF7A
:103E8000638C7701031C0700B3067F01939616002D
:103E9000B306D5002390860193831300B385950064
:103EA000B3829200330FFF00E3907FF88326410036
:103EB00013870900B38EBE0133046401E39C36F519
:103EC0006352501563502015635EC013635CF0139A
:103ED000635AF01233075903B306C04193191E0009
:103EE0009312180093931700B307F040139F170025
:103EF00093972600232CF10093151B003307C7036B
:103F0000B3093601139616002324B100330475005B
:103F1000232AC100930D0000330E2E0393171700C0
:103F20002326F1003388080393171E002320F10095
:103F3000931718002322F100832B0101138B090032
:103F4000130D0000232EB101938C0B0093040B0082
:103F5000130C000083274101138E0C00B38EF40074
:103F600093880E00839508001306040013080E00C2
:103F7000130500003307CF0093060800839706005F
:103F8000835D070013072700B387B70293862600D7
:103F9000B3D76740B387B701231FF7FEE310C7FE0F
:103FA000130515003308580033067700E394AFFC7F
:103FB00093882800130E2E00E39614FB83278101BB
:103FC000130C1C00B38C5C00B384FE40E31489F92D
:103FD00083270100130D1D00330BFB0083274100D5
:103FE000B38BFB00E392AAF783278100832DC101E5
:103FF0003304F4008327C100938D1D00B389F900B9
:10400000E31CBAF30324C10483248104032941047B
:1040100083290104032AC103832A8103032B41035B
:10402000832B0103032CC102832C8102032D410247
:10403000832D0102130101056780000093161F0004
:10404000B306D500031C070093862600239F86FF36
:10405000E39A56FE6FF05FE4130101FB2322210572
:10406000032E48000329080083220105232C510355
:104070001308FEFF930FF9FF2326810423249104E4
:1040800023203105232E4103232A610323287103B2
:1040900023268103232491032322A1032320B10398
:1040A0002328B100938A070003234105B387024107
:1040B000B38FF8416354E024130A0700338BFF02E7
:1040C0006350F011635EF00E9385F7FF13870600CF
:1040D00093B6C50093C61600931E1A0013D8170096
:1040E000B305D7012324D100B70601002322B10074
:1040F0009386F6FF93152800931D1B0093941700D9
:104100002320B10093FBE7FF130805001304000010
:104110002326D100338F0401930E04009305080079
:104120009303000093092700B3B63501333CE70140
:10413000134C1C0093C61600B3E68601032C8100C5
:10414000B376DC006388061EB366B70093F63600CC
:104150006392061E032C010083560700B30CBC00BB
:10416000032CC100139D0601B3F68601B3E6A60138
:10417000138C05002320DC00130C4C00E31C9CFF77
:10418000638C7701031C0700B3867E0193961600AB
:10419000B306D5002390860193831300B385950061
:1041A000330F9F00B38EFE00E3907FF8832641001B
:1041B000138709003308B80133046401E39C36F522
:1041C000635E5013635C2013635AC0136358F0138B
:1041D0006356F0123307590393931700B307F04067
:1041E000139F1700B306C04193191E0093151B00BF
:1041F000B3093601139616002324B100B307C70391
:104200001397260033047500232AC100930D000084
:10421000232CE100330E2E03939717002326F10081
:1042200093171E002320F100B38758022322F100C8
:10423000832B0101138B0900130D0000232EB10104
:10424000938C0B0093040B00130C00008327410197
:10425000138E0C00B38EF40093880E008395080033
:104260001306040013080E00130500003307CF00E7
:104270009306080083870600835D07001307270065
:10428000B387B70293861600B3D76740B387B701E9
:10429000231FF7FEE310C7FE13051500330858006F
:1042A00033067700E394AFFC93882800130E1E00BA
:1042B000E39698FA83278101130C1C00B38C5C00F1
:1042C000B384FE40E31489F983270100130D1D0018
:1042D000330BFB0083274100B38BFB00E392AAF76B
:1042E00083278100832DC1013304F4008327C1009B
:1042F000938D1D00B389F900E31CBAF30324C104B4
:10430000832481040329410483290104032AC1036E
:10431000832A8103032B4103832B0103032CC10256
:10432000832C8102032D4102832D0102130101051B
:104330006780000093961E00B306D500031C07009B
:1043400093862600239F86FFE39AE6FF6FF0DFE463
:10435000130101F52324810A0324410B2322910A2E
:104360002320A10983A4480003AD0800032E040004
:1043700083284400232E31091303FDFF9389F4FFA2
:104380003303C3032320210B232EB1070329C10BC1
:10439000930D07000327810B23229109938C0600BC
:1043A0008326810B2324B100B389190397E8030006
:1043B00083A8081883A8080023267109B38B6640D8
:1043C00083A5C815232C410923248109232AA1028E
:1043D000130C06003307E902B309394103A5880528
:1043E000138645012326110A13162600232A510994
:1043F000232861099385150023AEB814338A790305
:10440000B388C8002320F1029317170023A6A80041
:1044100013850700232CF10223260105032B410CF1
:10442000EFD04151930A050003258103EFD081505D
:1044300013171A002326A106130507002322E10201
:1044400023245107EFD0014F17E703000327870A02
:1044500083270700832281001307100017E603005B
:104460000326460D032606008326810323A0E700CA
:1044700023A2570023A4570123A6D7006374F64A4A
:104480009306200023A0D70023A2470123A4E7001E
:1044900023A6E70017E70300032787022324E1028E
:1044A0000327810293060000130E0000232007005B
:1044B0008325010217E703000327C7032320F70022
:1044C0006354B0089395150037380100338FBD0051
:1044D00013870D008328410393050E00930E0000FF
:1044E000930F48BC6F00800103234102130727008C
:1044F000B3870701B3886800630EE703031307005F
:1045000023A0F7011398250023A2670023A4070026
:1045100023A61701E37AF6FC0323410213072700C1
:1045200013080000930E100093050000B388680084
:10453000E316E7FD638A0E00032781029306080055
:10454000138E05002320B700370704001307270048
:1045500023A0E70023A20700931519001397190061
:1045600023A4B70023A6E700636AF63EB387D7000B
:1045700017E70300032707F82320F7000327C104E8
:104580006352E0323308A703B736010023248105C4
:10459000232E9103138CF63C938CF6BC0327010C5D
:1045A00023220104930F000013171700B388A403FC
:1045B000232CE1043387E2002320E1041397140045
:1045C0002324E100139724002326E100B7320000E2
:1045D00013070000B3069802138808001318280078
:1045E000232A010593981800232E1105930E00002D
:1045F0001303200093051000938292BC13981600B9
:10460000939626002326D102832641042328010302
:104610000328C104938616002322D10463D0062503
:1046200013C71E00930601072328E1041317270070
:104630003387E60083260104032787FF23A0B70002
:1046400023A2D70023A4E7000327810323A6E700C2
:104650006360F62213172E00B387E70003270102D9
:104660006350E022130710000328C10393962E0025
:1046700083284103232A010103288104232E0100FA
:10468000232C010113080107B306D8002328D10009
:10469000635EA013832A410183238101930E0000EE
:1046A000635A90100327010193060000032F87FF30
:1046B0006F00000813182E00B387070103270400BA
:1046C000832D44003387EE02B38DB60333072703EF
:1046D0003307B701131717003307EF00630C0B06FE
:1046E000939D2600B38DBA0183AD0D0023A08701F1
:1046F00023A2B70123A4E70023A6A700637CF60644
:1047000023A0670023A2470123A4B70023A6B70074
:1047100023A0570023A2170123A4A70023A6170153
:1047200093861600930F1000130E00006382D408C6
:1047300023A0670023A2370123A4770123A6B70093
:10474000E37AF6F613080000930F1000130E000032
:104750006FF0DFF6939D1600B38DB301839D0D00BE
:1047600023A0970123A2B70123A4E70023A6A70053
:10477000E368F6F8B387070123A0670023A2470187
:1047800023A4B70023A6B700E364F6F8B3870701B4
:1047900023A0570023A2170123A4A70023A61701D3
:1047A000E360F6F893861600B3870701E392D4F826
:1047B0001307100083268100938E1E00B383D3005D
:1047C0008326C100B38ADA00E31CDDED03288101F2
:1047D000832E01038326C1013308D801232C010154
:1047E000832EC1020328410193861600232ED10097
:1047F0003308D801232A010103284102B3880801A4
:1048000003280102E3C606E9832641040328C10404
:1048100063DC0607832681040328C105832E010576
:10482000B38606012324D104032841058326C1034E
:10483000B3860601232ED1020328810583260104B5
:10484000B38606012320D104832641040328C10432
:10485000938616002322D104E3C406DD83260102D9
:104860006354D00293C61E002328D1046FF0DFDF0B
:1048700003270102930F1000130E0000E344E0DE53
:10488000130710006FF01FF96308070017E7030014
:10489000032747C62320F70063860F008327810282
:1048A00023A0C7018327010B930A200003AA470016
:1048B000630E5A0B930740006306FA1E97E7030046
:1048C00083A707C703A707008320C10A0324810A1F
:1048D0008326C7158324410A0329010A93873601D9
:1048E00093972700B307F70083A7C7009386F6FFC7
:1048F000232ED714232CF7048329C109032A810905
:10490000832A4109032B0109832BC108032C810849
:10491000832C4108032D0108832DC1071301010BCE
:104920006780000097E6030083A686B903AE060001
:104930002324D1029305200093162E00B387D700BD
:1049400023A0B70023A2470123A4E70023A6E70082
:10495000E368F6B4B387D7006FF09FB503278102F1
:10496000130E0000232007006FF09FC083A50700EF
:104970008327810B3309A9411354F90133859740EB
:10498000EFB01F9E17E603000326C6B68327060076
:104990003304240117E703000327C7B91354144055
:1049A000832807001304140023A0470123A28700D3
:1049B0001305150023A4A7001307100023A6E70082
:1049C0000327010B0327070063FAF8363387E90250
:1049D000B70604009386260023A0D70023A2070071
:1049E000931614001317170023A4E70023A6D7007B
:1049F00003278102930600002320070017E7030026
:104A0000032747AF2320F70003270102E358E0EA1A
:104A10003307A40203264103B75501001303000026
:104A200013080600130500009385853C1317170033
:104A30006F000002B387C701032E41021305150062
:104A40003308E8003306C601032E0102630EAE02EE
:104A500023A0B70023A2070023A4C70023A60701B1
:104A6000139E2600E3F8F8FC032E410213051500FF
:104A7000130310003306C601032E01029306000043
:104A80003308E800E316AEFC17E70300032787A608
:104A90002320F700E30403E28327810223A0D70049
:104AA0006FF0DFE18327010B3309A9411354F901AA
:104AB00083A507008327810B33042401135414407A
:104AC00033859740EFB0DF8917E80300032888A2F9
:104AD0008327080017E703000327C7A5032607005D
:104AE0001304140023A0570123A287001305150007
:104AF00023A4A7001307100023A6E7000327010B38
:104B0000032707006360F620832681023387E902CA
:104B100083A6060093952600B387B7002320F800EC
:104B2000370804001308280023A0070123A2070068
:104B3000131717001318140023A4E70023A6070176
:104B40006364F61EB387B70003270102635CE008C5
:104B50003307A402032F4103375E01009388060048
:104B6000930F0F0093020000930E0000130E8E3C73
:104B7000131717006F00000283234102938E1E005B
:104B8000B3876700B38F7F0083230102330FEF00E9
:104B90006380D30523A0C70123A2070023A4F70144
:104BA00023A6E70113932800E378F6FC8323410250
:104BB000938E1E0013030000B38F7F008323010236
:104BC0009302100093080000330FEF00E394D3FD2D
:104BD000638A02000327810293050300938608007D
:104BE000232017011357F9411377370033072701A3
:104BF000930820001357274023A01701130717001D
:104C000023A2E70023A4A7009308100023A61701FE
:104C1000131317006374F60CB7060400938626007E
:104C200023A0D70023A2070023A4070123A667001F
:104C30008326810223A006009306000097E5030067
:104C400083A5458B23A0F50083250102E358B0C658
:104C50003304A4028325410337580100130E0000DA
:104C600013830500930800001308883C3307E5020E
:104C700013141400131717006F00C001B387A700A7
:104C80000325010293881800B38585003303E300F0
:104C9000630C150323A0070123A2070023A4B70078
:104CA00023A6670013952600E37AF6FC032501028C
:104CB00093881800130E100093060000B38585003A
:104CC0003303E300E31815FD17E70300032787828A
:104CD0002320F700E3120EDC6FF05FBEB70804007C
:104CE000B387B7009388280023A0170123A20700E9
:104CF00023A4070123A66700E36CF6F2B387B7008D
:104D00006FF0DFF33387E902B706040093862600CD
:104D100023A0D70023A207001318140013171700AD
:104D200023A4E70023A607010327810293050000BF
:104D300093060000232007006FF01FE18326810205
:104D40003387E90283A6060093952600B387B70050
:104D50002320F600370604001306260023A0C70010
:104D600023A20700131717001316140023A4E7004B
:104D700023A6C700E3EEF8C6B387B7006FF01FC8DD
:104D8000130101FA232A91042324410523206105FC
:104D900093040800138B070017DA0300032A4A79EB
:104DA00083280A002328210533099B022326B10307
:104DB000939D170083A7C81503A38805232E11040C
:104DC00013884701232C810493871700232631057C
:104DD00023225105232E7103232C8103232A9103BF
:104DE0002328A1031318280023AEF814B388080160
:104DF00023A66800930A050013850D00138C050097
:104E000013040700130D0600938B060013191900F5
:104E1000EFC051329309050013050900EFC091312D
:104E20002326A10013050900EFC0D13097DC030051
:104E300083AC4C6C83A80C009307100017D70300B9
:104E40000327476F23A0F800832EC10023A2880107
:104E50000327070023A4A800232CD101232EA1009F
:104E600023A66801637C172123A0F80023A2A801D0
:104E700023A4D80123A6280117DC0300032C4C64CB
:104E80009307200023A0F80023A2680193071000D5
:104E900023A4F80023A6F800B7170100938707BDE5
:104EA00023A0F8009307000423A2F80023A4A8007D
:104EB00023A638019307200023A0F80023A268014D
:104EC00023A498009307100023A6F800B707040056
:104ED0009387270023A0F80023A2B80123A4080089
:104EE0009307200023A6F80023200C00930F000056
:104EF0006358800E93921400B3075B0237380400A6
:104F000093161400138E0A00130B00001303000005
:104F1000930500001308F8BC930310003306FD004E
:104F20006F00800523A2C80023A4A80023A628019F
:104F30006376170793952500130501023305B50025
:104F4000032585FF23A00801130B100023A2A8004E
:104F500023A4380123A6C801930F0000330E5E007E
:104F60003306F600635A830613050102B305B50044
:104F700003A585FF93050F003303930023A078005A
:104F8000930E050013CF1500E31E83F823A27801CA
:104F900023A4A80023A6D800E36E17F99395250053
:104FA000130D0102330DBD0013952F00032D8DFF4E
:104FB000B388A80023A0080123A2A80123A43801D4
:104FC00023A6C80163681719B388A800330E5E00D2
:104FD0003306F600E34A83F863040B002320FC0148
:104FE0009307200023A0F80023A288009307100055
:104FF00023A4F80023A6F80063761713B737000040
:10500000938797BC23A0F80023A2580123A4D801BA
:1050100023A6580123200C0003270A008320C10582
:10502000032481058326C71523A01C018324410581
:105030009387360193972700B307F70083A7C7002C
:105040009386F6FF232ED714232CF704032901059A
:105050008329C104032A8104832A4104032B010408
:10506000832BC103032C8103832C4103032D0103F4
:10507000832DC102130101066780000017DC0300C5
:10508000032C0C44832F0C0093962F00B388D80078
:1050900023A0F80023A2A80123A4D80123A6280155
:1050A000E36017DFB388D8001306200023A0C800F0
:1050B00023A2680123A4F80023A6F800E36E17DDFD
:1050C000B7150100B388D800938505BD23A0B800AB
:1050D0009305000423A2B80023A4A80023A6380146
:1050E000E36A17DDB388D80023A0C80023A26801B3
:1050F00023A4980023A6F800E36A17DDB70704008D
:10510000B388D8009387270023A0F80023A2B80112
:1051100023A4080023A6C800E36817DDB388D800DD
:105120006FF01FDD83270C00B7360000938696BC16
:1051300093972700B388F80023A0D80023A2580132
:1051400023A4D80123A65801E36617EDB388F8001D
:105150006FF09FEC130B1000930F00006FF01FE037
:10516000130101F2832E010E8322410F832F410E82
:10517000232A910B2326B10B930C070023225106FF
:10518000138707008322C10F9307080083AD4E00E9
:105190001388080083AE0E008328C10E232C810BD8
:1051A000032C010F232A910C2328210D2326310DD6
:1051B0002324410D2320610D232E110C232C810C5F
:1051C0002322510D232E710B2328A10B232EF10531
:1051D000130E10002320110723285100232CD10186
:1051E0001303050013890500130F06008324810EA5
:1051F000032A810F130B000083A90F006314CC0155
:10520000E38E882D2326D10083268101232AF106EF
:1052100083A704001385F6FF232EE10203A74400B1
:105220003305F5029387FDFF938509002322910939
:105230002324E101232A610417D403000324842FCB
:10524000B387E70203270106130515003305A740BE
:10525000B3898903B30CFC40EFB08F9097D703005C
:1052600083A7472903A70700B707040093872700F0
:105270002320F700232207008327040093961C00B5
:1052800023243701232CD1062326D700930B1500A6
:1052900063E6E74697D7030083A787222324F10418
:1052A00083A70700939727003307F700832701069A
:1052B00097D6030083A6062423A0E600B305FC02CC
:1052C00097D7030083A7C72683A7070003A7C7159F
:1052D00003A687059306470193962600338D7C032A
:1052E0001307170023AEE714B387D70023A6C70020
:1052F00013850500232CB104EFC0C1639309050099
:1053000003258105EFC0016393171D00232EA1081B
:10531000138507002320F104232C3109EFC081619C
:1053200097D6030083A6061D03A706009307100067
:1053300003240400832581052320F700232227016D
:1053400023243701232AE1022326B700832781047F
:10535000E364E41283A707002322F1049397270054
:10536000B307F700232AF10217D703000327871892
:105370002320F700032701016310074C032741078F
:105380006350E04283268101B735010023220102E8
:105390003306D7020327C100B7330000032E4104B0
:1053A0002328E10603278100130F00009308000063
:1053B0002326E106032741063388B603B71601000A
:1053C000938906BD3307E9002324E10613972D00D6
:1053D000232EE10013971D002320E102938393BC49
:1053E000B306B60313060800131616002324C108DB
:1053F0001386F53C2328C100131828002326010931
:105400001307000013962600939616002326D10456
:1054100093060B00130B0D00138D0600832641022B
:105420002328C1040326410793861600232ED106A4
:1054300063CAC6208326C1036352D03493C61800C2
:105440002320D1080326410893962800032841050C
:10545000232AC1000326C106232C010213090004DC
:105460002326C102032601072328C1021306010ACD
:10547000B306D6002324D102832681016354D012BF
:105480008326C102930E0000930820002326D1003A
:1054900083260103930510002324D100635EB00D21
:1054A00003278102832287FF03274102B36FD701BD
:1054B0001307000063020A2A0326810093162700BF
:1054C000B306D60083AA060023A0170123A29701E2
:1054D00023A4770123A6B70083A60400636AF422FD
:1054E000B386DE0203A3440013162E00B387C70061
:1054F00023A0370123A22701B38686033303670263
:10550000B3866600B386D20023A4D70023A6A700E3
:105510006364F422B387C70023A0170123A26701A5
:1055200023A4B70023A6B7006360F422B387C700A3
:10553000B366F7016380061663040A188326010127
:1055400023A0D70023A2570123A4A70023A6A700C6
:105550006376F41823A0770023A2070123A4A700F1
:1055600023A60701130F1000130E000013071700E6
:10557000E392EDF413071000832681000326C10196
:10558000938E1E00B386C6002324D1000326010299
:105590008326C100B386C6002326D100832681015D
:1055A000E39ED6EF032601038325010583268103AD
:1055B0003306B6002328C1028325C1040326C10295
:1055C00093861600232CD1023306B6002326C1028F
:1055D000032601043308C8000326410113062600F0
:1055E000232AC1000326C103E3C8C6E88326C107F6
:1055F0000326410763D4C618832601070326C10882
:1056000083280108B386C6002328D1060326810813
:105610008326C106B386C6002326D106032641068B
:1056200083268106B386C6002324D1068326C107BC
:10563000032641072322D10293861600232ED1068A
:10564000E3DAC6DE13C718009306010A2320E10837
:10565000131727003387E6009306100023A0D70016
:1056600083268106032787FF23A2D70023A4E70010
:105670000327810523A6E7006364F41A13172E009D
:10568000B387E7000327C1036354E01A1307100030
:105690006FF05FDB8326410137330100130343BC06
:1056A0008396060023A0670023A2D70023A4070047
:1056B00023A60701636CF40AB387C700E3100AE866
:1056C000B73601009386F6BC23A0D70023A2A7011A
:1056D00023A4A70023A6A700E36EF4E6B387C700C0
:1056E00023A0770023A2070123A4A70023A6070174
:1056F000E36AF414B387C7006FF05FE797D703003E
:1057000083A707DC2324F10423A007006FF01FBA4E
:10571000B386DE0203A6440023A0370123A227019B
:10572000B38686033306C702B386C600B386D200AB
:1057300023A4D70023A6A70023A0170123A2670153
:1057400023A4B70023A6B70013060000130F100010
:10575000130E00006FF0DFDD0326C1009316170063
:10576000B306D600039D06006FF01FD6130E00008F
:1057700013060000130F10006FF01FDC630A070010
:1057800017D70300032707D72320F700232AF102A6
:1057900063080F00832781042322C10523A0C701CA
:1057A0008327C1059309200003A7470063083743F7
:1057B000930740006306F75897D7030083A747D79E
:1057C00003A707008320C10D0324810D8326C7157D
:1057D0008324410D0329010D9387360193972700F8
:1057E000B307F70083A7C7009386F6FF232ED714CD
:1057F000232CF7048329C10C032A810C832A410C32
:10580000032B010C832BC10B032C810B832C410B2D
:10581000032D010B832DC10A1301010E67800000C7
:105820000327C103130F1000130E0000E340E0E64E
:10583000130710006FF05FDC8327C103E352F0F61B
:105840000327C10083278101371801002326E102C5
:1058500003278100B387FD02B73601002324E1024C
:105860000327410823220102130808BD2328E10071
:105870000327410623240101373800003307E900DC
:105880001389F63C83264102130898BC2328E102C1
:1058900013972D00232EE1002326010113972700E3
:1058A0000328C103939717002326F104938616005B
:1058B00093971D002328E104232AF1002322D1021B
:1058C000832841050323410483274103930E0000ED
:1058D00013070000130600009305100063C80619A3
:1058E000832681016352D02C93461600232CD102CB
:1058F00093162600832281021306010A832FC10218
:10590000B306D600130800002320D102130E200096
:10591000635CB00D03270102032F87FF130700000C
:10592000630E0A2493162700B386DF0083AA0600BD
:1059300023A0C70123A2970123A4770123A6B700C0
:1059400083A604006364F41EB306D80283A944004E
:105950008323810013162300B387C70023A0770099
:105960009303000423A27700B3868603B3093703A9
:10597000B3863601B306DF0023A4D70023A6A70011
:10598000636EF41CB387C70023A0C70123A2A7013D
:1059900023A4B70023A6B700636AF41CB387C7002B
:1059A000B366E800638A061063020A1423A0270185
:1059B00023A2570123A4A70023A6A7006376F4140B
:1059C0008326C100930E10001303000023A0D7000C
:1059D00023A2170123A4A70023A61701130717006A
:1059E000E390EDF4130710008326C101130818009B
:1059F000B38FDF0083264101B382D2008326810169
:105A0000E348D8F0832641020326C10363DEC618AB
:105A10008326C102032601050328C103B386C600FD
:105A20002326D1020326C10483268102B386C60041
:105A30002324D1028326010403264106B388D8001B
:105A400083260101938626002328D10083260103A3
:105A5000B386C6002328D102832641020326810390
:105A6000938616002322D102E3DC06E713471600D3
:105A70009306010A232CE102131727003387E6005F
:105A800083260103032787FF23A0B70023A2D700A3
:105A900023A4E7000327810523A6E7006360F41031
:105AA00013172300B387E700832681011307100033
:105AB000E340D0E46FF0DFF5832301018399030015
:105AC000B7330100938343BC23A0770023A237019F
:105AD00023A4070023A61701636AF40A93060300B0
