:1000000017C11F001301C1FFB75224009382823B26
:1000100083A2020063880200B70200809382A200DC
:100020002322500093021000375324001303833B14
:1000300023205300976104009381C12F178504008A
:100040001305853A178604001306865A3306A64020
:1000500093050000EF00000917550200130505ED98
:10006000EF40D267EF405272032501009305410033
:1000700013060000EF4052456F4092676780000012
:10008000130101FF232021013719000023248100DF
:100090000324098123261100232291001305040063
:1000A000EF00505D63100502130504008320C100BA
:1000B000032481008324410003290100130101016D
:1000C0006780000093040500930505003765240050
:1000D00013050533EF4012791304000023229980A1
:1000E0006FF09FFC1303F00013070500637EC3024B
:1000F0009377F7006390070A63920508937606FFEB
:100100001376F600B386E6002320B7002322B7005B
:100110002324B7002326B70013070701E366D7FEA1
:100120006314060067800000B306C3409396260060
:1001300097020000B38656006780C6002307B70009
:10014000A306B7002306B700A305B7002305B70031
:10015000A304B7002304B700A303B7002303B70029
:10016000A302B7002302B700A301B7002301B70021
:10017000A300B7002300B7006780000093F5F50FD8
:1001800093968500B3E5D50093960501B3E5D500B8
:100190006FF0DFF69396270097020000B3865600B3
:1001A00093820000E78006FA93800200938707FF9E
:1001B0003307F7403306F600E378C3F66FF0DFF35A
:1001C0003367B5009303F0FF137737006310071010
:1001D000B7877F7F9387F7F70326050083A605007F
:1001E000B372F6003363F600B382F200B3E262004A
:1001F000639272106316D6080326450083A6450055
:10020000B372F6003363F600B382F200B3E2620029
:10021000639E720C6316D6060326850083A68500AE
:10022000B372F6003363F600B382F200B3E2620009
:100230006398720C6316D6040326C50083A6C50016
:10024000B372F6003363F600B382F200B3E26200E9
:100250006392720C6316D6020326050183A605017C
:10026000B372F6003363F600B382F200B3E26200C9
:10027000639C720A1305450193854501E30ED6F48C
:100280001317060193970601631EF7001357060123
:1002900093D706013305F7409375F50F6390050278
:1002A000678000001357070193D707013305F74014
:1002B0009375F50F63940500678000001377F70FBF
:1002C00093F7F70F3305F7406780000003460500FA
:1002D00083C6050013051500938515006314D60029
:1002E000E31606FE3305D64067800000130545007F
:1002F00093854500E31CD6FC1305000067800000D1
:100300001305850093858500E312D6FC13050000D4
:10031000678000001305C5009385C500E318D6FA71
:100320001305000067800000130505019385050192
:10033000E31ED6F8130500006780000013060500D1
:100340001305000093F61500638406003305C5000D
:1003500093D5150013161600E39605FE678000007E
:100360006340050663C60506138605009305050070
:100370001305F0FF630C060293061000637AB600C3
:100380006358C0001316160093961600E36AB6FE73
:100390001305000063E6C500B385C5403365D5008D
:1003A00093D6160013561600E39606FE67800000EB
:1003B00093820000EFF05FFB138505006780020069
:1003C0003305A04063D80500B305B0406FF0DFF9F6
:1003D000B305B04093820000EFF01FF93305A04051
:1003E000678002009382000063CA0500634C050029
:1003F000EFF09FF71385050067800200B305B0405A
:10040000E35805FE3305A040EFF01FF63305B0407A
:1004100067800200130101FE232A91009754040013
:1004200083A4840D83A70400232C8100232631019B
:100430001304C0029389050093851700B3858502D4
:1004400023282101175904000329890E232441017F
:10045000130A050003250900232E1100EF2084460E
:1004600083A704002320A9001386F9FFB307F40231
:100470003306CA0093050A00930610003305F50001
:1004800013054500EF00D05383A70400032709009C
:100490008320C10133848702938717000329010158
:1004A0008329C100032A810033048700232004002C
:1004B0000324810123A0F4008324410113010102DC
:1004C00067800000130101FF23229100975404006C
:1004D00083A4840283A50400232481001304C002A2
:1004E00093851500B3858502232021011759040047
:1004F000032909040325090023261100EF20843C69
:1005000083A704002320A9008320C100338487022D
:100510001307100093871700032901003305850096
:10052000032481002320E50023A0F400832441005C
:1005300013010101678000009307C0023305F50233
:100540009757040083A7C7FE83A707003385A7003A
:10055000130545006F0050719307C0023305F50283
:100560009757040083A7C7FC83A707003385A7001C
:10057000130545006F005072130101FC232C81020A
:100580001304C00233048502232A91022328210385
:100590002326310323244103232251032320610313
:1005A000232E7101232C8101232A9101232E110274
:1005B000138C0500130B0600938A0600130A07002C
:1005C000930CC1009759040083A989F61309F0FF21
:1005D00093042000976B0400938BCBE303A50900E1
:1005E00013070A0093860A003305850013060B00E3
:1005F00093850C001305450023262101EF10001000
:10060000630C0500630E95009305050013850B0030
:10061000EF4052256FF09FFC8327C100E39087FDD8
:100620008320C1030324810383244103032901039D
:100630008329C102032A8102832A4102032B01027A
:10064000832BC101032C8101832C4101130101047F
:1006500067800000130101FE232C8100232A9100F2
:100660002328210123263101232441012322510182
:10067000232E1100930A0500138A05009309060032
:100680001389060093040700130420001387040055
:10069000930609001386090093050A0013850A00D2
:1006A000EFF09FEDE30485FE8320C1010324810167
:1006B00083244101032901018329C100032A810008
:1006C000832A410013010102678000009307C002E2
:1006D0003305F5029757040083A787E583A7070032
:1006E0003385A700130545006F00D07A130101FE82
:1006F000930600001306000093050000232A9100D2
:10070000232E1100232C810093040500EFF01FFC21
:10071000631E05021306C1001385040013070000C1
:10072000930600009305100023260100EFF09FF2CE
:1007300013040500130504008320C1010324810173
:1007400083244101130101026780000013040500A6
:10075000130605009385040017650400130545D0B2
:10076000EF405210130504008320C10103248101CE
:100770008324410113010102678000009307C00236
:100780003305F5029757040083A787DA83A707008C
:100790003385A700130545006F0010539307000F22
:1007A00063EEC722130101ED232E31119759040086
:1007B00083A989D42322911283A409002320211321
:1007C0002328611193D7F441232611122324811287
:1007D000232C4111232A5111232671112324811125
:1007E00023229111232C9100232EF100130B0600DC
:1007F000130905006306060013050102EFC002524B
:1008000037050080130B0B013369A900635E90125A
:10081000930B000013040000130A0000975A040011
:1008200083AA0AD1130C010183A70A00130714003D
:1008300023288100B387770183A70700232A41017A
:10084000B33687006388071413040700338A460110
:10085000938BCB02E34A97FC6358900E930B0000F6
:1008600013040000130A0000930C0101176C04002C
:10087000130C0CC26F00C0019307140033B787003C
:10088000330A470113840700938BCB0263D6970486
:1008900083A70A0023288100232A4101B387770117
:1008A00083A70700E38A07FC13860C0093050B005F
:1008B00013050900EF1000206312050C83A4090042
:1008C0009307140033B78700330A470113840700E6
:1008D000938BCB02E3CE97FA63589006130A00007D
:1008E00013040000130C8100130BC100976B04006C
:1008F000938B0BBA6F00C00013041400635694046A
:1009000083A70A00B387470183A70700130ACA0217
:10091000E39407FE9305090013070C0093064000BB
:1009200013060B00130504002324010023260100F5
:10093000EFF05FD2832581006398050883A4090046
:1009400013041400E34E94FA8320C112032481128D
:1009500083244112032901128329C111032A811121
:10096000832A4111032B0111832BC110032C811009
:10097000832C4110130101136780000093050500CB
:100980001306040013050C00EF40C26D83A4090098
:100990006FF01FF31305040093060C0013060B0001
:1009A00093050900EFF09FD283A409009307140078
:1009B00033B78700330A470113840700938BCB02B8
:1009C000E3C497E66FF05FE91306040013850B009C
:1009D000EF40426983A409006FF09FF66780000032
:1009E00083270502635CF01E130101FD232291029F
:1009F000232611022324810223202103232E3101E7
:100A0000232C4101232A510123286101930405006D
:100A10006398050E130400001309000093090100F8
:100A2000130A80196F00C006B386460303A747F771
:100A30009355F741B386D40003A6461003A586104C
:100A4000B306C70033B7E6003386A5003307C700F7
:100A500023A2D71023A4E7101306000193850900F1
:100A600037050080232481002326210123209100C3
:100A700023220100EFF09FD203A704029307140082
:100A8000B3B68700338926011384070063DCE702CD
:100A9000B3074403B387F40003A7471083A6871066
:100AA0003367D700E31A07FA9306F4FFE31E04F650
:100AB00003A7440283A7840223A2E41023A4F41012
:100AC0006FF09FF99757040083A7C7A583A7070076
:100AD00083A707008320C1020324810283244102EB
:100AE000032901028329C101032A8101832A4101CB
:100AF000032B0101130500001301010367800000AF
:100B00001309450313040000130A000093090100B0
:100B1000930A8019176B0400130B0B9A6F00C00621
:100B200003A7440283A7840223A2E41023A4F410A1
:100B30001305090093050000EF104022130605007D
:100B40009305040013050B00EF40C251130600018A
:100B50009385090037050080232481002326410165
:100B60002320910023220100EFF05FC303A70402BA
:100B700093071400B3B6870013098919138407007B
:100B8000338A4601E3D0E7F4B3075403B387F40094
:100B900003A7471083A687103367D700E31A07F827
:100BA0001307F4FFE30E04F633075703032609F493
:100BB0001355F6413387E4008326471083258710B9
:100BC0003387C600B336D7003386A500B386C60088
:100BD00023A2E71023A4D7106FF09FF597570400C6
:100BE00083A7479483A7070083A707001305000086
:100BF00067800000832885000326C500032E850139
:100C0000130F45033386C800330EC50113070000D8
:100C1000930E8019631406026F00000723AC67026D
:100C200023AE0702832885000326C5003386C8004B
:100C300013071700938585006378C704931727006F
:100C4000B386C70103A8450083A705003383A740E7
:100C5000B3E70701E38E07FC83A70600B387FE0214
:100C6000B307FF00E36C17FB23A0670423A207046C
:100C7000832885000326C500130717009385850088
:100C80003386C800E36CC7FA6780000083278501BC
:100C90008326C5003307F50063ECB6028326850082
:100CA00093074503B385D50093952500B305B70099
:100CB00083A60500130780193307D702B387E7001F
:100CC0006388070083A707043305F50067800000E9
:100CD0001305000067800000832785010327850036
:100CE000B307F5006368B70293952500B387B70093
:100CF00083A6070013078019930745033307D7021C
:100D0000B387E7006388070083A787033305F500EF
:100D100067800000130500006780000083278501BD
:100D200003278500B307F5006368B7029395250094
:100D3000B387B70083A607001307801993074503FD
:100D40003307D70213054000B387E7006388070025
:100D500003A547006780000013054000678000007E
:100D6000832785018326C5003307F50063ECB602AF
:100D7000832685009307450313054000B385D500FE
:100D800093952500B305B70083A6050013078019C6
:100D90003307D702B387E7006388070003A58700FE
:100DA00067800000130540006780000083278501ED
:100DB00003278500B307F5006366B7029395250006
:100DC000B387B70003A707009307801913054503EE
:100DD000B387E7023305F5006306050003254501E7
:100DE000678000001305F0FF6780000083278501FE
:100DF0000327C500B307F500636AB7020327850020
:100E000013054503B385E50093952500B387B70027
:100E100003A7070093078019B387E7023305F5009E
:100E20006306050003258501678000001305F0FFB8
:100E300067800000832785010327C500B307F500FD
:100E40006366B70203278500B385E5009395250007
:100E5000B387B70083A7070013078019B387E7029A
:100E60003305F5000325450C678000008327000942
:100E70007300100003270503B717BE1A9387D71E08
:100E80006312F708130101FE232C8100232E1100A9
:100E9000232A910023282101232631012324410103
:100EA000832505003776E819130676C31304050079
:100EB000639CC51CB717000083A7878203274500E2
:100EC0001305900093D7870093F7F70F631CF70083
:100ED000832744100327841013050000B3E7E700BD
:100EE000638607028320C101032481018324410119
:100EF000032901018329C100032A81001301010292
:100F0000678000001305700067800000174A040026
:100F1000032ACA6583270A0003A7C71503A6870506
:100F200093064701939626001307170023AEE71494
:100F3000B387D70023A6C70083244402EF20926220
:100F400093050500B3099400930405000325C4022A
:100F5000EFF00FC11309050013850400EF2092562E
:100F60009748040083A8085C83A7080013072000A3
:100F70009746040083A6C65F23A0E70023A297003C
:100F80001307100003A8060023A4E70023A6E70028
:100F90006374F812370701001307471C23A0E7000A
:100FA00023A2070023A4070023A6A70017430400D9
:100FB000032303532320030023A0F800634A90185F
:100FC000378701001307170023A0E70023A20700BB
:100FD00023A4270123A607003707010023A0E70069
:100FE00023A2970023A4070023A6070037070400C5
:100FF00023A0E70023A2370123A4A70023A697007C
:101000002320030023A0F800B38424030327C40291
:10101000330797406302070223A00700B3849900B7
:1010200023A2970023A4A70023A6E7006378F8165D
:101030002320030023A0F80083A7080083A707004C
:1010400003270A008320C101032481018326C715D9
:1010500083244101032901019387360193972700D7
:10106000B307F70083A7C7009386F6FF232ED71494
:10107000232CF7048329C100032A810013050000F3
:101080001301010267800000175504001305C543D2
:10109000EF30527D8320C10103248101832441016B
:1010A000032901018329C100032A8100130580005F
:1010B0001301010267800000174304000323434229
:1010C00003260300B70601009385461C131726006C
:1010D000B387E70023A0B70023A2070023A40700DB
:1010E00023A6A700E368F8ECB387E70023A0F80085
:1010F00063429006378601001306160023A0C7003E
:1011000023A2070023A4270123A60700E366F8EC27
:10111000B387E70023A0D70023A2970023A40700EA
:1011200023A60700E364F8ECB387E700B7060400E2
:1011300023A0D70023A2370123A4A70023A697004A
:10114000E360F8ECB387E70023A0F8006FF0DFEB73
:1011500013060000E35A20EB93860900130E0000EB
:10116000130700006F004001B387B7001307170093
:10117000B3869600630EE90223A0070023A2D700DE
:1011800023A4A70023A6970093152600E37EF8FC6E
:10119000130E1000130600006FF05FFD032703001D
:1011A00013172700B387E70023A0F8006FF0DFE8EC
:1011B00023A0F800E30A0EE42320C3006FF0DFE46D
:1011C0003306B640930716FF1306160033B6C70062
:1011D0001306F6FF1316F60193D71700B367F60050
:1011E0001387F7FF93870501130101FB3388E7009D
:1011F000138E4500138385009388C5002326810440
:10120000232491042322210523203105232E410389
:10121000232C5103232A61032328710323268103EE
:10122000232491032322A1032320B10313061800D2
:101230002300D5003307E60093DD850013DD0501AB
:1012400093DC8501135C8E00935B0E01135B8E01B2
:10125000935A8300135A03019359830113D98800C9
:1012600093D4080113D4880193D3870093D2070144
:1012700093DF8701135F8800638E06109356080181
:101280002324D100A302F50083278100935688010F
:101290002326D100935686002328D100A305F5000C
:1012A000935606018327C100232AD1009356860155
:1012B000232CD10093568700232ED1002306F5005E
:1012C000A306B5002307B501A307A50123089501CF
:1012D000A308C50123098501A3097501230A650136
:1012E000A30E6500230F5501A30F4501230035030D
:1012F000A300150323012503A30195022302850200
:1013000023037500A30355002304F501A30405017D
:101310002305E501A30AC5008327010193560701B0
:10132000935E8701230BF50083274101A30CE500A1
:10133000A30DD500A30BF50083278101230ED50152
:10134000230CF5008327C101230DF50023A0050020
:1013500023A2050023A4050023A605000324C1043D
:10136000832481040329410483290104032AC1033E
:10137000832A8103032B4103832B0103032CC10226
:10138000832C8102032D4102832D010213010105EB
:1013900067800000935608012324D100A30AF500BA
:1013A00083278100935688012326D1009356860017
:1013B0002328D100A30DF500935606018327C10011
:1013C000232AD10093568601232CD10093568700FF
:1013D000232ED100230EF500A30EB500230FB50177
:1013E000A30FA50123009503A300C50323018503D3
:1013F000A301750323026503A306650023075501B6
:10140000A307450123083501A30815012309250178
:10141000A3099500230A8500230B7500A30B550033
:10142000230CF501A30C0501230DE501A302C50062
:101430008327010193560701935E87012303F5007B
:1014400083274101A304E500A305D500A303F5000C
:10145000832781012306D5012304F5008327C101D9
:101460002305F5006FF09FEF032785008347C50034
:10147000032545009356870093978701B3E7D7006C
:101480001317870113558500938797FF3365A700CE
:101490003385A74067800000032785018347C50186
:1014A000032545019356870093978701B3E7D7003B
:1014B0001317870113558500938797FF3365A7009E
:1014C0003385A74067800000130101FD23248102BA
:1014D0002322910223202103232E310123261102EE
:1014E0001309060013040500938905009384060080
:1014F000EFF09FF7636025190327C40083470401B9
:101500000F00F00F1357870093978701B3E7E700A9
:1015100003A607000F00F00F8326040103474401D0
:101520000F00F00F93D68600131787013367D7009B
:10153000832707000F00F00F0F00F00F3387C7401D
:101540006368F600130785003307F7003307C740C9
:1015500093068900130510006360D71083274400A9
:10156000034784001305810093D6870093178701F2
:10157000B3E7D700B387C700232431012326210115
:10158000130601010F00F00F034705002380E70059
:101590000F00F00F832584000347C40093871700D2
:1015A00093D68500131787013367D70013051500FD
:1015B000939585016378F7008327440093D78700CC
:1015C000B3E7F500E310A6FC630809049386040062
:1015D000338624010F00F00F03C706002380E700C5
:1015E0000F00F00F832584000347C4009387170082
:1015F00013D58500131787013367A700938616005C
:10160000939585016378F7008327440093D787007B
:10161000B3E7F500E390C6FC0F00F00F832544000C
:10162000834684000326C4000347040193D5850044
:101630009396860113568600B3E6B600131787010A
:101640003367C700B387D7400F00F00F2320F700A0
:101650000F00F00F130500008320C1020324810254
:1016600083244102032901028329C10113010103DB
:10167000678000008320C102032481028324410289
:10168000032901028329C10113053000130101035D
:1016900067800000130101FE232C8100232A9100A2
:1016A000232821012326310123244101232E110067
:1016B000130A0500938905001309060093840600A8
:1016C0001304100093860400130609009385090093
:1016D00013050A00EFF05FDFE30685FE8320C101FA
:1016E0000324810183244101032901018329C100CD
:1016F000032A81001301010267800000130101FD2C
:101700002324810223229102232021039304050034
:10171000232E3101232C410123261102130A070035
:10172000938905001309060013840600EFF0DFD645
:1017300003A7040283C744020F00F00F135787006A
:1017400093978701B3E7E70003A607000F00F00FA8
:1017500083A6C40103C704020F00F00F93D68600CE
:10176000131787013367D700032E07000F00F00F10
:101770000F00F00F6376CE00330EC501130E8E00FE
:10178000330ECE401305200063020E1C9307700039
:101790001305600063FCC71B03A7440183C78401D2
:1017A000930881001357870093978701B3E7E700F9
:1017B00023240100B387C70023260100130701017A
:1017C0000F00F00F03C307000F00F00F03A8840100
:1017D00003C5C401238068001353880013158501D5
:1017E00093871700336565009388180013188801E4
:1017F0006378F50083A7440193D78700B367F800A7
:10180000E390E8FC23A009002320090003A70900B6
:10181000034681000345C100834691003367C7003A
:1018200023A0E90083250900139686000347D10011
:10183000B3E6A5002320D90083A60900131587006D
:101840000347A100B3E6C60023A0D9008325090001
:10185000131607018346E10033E7A5002320E900C2
:1018600003A70900139506018346B1003367C7003B
:1018700023A0E90083250900139686010347F100A0
:10188000B3E6A5002320D90083A60900131787011A
:1018900013055000B3E6C60023A0D9008326090033
:1018A0003367D7002320E900930687006360DE0AD0
:1018B00013054000636CE408630A07041305000085
:1018C0000F00F00F83C607000F00F00F3307AA00C8
:1018D0002300D70083A5840183C6C4019387170022
:1018E00013D7850093968601B3E6E600130515002D
:1018F0009395850163F8F60083A7440193D7870089
:10190000B3E7F50083260900E36CD5FA0F00F00F6A
:1019100083A5440183C6840103A6040203C74402CD
:1019200093D585009396860113568600B3E6B600DC
:10193000131787013367C700B387D7400F00F00F35
:101940002320F7000F00F00F130500008320C102D1
:101950000324810283244102032901028329C10156
:10196000032A81011301010367800000130101FEB6
:10197000232C8100232A91002328210123263101D1
:101980002324410123225101232E1100930A050033
:10199000138A0500930906001389060093040700C3
:1019A000130420001387040093060900138609001E
:1019B00093050A0013850A00EFF05FD4E30485FE67
:1019C0008320C101032481018324410103290101F2
:1019D0008329C100032A8100832A410013010102E7
:1019E00067800000130101FE232C8100232A91004F
:1019F000232E11009307F0011304050093840600C1
:101A000063C8A70693162500938701D5B387D7002F
:101A100083A70700638E07041387050003250600CC
:101A20008325860093060601130607FFE78007005B
:101A30002326A1009306C10013064000930504006D
:101A400013850400EFF01FC5630C05049305050022
:101A500017550400130505AEEF10901B8320C1013C
:101A600003248101832441011301010267800000E6
:101A70009305040017550400130585A8EF105019AD
:101A80009307F0FF9306C10013064000930504007E
:101A9000138504002326F100EFF0DFBFE31805FAF9
:101AA0008320C10103248101832441011301010228
:101AB000678000009307F00163C8A7029316250012
:101AC000938701D5B387D70003A30700630E0300F4
:101AD000138705000325060083258600930606016B
:101AE000130607FF67000300130101FF93050500BC
:101AF000175504001305C5A023261100EF308256A8
:101B00008320C1001305F0FF13010101678000006D
:101B100013151500135515009307000263C6A7029D
:101B2000938701D5131525003385A700832705006A
:101B3000639807002320B5001305000067800000AC
:101B40001305F0FF678000001305E0FF67800000C9
:101B50001305F5FF9357150033E5A70093572500AC
:101B6000B3E7A70013D54700B367F50013D5870087
:101B70003365F5009357050133E5A70013051500FC
:101B8000678000009357150033E5A70093572500A1
:101B900033E5A70093574500B3E7A70013D58700A7
:101BA0003365F50093570501B3E7A70013D5170078
:101BB0003385A74067800000832705001307A00234
:101BC0006368F718138701DD93972700B387E70051
:101BD00083A70700B387E700678007001755040055
:101BE000130505996780000017550400130585B596
:101BF0006780000017550400130545B36780000097
:101C000017550400130505B167800000175504003F
:101C10001305C5AE6780000017550400130585AC99
:101C20006780000017550400130545AA678000006F
:101C300017550400130505A8678000001755040018
:101C40001305C5A56780000017550400130505A4FA
:101C50006780000017550400130545A26780000047
:101C600017550400130585A0678000001755040070
:101C70001305C59E67800000175504001305059DD8
:101C800067800000175504001305859B67800000DE
:101C9000175504001305059A6780000017550400C6
:101CA00013058598678000001755040013050597F4
:101CB00067800000175504001305859567800000B4
:101CC000175504001305459467800000175504005C
:101CD0001305859267800000175504001305C59011
:101CE00067800000175504001305458F67800000CA
:101CF000175504001305C58D6780000017550400B3
:101D00001305458C67800000175504001305858A6C
:101D100067800000175504001305058967800000DF
:101D200017550400130585876780000017550400C8
:101D30001305058667800000175504001305858488
:101D40006780000017550400130545A16780000057
:101D5000175504001305C580678000008327050020
:101D60001307B000636AF7121387C1E79397270040
:101D7000B387E70083A70700B387E7006780070002
:101D800017550400130545A66384051267800000FB
:101D900017550400130545A4E39A05FE17550400E2
:101DA000130505A367800000175504001305C5AE91
:101DB000E39E05FC175504001305459C6780000051
:101DC00017550400130545ACE39205FC17550400B4
:101DD0001305459B67800000175504001305C5A92E
:101DE000E39605FA175504001305459A678000002D
:101DF00017550400130505A7E39A05F817550400C5
:101E0000130505996780000017550400130585A484
:101E1000E39E05F6175504001305C597678000007B
:101E2000175504001305C5A1E39205F617550400E4
:101E30001305859667800000175504001305059F5C
:101E4000E39605F4175504001305C5956780000057
:101E5000175504001305859CE39A05F217550400F5
:101E60001305059567800000175504001305059AB2
:101E7000E39E05F0175504001305059467800000E4
:101E80001755040013058597E39205F017550400D4
:101E90001305059367800000175504001305C58CD2
:101EA000E39605EE17550400130505A067800000B2
:101EB000175504001305459167800000130101FFC9
:101EC0002324810013040500175504001305459EC3
:101ED00023261100EF304232832644000326C4003B
:101EE00083250401175504001305059DEF30821763
:101EF0000326840183254401175504001305459DDD
:101F0000EF30421603268402832544020324810015
:101F10008320C100175504001305859C130101019E
:101F20006F304214B7170000138F976A6378BF0CA5
:101F3000938EA76A37FEFFFF378380803306D50173
:101F40001307000093070000130E6E951303130888
:101F50003305C601130515008346F5FFB387D70087
:101F60003307F700E318C5FE33B86702B385C50130
:101F70003306D501B33667021358780093188800EA
:101F800033880841B387074193D6760013988600BB
:101F9000B306D8403307D740E36CBFFA6386050425
:101FA000B305B500130515008346F5FFB387D700C9
:101FB0003307F700E318B5FEB786808093861608CE
:101FC00033B6D702B336D702135676009315860080
:101FD0003386C540B387C74093D6760013968600F4
:101FE000B306D6403307D74013178700B367F7000F
:101FF00013950701135505016780000013070000C2
:10200000930700006FF09FF99307701663F2B70C07
:10201000378300801306052D130700009307000087
:1020200013031300130E7016130506D313052500B2
:102030008356E5FFB387D7003307F700E318C5FEE3
:1020400033B86702938585E91306052DB336670219
:102050001358F8009318080133880841B3870741E3
:1020600093D6F60013980601B306D8403307D7403D
:10207000E36CBEFA6388050493961500B306D50099
:10208000130525000356E5FFB387C7003307F700A4
:10209000E398A6FEB78600809386160033B6D70273
:1020A000B336D7021356F600931506013386C540A2
:1020B000B387C74093D6F60013960601B306D64001
:1020C0003307D740131707013365F7006780000017
:1020D00013070000930700006FF0DFF9130101FA06
:1020E00023206105232A9103232E1104232C81042C
:1020F000232A910423282105232631052324410581
:1021000023225105232E7103232C81032328A103AD
:102110002326B103232CB10023261101938C060042
:10212000138B060063C4F600138B0700130C070023
:102130006354E600130C06009737040083A7873E1C
:1021400083A7070083A70700832781016352F00E4E
:10215000B3079603130D1000331D0D012328010052
:10216000974B0400938BCB7A974A0400938A4A7961
:10217000232EF100B3076501232AF1008325010115
:102180001745040013050577130A0000EF20926D30
:102190000324410163588007635C600513050D004B
:1021A000EF1054188327C100130905009389050017
:1021B000639E070AB304644183CD04009384140032
:1021C00013850D00EF1014161306090093860900FD
:1021D000EF304347EF20147F93050000EF20443B8E
:1021E00093850D0013850A00EF20D267E31694FC57
:1021F0001305A000130A1A00EF00046B33049401C6
:10220000E31C8AF9832701011305A000138417003A
:1022100023288100EF004469832741010327C1017E
:10222000B387E700232AF10083278101E39887F42D
:102230008320C10503248105832441050329010569
:102240008329C104032A8104832A4104032B010446
:10225000832BC103032C8103832C4103032D010332
:10226000832DC1021301010667800000B30D644194
:102270006F00400213850400EF20D46413060500AC
:102280009386050013850B00EF20D25D938D1D0012
:10229000E3808DF603C50D00EF10D4081306090086
:1022A00093860900EF30033AEF20D47193050000C4
:1022B00093040500EF20C42DE35E05FA13850400A6
:1022C000EF205460130605009386050017450400AF
:1022D00013058563EF2012596FF05FFB130101FABC
:1022E00023206105232A9103232E1104232C81042A
:1022F000232A91042328210523263105232441057F
:1023000023225105232E7103232C81032328A103AB
:102310002326B103232CB10023261101938C060040
:10232000138B060063C4F600138B0700130C070021
:102330006354E600130C06009737040083A7871E3A
:1023400083A7070083A70700832781016352F00E4C
:10235000B3079603130D1000331D0D012328010050
:10236000974B0400938BCB5A974A0400938A4A599F
:10237000232EF100B3076501232AF1008325010113
:102380001745040013050557130A0000EF20924D6E
:102390000324410163588007635C600513050D0049
:1023A000EF1044788327C1001309050093890500C5
:1023B000639E070AB3046441838D04009384140070
:1023C00013850D00EF1004761306090093860900AB
:1023D000EF304327EF20145F93050000EF20441BEC
:1023E00093850D0013850A00EF20D247E39684FC05
:1023F0001305A000130A1A00EF00044B33049401E4
:10240000E31C8AF9832701011305A0001384170038
:1024100023288100EF004449832741010327C1019C
:10242000B387E700232AF10083278101E39887F42B
:102430008320C10503248105832441050329010567
:102440008329C104032A8104832A4104032B010444
:10245000832BC103032C8103832C4103032D010330
:10246000832DC1021301010667800000B30D644192
:102470006F00400213850400EF20D44413060500CA
:102480009386050013850B00EF20D23D938D1D0030
:10249000E3808DF603850D00EF10C4681306090074
:1024A00093860900EF30031AEF20D4519305000002
:1024B00093040500EF20C40DE35E05FA13850400C4
:1024C000EF205440130605009386050017450400CD
:1024D00013058543EF2012396FF05FFB17330400BB
:1024E0000323430403230300032303006356B01EA6
:1024F000130101FA232C8103139C1600232A910354
:10250000938C0700B3078603232E7103930B0700F8
:10251000130710002328A10333170701330D90413F
:102520002322510523206105232E1104232CF100C1
:1025300093971C00B307F500232C8104232A9104F0
:102540002328210523263105232441052326B10311
:1025500023261101232EB1002324E100232AF100B8
:10256000131D1D0023280100174B0400130BCB3B48
:10257000974A0400938A4A3A8325010117450400CB
:1025800013054537130A0000EF20D22D0324410123
:1025900063587007635C900503258100EF10845831
:1025A0008327C1001309050093890500639E070A6C
:1025B000B304A401839D04009384240013850D00BB
:1025C000EF1044561306090093860900EF30830785
:1025D000EF20543F93050000EF10947B93850D008E
:1025E00013850A00EF201228E39684FC1305A0004F
:1025F000130A1A00EF00442B33048401E39C4BF9C7
:10260000832701011305A0001384170023288100EC
:10261000EF0084298327410103278101B387E70065
:10262000232AF1008327C101E39887F48320C105A1
:102630000324810583244105032901058329C1045D
:10264000032A8104832A4104032B0104832BC10341
:10265000032C8103832C4103032D0103832DC1022D
:102660001301010667800000B30DA4016F00400252
:1026700013850400EF20142513060500938605003A
:1026800013050B00EF20121E938D2D00E3808DF6B5
:1026900003950D00EF100449130609009386090005
:1026A000EF20537AEF2014329305000093040500C5
:1026B000EF10146EE35E05FA13850400EF209420FA
:1026C00013060500938605001745040013054525EC
:1026D000EF2052196FF05FFB67800000130101F9D2
:1026E0002326710523261106232481062322910621
:1026F00023202107232E3105232C4105232A5105B0
:102700002328610523248105232291052320A10587
:10271000232EB103832B410717330400032383E0E7
:102720000323030003230300635CC018232AE10092
:102730003387E6022328F100B385A540B3070501DE
:102740002322F102B3870541232CF100B707008053
:10275000232601012326C1022324E10213071000CE
:1027600033171701232EE10023200102B3CD770197
:1027700083250102174504001305C517130C00003B
:10278000EF20520E83270101032A4102974C0400D7
:10279000938C8C1A6350F0108327C100635EF00C99
:1027A0000325C101EF100438832701071304050036
:1027B00093840500639E07148327C1003309FA4000
:1027C00083278101B38947016F00400213850D0003
:1027D000EF105450634CA00613850C00EF209208B4
:1027E000130919009389190063084909030D0900A9
:1027F000038B090013050D00EF10C432130604000B
:1028000093860400EF201364EF20D41B930A050085
:1028100013050B00EF100431130604009386040027
:10282000EF205362EF20141A9305050013850A0068
:10283000EF20841D93050500930A050013850B0006
:10284000EF10145593850A00E35205F89305000034
:1028500013850A00EF10D453B3056D416340050A98
:10286000174504001305C50C13091900EF20827FDA
:1028700093891900E31C49F71305A000EF00C40277
:1028800083274101130C1C00330AFA00832701013E
:10289000E39487F1832701021305A0001384170036
:1028A00023208102EF004400832741020327810295
:1028B000B387E7002322F1028327C102E39A87EA64
:1028C0008320C106032481068324410603290106CF
:1028D0008329C105032A8105832A4105032B0105AC
:1028E000832BC104032C8104832C4104032D010498
:1028F000832DC1031301010767800000B3056D41FB
:10290000174504001305C5FFEF20C2756FF05FED9A
:102910008327C1003309FA4083278101B389470126
:102920006F00400213850A00EF10944663460506C7
:1029300013850C00EF200273130919009389190005
:10294000E30C2AF303050900EF10C41D130604006D
:1029500093860400EF20134FEF20D406930A05005E
:1029600003850900EF10041C13060400938604007D
:10297000EF20534DEF2014059305050013850A0041
:10298000EF20840893850B00930A0500EF10943420
:1029900093850D00E358A0F89305000013850A0005
:1029A000EF10143F6342050213850A00EF20847183
:1029B000130605009386050017450400130545F529
:1029C000EF20426A6FF05FF713850A00EF20846FF3
:1029D0001306050093860500174504001305C5F28C
:1029E000EF2042686FF05FF5130101F923267105AE
:1029F0002326110623248106232291062320210762
:102A0000232E3105232C4105232A51052328610556
:102A100023248105232291052320A105232EB10320
:102A2000832B4107173304000323C3AF03230300A1
:102A3000032303006350C01A131717002326E10075
:102A40003387E602938C0700B3060041B385A540A7
:102A50002326C10213061000331616012328010194
:102A6000232EC100232001022324E10213171800A2
:102A7000B307A7002322F10293971600232CF1003D
:102A8000B387E540232AF100B7070080B3CD770173
:102A900083250102174504001305C5E5130C00004A
:102AA000EF20425C032A4102635090118327010109
:102AB0006350F00E0325C101EF10C4068327010700
:102AC0001304050093840500639E07148327810186
:102AD0003309FA0083274101B309FA006F0080022D
:102AE00013850D00EF10141F634EA0061745040058
:102AF000130585E5EF200257130929009389290062
:102B000063084909031D0900039B090013050D0013
:102B1000EF1044011306040093860400EF20933263
:102B2000EF20446A930A050013050B00EF00947F21
:102B30001306040093860400EF20D330EF2084684E
:102B40009305050013850A00EF10146C930505002A
:102B5000930A050013850B00EF10942393850A0058
:102B6000E35005F89305000013850A00EF10542286
:102B7000B3056D41634E050817450400130545DC98
:102B800013092900EF20024E93892900E31C49F71D
:102B90001305A000EFF053518327C100130C1C0054
:102BA000330AFA00E3948CF1832701021305A00095
:102BB0001384170023208102EFF0134F8327410273
:102BC00003278102B387E7002322F1028327C10292
:102BD000E39087EC8320C106032481068324410609
:102BE000032901068329C105032A8105832A41059A
:102BF000032B0105832BC104032C8104832C410486
:102C0000032D0104832DC103130101076780000018
:102C1000B3056D4117450400130505D0EF2082442C
:102C20006FF09FED832781013309FA00832741016B
:102C3000B309FA006F00800213850A00EF105415E3
:102C40006348050617450400130505CFEF208241B0
:102C50001309290093892900E30C49F3031509009E
:102C6000EF00546C1306040093860400EF20931DBC
:102C7000EF204455930A050003950900EF00946A7C
:102C80001306040093860400EF20D31BEF20845327
:102C90009305050013850A00EF10145793850B0068
:102CA000930A0500EF10140393850D00E356A0F876
:102CB0009305000013850A00EF10940D634205028E
:102CC00013850A00EF2004401306050093860500D3
:102CD00017450400130545C5EF20C2386FF05FF7B4
:102CE00013850A00EF20043E1306050093860500B5
:102CF000174504001305C5C2EF20C2366FF05FF51B
:102D00001733040003230382032303000323030078
:102D1000635EC030130101FA23206105130B070025
:102D2000B38666032328A103232EC100138D070059
:102D300013061000B387050133161601330705018A
:102D40002328F100232E7103232CD100B386A54044
:102D5000B3870641232A9103232E1104232C8104D7
:102D6000232A910423282105232631052324410504
:102D700023225105232C81032326B103930B080042
:102D80002322C1002326E100232A0100974C0400DE
:102D9000938C0CB82324F1008325410117450400CE
:102DA000130545B5EF20022C232001000329010162
:102DB0008329C100930A0000174C0400130C4CB780
:102DC000635EA0096350700903254100EF0094552C
:102DD000832701001304050093840500638E070810
:102DE000832701066398070E83278100338A370102
:102DF0006F00400113050C00130A1A00EF20822611
:102E000063024905830D0A0013850D00EF009451FC
:102E10001306040093860400EF20D302EF20843AC7
:102E200093050000EF10C47693850D00E35405FC74
:102E3000174504001305C5AC130A1A00EF208222BF
:102E4000E31249FD1305A000938A1A00EFF0D32581
:102E5000B389690133096901E3165DF71305A00021
:102E6000EFF0932483270100639807149307100061
:102E70002320F1006FF09FF3832701066396070C70
:102E8000338A79416F00400113050C00EF20821D49
:102E9000130A1A00E38849FB830D0A0013850D000D
:102EA000EF0054481306040093860400EF20837952
:102EB000EF20443193050000EF10846D93850D00E1
:102EC000E35405FC17450400130585A3EF20821980
:102ED0006FF01FFC83278100B38D37016F00400224
:102EE00013050A00EF20041E130605009386050053
:102EF00013850C00EF200217938D1D00E3842DF540
:102F000003850D00EF0014421306040093860400AD
:102F1000EF204373EF20042B93050000130A0500F4
:102F2000EF100467E35E05FA13050A00EF20841929
:102F30001306050093860500174504001305C59C7C
:102F4000EF2042126FF05FFBB38D79416F004002BA
:102F500013050A00EF2004171306050093860500E9
:102F600013850C00EF200210938D1D00E38CB9ED4A
:102F700003850D00EF00143B130604009386040044
:102F8000EF20436CEF20042493050000130A050092
:102F9000EF100460E35E05FA13050A00EF208412C7
:102FA0001306050093860500174504001305C59513
:102FB000EF20420B6FF05FFB832741011305A00058
:102FC00013841700232A8100EFF0130E0327C1009A
:102FD000832781013307F7002326E100032701013E
:102FE000B307F7002328F1008327C101E39687DAAE
:102FF0008320C1050324810583244105032901059C
:103000008329C104032A8104832A4104032B010478
:10301000832BC103032C8103832C4103032D010364
:10302000832DC10213010106678000006780000044
:10303000172304000323034F032303000323030088
:10304000635EC030130101FA23206105131B1700D2
:10305000232A9103938C0700B3876603930610001D
:10306000B3961601330700412322D100232C81039C
:10307000232E1104232C8104232A910423282105C3
:10308000232CF10093171800B306F500B387F50061
:103090002328F10093171700232631052324410527
:1030A00023225105232E71032328A1032326B103D4
:1030B00023200101232EC1002326D1002324F10067
:1030C000232A0100174C0400130C0C8683254101B0
:1030D0001745040013050582130D0000EF109278C8
:1030E000974B0400938BCB85032901018329C100F1
:1030F000930A0000635E900983270100635EF00677
:1031000003254100EF0014221304050093840500F9
:103110008327010663080D086394070E8327810047
:10312000330AF9006F00400113850B00130A2A00CF
:10313000EF10527363022A05831D0A0013850D00E8
:10314000EF00541E1306040093860400EF20834F03
:10315000EF20440793050000EF10844393850D0092
:10316000E35405FC173504001305057B130A2A00F8
:10317000EF10526FE3122AFD1305A000938A1A0084
:10318000EFF08372B389690133096901E3965CF753
:103190001305A000EFF0437163180D14130D100018
:1031A0006FF09FF46398070C83278100338AF9003E
:1031B0006F00400113850B00EF10D26A130A2A003A
:1031C000E30C3AFB831D0A0013850D00EF009415F4
:1031D0001306040093860400EF20C346EF10947E8C
:1031E00093050000EF10C43A93850D00E35405FCED
:1031F0001735040013054572EF10D2666FF01FFCFF
:1032000083278100B30DF9006F00400213050A0007
:10321000EF10546B130605009386050013050C0090
:10322000EF105264938D2D00E3882DF503950D006A
:10323000EF00540F1306040093860400EF20834030
:10324000EF10547893050000130A0500EF10443482
:10325000E35E05FA13050A00EF10D46613060500B5
:1032600093860500173504001305856BEF10925FF8
:103270006FF05FFB83278100B38DF9006F00400280
:1032800013050A00EF101464130605009386050069
:1032900013050C00EF10125D938D2D00E38E3DEDB4
:1032A00003950D00EF001408130604009386040034
:1032B000EF204339EF10147193050000130A050045
:1032C000EF10042DE35E05FA13050A00EF10945F7A
:1032D00013060500938605001735040013054564A1
:1032E000EF1052586FF05FFB832741011305A000D8
:1032F00013841700232A8100EFF0035B0327C1002A
:10330000832781013307F7002326E100032701010A
:10331000B307F7002328F1008327C101E39887DA78
:103320008320C10503248105832441050329010568
:103330008329C104032A8104832A4104032B010445
:10334000832BC103032C8103832C4103032D010331
:10335000832DC10213010106678000006780000011
:10336000130101FE232E1100232C8100232A91003A
:103370002328210123263101930700016310F6065B
:1033800083A786001304801903A90600B307F4027B
:103390009304050013044903938905003304F400E2
:1033A00003250400EF00005393050400032481016A
:1033B0008320C101130305001387140093860400C2
:1033C00013860900832441018329C10013050900E4
:1033D00003290101130101026700030017350400EE
:1033E00013050557930600019385C1EAEF004002DB
:1033F0008320C101032481018324410103290101A8
:103400008329C1001305F0FF13010102678000004A
:10341000130101FB2326110223248102232291029E
:10342000232021032326110523240105232ED10265
:103430002320E1042322F104232AB102232CC10218
:1034400013090500EF10925C9737040093874753E8
:1034500083A5070003A6470083A6870003D7C700FC
:1034600083C7E70093040500130595012328B100E5
:10347000232AC100232CD100231EE100230FF100D9
:10348000EFF0833F832641010327810103280101D7
:103490008357C10113040500138614009305090026
:1034A0001305E500232004012322D4002324E40093
:1034B0002316F400EF9092069307410393850700CB
:1034C000130504002326F100EFF043411305040027
:1034D000EFF0C33B8320C102032481028324410215
:1034E000032901021301010567800000130101FB9C
:1034F00023248104130481003306B50093060000E1
:1035000093050500130504002326110423229104CA
:1035100023202105232E3103232C4103232A510389
:1035200023286103EFD0DFC913050400EFD0DFF3D8
:10353000EFF083349757040023A0A7EE130504008F
:10354000EFD09FF5EFF043339757040023A8A7EC83
:1035500097540400938444EC130A4100930901003A
:10356000973A0400938A8A49173B0400130B4B4691
:10357000173904001309C941130504002320010071
:1035800023220100EFD05FF103A7440093850900D7
:103590009306050013060A0013050400EFE00FBDB3
:1035A000930705009305050013050900638A0700CA
:1035B0008326410003260100EFF09FE56FF0DFFB5B
:1035C0008327010063C2070413060000930510005F
:1035D000130504006390070283A60400EFE08F8BBD
:1035E000E30C05F89305050013050B00EFF05FE20F
:1035F0006FF09FF8032641009385070013850A00AA
:10360000EFF01FE16FF05FF703A7040003A644008B
:10361000832541009306040013850700EFE08FBC6B
:103620006FF09FF583A6450383A7450103A305001B
:10363000032805043386F60203A785031725040033
:10364000032545EE8327050083A8C502330707013C
:103650001308100023A0070117280400032848F1CD
:1036600003280800B38666023307C70023A2E700D9
:1036700023A4170117270400032787E623A6D700F2
:103680006366F8020327070083A645021317270085
:10369000B387E70003A785022320F50023A4D50202
:1036A00023A2E502130500006780000083A64502FF
:1036B0002320070003A785022320F50023A4D502B9
:1036C00023A2E50213050000678000009307B00203
:1036D00063EEA71E138701EC131525003305E500E3
:1036E00083270500B387E7006780070017250400DC
:1036F000032585E86780000017250400032585DC85
:103700006780000017250400032505EA6780000094
:10371000172504000325C5E867800000172504006D
:10372000032585E36780000017250400032505DFD6
:103730006780000017250400032545D96780000035
:10374000172504000325C5D867800000172504004D
:103750000325C5E667800000172504000325C5D6AC
:103760006780000017250400032545D96780000005
:1037700017250400032505D26780000017250400E3
:10378000032505E36780000017250400032585D77E
:103790006780000017250400032585D86780000096
:1037A00017250400032585D4678000001725040031
:1037B000032505DA67800000172504000325C5DA14
:1037C0006780000017250400032585DB6780000063
:1037D00017250400032545CE678000001725040047
:1037E0000325C5D267800000172504000325C5DD29
:1037F0006780000017250400032545D86780000076
:1038000017250400032505D567800000172504004F
:10381000032585CC6780000017250400032585D784
:103820006780000017250400032505D96780000084
:1038300017250400032585D26780000017250400A2
:10384000032545D067800000172504000325C5CE59
:103850006780000017250400032545CD6780000020
:10386000172504000325C5CD678000001725040037
:10387000032505D56780000017250400032585CBA7
:1038800067800000172504000325C5C86780000075
:1038900017250400032505D26780000017250400C2
:1038A0000325C5CF67800000172504000325C5C385
:1038B0006780000017250400032545C067800000CD
:1038C00017250400032545BD67800000130500008F
:1038D000678000009307B00063E6A70A138701F72B
:1038E000131525003305E50083270500B387E7009E
:1038F0006780070017250400032545C9678000007D
:1039000017250400032585BA6780000017250400E9
:10391000032505C067800000172504000325C5C0E6
:1039200067800000172504000325C5C767800000D5
:10393000172504000325C5B867800000172504007B
:103940000325C5C66780000017250400032505B9B7
:1039500067800000172504000325C5C267800000AA
:1039600017250400032545BE6780000017250400C5
:103970000325C5BD6780000017250400032505C584
:103980006780000013050000678000000328060020
:1039900003A3060083A846009307F8FF13D7F70197
:1039A0003307F7009357F801B38707011357174000
:1039B0003307670293D71740032846009306F8FFA2
:1039C00013D6F6013306D6009356F801B3860601E6
:1039D000B38767021356164093D616403307B702D3
:1039E000330616033385A5023307C700B387B70232
:1039F0003305E540B3861603B387D7003305F5409A
:103A000067800000130101FD232E31018329470047
:103A1000232C4101032A07009387F9FFB387B700DE
:103A200023248102938509001304050013850700F0
:103A3000232611022322910223202103232A51014C
:103A40002328610123267101232481011309060023
:103A500093840600EFC0DF90130B0500032C0900D0
:103A60001305FAFF93050A0033058500EFC05F8F49
:103A70001307FCFF9357F701B387E70003A4040083
:103A8000B30A650393050A0013D51740EFC05F8D95
:103A9000832B490003A94400938509001387FBFF8A
:103AA0009357F701B387E700B304850213D5174096
:103AB000EFC01F8B9357FC01B387870193050A0062
:103AC0003307250313D51740B3846403B384E4009C
:103AD000EFC01F893304850213D5FB01330575013F
:103AE0009385090013551540EFC09F878320C102BD
:103AF000B3849A408329C101032A810133046403FA
:103B0000832A4101032B0101832BC100032C810077
:103B100033052503032901023305A4000324810290
:103B20003385A44083244102130101036780000010
:103B3000130101FA232A910423244105232061055E
:103B400093040800138B0700172A0400032A0AA213
:103B500083280A002328210533099B022326B10369
:103B6000939D170083A7C81503A38805232E11046E
:103B700013884701232C81049387170023263105DE
:103B800023225105232E7103232C8103232A910321
:103B90002328A1031318280023AEF814B3880801C2
:103BA00023A66800930A050013850D00138C0500F9
:103BB00013040700130D0600938B06001319190058
:103BC000EF0042109309050013050900EF00820F72
:103BD0002326A10013050900EF00C20E972C040054
:103BE00083AC4C9483A80C009307100017270400A3
:103BF0000327079823A0F800832EC10023A2880181
:103C00000327070023A4A800232CD101232EA10001
:103C100023A66801637C172123A0F80023A2A80132
:103C200023A4D80123A62801172C0400032C4C8BB5
:103C30009307200023A0F80023A268019307100037
:103C400023A4F80023A6F800B7170100938707BD47
:103C500023A0F8009307000423A2F80023A4A800DF
:103C600023A638019307200023A0F80023A26801AF
:103C700023A498009307100023A6F800B7070400B8
:103C80009387270023A0F80023A2B80123A40800EB
:103C90009307200023A6F80023200C00930F0000B8
:103CA0006358800E93921400B3075B023738040008
:103CB00093161400138E0A00130B00001303000068
:103CC000930500001308F8BC930310003306FD00B1
:103CD0006F00800523A2C80023A4A80023A6280102
:103CE0006376170793952500130501023305B50088
:103CF000032585FF23A00801130B100023A2A800B1
:103D000023A4380123A6C801930F0000330E5E00E0
:103D10003306F600635A830613050102B305B500A6
:103D200003A585FF93050F003303930023A07800BC
:103D3000930E050013CF1500E31E83F823A278012C
:103D400023A4A80023A6D800E36E17F993952500B5
:103D5000130D0102330DBD0013952F00032D8DFFB0
:103D6000B388A80023A0080123A2A80123A4380136
:103D700023A6C80163681719B388A800330E5E0034
:103D80003306F600E34A83F863040B002320FC01AA
:103D90009307200023A0F80023A2880093071000B7
:103DA00023A4F80023A6F80063761713B7370000A2
:103DB000938797BC23A0F80023A2580123A4D8011D
:103DC00023A6580123200C0003270A008320C105E5
:103DD000032481058326C71523A01C0183244105E4
:103DE0009387360193972700B307F70083A7C7008F
:103DF0009386F6FF232ED714232CF70403290105FD
:103E00008329C104032A8104832A4104032B01046A
:103E1000832BC103032C8103832C4103032D010356
:103E2000832DC1021301010667800000171C0400E6
:103E3000032C0C6B832F0C0093962F00B388D800B3
:103E400023A0F80023A2A80123A4D80123A62801B7
:103E5000E36017DFB388D8001306200023A0C80052
:103E600023A2680123A4F80023A6F800E36E17DD5F
:103E7000B7150100B388D800938505BD23A0B8000D
:103E80009305000423A2B80023A4A80023A63801A8
:103E9000E36A17DDB388D80023A0C80023A2680115
:103EA00023A4980023A6F800E36A17DDB7070400EF
:103EB000B388D8009387270023A0F80023A2B80175
:103EC00023A4080023A6C800E36817DDB388D80040
:103ED0006FF01FDD83270C00B7360000938696BC79
:103EE00093972700B388F80023A0D80023A2580195
:103EF00023A4D80123A65801E36617EDB388F80080
:103F00006FF09FEC130B1000930F00006FF01FE099
:103F1000130101F2832E010E8322410F832F410EE4
:103F2000232A910B2326B10B930C07002322510661
:103F3000138707008322C10F9307080083AD4E004B
:103F40001388080083AE0E008328C10E232C810B3A
:103F5000032C010F232A910C2328210D2326310D38
:103F60002324410D2320610D232E110C232C810CC1
:103F70002322510D232E710B2328A10B232EF10593
:103F8000130E10002320110723285100232CD101E8
:103F90001303050013890500130F06008324810E07
:103FA000032A810F130B000083A90F006314CC01B7
:103FB000E38E882D2326D10083268101232AF10652
:103FC00083A704001385F6FF232EE10203A7440014
:103FD0003305F5029387FDFF93850900232291099C
:103FE0002324E101232A6104171404000324445804
:103FF000B387E70203270106130515003305A74021
:10400000B3898903B30CFC40EFC08FB59717040048
:1040100083A7475103A70700B7070400938727002A
:104020002320F700232207008327040093961C0017
:1040300023243701232CD1062326D700930B150008
:1040400063E6E7469717040083A787492324F10412
:1040500083A70700939727003307F70083270106FC
:104060009716040083A6064C23A0E600B305FC02C5
:104070009717040083A7874F83A7070003A7C715D7
:1040800003A687059306470193962600338D7C038C
:104090001307170023AEE714B387D70023A6C70082
:1040A00013850500232CB104EFF0D14193090500DD
:1040B00003258105EFF0114193171D00232EA10860
:1040C000138507002320F104232C3109EFF0913FE1
:1040D0009716040083A6064503A706009307100061
:1040E00003240400832581052320F70023222701D0
:1040F00023243701232AE1022326B70083278104E2
:10410000E364E41283A707002322F10493972700B6
:10411000B307F700232AF10217170400032787408B
:104120002320F700032701016310074C03274107F1
:104130006350E04283268101B7350100232201024A
:104140003306D7020327C100B7330000032E410412
:104150002328E10603278100130F000093080000C5
:104160002326E106032741063388B603B71601006C
:10417000938906BD3307E9002324E10613972D0038
:10418000232EE10013971D002320E102938393BCAB
:10419000B306B60313060800131616002324C1083D
:1041A0001386F53C2328C100131828002326010993
:1041B0001307000013962600939616002326D104B9
:1041C00093060B00130B0D00138D0600832641028E
:1041D0002328C1040326410793861600232ED10607
:1041E00063CAC6208326C1036352D03493C6180025
:1041F0002320D1080326410893962800032841056F
:10420000232AC1000326C106232C0102130900043E
:104210002326C102032601072328C1021306010A2F
:10422000B306D6002324D102832681016354D01221
:104230008326C102930E0000930820002326D1009C
:1042400083260103930510002324D100635EB00D83
:1042500003278102832287FF03274102B36FD7011F
:104260001307000063020A2A032681009316270021
:10427000B306D60083AA060023A0170123A2970144
:1042800023A4770123A6B70083A60400636AF4225F
:10429000B386DE0203A3440013162E00B387C700C3
:1042A00023A0370123A22701B386860333036702C5
:1042B000B3866600B386D20023A4D70023A6A70046
:1042C0006364F422B387C70023A0170123A2670108
:1042D00023A4B70023A6B7006360F422B387C70006
:1042E000B366F7016380061663040A18832601018A
:1042F00023A0D70023A2570123A4A70023A6A70029
:104300006376F41823A0770023A2070123A4A70053
:1043100023A60701130F1000130E00001307170048
:10432000E392EDF413071000832681000326C101F8
:10433000938E1E00B386C6002324D10003260102FB
:104340008326C100B386C6002326D10083268101BF
:10435000E39ED6EF0326010383250105832681030F
:104360003306B6002328C1028325C1040326C102F7
:1043700093861600232CD1023306B6002326C102F1
:10438000032601043308C800032641011306260052
:10439000232AC1000326C103E3C8C6E88326C10758
:1043A0000326410763D4C618832601070326C108E4
:1043B00083280108B386C6002328D1060326810876
:1043C0008326C106B386C6002326D10603264106EE
:1043D00083268106B386C6002324D1068326C1071F
:1043E000032641072322D10293861600232ED106ED
:1043F000E3DAC6DE13C718009306010A2320E1089A
:10440000131727003387E6009306100023A0D70078
:1044100083268106032787FF23A2D70023A4E70072
:104420000327810523A6E7006364F41A13172E00FF
:10443000B387E7000327C1036354E01A1307100092
:104440006FF05FDB8326410137330100130343BC68
:104450008396060023A0670023A2D70023A40700A9
:1044600023A60701636CF40AB387C700E3100AE8C8
:10447000B73601009386F6BC23A0D70023A2A7017C
:1044800023A4A70023A6A700E36EF4E6B387C70022
:1044900023A0770023A2070123A4A70023A60701D6
:1044A000E36CF414B387C7006FF05FE7971704005D
:1044B00083A707032324F10423A007006FF01FBA8A
:1044C000B386DE0203A6440023A0370123A22701FE
:1044D000B38686033306C702B386C600B386D2000E
:1044E00023A4D70023A6A70023A0170123A26701B6
:1044F00023A4B70023A6B70013060000130F100073
:10450000130E00006FF0DFDD0326C10093161700C5
:10451000B306D600039D06006FF01FD6130E0000F1
:1045200013060000130F10006FF01FDC630A070072
:1045300017170400032707FF2320F700232AF1029F
:1045400063080F00832781042322C10523A0C7012C
:104550008327C1059309200003A747006308374359
:10456000930740006308F7589717040083A70700D4
:1045700003A707008320C10D0324810D8326C715DF
:104580008324410D0329010D93873601939727005A
:10459000B307F70083A7C7009386F6FF232ED7142F
:1045A000232CF7048329C10C032A810C832A410C94
:1045B000032B010C832BC10B032C810B832C410B90
:1045C000032D010B832DC10A1301010E678000002A
:1045D0000327C103130F1000130E0000E340E0E6B1
:1045E000130710006FF05FDC8327C103E352F0F67E
:1045F0000327C10083278101371801002326E10228
:1046000003278100B387FD02B73601002324E102AE
:104610000327410823220102130808BD2328E100D3
:104620000327410623240101373800003307E9003E
:104630001389F63C83264102130898BC2328E10223
:1046400013972D00232EE100232601011397270045
:104650000328C103939717002326F10493861600BD
:1046600093971D002328E104232AF1002322D1027D
:10467000832841050323410483274103930E00004F
:1046800013070000130600009305100063C8061905
:10469000832681016352D02C93461600232CD1022D
:1046A00093162600832281021306010A832FC1027A
:1046B000B306D600130800002320D102130E2000F9
:1046C000635CB00D03270102032F87FF130700006F
:1046D000630E0A2493162700B386DF0083AA060020
:1046E00023A0C70123A2970123A4770123A6B70023
:1046F00083A604006364F41EB306D80283A94400B1
:104700008323810013162300B387C70023A07700FB
:104710009303000423A27700B3868603B30937030B
:10472000B3863601B306DF0023A4D70023A6A70073
:10473000636EF41CB387C70023A0C70123A2A7019F
:1047400023A4B70023A6B700636AF41CB387C7008D
:10475000B366E800638A061063020A1423A02701E7
:1047600023A2570123A4A70023A6A7006376F4146D
:104770008326C100930E10001303000023A0D7006E
:1047800023A2170123A4A70023A6170113071700CC
:10479000E390EDF4130710008326C10113081800FD
:1047A000B38FDF0083264101B382D20083268101CB
:1047B000E348D8F0832641020326C10363DEC6180E
:1047C0008326C102032601050328C103B386C60060
:1047D0002326D1020326C10483268102B386C600A4
:1047E0002324D1028326010403264106B388D8007E
:1047F00083260101938626002328D1008326010306
:10480000B386C6002328D1028326410203268103F2
:10481000938616002322D102E3DC06E71347160035
:104820009306010A232CE102131727003387E600C1
:1048300083260103032787FF23A0B70023A2D70005
:1048400023A4E7000327810523A6E7006360F41093
:1048500013172300B387E700832681011307100095
:10486000E340D0E46FF0DFF5832301018399030077
:10487000B7330100938343BC23A0770023A2370101
:1048800023A4070023A61701636AF40A9306030012
:10489000B387C70013830600E3120AECB7360100A2
:1048A0009386F6BC23A0D70023A2670123A4A70008
:1048B00023A6A700E36EF4EA8326C100B387C700EE
:1048C00023A0D70023A2170123A4A70023A6170122
:1048D000636EF450B387C7006FF05FEBB306D80286
:1048E00003A644000323810023A0670013030004F0
:1048F00023A26700B38686033306C702B386C600C9
:10490000B306DF0023A4D70023A6A70023A0C70176
:1049100023A2A70123A4B70023A6B7001306000013
:10492000930E1000130300006FF09FE29316170020
:10493000B386D200039B06006FF09FDA13060000D7
:10494000930E1000138306006FF01FF5930E1000F6
:10495000130300006FF05FF0630A070017170400ED
:10496000032747BC2320F700232AF102E3820EBE6F
:1049700083278104232261049309200023A0670078
:104980008327C10503A74700E31C37BD83278101A7
:10499000B306FC4093D7F601B387D70093D71740EF
:1049A0009387170093F6170063980608B387FB02F6
:1049B0000326C1038326410323A0E600130710004A
:1049C000B387C70223A2F60023A4E60023A6E600CD
:1049D0006366D40A0327410413172700B387E60050
:1049E000232AF10283264103B75701009387873CAE
:1049F00023A0F60023A20600938706008326410524
:104A000023A4D70023A6D7006360F40EB387E70082
:104A1000232AF102032741039717040083A787B0D5
:104A200023A0E7006FF05FB423A007002322010456
:104A3000930707006FF04FEE8326C103032641035F
:104A4000B38676032320E6002322F6001307100026
:104A5000939717002324D6002326E6006376C434F8
:104A600037070400130727002320E60003278107E8
:104A7000232206002324E6002326F6008327810450
:104A80001307000023A007006FF0DFF563941DD328
:104A90006392BED36390D9D383A84F00639C38D16F
:104AA000631A0AD0635800D10324810D8320C10DFD
:104AB0008324410D0329010D8329C10C032A810C94
:104AC000832A410C032B010C832BC10B032C810B7C
:104AD000032D010B832DC10A93860C00832C410BFF
:104AE0001301010E6FF0CF848327810423A00700F8
:104AF0006FF05FF2832781010329C105330CFC406D
:104B000083270106832509009354FC013385B741AF
:104B1000EFB01F8583264103B384840193D41440EE
:104B200023A036019384140023A2960013051500D8
:104B300023A4A6009307100023A6F6006366D422E0
:104B40008327090003274104B387FC0213172700BA
:104B50003386E600B7060400938626002320D6009D
:104B60002322060093961400232AC102939717006C
:104B70002324F6002326D600636EC420B307E60084
:104B8000232AF1028327C1036350F00AB387A402EA
:104B9000032341053758010003264104130E030087
:104BA000930E0000930800001308883C032F410374
:104BB000939717006F000002832F01049388180059
:104BC000330FBF00330EFE01832FC1033303F30005
:104BD00063801F0523200F0123220F002324CF0110
:104BE00023266F0093152600E378E4FD832F01044C
:104BF0009388180093050000330EFE01832FC10334
:104C0000930E1000130600003303F300E3941FFD1E
:104C1000232AE103638A0E0083278104138705009A
:104C20002322C10423A0C7009357FC41032841035A
:104C300093F73700B38787011306200093D72740E7
:104C40002320C800938717002322F8002324A800FC
:104C5000130610002326C80093951700637E040DE9
:104C600037070400130727002320E8002322080049
:104C70002324D8002326B80003278104232201041B
:104C80002320070003234103171704000327878904
:104C9000232067000327C103E358E08CB384A402F8
:104CA00003274105B75601001308000093050700CC
:104CB000130600009386863C83284104B307F5025F
:104CC0009394140013050300939717006F00C0011D
:104CD000330565000323C10313061600330797004D
:104CE000B385F500630CC3022320D5002322050001
:104CF0002324E5002326B50013932800E37AA4FCBF
:104D00000323C103130616001308100093080000C4
:104D100033079700B385F500E318C3FC9717040029
:104D200083A7478023A0A700E3000884832781048A
:104D300023A017016FF05F83370604003308E800F3
:104D4000130626002320C800232208002324D800AD
:104D5000232A01032326B800E36004F33307E800A5
:104D6000232AE1026FF01FF28327090037070400AE
:104D700013072700B387FC0223A0E60023A2060046
:104D80001387060093961400939717002324F700C7
:104D90002326D70083278104130700002322010460
:104DA00023A007006FF01FDE03274104131727001D
:104DB000B306E60013860600232AD102B7060400D4
:104DC000938626002320D6002322060093060600A1
:104DD0000326810723A4C60023A6F600E360D4CAF5
:104DE000B387E600232AF1026FF0DFBF930E1000B5
:104DF000130300006FF09F99130F1000130E0000B3
:104E00006FF0CFD11703040003234376032E030072
:104E1000138301FA83230300832F8300032FC3002E
:104E2000832E03018322430003230E05130101F4A3
:104E30002326310B2324410B2322510B2320610B0A
:104E4000232E7109232C8109232A91092326B109D4
:104E500023267106232AF107232CE107232ED107ED
:104E6000232E110A232C810A232A910A2328210B9D
:104E70002328A10923285106930E4000930F060012
:104E8000930D050093830500938C0600130A070019
:104E900013860700930A0800138F0800032B010CE8
:104EA000832BC10C8329010D032CC10EE3E46E0A90
:104EB00013172300930701083387E700032DC7FE6C
:104EC0009387FCFFB387C7020325410C93050F00AE
:104ED0002326F101232271008314CE012320E10156
:104EE00093942400938717003305F540EFB04FC724
:104EF0009307FAFFB3875703130715000325810CA7
:104F000093050B002324E100938717003305F54038
:104F1000EFB00FC58325410E130915000325C10D00
:104F2000EFB00FC4130405008325410E0325010EC5
:104F3000EFB00FC3B757555513872C0093876755AC
:104F40003336F7021357F741B377F7002324A10252
:104F5000B7050005032F010083234100832FC10003
:104F60003306F6403306E640B307CA02B38787022A
:104F70002322F1028327810E63940700B705000402
:104F800063040C00370C00028327410297060400DB
:104F900083A6065E130710009387F7FF93F7F70FBA
:104FA000B3E7B700B3E78701232CF10097070400AC
:104FB00083A7475783A7070003A806006354471138
:104FC000B38A7A03B70604009386260023A0D7008D
:104FD0009706040083A6C6502326D10023A25701BA
:104FE00023A4570123A60700637AF80823A006002C
:104FF0009306300063DA966937070200130727002B
:1050000023A0E70023A2D70023A4D70023A60700EC
:105010000327C10093050000232007000325410E4C
:1050200017070400032707502320F7002322C1009D
:105030002320410113070000930600006344A018D9
:105040008320C10B0324810B8324410B0329010B13
:105050008329C10A032A810A832A410A032B010AF0
:10506000832BC109032C8109832C4109032D0109DC
:10507000832DC1081301010C6780000083A5060081
:105080009306300013952500B387A70063CC96697B
:1050900063508764370702001307270023A0E70047
:1050A00023A2370123A4370123A60700636CF85E0F
:1050B0000327C1008325070013972500B387E70066
:1050C0006F00005F9306300063DE9607B7050400AB
:1050D0009385250023A0B70023A2D70023A4D700DF
:1050E0009706040083A6C63F23A607002326D10007
:1050F0006364F85683A5060093962500B387D7000E
:105100006354876A370702001307270023A0E700CC
:1051100023A2370123A4370123A60700636EF854A6
:10512000B387D700170704000327C73F2320F700E2
:10513000232281002320C1001307000093061000E2
:105140006F00C007370704001307270023A0E700FC
:1051500023A2370123A4370123A6070033077B03CB
:105160006360F84C9706040083A6863783A5060083
:105170002326D100B706020013952500B387A700A8
:105180009386260023A0D70023A2E70023A4E700EC
:105190000327410D23A6E7006368F84AB387A700F9
:1051A00017070400032707382320F70023222101D3
:1051B0002320810013071000930610000325410EE1
:1051C000E350A0E8032581002326A1026354AD002B
:1051D0002326A10303254102375E5555130E6E5554
:1051E00013052500B338C5030323C102935EF541BF
:1051F000370501001303F3FF131383001305F5FFB5
:105200003375A3000323810133FECE01B388C84167
:105210003365650037030080336565002324A104EE
:1052200013D52400232AA1003385D8412326A104C5
:10523000130310006384060013030400930210009C
:105240006304070093020900832A8102232EB1031D
:10525000330B7B0313972A00B3085701375701001C
:10526000930D275E370701001307F7FF2320E102A4
:10527000232CF103232A7102B3868A02930E0000C5
:105280001305000023220104130C1000130E101E3E
:10529000B386460333078A02B386C6023307C702C2
:1052A00013961600B306D600B3861601232AD1043E
:1052B000931617003387E600130757002328E104ED
:1052C00033878902232EE1040327810DB30B5B0290
:1052D00033075703232CE1043307ED032328E100B0
:1052E0000327410DB3083303B30C57020327810290
:1052F0006356E02403274103832A8103232001040A
:105300002328E102232EE1001307200023A0E70059
:105310000327410123A2E70023A4870123A68701D5
:105320006362F82C0327410213952500B387A70079
:105330006358E00603260103832681041307000057
:10534000032FC1046F000002B70F008093CFFFFF4F
:1053500013071700B387A700B3F6F60113069600EC
:105360006350E70523A0B70123A2D70023A4C700F9
:1053700023A6570113952500E378F8FCB70F0080AA
:1053800093CFFFFF1307170013050000930E1000C3
:1053900093050000B3F6F60113069600E344E7FD1B
:1053A0001307200023A0E7000327010023A2970092
:1053B00023A4E7000327410023A6E700636CF82439
:1053C000B387A70003278100635CE012032AC103AF
:1053D000032BC10293090700930300001387090000
:1053E00063543D0113070D006308EB08930620008A
:1053F00023A0D700832641011306F7FF131686006A
:1054000023A2D7008326010223A4870123A68701B4
:105410003376D600832681013366D600B706008036
:105420003366D600636EF81693962500B387D700CF
:1054300023A0B70123A2C7000326C101130B070055
:1054400023A4C7003386530123A6C7006368F81658
:10545000B387D7001307200023A0E700032701002C
:1054600023A2970023A4E7000327410023A6E70017
:105470006364F816B387D700635820073385530158
:10548000930F0A00130F000013870F00930600000C
:10549000634C80006F004004B3866600B387C7008A
:1054A0003307170163DA860223A0C70123A2E700AE
:1054B0003386E40023A4C70023A6A7001396250083
:1054C000E37CF8FCB3866600930E100093050000A1
:1054D00033071701E3CA86FC330F5F00B38F7F01E8
:1054E00033059501E3422FFB03270101B383A30199
:1054F000B389A941330AEA0003278100E3C0E3EE40
:105500008326810D0326C10103270104B38ADA0033
:1055100083260105130717002320E1043306D60074
:10552000232EC10003260103B306D6002328D1028F
:1055300083268102E39AE6DC130510008326C1036B
:105540000326C10503274104B386C600232ED102DA
:105550000326810583268103130717002322E10414
:10556000B386C600232CD1020326410583264103BE
:10557000B386C600232AD1028326410EE398E6D6DD
:1055800063080500170704000327C7F92320F70065
:10559000E3880EAA8327C10023A0B7006FF05FAA9B
:1055A0008326C10123A0B70123A2C70023A4D700EB
:1055B000B386530123A6D700130B0700130720005F
:1055C00023A0E7000327010023A2970023A4E700FC
:1055D0000327410023A6E700930E10009305000067
:1055E0006FF09FE903274102930E1000930500001E
:1055F000E342E0D41307200023A0E70003270100C3
:1056000023A2970023A4E7000327410023A6E70075
:105610006FF05FDB930E1000930500006FF09FDAD0
:10562000B70602009386260023A0D70023A2E70036
:1056300023A4E7000327410D23A6E7001707040072
:10564000032707EA2326E1000327C1009305000092
:10565000232007006FF0DFB423A0060063508710FB
:10566000370702001307270023A0E70023A2370112
:1056700023A4370123A607000327C10093050000D8
:10568000232007006FF01FAA635487043707020026
:105690001307270023A0E70023A2370123A4370123
:1056A00023A607000327C10093050000232007005D
:1056B00017070400032707E72320F70023228100B0
:1056C0002320410113070000930610006FF01FAF65
:1056D000B3067B03370702001307270023A0E70068
:1056E0000327410D23A2D70023A4D70023A6E70058
:1056F0000327C100636AF804832507001397250078
:10570000B387E700170704000327C7E12320F7004A
:1057100023222101232041011307100093061000CA
:105720006FF0DFA9370702001307270023A0E70067
:1057300023A2D70023A4D70023A60700E36AF88C8E
:10574000B387A7006FF09F8D23200700930500000B
:105750006FF05FFB130DF0FF6FF08FF6B3067B0366
:10576000370702001307270023A0E7000327410D96
:1057700023A2D70023A4D70023A6E7000327C10054
:10578000930500002320070017070400032787D98B
:105790002320F700232221012320C100130710003A
:1057A000930610006FF09FA133057B0337070200BB
:1057B0001307270023A0E7000327410D23A2A7001A
:1057C00023A4A70023A6E700E36AF8FAB387D7006B
:1057D0006FF09FFB17030400032343D9130101E972
:1057E000832E0300138301FA832F030223248116DF
:1057F00083238301032443018322C30123229116BF
:1058000023202117232A51152326711523248115BE
:10581000232291152320A115232EB113232E8110AD
:105820002324F11323261116232E3115232C411581
:10583000232861152320711223225112032F4302C2
:1058400003AE0E0503240117832D4117832B811707
:10585000832CC117832A0118832FC1180329C11B68
:105860008324011C2322B10A2328F1028327011972
:10587000130C08002324C108B387870313084000D2
:105880002324D110232AE10A232E110B2326E1130E
:10589000130D0500232CF1026374C8016F104074CE
:1058A0000325030083254300032683008326C300CA
:1058B000032703011308011393172E00B307F80001
:1058C00003A8C7FE232EA1102320B1122322C11248
:1058D0002324D1122326E11283A7C7FE232E010F12
:1058E000232CF10E1395470093070800B387FF029E
:1058F00093850F002326F119039ACE012326F11078
:10590000EFA01FA62320A110832FC118E3100908C0
:1059100037070002930700002320E1086394040086
:105920002320F1088327010317070400032787BFFB
:1059300083260700B307FC0217070400032747C3A9
:10594000032B07000327C1192324D10A3386E7025A
:105950008327811A232CC10AE38207048327411875
:10596000338797038327411CE3880710B707040098
:105970009387270023A0F600B3875B03B387B703A1
:10598000B387970323A2F60023A4C6009707040059
:1059900083A707B523A6E6002320F10C6364DB0090
:1059A0006F10405C23A007009309000013870600D6
:1059B0009707040083A707B723A0E70093172A00DF
:1059C0002320F1060327411A832701089386070045
:1059D00063060700B7060080B3E6D7008327811966
:1059E000232EF102138707008327C10F63D4E7003A
:1059F000232EF102832781196358F07433875D03E6
:105A00008327811B832501033336F000832701069A
:105A10001306160093D72700232CF10833077703CA
:105A200093970F01232EF10883278103B387B702D1
:105A3000330797033306F600232CC10C13761600A8
:105A4000232AC10C0326411893F517002324B10C17
:105A50002324E10E33875C03330696032326E10EED
:105A60000327411A2324C106630407006F108043F3
:105A70002326B10C2322F108930506008327011980
:105A80000327411803250103032881033386E70216
:105A90009307F5FF232CF104032A810A03278108C9
:105AA00023205119930A0D00138D090093890B00CF
:105AB000930B0C00B307F8022326E1002328010012
:105AC00013070000232A010E232C01062326F10AC6
:105AD0008327C119B3850503B307F5022320B10459
