:1000000017C11F001301C1FFB7E22300938282636F
:1000100083A2020063880200B70200809382A200DC
:10002000232250009302100037E32300130383635D
:100030002320530097F103009381814F171504008B
:100040001305854017160400130686603306A64084
:1000500093050000EF00000917F501001305851F47
:10006000EFF0411AEFF0C124032501009305410090
:1000700013060000EFE0D1776FF0011A67800000EF
:10008000130101FF232021013719000023248100DF
:100090000324098123261100232291001305040063
:1000A000EF00505D63100502130504008320C100BA
:1000B000032481008324410003290100130101016D
:1000C00067800000930405009305050037F52300C1
:1000D0001305C552EFF0812B1304000023229980F1
:1000E0006FF09FFC1303F00013070500637EC3024B
:1000F0009377F7006390070A63920508937606FFEB
:100100001376F600B386E6002320B7002322B7005B
:100110002324B7002326B70013070701E366D7FEA1
:100120006314060067800000B306C3409396260060
:1001300097020000B38656006780C6002307B70009
:10014000A306B7002306B700A305B7002305B70031
:10015000A304B7002304B700A303B7002303B70029
:10016000A302B7002302B700A301B7002301B70021
:10017000A300B7002300B7006780000093F5F50FD8
:1001800093968500B3E5D50093960501B3E5D500B8
:100190006FF0DFF69396270097020000B3865600B3
:1001A00093820000E78006FA93800200938707FF9E
:1001B0003307F7403306F600E378C3F66FF0DFF35A
:1001C0003367B5009303F0FF137737006310071010
:1001D000B7877F7F9387F7F70326050083A605007F
:1001E000B372F6003363F600B382F200B3E262004A
:1001F000639272106316D6080326450083A6450055
:10020000B372F6003363F600B382F200B3E2620029
:10021000639E720C6316D6060326850083A68500AE
:10022000B372F6003363F600B382F200B3E2620009
:100230006398720C6316D6040326C50083A6C50016
:10024000B372F6003363F600B382F200B3E26200E9
:100250006392720C6316D6020326050183A605017C
:10026000B372F6003363F600B382F200B3E26200C9
:10027000639C720A1305450193854501E30ED6F48C
:100280001317060193970601631EF7001357060123
:1002900093D706013305F7409375F50F6390050278
:1002A000678000001357070193D707013305F74014
:1002B0009375F50F63940500678000001377F70FBF
:1002C00093F7F70F3305F7406780000003460500FA
:1002D00083C6050013051500938515006314D60029
:1002E000E31606FE3305D64067800000130545007F
:1002F00093854500E31CD6FC1305000067800000D1
:100300001305850093858500E312D6FC13050000D4
:10031000678000001305C5009385C500E318D6FA71
:100320001305000067800000130505019385050192
:10033000E31ED6F8130500006780000013060500D1
:100340001305000093F61500638406003305C5000D
:1003500093D5150013161600E39605FE678000007E
:100360006340050663C60506138605009305050070
:100370001305F0FF630C060293061000637AB600C3
:100380006358C0001316160093961600E36AB6FE73
:100390001305000063E6C500B385C5403365D5008D
:1003A00093D6160013561600E39606FE67800000EB
:1003B00093820000EFF05FFB138505006780020069
:1003C0003305A04063D80500B305B0406FF0DFF9F6
:1003D000B305B04093820000EFF01FF93305A04051
:1003E000678002009382000063CA0500634C050029
:1003F000EFF09FF71385050067800200B305B0405A
:10040000E35805FE3305A040EFF01FF63305B0407A
:1004100067800200130101FE232A910097E4030084
:1004200083A4C43583A70400232C81002326310133
:100430001304C0029389050093851700B3858502D4
:100440002328210117E90300032949352324410109
:10045000130A050003250900232E1100EFB0836E57
:1004600083A704002320A9001386F9FFB307F40231
:100470003306CA0093050A00930610003305F50001
:1004800013054500EF00D05383A70400032709009C
:100490008320C10133848702938717000329010158
:1004A0008329C100032A810033048700232004002C
:1004B0000324810123A0F4008324410113010102DC
:1004C00067800000130101FF2322910097E40300DD
:1004D00083A4C42A83A50400232481001304C0023A
:1004E00093851500B38585022320210117E90300B8
:1004F0000329C92A0325090023261100EFB08364CC
:1005000083A704002320A9008320C100338487022D
:100510001307100093871700032901003305850096
:10052000032481002320E50023A0F400832441005C
:1005300013010101678000009307C0023305F50233
:1005400097E7030083A7872583A707003385A700C4
:10055000130545006F0050719307C0023305F50283
:1005600097E7030083A7872383A707003385A700A6
:10057000130545006F005072130101FC232C81020A
:100580001304C00233048502232A91022328210385
:100590002326310323244103232251032320610313
:1005A000232E7101232C8101232A9101232E110274
:1005B000138C0500130B0600938A0600130A07002C
:1005C000930CC10097E9030083A9491D1309F0FFAB
:1005D0009304200097FB0300938B8B0303A5090072
:1005E00013070A0093860A003305850013060B00E3
:1005F00093850C001305450023262101EF10001000
:10060000630C0500630E95009305050013850B0030
:10061000EFE0D1576FF09FFC8327C100E39087FD87
:100620008320C1030324810383244103032901039D
:100630008329C102032A8102832A4102032B01027A
:10064000832BC101032C8101832C4101130101047F
:1006500067800000130101FE232C8100232A9100F2
:100660002328210123263101232441012322510182
:10067000232E1100930A0500138A05009309060032
:100680001389060093040700130420001387040055
:10069000930609001386090093050A0013850A00D2
:1006A000EFF09FEDE30485FE8320C1010324810167
:1006B00083244101032901018329C100032A810008
:1006C000832A410013010102678000009307C002E2
:1006D0003305F50297E7030083A7470C83A70700BC
:1006E0003385A700130545006F00D07A130101FE82
:1006F000930600001306000093050000232A9100D2
:10070000232E1100232C810093040500EFF01FFC21
:10071000631E05021306C1001385040013070000C1
:10072000930600009305100023260100EFF09FF2CE
:1007300013040500130504008320C1010324810173
:1007400083244101130101026780000013040500A6
:10075000130605009385040017F50300130505F043
:10076000EFE0D142130504008320C101032481017D
:100770008324410113010102678000009307C00236
:100780003305F50297E7030083A7470183A7070016
:100790003385A700130545006F0010539307000F22
:1007A00063EEC722130101ED232E311197E90300F7
:1007B00083A9C9FC2322911283A4090023202113B9
:1007C0002328611193D7F441232611122324811287
:1007D000232C4111232A5111232671112324811125
:1007E00023229111232C9100232EF100130B0600DC
:1007F000130905006306060013050102EF60D2002D
:1008000037050080130B0B013369A900635E90125A
:10081000930B000013040000130A000097EA030082
:1008200083AACAF7130C010183A70A001307140057
:1008300023288100B387770183A70700232A41017A
:10084000B33687006388071413040700338A460110
:10085000938BCB02E34A97FC6358900E930B0000F6
:1008600013040000130A0000930C010117FC03009D
:10087000130CCCE16F00C0019307140033B787005D
:10088000330A470113840700938BCB0263D6970486
:1008900083A70A0023288100232A4101B387770117
:1008A00083A70700E38A07FC13860C0093050B005F
:1008B00013050900EF1000206312050C83A4090042
:1008C0009307140033B78700330A470113840700E6
:1008D000938BCB02E3CE97FA63589006130A00007D
:1008E00013040000130C8100130BC10097FB0300DD
:1008F000938BCBD96F00C00013041400635694048B
:1009000083A70A00B387470183A70700130ACA0217
:10091000E39407FE9305090013070C0093064000BB
:1009200013060B00130504002324010023260100F5
:10093000EFF05FD2832581006398050883A4090046
:1009400013041400E34E94FA8320C112032481128D
:1009500083244112032901128329C111032A811121
:10096000832A4111032B0111832BC110032C811009
:10097000832C4110130101136780000093050500CB
:100980001306040013050C00EFE0512083A40900B6
:100990006FF01FF31305040093060C0013060B0001
:1009A00093050900EFF09FD283A409009307140078
:1009B00033B78700330A470113840700938BCB02B8
:1009C000E3C497E66FF05FE91306040013850B009C
:1009D000EFE0D11B83A409006FF09FF66780000051
:1009E00083270502635CF01E130101FD232291029F
:1009F000232611022324810223202103232E3101E7
:100A0000232C4101232A510123286101930405006D
:100A10006398050E130400001309000093090100F8
:100A2000130A00166F00C006B386460303A7C7F873
:100A30009355F741B386D40003A6460E03A5860E50
:100A4000B306C70033B7E6003386A5003307C700F7
:100A500023A2D70E23A4E70E1306000193850900F5
:100A600037050080232481002326210123209100C3
:100A700023220100EFF09FD203A704029307140082
:100A8000B3B68700338926011384070063DCE702CD
:100A9000B3074403B387F40003A7470E83A6870E6A
:100AA0003367D700E31A07FA9306F4FFE31E04F650
:100AB00003A7440283A7840223A2E40E23A4F40E16
:100AC0006FF09FF997E7030083A7C7CC83A70700C0
:100AD00083A707008320C1020324810283244102EB
:100AE000032901028329C101032A8101832A4101CB
:100AF000032B0101130500001301010367800000AF
:100B00001309450313040000130A000093090100B0
:100B1000930A001617FB0300130BCBB96F00C00636
:100B200003A7440283A7840223A2E40E23A4F40EA5
:100B30001305090093050000EF1080391306050026
:100B40009305040013050B00EFE0510413060001A8
:100B50009385090037050080232481002326410165
:100B60002320910023220100EFF05FC303A70402BA
:100B700093071400B3B687001309091613840700FE
:100B8000338A4601E3D0E7F4B3075403B387F40094
:100B900003A7470E83A6870E3367D700E31A07F82B
:100BA0001307F4FFE30E04F633075703032689F512
:100BB0001355F6413387E4008326470E8325870EBD
:100BC0003387C600B336D7003386A500B386C60088
:100BD00023A2E70E23A4D70E6FF09FF597E703003B
:100BE00083A747BB83A7070083A70700130500005F
:100BF00067800000832885000326C500032E850139
:100C0000130F45033386C800330EC50113070000D8
:100C1000930E0016631406026F00000723A86702F4
:100C200023AA0702832885000326C5003386C8004F
:100C300013071700938585006378C704931727006F
:100C4000B386C70103A8450083A705003383A740E7
:100C5000B3E70701E38E07FC83A70600B387FE0214
:100C6000B307FF00E36C17FB23AC670223AE070258
:100C7000832885000326C500130717009385850088
:100C80003386C800E36CC7FA6780000083278501BC
:100C90008326C5003307F50063ECB6028326850082
:100CA00093074503B385D50093952500B305B70099
:100CB00083A60500130700163307D702B387E700A2
:100CC0006388070083A787033305F500678000006A
:100CD0001305000067800000832785010327850036
:100CE000B307F5006368B70293952500B387B70093
:100CF00083A6070013070016930745033307D7029F
:100D0000B387E7006388070083A707033305F5006F
:100D100067800000130500006780000083278501BD
:100D200003278500B307F5006368B7029395250094
:100D3000B387B70083A60700130700169307450380
:100D40003307D70213054000B387E7006388070025
:100D500003A547006780000013054000678000007E
:100D6000832785018326C5003307F50063ECB602AF
:100D7000832685009307450313054000B385D500FE
:100D800093952500B305B70083A605001307001649
:100D90003307D702B387E7006388070003A58700FE
:100DA00067800000130540006780000083278501ED
:100DB00003278500B307F5006366B7029395250006
:100DC000B387B70003A70700930700161305450371
:100DD000B387E7023305F5006306050003254501E7
:100DE000678000001305F0FF6780000083278501FE
:100DF0000327C500B307F500636AB7020327850020
:100E000013054503B385E50093952500B387B70027
:100E100003A7070093070016B387E7023305F50021
:100E20006306050003258501678000001305F0FFB8
:100E300067800000832785010327C500B307F500FD
:100E40006366B70203278500B385E5009395250007
:100E5000B387B70083A7070013070016B387E7021D
:100E60003305F5000325C50B678000008327800844
:100E70007300100003270503B717BE1A9387D71E08
:100E80006312F708130101FE232C8100232E1100A9
:100E9000232A910023282101232631012324410103
:100EA0008325050037B6563413067657130405001C
:100EB000639CC51CB717000083A7878203274500E2
:100EC0001305900093D7870093F7F70F631CF70083
:100ED0008327440E0327840E13050000B3E7E700C1
:100EE000638607028320C101032481018324410119
:100EF000032901018329C100032A81001301010292
:100F000067800000130570006780000017EA030087
:100F1000032A8A8B83270A0003A7C71503A6870520
:100F200093064701939626001307170023AEE71494
:100F3000B387D70023A6C70083244402EFD001154E
:100F400093050500B3099400930405000325C4022A
:100F5000EFF00FC11309050013850400EFD001095C
:100F600097E8030083A8088383A7080013072000DD
:100F700097E6030083A6868523A0E70023A29700B7
:100F80001307100003A8060023A4E70023A6E70028
:100F90006374F812370701001307471C23A0E7000A
:100FA00023A2070023A4070023A6A70017D303004A
:100FB0000323C37B2320030023A0F800634A901877
:100FC000378701001307170023A0E70023A20700BB
:100FD00023A4270123A607003707010023A0E70069
:100FE00023A2970023A4070023A6070037070400C5
:100FF00023A0E70023A2370123A4A70023A697007C
:101000002320030023A0F800B38424030327C40291
:10101000330797406302070223A00700B3849900B7
:1010200023A2970023A4A70023A6E7006378F8165D
:101030002320030023A0F80083A7080083A707004C
:1010400003270A008320C101032481018326C715D9
:1010500083244101032901019387360193972700D7
:10106000B307F70083A7C7009386F6FF232ED71494
:10107000232CF7048329C100032A810013050000F3
:10108000130101026780000017E503001305856363
:10109000EFE0C12F8320C10103248101832441019A
:1010A000032901018329C100032A8100130580005F
:1010B000130101026780000017D303000323036BB1
:1010C00003260300B70601009385461C131726006C
:1010D000B387E70023A0B70023A2070023A40700DB
:1010E00023A6A700E368F8ECB387E70023A0F80085
:1010F00063429006378601001306160023A0C7003E
:1011000023A2070023A4270123A60700E366F8EC27
:10111000B387E70023A0D70023A2970023A40700EA
:1011200023A60700E364F8ECB387E700B7060400E2
:1011300023A0D70023A2370123A4A70023A697004A
:10114000E360F8ECB387E70023A0F8006FF0DFEB73
:1011500013060000E35A20EB93860900130E0000EB
:10116000130700006F004001B387B7001307170093
:10117000B3869600630EE90223A0070023A2D700DE
:1011800023A4A70023A6970093152600E37EF8FC6E
:10119000130E1000130600006FF05FFD032703001D
:1011A00013172700B387E70023A0F8006FF0DFE8EC
:1011B00023A0F800E30A0EE42320C3006FF0DFE46D
:1011C0003306B640930716FF1306160033B6C70062
:1011D0001306F6FF1316F60193D71700B367F60050
:1011E0001387F7FF93870501130101FB3388E7009D
:1011F000138E4500138385009388C5002326810440
:10120000232491042322210523203105232E410389
:10121000232C5103232A61032328710323268103EE
:10122000232491032322A1032320B10313061800D2
:101230002300D5003307E60093DD850013DD0501AB
:1012400093DC8501135C8E00935B0E01135B8E01B2
:10125000935A8300135A03019359830113D98800C9
:1012600093D4080113D4880193D3870093D2070144
:1012700093DF8701135F8800638E06109356080181
:101280002324D100A302F50083278100935688010F
:101290002326D100935686002328D100A305F5000C
:1012A000935606018327C100232AD1009356860155
:1012B000232CD10093568700232ED1002306F5005E
:1012C000A306B5002307B501A307A50123089501CF
:1012D000A308C50123098501A3097501230A650136
:1012E000A30E6500230F5501A30F4501230035030D
:1012F000A300150323012503A30195022302850200
:1013000023037500A30355002304F501A30405017D
:101310002305E501A30AC5008327010193560701B0
:10132000935E8701230BF50083274101A30CE500A1
:10133000A30DD500A30BF50083278101230ED50152
:10134000230CF5008327C101230DF50023A0050020
:1013500023A2050023A4050023A605000324C1043D
:10136000832481040329410483290104032AC1033E
:10137000832A8103032B4103832B0103032CC10226
:10138000832C8102032D4102832D010213010105EB
:1013900067800000935608012324D100A30AF500BA
:1013A00083278100935688012326D1009356860017
:1013B0002328D100A30DF500935606018327C10011
:1013C000232AD10093568601232CD10093568700FF
:1013D000232ED100230EF500A30EB500230FB50177
:1013E000A30FA50123009503A300C50323018503D3
:1013F000A301750323026503A306650023075501B6
:10140000A307450123083501A30815012309250178
:10141000A3099500230A8500230B7500A30B550033
:10142000230CF501A30C0501230DE501A302C50062
:101430008327010193560701935E87012303F5007B
:1014400083274101A304E500A305D500A303F5000C
:10145000832781012306D5012304F5008327C101D9
:101460002305F5006FF09FEF032785008347C50034
:10147000032545009356870093978701B3E7D7006C
:101480001317870113558500938797FF3365A700CE
:101490003385A74067800000032785018347C50186
:1014A000032545019356870093978701B3E7D7003B
:1014B0001317870113558500938797FF3365A7009E
:1014C0003385A74067800000130101FD23248102BA
:1014D0002322910223202103232E310123261102EE
:1014E0001309060013040500938905009384060080
:1014F000EFF09FF7636025190327C40083470401B9
:101500000F00F00F1357870093978701B3E7E700A9
:1015100003A607000F00F00F8326040103474401D0
:101520000F00F00F93D68600131787013367D7009B
:10153000832707000F00F00F0F00F00F3387C7401D
:101540006368F600130785003307F7003307C740C9
:1015500093068900130510006360D71083274400A9
:10156000034784001305810093D6870093178701F2
:10157000B3E7D700B387C700232431012326210115
:10158000130601010F00F00F034705002380E70059
:101590000F00F00F832584000347C40093871700D2
:1015A00093D68500131787013367D70013051500FD
:1015B000939585016378F7008327440093D78700CC
:1015C000B3E7F500E310A6FC630809049386040062
:1015D000338624010F00F00F03C706002380E700C5
:1015E0000F00F00F832584000347C4009387170082
:1015F00013D58500131787013367A700938616005C
:10160000939585016378F7008327440093D787007B
:10161000B3E7F500E390C6FC0F00F00F832544000C
:10162000834684000326C4000347040193D5850044
:101630009396860113568600B3E6B600131787010A
:101640003367C700B387D7400F00F00F2320F700A0
:101650000F00F00F130500008320C1020324810254
:1016600083244102032901028329C10113010103DB
:10167000678000008320C102032481028324410289
:10168000032901028329C10113053000130101035D
:1016900067800000130101FE232C8100232A9100A2
:1016A000232821012326310123244101232E110067
:1016B000130A0500938905001309060093840600A8
:1016C0001304100093860400130609009385090093
:1016D00013050A00EFF05FDFE30685FE8320C101FA
:1016E0000324810183244101032901018329C100CD
:1016F000032A81001301010267800000130101FD2C
:101700002324810223229102232021039304050034
:10171000232E3101232C410123261102130A070035
:10172000938905001309060013840600EFF0DFD645
:1017300003A7040283C744020F00F00F135787006A
:1017400093978701B3E7E70003A607000F00F00FA8
:1017500083A6C40103C704020F00F00F93D68600CE
:10176000131787013367D700032E07000F00F00F10
:101770000F00F00F6376CE00330EC501130E8E00FE
:10178000330ECE401305200063020E1C9307700039
:101790001305600063FCC71B03A7440183C78401D2
:1017A000930881001357870093978701B3E7E700F9
:1017B00023240100B387C70023260100130701017A
:1017C0000F00F00F03C307000F00F00F03A8840100
:1017D00003C5C401238068001353880013158501D5
:1017E00093871700336565009388180013188801E4
:1017F0006378F50083A7440193D78700B367F800A7
:10180000E390E8FC23A009002320090003A70900B6
:10181000034681000345C100834691003367C7003A
:1018200023A0E90083250900139686000347D10011
:10183000B3E6A5002320D90083A60900131587006D
:101840000347A100B3E6C60023A0D9008325090001
:10185000131607018346E10033E7A5002320E900C2
:1018600003A70900139506018346B1003367C7003B
:1018700023A0E90083250900139686010347F100A0
:10188000B3E6A5002320D90083A60900131787011A
:1018900013055000B3E6C60023A0D9008326090033
:1018A0003367D7002320E900930687006360DE0AD0
:1018B00013054000636CE408630A07041305000085
:1018C0000F00F00F83C607000F00F00F3307AA00C8
:1018D0002300D70083A5840183C6C4019387170022
:1018E00013D7850093968601B3E6E600130515002D
:1018F0009395850163F8F60083A7440193D7870089
:10190000B3E7F50083260900E36CD5FA0F00F00F6A
:1019100083A5440183C6840103A6040203C74402CD
:1019200093D585009396860113568600B3E6B600DC
:10193000131787013367C700B387D7400F00F00F35
:101940002320F7000F00F00F130500008320C102D1
:101950000324810283244102032901028329C10156
:10196000032A81011301010367800000130101FEB6
:10197000232C8100232A91002328210123263101D1
:101980002324410123225101232E1100930A050033
:10199000138A0500930906001389060093040700C3
:1019A000130420001387040093060900138609001E
:1019B00093050A0013850A00EFF05FD4E30485FE67
:1019C0008320C101032481018324410103290101F2
:1019D0008329C100032A8100832A410013010102E7
:1019E00067800000130101FE232C8100232A91004F
:1019F000232E11009307F0011304050093840600C1
:101A000063C8A70693162500938741DAB387D700EA
:101A100083A70700638E07041387050003250600CC
:101A20008325860093060601130607FFE78007005B
:101A30002326A1009306C10013064000930504006D
:101A400013850400EFF01FC5630C05049305050022
:101A500017E503001305C5CDEF10102E8320C1013B
:101A600003248101832441011301010267800000E6
:101A70009305040017E50300130545C8EF10D02BAC
:101A80009307F0FF9306C10013064000930504007E
:101A9000138504002326F100EFF0DFBFE31805FAF9
:101AA0008320C10103248101832441011301010228
:101AB000678000009307F00163C8A7029316250012
:101AC000938741DAB387D70003A30700630E0300AF
:101AD000138705000325060083258600930606016B
:101AE000130607FF67000300130101FF93050500BC
:101AF00017E50300130585C023261100EFD0110957
:101B00008320C1001305F0FF13010101678000006D
:101B100013151500135515009307000263C6A7029D
:101B2000938741DA131525003385A7008327050025
:101B3000639807002320B5001305000067800000AC
:101B40001305F0FF678000001305E0FF67800000C9
:101B50001305F5FF9357150033E5A70093572500AC
:101B6000B3E7A70013D54700B367F50013D5870087
:101B70003365F5009357050133E5A70013051500FC
:101B8000678000009357150033E5A70093572500A1
:101B900033E5A70093574500B3E7A70013D58700A7
:101BA0003365F50093570501B3E7A70013D5170078
:101BB0003385A740678000000328060003A30600C2
:101BC00083A846009307F8FF13D7F7013307F70000
:101BD0009357F801B387070113571740330767027C
:101BE00093D71740032846009306F8FF13D6F60153
:101BF0003306D6009356F801B3860601B387670211
:101C00001356164093D616403307B7023306160311
:101C10003385A5023307C700B387B7023305E54014
:101C2000B3861603B387D7003305F54067800000FD
:101C3000130101FD232E310183294700232C41018B
:101C4000032A07009387F9FFB387B7002324810293
:101C5000938509001304050013850700232611024C
:101C60002322910223202103232A510123286101E9
:101C700023267101232481011309060093840600A1
:101C8000EFE00FEE130B0500032C09001305FAFF1C
:101C900093050A0033058500EFE08FEC1307FCFF86
:101CA0009357F701B387E70003A40400B30A650361
:101CB00093050A0013D51740EFE08FEA832B490004
:101CC00003A94400938509001387FBFF9357F7018D
:101CD000B387E700B304850213D51740EFE04FE860
:101CE0009357FC01B387870193050A003307250347
:101CF00013D51740B3846403B384E400EFE04FE6E8
:101D00003304850213D5FB01330575019385090062
:101D100013551540EFE0CFE48320C102B3849A400D
:101D20008329C101032A810133046403832A410109
:101D3000032B0101832BC100032C810033052503F4
:101D4000032901023305A400032481023385A44042
:101D500083244102130101036780000083270500EB
:101D6000130720026360F716138741E29397270059
:101D7000B387E70083A70700B387E7006780070002
:101D800017E503001305859E6780000017E5030033
:101D9000130585B16780000017E50300130545B002
:101DA0006780000017E503001305C5AE67800000DB
:101DB00017E50300130545AD6780000017E5030034
:101DC0001305C5AB6780000017E50300130545AA9E
:101DD0006780000017E503001305C5A867800000B1
:101DE00017E50300130545A76780000017E503000A
:101DF000130585A56780000017E50300130505A4FA
:101E00006780000017E50300130585A267800000C6
:101E100017E50300130505A16780000017E503001F
:101E20001305859F6780000017E503001305059ED5
:101E30006780000017E503001305C59C678000005C
:101E400017E503001305059B6780000017E50300F5
:101E5000130545996780000017E503001305C59732
:101E60006780000017E503001305459667800000B2
:101E700017E503001305C5946780000017E503000C
:101E8000130505936780000017E50300130585918E
:101E90006780000017E503001305059067800000C8
:101EA00017E503001305858E6780000017E5030022
:101EB0001305058D6780000017E503001305459F96
:101EC0006780000017E5030013054589678000005F
:101ED0008327050013079000636AF70E138701EB51
:101EE00093972700B387E70083A70700B387E7002E
:101EF0006780070017E50300130585A16392050EAF
:101F000017E50300130545A06780000017E50300EF
:101F10001305C5A86396050C17E503001305459B3B
:101F20006780000017E50300130505A3639A050AFF
:101F300017E503001305459B6780000017E50300C4
:101F4000130545A0639E050817E503001305059AD0
:101F50006780000017E503001305859D639205085F
:101F600017E50300130545996780000017E5030096
:101F70001305059B6396050617E5030013054598B1
:101F80006780000017E503001305459F639A050469
:101F900017E503001305C5946780000017E50300EB
:101FA0001305859C639E050217E5030013058593C1
:101FB0006780000017E503001305459D6392050245
:101FC00017E50300130545916780000017E503003E
:101FD0001305C58E6396050017E503001305059DDF
:101FE00067800000130101FF232481001304050012
:101FF00017E503001305059C23261100EFD041527D
:1020000083264400032684008325C40017E50300CB
:102010001305C59AEFD081370326440183250401B7
:1020200017E503001305059BEFD041360326040294
:102030008325C401032481008320C10017E5030028
:102040001305459A130101016FD04134B717000001
:10205000138F976A6378BF0C938EA76A37FEFFFFD2
:10206000378380803306D5011307000093070000F3
:10207000130E6E95130313083305C60113051500DF
:102080008346F5FFB387D7003307F700E318C5FE93
:1020900033B86702B385C5013306D501B33667028D
:1020A000135878009318880033880841B387074194
:1020B00093D6760013988600B306D8403307D740EE
:1020C000E36CBFFA63860504B305B500130515007C
:1020D0008346F5FFB387D7003307F700E318B5FE53
:1020E000B78680809386160833B6D702B336D702F8
:1020F00013567600931586003386C540B387C740D4
:1021000093D6760013968600B306D6403307D740A1
:1021100013178700B367F7001395070113550501DF
:102120006780000013070000930700006FF09FF91D
:102130009307701663F2B70C378300801306052DE2
:10214000130700009307000013031300130E70160B
:10215000130506D3130525008356E5FFB387D70083
:102160003307F700E318C5FE33B86702938585E9A6
:102170001306052DB33667021358F80093180801AB
:1021800033880841B387074193D6F60013980601B8
:10219000B306D8403307D740E36CBEFA6388050422
:1021A00093961500B306D500130525000356E5FFE9
:1021B000B387C7003307F700E398A6FEB786008011
:1021C0009386160033B6D702B336D7021356F600FD
:1021D000931506013386C540B387C74093D6F600F2
:1021E00013960601B306D6403307D74013170701ED
:1021F0003365F700678000001307000093070000B5
:102200006FF0DFF9130101FA23206105232A9103FE
:10221000232E1104232C8104232A91042328210531
:10222000232631052324410523225105232E710342
:10223000232C81032328A1032326B103232CB100DF
:1022400023261101938C0600138B060063C4F6004D
:10225000138B0700130C07006354E600130C0600F1
:1022600097C7030083A7075383A7070083A7070027
:10227000832781016352F00EB3079603130D1000FC
:10228000331D0D012328010097DB0300938B8B780E
:1022900097DA0300938A0A77232EF100B3076501CA
:1022A000232AF1008325010117D503001305C57406
:1022B000130A0000EFD0810D032441016358800709
:1022C000635C600513050D00EFA0D32D8327C100CB
:1022D0001309050093890500639E070AB30464414E
:1022E00083CD04009384140013850D00EFA0932B7D
:1022F0001306090093860900EFD08263EFC08314B0
:1023000093050000EFB0C35093850D0013850A00BC
:10231000EFD0C107E31694FC1305A000130A1A00BE
:10232000EF90930033049401E31C8AF983270101A1
:102330001305A0001384170023288100EF90C37EAB
:10234000832741010327C101B387E700232AF10056
:1023500083278101E39887F48320C1050324810545
:1023600083244105032901058329C104032A81042B
:10237000832A4104032B0104832BC103032C810313
:10238000832C4103032D0103832DC1021301010698
:1023900067800000B30D64416F00400213850400A4
:1023A000EFB0537A130605009386050013850B00E2
:1023B000EFC0D17D938D1D00E3808DF603C50D0028
:1023C000EFA0531E1306090093860900EFD0425672
:1023D000EFC043079305000093040500EFB04343AB
:1023E000E35E05FA13850400EFB0D375130605000C
:1023F0009386050017D5030013054561EFC01179D9
:102400006FF05FFB130101FA23206105232A91037A
:10241000232E1104232C8104232A9104232821052F
:10242000232631052324410523225105232E710340
:10243000232C81032328A1032326B103232CB100DD
:1024400023261101938C0600138B060063C4F6004B
:10245000138B0700130C07006354E600130C0600EF
:1024600097C7030083A7073383A7070083A7070045
:10247000832781016352F00EB3079603130D1000FA
:10248000331D0D012328010097DB0300938B8B582C
:1024900097DA0300938A0A57232EF100B3076501E8
:1024A000232AF1008325010117D503001305C55424
:1024B000130A0000EFC0916D0324410163588007A7
:1024C000635C600513050D00EFA0D30D8327C100E9
:1024D0001309050093890500639E070AB30464414C
:1024E000838D04009384140013850D00EFA0930BDB
:1024F0001306090093860900EFD08243EFB093746E
:1025000093050000EFB0C33093850D0013850A00DA
:10251000EFC0D167E39684FC1305A000130A1A00EC
:10252000EF90836033049401E31C8AF9832701014F
:102530001305A0001384170023288100EF90C35EC9
:10254000832741010327C101B387E700232AF10054
:1025500083278101E39887F48320C1050324810543
:1025600083244105032901058329C104032A810429
:10257000832A4104032B0104832BC103032C810311
:10258000832C4103032D0103832DC1021301010696
:1025900067800000B30D64416F00400213850400A2
:1025A000EFB0535A130605009386050013850B0000
:1025B000EFC0D15D938D1D00E3808DF603850D0086
:1025C000EFA0437E1306090093860900EFD0423640
:1025D000EFB053679305000093040500EFB0432369
:1025E000E35E05FA13850400EFB0D355130605002A
:1025F0009386050017D5030013054541EFC0115917
:102600006FF05FFB17C303000323C318032303000A
:10261000032303006356B01E130101FA232C810328
:10262000139C1600232A9103938C0700B30786039B
:10263000232E7103930B0700130710002328A10317
:1026400033170701330D90412322510523206105E3
:10265000232E1104232CF10093971C00B307F500DF
:10266000232C8104232A91042328210523263105C4
:10267000232441052326B10323261101232EB10073
:102680002324E100232AF100131D1D00232801004B
:1026900017DB0300130B8B3997DA0300938A0A3890
:1026A0008325010117D5030013050535130A000022
:1026B000EFC0D14D0324410163587007635C90055E
:1026C00003258100EFA0036E8327C10013090500D5
:1026D00093890500639E070AB304A401839D040047
:1026E0009384240013850D00EFA0C36B130609002B
:1026F00093860900EFD0C223EFB0D35493050000B6
:10270000EFB0031193850D0013850A00EFC0114847
:10271000E39684FC1305A000130A1A00EF90C3404F
:1027200033048401E39C4BF9832701011305A000C6
:102730001384170023288100EF90033F8327410172
:1027400003278101B387E700232AF1008327C10112
:10275000E39887F48320C105032481058324410580
:10276000032901058329C104032A8104832A410422
:10277000032B0104832BC103032C8103832C41030E
:10278000032D0103832DC1021301010667800000A0
:10279000B30DA4016F00400213850400EFB0933A1B
:1027A000130605009386050013050B00EFC0113ECC
:1027B000938D2D00E3808DF603950D00EFA0835ED1
:1027C0001306090093860900EFD08216EFB09347F5
:1027D0009305000093040500EFB08303E35E05FA60
:1027E00013850400EFB01336130605009386050029
:1027F00017D5030013050523EFC051396FF05FFBB8
:1028000067800000130101F92326710523261106B4
:10281000232481062322910623202107232E31051C
:10282000232C4105232A51052328610523248105F2
:10283000232291052320A105232EB103832B4107D9
:1028400017C30300032303F503230300032303003B
:10285000635CC018232AE1003387E6022328F100D5
:10286000B385A540B30705012322F102B3870541D3
:10287000232CF100B7070080232601012326C10283
:102880002324E1021307100033171701232EE10060
:1028900023200102B3CD77018325010217D5030060
:1028A00013058515130C0000EFC0512E832701017D
:1028B000032A410297DC0300938C4C186350F010FC
:1028C0008327C100635EF00C0325C101EFA0834D97
:1028D000832701071304050093840500639E0714F2
:1028E0008327C1003309FA4083278101B389470157
:1028F0006F00400213850D00EFA0D365634CA00666
:1029000013850C00EFC09128130919009389190051
:1029100063084909030D0900038B090013050D0025
:10292000EFA043481306040093860400EFD0420052
:10293000EFB05331930A050013050B00EFA0834657
:102940001306040093860400EFC0927EEFB0932F2D
:102950009305050013850A00EFB0033393050500C6
:10296000930A050013850B00EFA0936A93850A0074
:10297000E35205F89305000013850A00EFA05369A0
:10298000B3056D416340050A17D503001305850A99
:1029900013091900EFC0911F93891900E31C49F72F
:1029A0001305A000EF90431883274101130C1C006E
:1029B000330AFA0083270101E39487F18327010298
:1029C0001305A0001384170023208102EF90C31584
:1029D0008327410203278102B387E7002322F10204
:1029E0008327C102E39A87EA8320C1060324810674
:1029F00083244106032901068329C105032A810591
:102A0000832A4105032B0105832BC104032C810478
:102A1000832C4104032D0104832DC10313010107FD
:102A200067800000B3056D4117D50300130585FDD0
:102A3000EFC0D1156FF05FED8327C1003309FA4075
:102A400083278101B38947016F00400213850A0083
:102A5000EFA0135C6346050613850C00EFC011134D
:102A60001309190093891900E30C2AF303050900DF
:102A7000EFA043331306040093860400EFC0526BAB
:102A8000EFB0531C930A050003850900EFA08331C2
:102A90001306040093860400EFC09269EFB0931A06
:102AA0009305050013850A00EFB0031E93850B0004
:102AB000930A0500EFA0134A93850D00E358A0F890
:102AC0009305000013850A00EFA0935463420502AA
:102AD00013850A00EFB0130713060500938605005F
:102AE00017D50300130505F3EFC0510A6FF05FF728
:102AF00013850A00EFB01305130605009386050041
:102B000017D50300130585F0EFC051086FF05FF58E
:102B1000130101F9232671052326110623248106BA
:102B20002322910623202107232E3105232C410542
:102B3000232A510523286105232481052322910599
:102B40002320A105232EB103832B410717C30300C4
:102B5000032343C403230300032303006350C01A69
:102B6000131717002326E1003387E602938C070032
:102B7000B3060041B385A5402326C1021306100009
:102B80003316160123280101232EC1002320010240
:102B90002324E10213171800B307A7002322F10230
:102BA00093971600232CF100B387E540232AF10008
:102BB000B7070080B3CD77018325010217D5030045
:102BC000130585E3130C0000EFC0417C032A41028A
:102BD00063509011832701016350F00E0325C1015A
:102BE000EFA0431C8327010713040500938405000D
:102BF000639E0714832781013309FA00832741016B
:102C0000B309FA006F00800213850D00EFA0933422
:102C1000634EA00617D50300130545E3EFC0017707
:102C2000130929009389290063084909031D090034
:102C3000039B090013050D00EFA0C3161306040043
:102C400093860400EFC0D24EEFB0C37F930A050015
:102C500013050B00EFA00315130604009386040070
:102C6000EFC0124DEFB0037E9305050013850A00F7
:102C7000EFB0830193050500930A050013850B004F
:102C8000EFA0133993850A00E35005F8930500007F
:102C900013850A00EFA0D337B3056D41634E0508D5
:102CA00017D50300130505DA13092900EFC0016EDB
:102CB00093892900E31C49F71305A000EF80D36630
:102CC0008327C100130C1C00330AFA00E3948CF133
:102CD000832701021305A00013841700232081021B
:102CE000EF8093648327410203278102B387E700C3
:102CF0002322F1028327C102E39087EC8320C106DF
:102D00000324810683244106032901068329C10582
:102D1000032A8105832A4105032B0105832BC10466
:102D2000032C8104832C4104032D0104832DC10352
:102D30001301010767800000B3056D4117D503003B
:102D40001305C5CDEFC081646FF09FED832781012E
:102D50003309FA0083274101B309FA006F008002AA
:102D600013850A00EFA0D32A6348050617D5030090
:102D70001305C5CCEFC0816113092900938929008F
:102D8000E30C49F303150900EFA0C3011306040087
:102D900093860400EFC0D239EFB0C36A930A0500EE
:102DA00003950900EFA003001306040093860400B6
:102DB000EFC01238EFB003699305050013850A00D0
:102DC000EFA0936C93850B00930A0500EFA0931876
:102DD00093850D00E356A0F89305000013850A00C3
:102DE000EFA013236342050213850A00EFB0835559
:102DF000130605009386050017D50300130505C3C8
:102E0000EFC0C1586FF05FF713850A00EFB083532E
:102E1000130605009386050017D50300130585C02A
:102E2000EFC0C1566FF05FF517C30300032383960D
:102E30000323030003230300635EC030130101FA80
:102E400023206105130B0700B38666032328A10323
:102E5000232EC100138D070013061000B387050150
:102E600033161601330705012328F100232E7103C1
:102E7000232CD100B386A540B3870641232A9103B2
:102E8000232E1104232C8104232A910423282105B5
:102E9000232631052324410523225105232C8103B8
:102EA0002326B103930B08002322C1002326E1004F
:102EB000232A010097DC0300938CCCB52324F10076
:102EC0008325410117D50300130505B3EFC0014C5D
:102ED00023200100032901018329C100930A000076
:102EE00017DC0300130C0CB5635EA0096350700976
:102EF00003254100EF90136B8327010013040500A5
:102F000093840500638E0708832701066398070EE4
:102F100083278100338A37016F00400113050C00BD
:102F2000130A1A00EFC0814663024905830D0A00A7
:102F300013850D00EF9013671306040093860400B9
:102F4000EFC0121FEFB0035093050000EFA0530C29
:102F500093850D00E35405FC17D50300130585AADE
:102F6000130A1A00EFC08142E31249FD1305A000C5
:102F7000938A1A00EF80533BB389690133096901D1
:102F8000E3165DF71305A000EF80133A83270100D5
:102F900063980714930710002320F1006FF09FF34C
:102FA000832701066396070C338A79416F0040013D
:102FB00013050C00EFC0813D130A1A00E38849FB9A
:102FC000830D0A0013850D00EF90D35D13060400F6
:102FD00093860400EFC0D215EFB0C34693050000FE
:102FE000EFA0130393850D00E35405FC17D50300F0
:102FF000130545A1EFC081396FF01FFC83278100C5
:10300000B38D37016F00400213050A00EFB0833320
:10301000130605009386050013850C00EFC00137E9
:10302000938D1D00E3842DF503850D00EF909357DC
:103030001306040093860400EFC0920FEFB08340A4
:1030400093050000130A0500EFA0837CE35E05FAF8
:1030500013050A00EFB0032F130605009386050041
:1030600017D503001305859AEFC041326FF05FFB5F
:10307000B38D79416F00400213050A00EFB0832C35
:10308000130605009386050013850C00EFC0013080
:10309000938D1D00E38CB9ED03850D00EF909350E7
:1030A0001306040093860400EFC09208EFB0833942
:1030B00093050000130A0500EFA08375E35E05FA8F
:1030C00013050A00EFB003281306050093860500D8
:1030D00017D5030013058593EFC0412B6FF05FFBFD
:1030E000832741011305A00013841700232A8100C0
:1030F000EF8093230327C100832781013307F70063
:103100002326E10003270101B307F7002328F1007C
:103110008327C101E39687DA8320C1050324810553
:1031200083244105032901058329C104032A81045D
:10313000832A4104032B0104832BC103032C810345
:10314000832C4103032D0103832DC10213010106CA
:10315000678000006780000017B3030003238363C8
:103160000323030003230300635EC030130101FA4D
:1031700023206105131B1700232A9103938C07005A
:10318000B387660393061000B39616013307004118
:103190002322D100232C8103232E1104232C81040C
:1031A000232A910423282105232CF10093171800CA
:1031B000B306F500B387F5002328F1009317170035
:1031C000232631052324410523225105232E710393
:1031D0002328A1032326B10323200101232EC100AC
:1031E0002326D1002324F100232A010017DC030049
:1031F000130CCC838325410117C503001305C57F3C
:10320000130D0000EFC0811897DB0300938B8B83B5
:10321000032901018329C100930A0000635E90091C
:1032200083270100635EF00603254100EF9093378A
:1032300013040500938405008327010663080D0825
:103240006394070E83278100330AF9006F00400161
:1032500013850B00130A2A00EFC0411363022A05ED
:10326000831D0A0013850D00EF90D333130604006D
:1032700093860400EFC0C26BEFB0C31C930500003F
:10328000EFA0035993850D00E35405FC17C5030017
:103290001305C578130A2A00EFC0410FE3122AFD77
:1032A0001305A000938A1A00EF801308B3896901FF
:1032B00033096901E3965CF71305A000EF80D3069C
:1032C00063180D14130D10006FF09FF46398070C32
:1032D00083278100338AF9006F00400113850B00BA
:1032E000EFC0C10A130A2A00E30C3AFB831D0A004F
:1032F00013850D00EF90132B130604009386040032
:10330000EFC00263EFB0031493050000EFA0435039
:1033100093850D00E35405FC17C5030013050570E4
:10332000EFC0C1066FF01FFC83278100B30DF900C9
:103330006F00400213050A00EFB0C300130605003A
:103340009386050013050C00EFC04104938D2D00FA
:10335000E3882DF503950D00EF90D32413060400A8
:1033600093860400EFC0C25CEFB0C30D930500006C
:10337000130A0500EFA0C349E35E05FA13050A002E
:10338000EFA0537C130605009386050017C50300C4
:1033900013054569EFB0917F6FF05FFB83278100D4
:1033A000B38DF9006F00400213050A00EFA0937976
:1033B000130605009386050013050C00EFB0117D80
:1033C000938D2D00E38E3DED03950D00EF90931D41
:1033D0001306040093860400EFC08255EFB0830605
:1033E00093050000130A0500EFA08342E35E05FA8F
:1033F00013050A00EFA01375130605009386050058
:1034000017C5030013050562EFB051786FF05FFB3D
:10341000832741011305A00013841700232A81008C
:10342000EF8083700327C100832781013307F700F2
:103430002326E10003270101B307F7002328F10049
:103440008327C101E39887DA8320C105032481051E
:1034500083244105032901058329C104032A81042A
:10346000832A4104032B0104832BC103032C810312
:10347000832C4103032D0103832DC1021301010697
:103480006780000067800000130101FE232E1100F9
:10349000232C8100232A9100232821012326310196
:1034A000930700016310F60683A786001304001635
:1034B00003A90600B307F4029304050013044903AB
:1034C000938905003304F40003250400EF008042D3
:1034D00093050400032481018320C1011303050027
:1034E0001387140093860400138609008324410186
:1034F0008329C100130509000329010113010102F9
:103500006700030017C503001305C55493060001A7
:10351000938581EDEF0040028320C10103248101E6
:1035200083244101032901018329C1001305F0FF10
:103530001301010267800000130101FB2326110221
:103540002324810223229102232021032326110513
:1035500023240105232ED1022320E1042322F10498
:10356000232AB102232CC10213090500EFB0917C7C
:1035700097C703009387075183A5070003A6470059
:1035800083A6870003D7C70083C7E700930405001D
:10359000130595012328B100232AC100232CD10053
:1035A000231EE100230FF100EF8003558326410124
:1035B00003278101032801018357C101130405007A
:1035C00013861400930509001305E5002320040168
:1035D0002322D4002324E4002316F400EF30D22267
:1035E0009307410393850700130504002326F10088
:1035F000EF80C35613050400EF8043518320C102BE
:1036000003248102832441020329010213010105DD
:1036100067800000130101FB23248104130481004F
:103620003306B5009306000093050500130504005A
:10363000232611042322910423202105232E310364
:10364000232C4103232A510323286103EFD05FB7C2
:1036500013050400EFD05FE1EF80034A97E7030012
:1036600023ACA7E013050400EFD01FE3EF80C348AD
:1036700097E7030023A4A7E097E403009384C4DF43
:10368000130A41009309010097CA0300938A4A472D
:1036900017CB0300130B0B4417C903001309893F11
:1036A000130504002320010023220100EFD0DFDEF8
:1036B00003A74400938509009306050013060A003A
:1036C00013050400EFE08FAA93070500930505009A
:1036D00013050900638A07008326410003260100C1
:1036E000EFF09FE56FF0DFFB8327010063C2070463
:1036F00013060000930510001305040063900702F1
:1037000083A60400EFD01FF9E30C05F8930505002C
:1037100013050B00EFF05FE26FF09FF80326410006
:103720009385070013850A00EFF01FE16FF05FF744
:1037300003A7040003A64400832541009306040068
:1037400013850700EFE00FAA6FF09FF593072002A3
:1037500063EEA7181387C1EE131525003305E500A6
:1037600083270500B387E7006780070017B50300CC
:10377000032545066780000017B50300032585FD76
:103780006780000017B503000325C50767800000A8
:1037900017B50300032585066780000017B50300F1
:1037A0000325C5016780000017B50300032505F850
:1037B0006780000017B50300032505FA6780000045
:1037C00017B50300032585F96780000017B50300CE
:1037D000032505F66780000017B5030003250503E0
:1037E0006780000017B50300032585FE6780000091
:1037F00017B50300032585F26780000017B50300A5
:103800000325C5FD6780000017B50300032585F378
:103810006780000017B503000325C5F66780000028
:1038200017B50300032585FF6780000017B5030067
:10383000032585FA6780000017B503000325C5F747
:103840006780000017B503000325C5F167800000FD
:1038500017B503000325C5F96780000017B50300FD
:10386000032505FB6780000017B50300032545F419
:103870006780000017B503000325C5F267800000CC
:1038800017B50300032585F26780000017B5030014
:10389000032545F86780000017B50300032545F0B0
:1038A0006780000017B50300032545EE6780000020
:1038B00017B50300032545F56780000017B5030021
:1038C000032585F36780000017B50300032545EA4B
:1038D0006780000017B50300032545E767800000F7
:1038E00017B50300032545E36780000013050000BA
:1038F000678000009307900063EAA708138781F7A9
:10390000131525003305E50083270500B387E7007D
:103910006780070017B50300032505ED67800000E9
:1039200017B50300032545E16780000017B50300C4
:10393000032585E56780000017B503000325C5E56D
:103940006780000017B50300032585EB6780000042
:1039500017B503000325C5DF6780000017B5030016
:10396000032585DE6780000017B503000325C5DF4A
:103970006780000017B50300032585E66780000017
:1039800017B50300032505E3678000001305000059
:10399000678000003383E60297B8030083A888DFBE
:1039A00017BE0300032E8EE203A80800032E0E00AC
:1039B0006346F304B386C602930710002320F80081
:1039C0002322B8002324A80097B7030083A707DAAF
:1039D000B386E6022326D800636C0E0183A7070096
:1039E000939727003308F80023A0080167800000A0
:1039F00023A0070023A0080167800000B306660229
:103A000037870100130717002320E80023226800EE
:103A10002324C8002326D800636E0E0597B6030042
:103A200083A6C6D403A70600370601001317270094
:103A30003308E8002320C8002322F80023240800CC
:103A40002326080063660E05B70704003308E80064
:103A5000938717002320F8002322B8002324A8000E
:103A60002326680063620E053308E80023A00801DE
:103A700067800000370701002320E8002322F800B8
:103A8000232408002326080097B6030083A606CE49
:103A9000B7070400938717002320F8002322B800FB
:103AA0002324A8002326680023A0060023A00801E1
:103AB00067800000B388E60217B30300032383CDB9
:103AC00017BE0300032E8ED003280300032E0E0022
:103AD00063C8F804B386C602930710002320F800D9
:103AE0002322B8002324A80097B7030083A707C8A0
:103AF000B386E602939616002326D800636C0E0167
:103B000083A70700939727003308F80023200301B9
:103B10006780000023A007002320030167800000C6
:103B200093981800B3061603378701001307170090
:103B30002320E800232218012324C80093971700AC
:103B40002326D800636E0E0597B6030083A606C22F
:103B500003A7060037060100131727003308E80003
:103B60002320C8002322F80023240800232608006D
:103B700063660E05B70704003308E8009387170053
:103B80002320F8002322B8002324A80023261801AC
:103B900063620E053308E8002320030167800000FC
:103BA000370701002320E8002322F800232408001F
:103BB0002326080097B6030083A646BBB707040078
:103BC000938717002320F8002322B8002324A8009D
:103BD0002326180123A0060023200301678000008C
:103BE000130101F823206107232A9105032B070005
:103BF000930C070003A7C601232C8106232A9106F4
:103C0000232E7105232C8105232E1106232821073D
:103C10002326310723244107232251072328A10506
:103C20002326B105930710002320A1022322B1020D
:103C30002324C102232EE100138C060083A44C0030
:103C400083ABC60003A48600630AFB4E9308FBFF08
:103C50003385780193050B0023221101EFC04FF04B
:103C6000930B05001385F4FF93850400330585004D
:103C7000EFC00FEF130D05006354604997B70300C1
:103C800083A7C7B417BA0300032ACAB0832D4C0117
:103C900003234C00832A0C0083290A0003A9070090
:103CA00083284100232AF10283270C0237060200F1
:103CB00097B4030083A484AB2324F1009307260068
:103CC00037360000232EF1029307469C3786010009
:103CD00013070A0013080000232CF10293071600B3
:103CE0002328F102138A09009307040093090900AD
:103CF0002322B10113040300938D0400130907006C
:103D000093840A00938A0B00930B0B00130B08009B
:103D1000232AF1008327410093850B0023281101FA
:103D20003385F800EFC0CFE32326A100032541002F
:103D300093850B00EFC00FEB0326C1008328010120
:103D400083274101630605003305AB403306A60017
:103D50003385880093850B00330565412328F100E6
:103D60002326C100EFC0CFDF832701013308A5035D
:103D70000327C103930B05000326C1002320EA009B
:103D80003384870223228A0023240A0023260A017F
:103D900063F2492F03A70C00B706040093862600A0
:103DA0003383E7022320DA0023226A0023240A0057
:103DB0002326AA01930720002320FA002322AA0128
:103DC00023247A0123269A0023A00D0003A74C0088
:103DD00023204901635CE016B307A6031304000027
:103DE000938E0D00938D0B00930B08002326F10298
:103DF000930709001389090093090A00138A040034
:103E000093840A00930A0400138407009307200098
:103E10006316F71A03278C00832781033307EB020D
:103E200023A0F9008327C101330757013387E70037
:103E30008327810023A2E90023A4090023A6F90017
:103E40006366392303A70E0013172700B389E9001F
:103E50002320340103A74C0083AF0C00B3027A0384
:103E60008327010393050700232CD10123A0F90028
:103E70008327410023A2790123A4490133856701E7
:103E8000232AE1003386EF0223A659002328F101FB
:103E9000330696023306A6032326C100EFC08FD453
:103EA00083278102832F0101032741010326C100DB
:103EB000B385FF0283274102832E8101B385E5028A
:103EC0003307E502B385950233075701330797029D
:103ED000B385A5033307A703B385F5008327C10284
:103EE000B385F500832701023307B7003387E70066
:103EF000637C3907B707010023A0F90023A2C9009A
:103F000023A4090023A60900B707040023A0F90091
:103F10008327810023A2E90023A4F90023A67901C5
:103F200023A00E0003A74C0023203401938A1A001B
:103F3000E3CEEAEC938A0400938D0E0093040A000A
:103F4000138A0900930909001309040083AB0C00CC
:103F5000130B1B0063567B1B83278C0003244C0030
:103F60009388FBFF6FF0DFDA83A50E00B70701002F
:103F700093952500B389B9002320340123A0F900CB
:103F800023A2C90023A4090023A60900E36E39F780
:103F9000B389B900B70704002320340123A0F90036
:103FA0008327810023A2E90023A4F90023A6790135
:103FB000E36839F7B389B9006FF0DFF683270400AF
:103FC00083A70700032A0C00635640098327C10119
:103FD000832F810013050000338F57016356B0070C
:103FE0006354A00713880F00930500009306000098
:103FF00083A70C0003274C0003238C00B387F50232
:1040000003A64C00B308D8003307E502B387670165
:10401000B387670233076702B307FF003386C60220
:10402000B387E70093861600B387C700838707002E
:104030002380F800E39EA6FB938515003308A801B2
:10404000E396BDFA032A0C0013051500B38F7F0118
:10405000E34645F9832741038329040003A90700A8
:1040600083274C012322F1006FF0DFDE23A00E0036
:104070006FF01FDE83A50C0003A70D003383B7028A
:1040800013172700330AEA00B70704002320490169
:10409000938727002320FA0023226A0023240A00A2
:1040A0002326AA01E3E849D1330AEA002320490183
:1040B000930720002320FA002322AA012324AA0028
:1040C00023269A00E3E249D1330AEA006FF01FD0B9
:1040D000B3865B0323A0090023A2F9008327C10153
:1040E00017A703000327876823A4F90033848602F7
:1040F00023A68900637239132320070023203A0185
:104100008320C10703248107832441070329010772
:104110008329C106032A8106832A4106032B01064F
:10412000832BC105032C8105832C4105032D01053B
:10413000832DC104130101086780000097A70300C5
:1041400083A7C76817AA0300032ACA64232AF102B7
:1041500083AD460103A3460083AA060083290A0013
:1041600003A90700638464031385F4FF93850400A7
:104170003305850023226100EFC08F9E130D0500DB
:1041800093080000032341006FF01FB2330776034A
:1041900083274102B30DB40333078702B387FD00C1
:1041A0003307F70083270102B387E700E3826BF24E
:1041B00033036402378701001307170023A0E900C7
:1041C00033876A0223A2690023A4590123A6E900C8
:1041D000338F8B02637C39053707010023A0E90088
:1041E00023A2E90123A4090023A6090097A4030040
:1041F00083A4C4573707040023A0E90023A2F900D1
:104200008327C10123A4F90023A6690023A0040089
:1042100023203A016FF0DFEE032707001317270072
:10422000B389E90023203A016FF09FED97A40300C2
:1042300083A4C45303A70400B70601001317270083
:10424000B389E90023203A0123A0D90023A2E90180
:1042500023A4090023A60900E36E39F9B389E90014
:1042600023203A01B706040023A0D90023A2F900B5
:104270008327C10123A4F90023A66900E36839F963
:10428000B389E9006FF01FFA03A8C60003A38600F4
:1042900003A746013306C80283A8460017AE0300F1
:1042A000032E4E4F83AE060003AFC60197A6030050
:1042B00083A6C65183270E0083A606003307E302B8
:1042C000330666023307B7003307C700131717001A
:1042D0003305E500631618053308D80323A007004B
:1042E00023A2A70023A4E70117A703000327074879
:1042F000330868021318180023A6070163F8F600B4
:10430000232007002320FE0067800000032707000A
:1043100013172700B387E7002320FE006780000003
:10432000B3081303378701001307170023A0E70022
:104330009398180033871E0323A2170123A4D701E3
:104340003308680223A6E7001318180063F0F60488
:104350003707010023A0E70023A2070123A40700D9
:1043600023A6070017A603000326464037070400CC
:1043700023A0E70023A2A70023A4E70123A6170197
:10438000232006002320FE006780000017A60300FC
:104390000326C63D03270600B705010013172700B3
:1043A000B387E70023A0B70023A2070123A40700D7
:1043B00023A60700E3ECF6FAB387E700B70504008D
:1043C00023A0B70023A2A70023A4E70123A6170177
:1043D000E3F2F6F4232006006FF0DFFA03A8C6002C
:1043E00003A3860003A746013306C80283A846003C
:1043F00017AE0300032E0E3A83AE060003AFC601CC
:1044000097A6030083A6863C83270E0083A606009A
:104410003307E302330666023307B7003307C700EA
:10442000131727003305E500631618053308D80372
:1044300023A0070023A2A70023A4E70117A70300D6
:104440000327C732330868021318280023A6070180
:1044500063F8F600232007002320FE006780000099
:104460000327070013172700B387E7002320FE0068
:1044700067800000B3081303378701001307170094
:1044800023A0E7009398280033871E0323A2170177
:1044900023A4D7013308680223A6E70013182800D5
:1044A00063F0F6043707010023A0E70023A2070109
:1044B00023A4070023A6070017A603000326062B44
:1044C0003707040023A0E70023A2A70023A4E701E5
:1044D00023A61701232006002320FE00678000008A
:1044E00017A603000326862803270600B705010048
:1044F00013172700B387E70023A0B70023A2070103
:1045000023A4070023A60700E3ECF6FAB387E7002D
:10451000B705040023A0B70023A2A70023A4E70146
:1045200023A61701E3F2F6F4232006006FF0DFFA6A
:1045300017A7030003270726832707001306200079
:1045400023A0C70017A603000326462823A2D700EE
:10455000032606009306100023A4D70023A6D70045
:10456000637AF602B7160100938606A123A0D7004E
:104570009306000223A2D70023A4B70023A6A70016
:1045800017A803000328881E232008002320F70013
:104590006780000017A803000328481D8326080031
:1045A000B7180100938808A193962600B387D70017
:1045B00023A017019308000223A2170123A4B70028
:1045C00023A6A700E362F6FCB387D7002320F700F9
:1045D0006780000017A703000327C71B8327070076
:1045E0001306200023A0C70017A603000326061EFB
:1045F00023A2D700032606009306100023A4D700A9
:1046000023A6D700637AF602B70601009386F60068
:1046100023A0D7009306000423A2D70023A4B70049
:1046200023A6A70017A80300032848142320080086
:104630002320F7006780000017A803000328081351
:1046400083260800B70801009388F8009396260097
:10465000B387D70023A017019308000423A21701F2
:1046600023A4B70023A6A700E362F6FCB387D70014
:104670002320F7006780000017A703000327871196
:10468000832707001306200023A0C70017A60300F6
:104690000326C61323A2D7000326060093061000A4
:1046A00023A4D70023A6D700637AF602B716010029
:1046B000938606BD23A0D7009306000423A2D7004B
:1046C00023A4B70023A6A70017A803000328080AFD
:1046D000232008002320F7006780000017A80300AC
:1046E0000328C80883260800B7180100938808BD6E
:1046F00093962600B387D70023A0170193080004E0
:1047000023A2170123A4B70023A6A700E362F6FCA7
:10471000B387D7002320F7006780000017A70300A6
:1047200003274707832707001308200023A007015A
:1047300017A803000328880923A2D700032808002C
:104740009306100023A4D70023A6D7006378F802AD
:10475000B71601009386065D23A0D70023A2C700E9
:1047600023A4B70023A6A70097A8030083A80800E6
:1047700023A008002320F7006780000097A803000B
:1047800083A8C8FE83A60800371301001303035D46
:1047900093962600B387D70023A0670023A2C70003
:1047A00023A4B70023A6A700E364F8FCB387D700CF
:1047B0002320F7006780000017A70300032787FD69
:1047C000832707001306200023A0C70017A60300B5
:1047D0000326C6FF23A2D700032606009306100077
:1047E00023A4D70023A6D700637AF602B7360100C8
:1047F0009386F69C23A0D7009306000823A2D70037
:1048000023A4B70023A6A70017A80300032808F6CF
:10481000232008002320F7006780000017A803006A
:104820000328C8F483260800B73801009388F89C51
:1048300093962600B387D70023A01701930800089A
:1048400023A2170123A4B70023A6A700E362F6FC66
:10485000B387D7002320F7006780000017A7030065
:10486000032747F3832707001308200023A007012D
:1048700017A80300032888F523A2D70003280800FF
:104880009306100023A4D70023A6D7006378F8026C
:10489000B73601009386065D23A0D70023A2C70088
:1048A00023A4B70023A6A70097A8030083A808ECB9
:1048B00023A008002320F7006780000097A80300CA
:1048C00083A8C8EA83A60800373301001303035DF9
:1048D00093962600B387D70023A0670023A2C700C2
:1048E00023A4B70023A6A700E364F8FCB387D7008E
:1048F0002320F7006780000017A70300032787E93C
:10490000832707001308200023A0070117A803002E
:104910000328C8EB23A2D700032808009306100041
:1049200023A4D70023A6D7006378F802B756010066
:104930009386F63C23A0D70023A2C70023A4B70088
:1049400023A6A70097A8030083A848E223A0080095
:104950002320F7006780000097A8030083A808E1E0
:1049600083A60800375301001303F33C93962600F7
:10497000B387D70023A0670023A2C70023A4B700F2
:1049800023A6A700E364F8FCB387D7002320F70031
:1049900067800000130101FD97A7030083A7C7E20A
:1049A000232A610103AB070023287101232681011B
:1049B000832BCB15032C8B052324910293874B016A
:1049C000232681022322210323203103232E4101A8
:1049D000232C5101232491012322A1012320B10181
:1049E00013871B0093972700B307FB00232EEB14BC
:1049F0009354F60123A6870193071000B384C400E3
:104A000063D2C72093D3F601B383D30093D313406B
:104A100017A60300032686D597A7030083A707DB05
:104A20001398230097AD030083ADCDD60324060071
:104A3000B30A7040139616003309D040B389D340AF
:104A4000373A0100B75E0000373E000003A70700B9
:104A50003305050193D4144083A70D00939F2600CE
:104A6000B385C500939A2A00131919009399190068
:104A7000930C000013030000130F20001308100014
:104A8000130A0A41370D0100938E6E40130E4EC07B
:104A90006F00400B13162400B387C70023A0470103
:104AA00023A2A70123A4B700B308550123A6170129
:104AB000B3822501636EF70AB387C70023A0E7011D
:104AC00023A2770023A4070123A60701636AF70A3C
:104AD000B387C70023A0C70123A2570023A4070060
:104AE00023A6B7006366F70AB387C70023A0D701E0
:104AF00023A2170123A4B70023A617016364F714A8
:104B0000B387C70023A0C701B388350123A21701CB
:104B100023A4070023A6B7006376F70A23A0D701D2
:104B200023A2A70023A4B70023A6A7001303130002
:104B3000930C1000130400003305F501B385F50153
:104B40006358930A23A0E70123A2D70023A40701F7
:104B500023A60701E370F7F423A0470123A2A701CE
:104B600023A4B700B308550123A61701B38225017A
:104B700023A0E70123A2770023A4070123A60701AE
:104B800023A0C70123A2570023A4070023A6B70030
:104B900023A0D70123A2170123A4B70023A617013E
:104BA00023A0C701B388350123A2170123A407005E
:104BB00023A6B70013060000930C10001304000096
:104BC000E36EF7F4B387C70023A0D70123A2A700A1
:104BD00023A4B70023A6A700E36AF7F41303130086
:104BE000B387C7003305F501B385F501E34C93F4B2
:104BF00023A0FD0063880C0097A7030083A707B7D5
:104C000023A087000324C102232E7B15232C8B05B0
:104C1000832481020329410283290102032AC1015D
:104C2000832A8101032B4101832B0101032CC10045
:104C3000832C8100032D4100832D0100130101030A
:104C40006780000023A0C7013386350123A2C70077
:104C500023A4070023A6B7006FF05FEC130101FD4A
:104C600097A7030083A747B6232C510183AA070007
:104C7000232A61012328710103ABCA1583AB8A057E
:104C80002326810293074B0123249102232221032F
:104C900023203103232E4101232681012324910166
:104CA0002322A1012320B10113071B0093972700A2
:104CB000B387FA0023AEEA141354F60123A6770152
:104CC000930710003304C40063DAC71C13DFF60136
:104CD000330FDF00135F1F4097A7030083A707AFC1
:104CE00013171F0097AC030083ACCCAA17AD0300C9
:104CF000032DCDA73309E041B7140100B73F0000F1
:104D000003A807003305E5001354144083A70C00E3
:104D100083290D00939E16003387D50013191900BF
:104D2000130C0000130E0000930320001306100064
:104D3000938404A1130A0010938F6FA09302402064
:104D40006F00800B13932900B387670023A097009F
:104D500023A2470123A4E700B308A90023A6170153
:104D6000B30DBF006360F80CB387670023A0770022
:104D700023A2E70123A4C70023A6C700636CF80A97
:104D8000B387670023A0570023A2B70023A407001E
:104D900023A6E7006368F80AB387670023A0F7013A
:104DA00023A2170123A4E70023A617016364F80ACE
:104DB000B387670023A0570023A2B70123A40700ED
:104DC00023A6E7006360F80AB387670023A0F70112
:104DD00023A2A70023A4E70023A6A700636CF8087A
:104DE000130E1E00B38767003305D5013307D701C3
:104DF000B385D501635E8E0823A0770023A2D70078
:104E000023A4C70023A6C700E37EF8F223A09700DF
:104E100023A2470123A4E700B308A90023A6170192
:104E2000B30DBF0023A0770023A2E70123A4C7008E
:104E300023A6C70023A0570023A2B70023A407007E
:104E400023A6E70023A0F70123A2170123A4E7006C
:104E500023A6170123A0570023A2B70123A407000C
:104E600023A6E70023A0F70123A2A70023A4E700BD
:104E700023A6A700130E1E00130C100093090000B8
:104E80003305D5013307D701B385D501E3468EF647
:104E900023A0FC0063040C0023203D010324C10275
:104EA00023AE6A1523AC7A058324810203294102CB
:104EB00083290102032AC101832A8101032B4101B5
:104EC000832B0101032CC100832C8100032D4100A1
:104ED000832D01001301010367800000130101FE0F
:104EE0002324410123225101130A0500938A05005E
:104EF0001305070093050600232E1100232C8100C3
:104F0000232A9100130406002328210123263101BE
:104F1000138907002320610193090700138B060002
:104F2000EFB00FC4930405009305040013050900B6
:104F3000EFB00FC397A7030083A7C78583A7070018
:104F400083A70700635A6007635890066356A0065C
:104F5000B3822903138F0A00930E0A00930F0000F7
:104F6000B383A402338E89023388AE0013830E000C
:104F700093080F001306000093070300138708002F
:104F8000830507009387170033078700A38FB7FEB9
:104F9000E318F8FE13061600B388C8013303A30014
:104FA0003308A800E39AC4FC938F1F00330F5F00FF
:104FB000B38E7E00E31AFBFB8320C1010324810131
:104FC00083244101032901018329C100032A8100AF
:104FD000832A4100032B01001301010267800000B6
:104FE000130101FE2322510123206101930A0500D0
:104FF000138B05001305070093050600232E1100EF
:10500000232C8100232A9100232821019384070067
:10501000232631012324410193090600130A0700C6
:1050200013890600EFB0CFB3130405009385090080
:1050300013850400EFB0CFB29797030083A787755D
:1050400083A7070083A707006356200963548008DD
:105050006352A008B3049A0293171500330EA040C0
:10506000131F1E0093020B00B38FFA001395190053
:1050700093030000131E2E0033073A039396140087
:10508000B304F402931E170093850F009388020067
:10509000130800003383E50193070300138708001A
:1050A00003160700938727003307A700239FC7FE37
:1050B000E398F5FE13081800B388D801B305C3417F
:1050C000E31A04FD93831300B382D200B38F9F00D1
:1050D000E31C79FA8320C101032481018324410167
:1050E000032901018329C100032A8100832A410089
:1050F000032B010013010102678000006350C0020E
:10510000131626003386C50083A705001305450046
:1051100093854500232EF5FEE398C5FE67800000C9
:10512000635ED00C130101FD2324810203A405005A
:10513000232E310183A94500232021031399260042
:1051400023229102232C4101232A510123286101AA
:105150002326710123261102130A0600938B0500F2
:10516000930A050093040500330B890083A5090009
:10517000032504001304440093894900EF70934E03
:1051800023A0A40093844400E31264FF930720004B
:1051900063D04705131A2A0093898B00338A4B0189
:1051A00033892A0183A4090013840A0083A504001B
:1051B000032504001304440093844400EF70934AD1
:1051C000232EA4FEE31489FE93894900E31C3AFDD3
:1051D0008320C102032481028324410203290102A6
:1051E0008329C101032A8101832A4101032B010183
:1051F000832BC1001301010367800000678000005A
:1052000017970300032707598327070093062000F9
:1052100023A0D70023A2C700179603000326065B2E
:10522000930610000326060023A4D70023A6D70068
:105230006376F6029306401C23A0D70023A2B70092
:1052400023A4070023A6A7001798030003280852E9
:10525000232008002320F700678000001798030030
:105260000328C850832608009308401C9396260004
:10527000B387D70023A0170123A2B70023A40700F8
:1052800023A6A700E366F6FCB387D7002320F70028
:1052900067800000179E0300032ECE4F83270E0069
:1052A0001307200023A0E70023A2D700979603004E
:1052B00083A6C6511307100083A8060023A4E700A5
:1052C00023A6E70083A6050003A7450063FCF802B8
:1052D0001308801C23A0070123A2D70023A4E70002
:1052E00023A6A700979E030083AE4E4823A00E007E
:1052F0002320FE0013072000130800006342C704A8
:1053000067800000979E030083AE4E4603A80E0000
:10531000130F801C13132800B387670023A0E70135
:1053200023A2D70023A4E70023A6A700E3E0F8FC0C
:10533000B38767002320FE0013072000E352C7FC59
:10534000131626001387850013030000B385C500DC
:105350001306801C6F00000113074700B387D700B6
:105360006388E5028326070023A0C70023A2A700C5
:1053700023A4D70023A6A70093162800E3FEF8FC79
:10538000130747001303100013080000E39CE5FC1B
:105390002320FE00E30603F623A00E016780000031
:1053A000179703000327073F832707009306200072
:1053B00023A0D70023A2C7001796030003260641A7
:1053C000930610000326060023A4D70023A6D700C7
:1053D0006378F602B7360000938646BC23A0D70058
:1053E00023A2B70023A4070023A6A7001798030051
:1053F0000328C837232008002320F7006780000017
:10540000179803000328883683260800B738000061
:10541000938848BC93962600B387D70023A0170132
:1054200023A2B70023A4070023A6A700E364F6FC89
:10543000B387D7002320F70067800000179E030082
:10544000032E4E3583270E001307200023A0E7000C
:1054500023A2D7009796030083A6463713071000B0
:1054600083A8060023A4E70023A6E70083A605007F
:1054700003A7450063FEF80237380000130888BC14
:1054800023A0070123A2D70023A4E70023A6A70097
:10549000979E030083AE8E2D23A00E002320FE00D6
:1054A00013072000130800006344C704678000004E
:1054B000979E030083AE8E2B03A80E0037330000A7
:1054C000130383BC131F2800B387E70123A06700E1
:1054D00023A2D70023A4E70023A6A700E3EEF8FA4F
:1054E000B387E7012320FE0013072000E350C7FC29
:1054F0001316260013878500B385C50037360000D4
:1055000013030000130686BC6F0000011307470059
:10551000B387D7006388E5028326070023A0C7006E
:1055200023A2A70023A4D70023A6A7009316280030
:10553000E3FEF8FC130747001303100013080000F4
:10554000E39CE5FC2320FE00E30203F623A00E010A
:1055500067800000179703000327C72383270700EE
:105560009306200023A0D70023A2C70017960300AC
:105570000326C625930610000326060023A4D700A1
:1055800023A6D7006378F602B75600009386465CE0
:1055900023A0D70023A2B70023A4070023A6A700B7
:1055A000179803000328881C232008002320F700F5
:1055B00067800000179803000328481B8326080013
:1055C000B75800009388485C93962600B387D700AD
:1055D00023A0170123A2B70023A4070023A6A70036
:1055E000E364F6FCB387D7002320F7006780000050
:1055F0009798030083A8081A83A7080013072000C0
:1056000023A0E70023A2D7009796030083A6061CD9
:105610001307100003AE060023A4E70023A6E7004B
:1056200003A745006372FE0423A0F80003A8050049
:10563000B75600009386865C23A0D70023A20701FB
:1056400023A4E70023A6A700179F0300032F0F1230
:1056500023200F0023A0F8001307200013080000E8
:105660006348C70467800000179F0300032F0F10D3
:1056700003280F00B75600009386865C131328009A
:10568000B387670023A0F80083AE050023A0D700EE
:1056900023A2D70123A4E70023A6A700E36AFEFA0A
:1056A000B387670023A0F80013072000E35CC7FA64
:1056B000131626003753000013878500930E000051
:1056C000B385C5001303835C8326070023A067000E
:1056D00023A2A70023A4D70023A6A70013162800FF
:1056E0006360FE02B387C70023A0F80013074700DA
:1056F000E39CE5FCE3880EF623200F0167800000A1
:1057000023A0F800130747006388E500930E1000FC
:10571000130800006FF05FFB1308000023200F0147
:105720006FF0DFFD6350C002131626003386C500FC
:1057300083A705001305450093854500232EF5FE3C
:10574000E398C5FE67800000635AD010130101FD85
:105750002328610123248101130B0500138C05000C
:105760001305060023248102232291022320210312
:10577000232E3101232C4101232A510123267101BB
:105780009389060023261102930A0600EF80532A0C
:1057900003240C0003294C0093992900930B050066
:1057A00093040B00338A8900832509000325040034
:1057B0001304440013094900EF70C36A93850B007A
:1057C000EF70933023A0A40093844400E31E44FDB3
:1057D0009307200063DC5705939B2A00130A8C0073
:1057E000B30B7C01B3093B0113850A00EF805324FE
:1057F00083240A001309050013040B0003A5040009
:105800009305090013044400EF70132C9305050061
:105810000325C4FF93844400EF70C364232EA4FEC9
:10582000E39E89FC130A4A00E3904BFD8320C102EA
:105830000324810283244102032901028329C10137
:10584000032A8101832A4101032B0101832BC1001B
:10585000032C8100130101036780000067800000B2
:1058600017970300032707F38327070093062000F9
:1058700023A0D70023A2C70017960300032606F52E
:10588000930610000326060023A4D70023A6D70002
:105890006376F6029306401C23A0D70023A2B7002C
:1058A00023A4070023A6A70017980300032808ECE9
:1058B000232008002320F7006780000017980300CA
:1058C0000328C8EA832608009308401C9396260004
:1058D000B387D70023A0170123A2B70023A4070092
:1058E00023A6A700E366F6FCB387D7002320F700C2
:1058F00067800000130101FD23286101179B03004D
:10590000032B8BEC83270B00232E31019389060098
:1059100003A7C71583A6870523248102130847011F
:105920002322910223202103232C4101232A510108
:1059300023267101232611022324810123229101B0
:10594000130717001318280023AEE714B3870701C5
:1059500023A6D700130A0500979A030083AA8AE3B7
:105960001395190013890500930B0600EF80016859
:1059700003A40A009307200017970300032707E5F5
:105980002320F40023223401930710008329070009
:105990002324F4002326F4009304050063F0891007
:1059A00003270900832749009306803C2320D40065
:1059B0002322E4002324F4002326A400179C0300E0
:1059C000032CCCDA23200C0023A08A0093072000AC
:1059D000930C00009306000063C67711B7370100EF
:1059E000938717952320F40013850B00EF70833BFA
:1059F00097B703009387871B13060500938605005E
:105A000003A5070083A54700EF90927297B70300A4
:105A10009387471A03A6070083A64700EFA0827B5F
:105A2000EF70832813150501135505012322A400E7
:105A3000232494002326440163EA8910330494014B
:105A400083270B0023A08A008320C10203A7C71568
:105A500003A6870503248102930647019396260037
:105A60001307170023AEE714B387D70023A6C70098
:105A700083244102032901028329C101032A8101F0
:105A8000832A4101032B0101832BC100032C8100D8
:105A9000832C41001301010367800000179C030061
:105AA000032CCCCC83260C00032709008327490054
:105AB000939C26003304940123A08A001306803CA3
:105AC0002320C4002322E4002324F4002326A4007E
:105AD000E3EA89EE3304940123A08A0093072000AF
