:1000000017C11F001301C1FFB75230009382424055
:1000100083A2020063880200B70200809382A200DC
:100020002322500093021000375330001303434043
:1000300023205300978110009381C193173511003D
:100040001305453217561100130636F63306A6403F
:1000500093050000EF00400917E505001305C59260
:100060006308050017E505001305850AEFD0951113
:10007000EFA0455A03250100930541001306000037
:10008000EFA0C5306FA08555130101FF232021018A
:10009000371900002324810003240981232611003D
:1000A0002322910013050400EF1040506310050255
:1000B000130504008320C100032481008324410030
:1000C000032901001301010167800000930405006A
:1000D0009305050013850100EFA04561130400009E
:1000E000232299806FF0DFFC1303F0001307050053
:1000F000637EC3029377F7006390070A6392050853
:10010000937606FF1376F600B386E6002320B70049
:100110002322B7002324B7002326B70013070701C3
:10012000E366D7FE6314060067800000B306C34091
:100130009396260097020000B38656006780C6009B
:100140002307B700A306B7002306B700A305B7002F
:100150002305B700A304B7002304B700A303B70027
:100160002303B700A302B7002302B700A301B7001F
:100170002301B700A300B7002300B7006780000089
:1001800093F5F50F93968500B3E5D5009396050199
:10019000B3E5D5006FF0DFF69396270097020000D5
:1001A000B386560093820000E78006FA938002002F
:1001B000938707FF3307F7403306F600E378C3F66B
:1001C0006FF0DFF33367B5009303F0FF1377370069
:1001D00063100710B7877F7F9387F7F70326050023
:1001E00083A60500B372F6003363F600B382F20013
:1001F000B3E26200639272106316D60803264500CC
:1002000083A64500B372F6003363F600B382F200B2
:10021000B3E26200639E720C6316D6060326850065
:1002200083A68500B372F6003363F600B382F20052
:10023000B3E262006398720C6316D6040326C5000D
:1002400083A6C500B372F6003363F600B382F200F2
:10025000B3E262006392720C6316D60203260501B4
:1002600083A60501B372F6003363F600B382F20091
:10027000B3E26200639C720A130545019385450150
:10028000E30ED6F41317060193970601631EF700D9
:100290001357060193D706013305F7409375F50F01
:1002A00063900502678000001357070193D7070189
:1002B0003305F7409375F50F6394050067800000E0
:1002C0001377F70F93F7F70F3305F74067800000B8
:1002D0000346050083C60500130515009385150028
:1002E0006314D600E31606FE3305D640678000008F
:1002F0001305450093854500E31CD6FC130500005B
:10030000678000001305850093858500E312D6FC05
:1003100013050000678000001305C5009385C50024
:10032000E318D6FA130500006780000013050501E5
:1003300093850501E31ED6F81305000067800000D1
:10034000130605001305000093F6150063840600EC
:100350003305C50093D5150013161600E39605FE68
:10036000678000006340050663C605061386050026
:10037000930505001305F0FF630C060293061000B9
:10038000637AB6006358C0001316160093961600E1
:10039000E36AB6FE1305000063E6C500B385C540F9
:1003A0003365D50093D6160013561600E39606FE65
:1003B0006780000093820000EFF05FFB138505006B
:1003C000678002003305A04063D80500B305B04044
:1003D0006FF0DFF9B305B04093820000EFF01FF932
:1003E0003305A040678002009382000063CA0500C5
:1003F000634C0500EFF09FF713850500678002004E
:10040000B305B040E35805FE3305A040EFF01FF6FA
:100410003305B04067800200130101FE232A9100DA
:100420009754100083A4C41883A70400232C8100D0
:10043000232631011304C002938905009385170018
:10044000B385850223282101175910000329C90A01
:1004500023244101130A050003250900232E11005E
:10046000EFC0CE0783A704002320A9001386F9FF5D
:10047000B307F4023306CA0093050A00930610007E
:100480003305F50013054500EF10406083A7040015
:10049000032709008320C101338487029387170053
:1004A000032901018329C100032A81003304870045
:1004B000232004000324810123A0F40083244101AC
:1004C0001301010267800000130101FF2322910044
:1004D0009754100083A4C40D83A504002324810035
:1004E0001304C00293851500B385850223202101E2
:1004F000175910000329490003250900232611007C
:10050000EFB0DE7D83A704002320A9008320C10073
:100510003384870213071000938717000329010013
:1005200033058500032481002320E50023A0F40087
:100530008324410013010101678000009307C0027A
:100540003305F5029757100083A707FB83A7070021
:100550003385A700130545006F10C07D9307C002C7
:100560003305F5029757100083A707F983A7070003
:100570003385A700130545006F10C07E130101FCF1
:10058000232C81021304C00233048502232A910222
:10059000232821032326310323244103232251034B
:1005A00023206103232E7101232C8101232A910131
:1005B000232E1102138C0500130B0600938A0600EC
:1005C000130A0700930CC1009759100083A9C9F2C0
:1005D0001309F0FF93042000977B1000938B8B4747
:1005E00003A5090013070A0093860A003305850056
:1005F00013060B0093850C001305450023262101EB
:10060000EF10901C630C0500630E95009305050028
:1006100013850B00EFA0850D6FF09FFC8327C100B1
:10062000E39087FD8320C1030324810383244103D6
:10063000032901038329C102032A8102832A41027B
:10064000032B0102832BC101032C8101832C410167
:100650001301010467800000130101FE232C8100B7
:10066000232A91002328210123263101232441013B
:1006700023225101232E1100930A0500138A05003D
:100680009309060013890600930407001304200051
:1006900013870400930609001386090093050A00D6
:1006A00013850A00EFF09FEDE30485FE8320C1016E
:1006B0000324810183244101032901018329C1000D
:1006C000032A8100832A4100130101026780000090
:1006D0009307C0023305F5029757100083A7C7E1BF
:1006E00083A707003385A700130545006F10500747
:1006F000130101FE9306000013060000930500009D
:10070000232A9100232E1100232C8100930405003D
:10071000EFF01FFC631E05021306C10013850400E1
:100720001307000093060000930510002326010024
:10073000EFF09FF213040500130504008320C101AC
:100740000324810183244101130101026780000019
:1007500013040500130605009385040017751000A7
:1007600013050534EF909578130504008320C1012B
:1007700003248101832441011301010267800000E9
:100780009307C0023305F5029757100083A7C7D619
:1007900083A707003385A700130545006F10805F0E
:1007A0009307000F63EEC722130101ED232E3111D1
:1007B0009759100083A9C9DF2322911283A409004D
:1007C000232021132328611193D7F44123261112EA
:1007D00023248112232C4111232A51112326711124
:1007E0002324811123229111232C9100232EF10027
:1007F000130B06001309050063060600130501022A
:10080000EF10162C37050080130B0B013369A9007C
:10081000635E9012930B000013040000130A0000A3
:10082000975A100083AA4ACD130C010183A70A002E
:100830001307140023288100B387770183A70700DB
:10084000232A4101B3368700638807141304070085
:10085000338A4601938BCB02E34A97FC6358900E90
:10086000930B000013040000130A0000930C010115
:10087000177C1000130CCC256F00C00193071400E7
:1008800033B78700330A470113840700938BCB02E9
:1008900063D6970483A70A0023288100232A4101F5
:1008A000B387770183A70700E38A07FC13860C0050
:1008B00093050B0013050900EF10D02C6312050CF3
:1008C00083A409009307140033B78700330A470154
:1008D00013840700938BCB02E3CE97FA63589006FC
:1008E000130A000013040000130C8100130BC10055
:1008F000977B1000938BCB1D6F00C0001304140076
:100900006356940483A70A00B387470183A70700AF
:10091000130ACA02E39407FE9305090013070C00AB
:100920009306400013060B00130504002324010066
:1009300023260100EFF05FD283258100639805082C
:1009400083A4090013041400E34E94FA8320C11217
:100950000324811283244112032901128329C11126
:10096000032A8111832A4111032B0111832BC1100A
:10097000032C8110832C41101301011367800000A8
:10098000930505001306040013050C00EF9015569F
:1009900083A409006FF01FF31305040093060C00F5
:1009A00013060B0093050900EFF09FD283A4090002
:1009B0009307140033B78700330A470113840700F5
:1009C000938BCB02E3C497E66FF05FE91306040054
:1009D00013850B00EF90955183A409006FF09FF6EB
:1009E00067800000130101FF23248100232291006E
:1009F0001304050023202101232611008327C400AE
:100A00000325850017571000032787B283240700AA
:100A10003305F5001315350013890500EF80C55621
:100A200023A6A416032884009756100083A646BB6D
:100A300083A50600131838003308050123A80417FE
:100A4000032684008327C400B307F60013973700FA
:100A5000638E05169757100083A7C7B683A80700B3
:100A60009755100083A545B383A70500938848FFD9
:100A700063F4F816130310009758100083A848A4D5
:100A800023A0680003A30600631E03183786000036
:100A90001306160023A0C70023A2070023A4A70063
:100AA00023A6E70003A706000326840013172700E8
:100AB000B387E70023A0F500930600001303401B53
:100AC0009308C0046356C0060327C4028327440367
:100AD0003307E400B307F400636CD6149395260043
:100AE0003307B70003260700B387B70003A7040145
:100AF0003306660283A7070093953600B305B50059
:100B00001307F7FF3377B70093861600B385F80213
:100B10003306C4008327C614B307F400B387B700B5
:100B200023AEE70223A0070403268400E3CEC6F821
:100B30008325C400130600009308401B1305C0045E
:100B4000635AB0060327C40283274403B306E400B4
:100B50003307F40063EEC50C8327840083A50401EA
:100B600013133600B307F60093972700B386F600F9
:100B700083A60600B307F70083A70700B386160312
:100B80001387F5FFB30568003377B7001306160027
:100B9000B305F502B306D40083A7C614B307F40067
:100BA000B387B70023AEE70223A007048325C40060
:100BB000E34AB6F88320C100032481008324410066
:100BC00003290100130101016780000097551000FF
:100BD00083A5859C83A705003706050023A0C700D1
:100BE00023A2270123A4070023A6070003A60600CB
:100BF00083A8060013162600B387C70023A0F500BC
:100C0000E38608E8175610000326C69B0326060055
:100C1000130646FFE37CF6E603268400975810008F
:100C200083A8088A9307100023A0F8006FF0DFE87C
:100C3000232E000273001000130101FB2324810402
:100C4000232291032326110423229104232021052A
:100C5000232E3103232C4103232A5103232861032C
:100C600023267103232481032320A103232EB10112
:100C70008327050113040500938C0500639A072E52
:100C8000639A0546832A040483258404B30A540125
:100C9000B385BA0093870A0223A4FA0023A60A00A8
:100CA00023ACBA0023AE0A0013858A00938B0A0096
:100CB000EF80053C17591000032989878327090015
:100CC0001305040003A7C71503A6870583A5871688
:100CD00093064701939626001307170023AEE714E7
:100CE000B387D70023A6C700EFF0DFCFEF80C03A6D
:100CF0008327C405639E07328327C403635EF00421
:100D0000130A840F93090000130B0000130D010058
:100D1000177C1000130C8CE7639E0C141306000163
:100D200093050D003705008023243101232661013E
:100D30002320810023220100EFF09FA60327C40394
:100D400093871900B3B63701338B66019389070087
:100D5000130A4A1BE3C2E7FC8324C4020326C4002F
:100D6000B3049400630E0616130A0405930D0000E5
:100D70009309401B130BC004977C1000938CCCE1AB
:100D8000177C1000130C0CE36F00C006032744030C
:100D9000B307F400B387E70083A70700B307FB029C
:100DA000330DFD00032709008326CD0303250D0421
:100DB000032607016362D63683274D0003288D0082
:100DC0000326CD0083250D01B38707030327070002
:100DD0003307D700032707003305A700B387C702EF
:100DE000B385B702EF80C02A0326C400938D1D008F
:100DF00063F8CD0E83278400B387FD009397270007
:100E00003387F400032707003387E9023307EA003A
:100E10008326C700E38C06FC032DC70F03270401BC
:100E2000330DA401E30407F693850D0013850C0030
:100E3000EF90D50B832784000327440313050C0090
:100E4000B387FD0093972700B307F400B387E7004B
:100E500083A70700B307FB02330DFD0003270D0135
:100E60008326CD0003268D0083254D00EF901508C5
:100E70006FF05FF393048AF5930510001385040067
:100E8000EF10900A130605009385090017751000EE
:100E9000130505CFEF90950583278AFF03270A00E6
:100EA00093040000B30DF4006356E00213850D00B7
:100EB000EF10005E130605009385040013050C0077
:100EC000EF90D50203270A0093841400938DCD0F71
:100ED000E3CEE4FC1305A000EFB00E5E6FF01FE45C
:100EE000EF80C01B174710000327876F8327070079
:100EF000639607089747100083A7076A83A7070030
:100F000083A70700032709008326C71593873601A7
:100F100093972700B307F70083A7C7009386F6FFD0
:100F2000232ED714232CF70483270401638A070A8E
:100F30008320C10403248104832441040329010480
:100F40008329C103032A8103832A4103032B01035D
:100F5000832BC102032C8102832C4102032D010249
:100F6000832DC101130500001301010567800000F6
:100F7000930A0000930B00006FF0DFD303260700F5
:100F80009746100083A6466183A706006306060203
:100F9000174610000326066303260600130646FFC5
:100FA000637CF6009747100083A787511307100052
:100FB00023A0E7006FF01FF51306300023A0C70041
:100FC00023A2070023A4070023A607000327070086
:100FD00013172700B387E70023A0F6006FF09FF2F6
:100FE00003A58B0013868B0193850B01EF80050F02
:100FF000631A051083A78B01B38A57412324540534
:10100000B70706002328F40083A68B00930700FF90
:1010100033878740B3878640232AF40083A70B01D8
:10102000232E0400B387E700232CF4006FF05FF059
:101030008329C41483270414B3093401E35EF0CA7E
:101040000327090083A5C90303A809040326070190
:101050006366B60C8327070083A6C9019304C00406
:10106000B387B70003A50700130A0000B384344117
:1010700033050501635CD00693962600B3863601DE
:10108000938709009305100003A747006354E0000D
:10109000B385E50293874700E398F6FEEF70107F73
:1010A00083270414130A1A00E358FAC48327C414CC
:1010B00003270900B3863401B307F400B387D700D0
:1010C00083A5C7030326070103A807049389C9045E
:1010D0006366B6048327070083A6C901B387B700F8
:1010E00003A5070033050501E348D0F89305100078
:1010F0006FF0DFFA17751000130505A0EF90457823
:101100006FF05FB89305050017751000130505AD66
:10111000EF90C55D6FF0DFEE938506001775100048
:10112000130505A0EF90855C9747100083A7473B08
:1011300083A7070003A58700EFC0D5391305F0FF8B
:10114000EF90C5490327C502832745038326C500C1
:10115000174610000326C63D032606003307E500A8
:10116000B307F50063EEB60483268500B385D5008A
:10117000939525003307B70003270700B387B7000F
:1011800083A507009307401BB307F7029306C0042B
:1011900003270600B386B602B307F50083A7C7147A
:1011A0003305F5003305D5008326C50383270504E1
:1011B0003307D700032507003305F50067800000DB
:1011C0008327C003730010000327C502832745034C
:1011D000832685001746100003268635032806005F
:1011E0003307E500B307F50063EAB60493952500DD
:1011F0003307B700032707009306401BB387B700E8
:101200003307D70283A707001306C004832608000C
:101210003306F602B307E50083A7C7143305F500CC
:101220003305C5000327C50383270504B386E600FD
:1012300003A506003305F500678000008327C0037F
:10124000730010000327C50283274503832685000A
:101250003307E500B307F50063E2B6049395250074
:101260003307B700032707009306401BB387B70077
:101270003307D70283A707009306C004B386F6029C
:10128000B307E50083A7C7143305F5003305D50080
:101290006306050003250500678000001305400074
:1012A000678000000327C502832745038326C50006
:1012B0003307E500B307F50063E6B604832685002F
:1012C000B385D500939525003307B70003270700A2
:1012D000B387B70083A607009307401BB307F70245
:1012E0001307C0043307D702B307F50083A7C71459
:1012F0003305F5003305E500630605000325050009
:101300006780000013054000678000000327C502C6
:1013100083274503832685003307E500B307F500DF
:1013200063E4B606939525003307B700032707004B
:101330009306401BB387B7003307D70283A6070085
:101340009307C004B386D7023307E5008327C71489
:10135000B307F500B387D7006388070283A6C701E8
:101360006358D00293962600B386D7001305100069
:1013700003A74700938747006354E0003305E50265
:10138000E398F6FE678000001305F0FF6780000019
:1013900013051000678000000327C502832745035B
:1013A0008326C5003307E500B307F50063E8B606FA
:1013B00083268500B385D500939525003307B700B4
:1013C00003270700B387B70083A607009307401BD6
:1013D0003307F7029307C004B386D7023307E5004B
:1013E0008327C714B307F500B387D70063880702C4
:1013F00083A6C7016358D00293962600B386D70010
:101400001305100003A74700938747006354E000CB
:101410003305E502E398F6FE678000001305F0FF50
:101420006780000013051000678000000327C502D5
:10143000832745038326C5003307E500B307F5007E
:1014400063E4B60483268500B385D5009395250013
:101450003307B70003270700B387B7009306401B85
:1014600083A707003307D7029306C004B387D702C8
:101470003307E5000327C7143385A7003305E500CC
:101480000325850267800000832780027300100017
:101490000327C50283274503832685003307E5001C
:1014A000B307F50063E0B604939525003307B70052
:1014B00003270700B387B7009306401B3307D70203
:1014C00083A707009306C004B387D7023307E5005C
:1014D0000327C7143385A7003305E50003258502DC
:1014E0006780000083278002730010000327C50275
:1014F000832745038326C5003307E500B307F500BE
:1015000063E4B60483268500B385D5009395250052
:101510003307B70003270700B387B7009306401BC4
:1015200083A707003307D7029306C004B387D70207
:101530003307E5000327C7143385A7003305E5000B
:101540000325050367800000832700037300100054
:101550000327C50283274503832685003307E5005B
:10156000B307F50063E0B604939525003307B70091
:1015700003270700B387B7009306401B3307D70242
:1015800083A707009306C004B387D7023307E5009B
:101590000327C7143385A7003305E500032505039A
:1015A0006780000083270003730010000327C50431
:1015B000B717BE1A9387D71E6312F70A130101FDEE
:1015C00023248102232611022322910223202103B6
:1015D000232E3101232C4101232A510123286101AB
:1015E00023267101232481018325050037262E7BC4
:1015F0001306960F130405006398C532B717000051
:1016000083A78782032745001305900093D787009F
:1016100093F7F70F631CF700832744130327841302
:1016200013050000B3E7E700638E07028320C102C1
:101630000324810283244102032901028329C10179
:10164000032A8101832A4101032B0101832BC1005D
:10165000032C810013010103678000001305700053
:1016600067800000174A1000032A8AEC83270A00CB
:101670009744100083A4C4F6974A100083AACAF1C5
:1016800003A7C71503A6870593064701939626006F
:101690001307170023AEE714B387D70023A6C700AC
:1016A00083290404EF7055181309050093050500FC
:1016B00003258404B3093401EFE0DFCA930B05006E
:1016C00013050900EF70550C9746100083A6C6ED70
:1016D00023A02601130710009746100083A606EEEC
:1016E00083A7040023A0E6009746100083A686E99E
:1016F00023A0E600130C05006388070C9747100031
:1017000083A747EC83A6070083A70A00938646FFBA
:1017100063FEF60A9746100083A686DA23A0E60049
:1017200003A70400631A070E370701001307471CBD
:1017300023A0E70023A2070023A4070023A6870114
:1017400003A7040013172700B387E70023A0FA00BC
:10175000176510001305C54DEF908512174B10004B
:10176000032B0BD883270B0003A58700EFC08556FA
:101770006344202303A7040083A70A006304070A25
:1017800017471000032707E403270700130747FF45
:10179000637AF708130710009746100083A646D215
:1017A00023A0E60003A704006304070C130710003E
:1017B00023A0E60003A704006300071093071000AE
:1017C00023A0F6006F00801183A70A0013072000F2
:1017D00023A0E70023A227011307100023A4E7009A
:1017E00023A6E70003A7040083A60400131727001D
:1017F000B387E70023A0FA00E38806F2174710003A
:10180000032747DC032707009746100083A646CB33
:10181000130747FFE37AF7F09307100023A0F600C1
:101820006FF01FF3378701001307170023A0E700AD
:1018300023A2070023A4770123A6070003A704001F
:1018400083A6040013172700B387E70023A0FA003C
:1018500063800602174710000327C7D60327070037
:101860009746100083A6C6C5130747FFE360F7F449
:101870003707010023A0E70023A2270123A40700C4
:1018800023A6070003A7040083A60400131727005C
:10189000B387E70023A0FA00638006021747100011
:1018A000032747D2032707009746100083A646C1A7
:1018B000130747FFE364F7F03707040023A0E700AE
:1018C00023A2370123A4870123A6270103A704002D
:1018D00013172700B387E70023A0FA003309790321
:1018E00003248404330424416312041283A70400F4
:1018F0006386070403A7040083A70A00630A070698
:1019000017471000032707CC03270700130747FFDB
:101910006370F7069747100083A787BA1307100074
:1019200023A0E7006F000002176510001305C52C07
:10193000EF80D55B130580006FF05FCF83A70A00AF
:1019400083A7070003270A00130500008326C71595
:101950009387360193972700B307F70083A7C70043
:101960009386F6FF232ED714232CF7046FF01FCC99
:101970001307300023A0E70023A2070023A40700D9
:1019800023A6070003A7040013172700B387E70067
:1019900023A0FA006FF01FFBE35270F59747100089
:1019A00083A747C203A507001386090083A70A007F
:1019B000130545FF9305000013070000930810006E
:1019C000174810000328C8AF6F008001637EF50040
:1019D000232018011307170033062601638EEB0638
:1019E00083A60400E39406FE23A0070023A2C700F9
:1019F00023A4870123A6270183A6040093051000D2
:101A000093962600B387D7006FF0DFFC17651000B0
:101A100013050522EF80D56683270B0003A58700F9
:101A2000EFC0452B83A70400638C07029747100083
:101A300083A747B903A7070083A70A00130747FF37
:101A40006372F7029747100083A787A71307100058
:101A500023A0E7006FF09FE9E39005E86FF01FE82F
:101A600083A70A0023A007003389290123A22701A5
:101A700023A4870123A6870003A7040013172700C8
:101A8000B387E70023A0FA006FF05FE63306B640A5
:101A9000930716FF1306160033B6C7001306F6FFAA
:101AA0001316F60193D71700B367F6001387F7FFF5
:101AB00093870501130101FB3388E700138E45006E
:101AC000138385009388C500232681042324910471
:101AD0002322210523203105232E4103232C5103EA
:101AE000232A6103232871032326810323249103DE
:101AF0002322A1032320B103130618002300D500DD
:101B00003307E60093DD850013DD050193DC8501D5
:101B1000135C8E00935B0E01135B8E01935A83005E
:101B2000135A03019359830113D9880093D40801F0
:101B300013D4880193D3870093D2070193DF8701E1
:101B4000135F8800638E0610935608012324D1008A
:101B5000A302F50083278100935688012326D10034
:101B6000935686002328D100A305F500935606015D
:101B70008327C100232AD10093568601232CD1004C
:101B800093568700232ED1002306F500A306B50047
:101B90002307B501A307A50123089501A308C501E3
:101BA00023098501A3097501230A6501A30E6500B8
:101BB000230F5501A30F450123003503A30015038F
:101BC00023012503A3019502230285022303750047
:101BD000A30355002304F501A30405012305E50132
:101BE000A30AC5008327010193560701935E87016D
:101BF000230BF50083274101A30CE500A30DD500BD
:101C0000A30BF50083278101230ED501230CF500DA
:101C10008327C101230DF50023A0050023A20500A1
:101C200023A4050023A605000324C1048324810402
:101C30000329410483290104032AC103832A810360
:101C4000032B4103832B0103032CC102832C81024C
:101C5000032D4102832D010213010105678000005D
:101C6000935608012324D100A30AF500832781009D
:101C7000935688012326D100935686002328D1004D
:101C8000A30DF500935606018327C100232AD10036
:101C900093568601232CD10093568700232ED10022
:101CA000230EF500A30EB500230FB501A30FA50168
:101CB00023009503A300C50323018503A301750336
:101CC00023026503A306650023075501A307450109
:101CD00023083501A308150123092501A30995004F
:101CE000230A8500230B7500A30B5500230CF50177
:101CF000A30C0501230DE501A302C5008327010103
:101D000093560701935E87012303F5008327410162
:101D1000A304E500A305D500A303F50083278101F3
:101D20002306D5012304F5008327C1012305F5000F
:101D30006FF09FEF032785008347C500032545000B
:101D40009356870093978701B3E7D700131787014E
:101D500013558500938797FF3365A7003385A74008
:101D600067800000032785018347C50103254501DE
:101D70009356870093978701B3E7D700131787011E
:101D800013558500938797FF3365A7003385A740D8
:101D900067800000130101FD2324810223229102A8
:101DA00023202103232E31012326110213090600CB
:101DB000130405009389050093840600EFF09FF754
:101DC000636025190327C400834704010F00F00F47
:101DD0001357870093978701B3E7E70003A607002F
:101DE0000F00F00F83260401034744010F00F00F9A
:101DF00093D68600131787013367D7008327070020
:101E00000F00F00F0F00F00F3387C7406368F60034
:101E1000130785003307F7003307C740930689008F
:101E2000130510006360D710832744000347840024
:101E30001305810093D6870093178701B3E7D70076
:101E4000B387C70023243101232621011306010192
:101E50000F00F00F034705002380E7000F00F00F8D
:101E6000832584000347C4009387170093D6850019
:101E7000131787013367D700130515009395850164
:101E80006378F7008327440093D78700B3E7F50012
:101E9000E310A6FC6308090493860400338624013A
:101EA0000F00F00F03C706002380E7000F00F00FBC
:101EB000832584000347C4009387170013D585004A
:101EC000131787013367A700938616009395850142
:101ED0006378F7008327440093D78700B3E7F500C2
:101EE000E390C6FC0F00F00F832544008346840076
:101EF0000326C4000347040193D585009396860109
:101F000013568600B3E6B600131787013367C70080
:101F1000B387D7400F00F00F2320F7000F00F00F1A
:101F2000130500008320C10203248102832441029F
:101F3000032901028329C101130101036780000005
:101F40008320C10203248102832441020329010268
:101F50008329C101130530001301010367800000CC
:101F6000130101FE232C8100232A91002328210143
:101F70002326310123244101232E1100130A0500D9
:101F800093890500130906009384060013041000CA
:101F900093860400130609009385090013050A00BF
:101FA000EFF05FDFE30685FE8320C101032481019A
:101FB00083244101032901018329C100032A8100EF
:101FC0001301010267800000130101FD2324810237
:101FD000232291022320210393040500232E3101A3
:101FE000232C410123261102130A070093890500BF
:101FF0001309060013840600EFF0DFD603A70402DE
:1020000083C744020F00F00F13578700939787018F
:10201000B3E7E70003A607000F00F00F83A6C40193
:1020200003C704020F00F00F93D686001317870131
:102030003367D700032E07000F00F00F0F00F00FDB
:102040006376CE00330EC501130E8E00330ECE40E4
:102050001305200063020E1C930770001305600037
:1020600063FCC71B03A7440183C784019308810055
:102070001357870093978701B3E7E70023240100F4
:10208000B387C70023260100130701010F00F00FDB
:1020900003C307000F00F00F03A8840103C5C401A8
:1020A0002380680013538800131585019387170058
:1020B0003365650093881800131888016378F5006C
:1020C00083A7440193D78700B367F800E390E8FC47
:1020D00023A009002320090003A70900034681006B
:1020E0000345C100834691003367C70023A0E90080
:1020F00083250900139686000347D100B3E6A500A7
:102100002320D90083A60900131587000347A100E7
:10211000B3E6C60023A0D9008325090013160701E2
:102120008346E10033E7A5002320E90003A7090067
:10213000139506018346B1003367C70023A0E90069
:1021400083250900139686010347F100B3E6A50035
:102150002320D90083A60900131787011305500017
:10216000B3E6C60023A0D900832609003367D70051
:102170002320E900930687006360DE0A1305400010
:10218000636CE408630A0704130500000F00F00FF6
:1021900083C607000F00F00F3307AA002300D70003
:1021A00083A5840183C6C4019387170013D78500D4
:1021B00093968601B3E6E600130515009395850115
:1021C00063F8F60083A7440193D78700B3E7F500CF
:1021D00083260900E36CD5FA0F00F00F83A54401B4
:1021E00083C6840103A6040203C7440293D5850075
:1021F0009396860113568600B3E6B600131787013F
:102200003367C700B387D7400F00F00F2320F700D4
:102210000F00F00F130500008320C1020324810288
:1022200083244102032901028329C101032A810178
:102230001301010367800000130101FE232C8100BC
:10224000232A91002328210123263101232441013F
:1022500023225101232E1100930A0500138A050041
:102260009309060013890600930407001304200055
:1022700013870400930609001386090093050A00DA
:1022800013850A00EFF05FD4E30485FE8320C101CB
:102290000324810183244101032901018329C10011
:1022A000032A8100832A4100130101026780000094
:1022B000130101FE232C8100232A9100232E1100FB
:1022C0009307F001130405009384060063CAA70670
:1022D00093162500975710009387C785B387D700BB
:1022E00083A70700638E07041387050003250600F4
:1022F0008325860093060601130607FFE780070083
:102300002326A1009306C100130640009305040094
:1023100013850400EFF0DFC4630C0504930505008A
:102320001765100013058598EF60D0638320C10105
:10233000032481018324410113010102678000000D
:10234000930504001765100013050593EF60906175
:102350009307F0FF9306C1001306400093050400A5
:10236000138504002326F100EFF09FBFE31805FA60
:102370008320C1010324810183244101130101024F
:10238000678000009307F00163CAA7029316250037
:10239000974710009387077AB387D70003A30700F6
:1023A000630E0300138705000325060083258600BE
:1023B00093060601130607FF67000300130101FFE0
:1023C00093050500176510001305058B23261100E2
:1023D000EF80C5318320C1001305F0FF1301010117
:1023E00067800000131515001355150093070002B0
:1023F00063C8A702974710009387C773131525007A
:102400003385A70083270500639807002320B500C4
:1024100013050000678000001305F0FF67800000CF
:102420001305E0FF678000001305F5FF93571500C3
:1024300033E5A70093572500B3E7A70013D547005E
:10244000B367F50013D587003365F5009357050191
:1024500033E5A700130515006780000093571500AA
:1024600033E5A7009357250033E5A70093574500B0
:10247000B3E7A70013D587003365F500935705012F
:10248000B3E7A70013D517003385A7406780000086
:10249000832705001307A00C6362F7281747100075
:1024A0001307077F93972700B387E70083A70700E9
:1024B000B387E70067800700176510001305C58222
:1024C00067800000176510001305C59A678000003B
:1024D0001765100013050587678000001765100059
:1024E0001305459E6780000017651000130545829F
:1024F000678000001765100013058598678000004D
:1025000017651000130585816780000017551000BE
:102510001305457F67800000176510001305058FC0
:10252000678000001765100013058598678000001C
:10253000175510001305C57C678000001765100053
:102540001305859567800000176510001305C58A7F
:10255000678000001765100013054588678000003C
:10256000176510001305858B678000001765100044
:102570001305C58767800000176510001305858562
:102580006780000017651000130545846780000010
:10259000176510001305058567800000176510009A
:1025A0001305458667800000175510001305057D4B
:1025B00067800000176510001305858067800000A4
:1025C000176510001305058D678000001765100062
:1025D0001305458467800000175510001305457BDF
:1025E00067800000176510001305458F67800000A5
:1025F000176510001305458C6780000017651000F3
:102600001305058667800000176510001305058413
:1026100067800000176510001305C5806780000003
:102620001755100013050576678000001755100038
:102630001305C57767800000176510001305058036
:1026400067800000175510001305C57767800000EC
:1026500017651000130545836780000017551000AB
:102660001305856F67800000175510001305456F2F
:1026700067800000175510001305856D6780000006
:10268000175510001305457067800000175510009E
:102690001305856A678000001755100013058571C2
:1026A000678000001755100013054564678000001F
:1026B000175510001305C56E6780000017551000F0
:1026C0001305C57667800000175510001305C56512
:1026D00067800000175510001305456B67800000E8
:1026E000175510001305056B678000001755100083
:1026F0001305056867800000175510001305057A5B
:1027000067800000175510001305C5796780000029
:10271000175510001305C577678000001755100086
:102720001305855B678000008327050013073004CD
:10273000638CE712634CF702130770016386E71896
:10274000634CF708130730006384E71C13079000FD
:102750006388E71213072000639CE70217651000E7
:10276000130585876382051C678000001307100628
:102770006384E712635AF7021307800C638AE71237
:102780001307900C6382E708130760066382E70C67
:102790001755100013050575E39805FC1765100023
:1027A000130545876780000013073005638AE70635
:1027B000130780056382E70813075004E39AE7FCD8
:1027C000175510001305457CE39005FA17551000C6
:1027D0001305857867800000130710036382E710F4
:1027E00013078003638AE7101307C002E392E7FA36
:1027F000175510001305C57AE39805F61755100014
:102800001305057367800000175510001305C57D7B
:10281000E39C05F4175510001305856E67800000D2
:10282000175510001305C57AE39005F417551000ED
:102830001305056E678000001755100013054564E9
:10284000E39405F2175510001305056D678000002D
:102850001755100013054572E39805F01755100041
:102860001305857067800000175510001305457526
:10287000E39C05EE175510001305856A678000007C
:10288000175510001305C576E39005EE1755100097
:1028900013058566678000001755100013058562D3
:1028A000E39405EC175510001305056967800000D7
:1028B000175510001305C574E39805EA1755100065
:1028C0001305456367800000175510001305456C1C
:1028D000E39C05E8175510001305056767800000A5
:1028E000175510001305C569E39005E8175510004A
:1028F0001305056767800000175510001305855004
:10290000E39405E6175510001305856667800000FF
:10291000175510001305856FE39805E4175510004F
:102920001305C55C67800000175510001305C55DD1
:1029300067800000130101FF2324810013040500B8
:10294000175510001305856D23261100EF70557380
:102950008326040103260402832544011755100031
:102960001305456CEF7095580326C40083250400B9
:10297000175510001305856CEF7055570326040892
:102980008325C407032481008320C100175510004C
:102990001305C56B130101016F705555B717000082
:1029A000138F976A6378BF0C938EA76A37FEFFFF79
:1029B000378380803306D50113070000930700009A
:1029C000130E6E95130313083305C6011305150086
:1029D0008346F5FFB387D7003307F700E318C5FE3A
:1029E00033B86702B385C5013306D501B336670234
:1029F000135878009318880033880841B38707413B
:102A000093D6760013988600B306D8403307D74094
:102A1000E36CBFFA63860504B305B5001305150022
:102A20008346F5FFB387D7003307F700E318B5FEF9
:102A3000B78680809386160833B6D702B336D7029E
:102A400013567600931586003386C540B387C7407A
:102A500093D6760013968600B306D6403307D74048
:102A600013178700B367F700139507011355050186
:102A70006780000013070000930700006FF09FF9C4
:102A80009307701663F2B70C378300801306052D89
:102A9000130700009307000013031300130E7016B2
:102AA000130506D3130525008356E5FFB387D7002A
:102AB0003307F700E318C5FE33B86702938585E94D
:102AC0001306052DB33667021358F8009318080152
:102AD00033880841B387074193D6F600139806015F
:102AE000B306D8403307D740E36CBEFA63880504C9
:102AF00093961500B306D500130525000356E5FF90
:102B0000B387C7003307F700E398A6FEB7860080B7
:102B10009386160033B6D702B336D7021356F600A3
:102B2000931506013386C540B387C74093D6F60098
:102B300013960601B306D6403307D7401317070193
:102B40003365F7006780000013070000930700005B
:102B50006FF0DFF9130101FA23206105232A9103A5
:102B6000232E1104232C8104232A910423282105D8
:102B7000232631052324410523225105232E7103E9
:102B8000232C81032328A1032326B103232CB10086
:102B900023261101938C0600138B060063C4F600F4
:102BA000138B0700130C07006354E600130C060098
:102BB000173710000327C7A283270700638C071E5F
:102BC000832607009735100083A5059D83A7050080
:102BD000639606149306300023A0D70023A20700B3
:102BE00023A4070023A607000327070013172700C5
:102BF000B387E70023A0F500832781016352F00E1D
:102C0000B3079603130D1000331D0D012328010097
:102C1000975B1000938B8B46975A1000938A0A4556
:102C2000232EF100B3076501232AF100832501015A
:102C3000175510001305C542130A0000EF70152B3D
:102C40000324410163588007635C600513050D0090
:102C5000EFC04F408327C100130905009389050089
:102C60006392070EB304644183CD0400938414007F
:102C700013850D00EFC00F3E13060900938609006F
:102C8000EF701676EFD09F6493050000EFD00F2110
:102C900093850D0013850A00EF705525E31694FC0B
:102CA0001305A000130A1A00EF901E0133049401CB
:102CB000E31C4CF9832701011305A00013841700BE
:102CC00023288100EF904E7F832741010327C10114
:102CD000B387E700232AF10083278101E39887F473
:102CE0008320C105032481058324410503290105AF
:102CF0008329C104032A8104832A4104032B01048C
:102D0000832BC103032C8103832C4103032D010377
:102D1000832DC10213010106678000009736100061
:102D200083A6468A83A60600938646FFE3F4F6EA66
:102D30009727100083A7C7781307100023A0E70088
:102D40006FF09FEBB30D64416F00400213850400E8
:102D5000EFD0DF47130605009386050013850B00AF
:102D6000EF70D518938D1D00E38C8DF203C50D0017
:102D7000EFC04F2E1306090093860900EF705666C8
:102D8000EFD0DF549305000093040500EFD00F113E
:102D9000E35E05FA13850400EFD05F4313060500D8
:102DA00093860500175510001305C52CEF701514F8
:102DB0006FF05FFB9727100083A7077E83A70700AC
:102DC00083A707006FF05FE3130101FA2320610579
:102DD000232A9103232E1104232C8104232A9104F6
:102DE00023282105232631052324410523225105CB
:102DF000232E7103232C81032328A1032326B1034F
:102E0000232CB10023261101938C0600138B06009E
:102E100063C4F600138B0700130C07006354E6002D
:102E2000130C0600172710000327877B8327070052
:102E3000638C071E832607009725100083A5C575A0
:102E400083A70500639606149306300023A0D700DD
:102E500023A2070023A4070023A6070003270700D7
:102E600013172700B387E70023A0F500832781010C
:102E70006352F00EB3079603130D1000331D0D01BE
:102E800023280100975B1000938B4B1F975A10006B
:102E9000938ACA1D232EF100B3076501232AF1008E
:102EA00083250101175510001305851B130A000027
:102EB000EF70D5030324410163588007635C60050C
:102EC00013050D00EFC00F198327C100130905007A
:102ED000938905006392070EB3046441838D040057
:102EE0009384140013850D00EFC0CF16130609005C
:102EF00093860900EF70D64EEFD05F3D930500003A
:102F0000EFC0DF7993850D0013850A00EF70057E11
:102F1000E39684FC1305A000130A1A00EF90CE5923
:102F200033049401E31C4CF9832701011305A0002D
:102F30001384170023288100EF900E588327410146
:102F40000327C101B387E700232AF100832781010A
:102F5000E39887F48320C105032481058324410578
:102F6000032901058329C104032A8104832A41041A
:102F7000032B0104832BC103032C8103832C410306
:102F8000032D0103832DC102130101066780000098
:102F90009726100083A6066383A60600938646FF45
:102FA000E3F4F6EA9727100083A787511307100070
:102FB00023A0E7006FF09FEBB30D64416F00400268
:102FC00013850400EFD09F201306050093860500AB
:102FD00013850B00EF708571938D1D00E38C8DF2CE
:102FE00003850D00EFC00F07130609009386090043
:102FF000EF70163FEFD09F2D93050000930405005E
:10300000EFC0DF69E35E05FA13850400EFD01F1CF3
:103010001306050093860500175510001305850556
:10302000EF70C56C6FF05FFB9727100083A7C75642
:1030300083A7070083A707006FF05FE3172E100038
:10304000032E0E5A03230E00630A0324832E0E0060
:10305000172F1000032F4F5403230F0063820E1A03
:10306000972E100083AE0E5683AE0E00938E4EFF49
:1030700063F86E181723100003238344130E100007
:103080002320C3016352B01A130101FA232C8103D8
:10309000139C1600232A9103938C0700B307860321
:1030A000232E7103930B0700130710002328A1039D
:1030B00033170701330D9041232251052320610569
:1030C000232E1104232CF10093971C00B307F50065
:1030D000232C8104232A910423282105232631054A
:1030E000232441052326B10323261101232EB100F9
:1030F0002324E100232AF100131D1D0023280100D1
:10310000175B1000130B0BF9975A1000938A8AF77C
:103110008325010117551000130585F4130A0000DB
:10312000EF70C55C0324410163587007635C900530
:1031300003258100EFB01F728327C100130905002A
:10314000938905006394070EB304A401839D0400D2
:103150009384240013850D00EFB0DF6F1306090080
:1031600093860900EF70D627EFD05F169305000015
:10317000EFC0DF5293850D0013850A00EF700557ED
:10318000E39684FC1305A000130A1A00EF90CE32D8
:1031900033048401E39C4BF9832701011305A0004C
:1031A0001384170023288100EF900E3183274101FB
:1031B00003278101B387E700232AF1008327C10198
:1031C000E39887F48320C105032481058324410506
:1031D000032901058329C104032A8104832A4104A8
:1031E000032B0104832BC103032C8103832C410394
:1031F000032D0103832DC102130101066780000026
:10320000930E30002320D301232203002324030044
:1032100023260300032E0E00131E2E003303C301CA
:1032200023206F00E342B0E667800000B30DA401E5
:103230006F00400213850400EFD04F79130605009C
:103240009386050013050B00EF70454A938D2D0002
:10325000E38A8DF203950D00EFB0DF5F13060900DE
:1032600093860900EF70D617EFD05F069305000034
:1032700093040500EFC09F42E35E05FA1385040046
:10328000EFD0CF7413060500938605001755100084
:103290001305C5DFEF7085456FF05FFB1723100046
:1032A0000323832F03230300032303006FF09FDD19
:1032B000172E1000032ECE3203230E00130101F946
:1032C0002326710523261106232481062322910635
:1032D00023202107232E3105232C4105232A5105C4
:1032E0002328610523248105232291052320A1059C
:1032F000232EB103832B410763080320832E0E0086
:10330000172F1000032F4F2903230F00638E0E2E5B
:10331000972E100083AE0E2B83AE0E00938E4EFFC1
:1033200063F46E2E1723100003238319130E10006D
:103330002320C301635CC018232AE1003387E6021F
:103340002328F100B385A540B30705012322F1022C
:10335000B3870541232CF100B70700802326010124
:103360002326C1022324E10213071000331717019B
:10337000232EE10023200102B3CD77018325010232
:10338000175510001305C5CD130C0000EF7005365E
:1033900083270101032A4102975C1000938C8CD093
:1033A0006350F0108327C100635EF00C0325C10158
:1033B000EFB05F4A832701071304050093840500DB
:1033C000639807168327C1003309FA4083278101D8
:1033D000B38947016F00400213850D00EFC0DF1F66
:1033E000634CA00613850C00EF70453013091900DB
:1033F0009389190063084909030D0900038B09002B
:1034000013050D00EFB01F4513060400938604005A
:10341000EF70067DEFD08F6B930A050013050B004C
:10342000EFB05F431306040093860400EF70467B01
:10343000EFD0CF699305050013850A00EFC05F6DDB
:1034400093050500930A050013850B00EFC01F25A7
:1034500093850A00E35205F89305000013850A00DE
:10346000EFC0DF23B3056D41634A050A175510000D
:103470001305C5C213091900EF7045279389190078
:10348000E31C49F71305A000EF900E0383274101C9
:10349000130C1C00330AFA0083270101E39487F11F
:1034A000832701021305A000138417002320810243
:1034B000EF908E008327410203278102B387E70044
:1034C0002322F1028327C102E39A87EA8320C106FF
:1034D0000324810683244106032901068329C105AB
:1034E000032A8105832A4105032B0105832BC1048F
:1034F000032C8104832C4104032D0104832DC1037B
:103500001301010767800000172310000323C3087D
:1035100003230300032303006FF0DFE1B3056D41D4
:1035200017551000130585B4EF70451C6FF01FECA4
:103530008327C1003309FA4083278101B3894701FA
:103540006F00400213850A00EFC05F156346050651
:1035500013850C00EF708519130919009389190060
:10356000E30249F303050900EFB0DF2E1306040060
:1035700093860400EF70C666EFD04F55930A05009E
:1035800003850900EFB01F2D130604009386040085
:10359000EF700665EFD08F539305050013850A0081
:1035A000EFC01F5793850B00930A0500EFC0DF02A1
:1035B00093850D00E358A0F89305000013850A00D9
:1035C000EFC0DF0D6342050213850A00EFD00F4004
:1035D000130605009386050017551000130505AA6C
:1035E000EF70C5106FF05FF713850A00EFD00F3E44
:1035F000130605009386050017551000130585A7CF
:10360000EF70C50E6FF05FF5930E30002320D301ED
:10361000232203002324030023260300032E0E008D
:10362000131E2E003303C30123206F006FF09FD0C1
:10363000172E1000032ECEFA03230E00130101F9FA
:1036400023267105232611062324810623229106B1
:1036500023202107232E3105232C4105232A510540
:103660002328610523248105232291052320A10518
:10367000232EB103832B4107630C0320832E0E00FE
:10368000172F1000032F4FF103230F0063840E3018
:10369000972E100083AE0EF383AE0E00938E4EFF76
:1036A00063FA6E2E17231000032383E1130E10001C
:1036B0002320C3016350C01A131717002326E1000B
:1036C0003387E602938C0700B3060041B385A5401B
:1036D0002326C10213061000331616012328010108
:1036E000232EC100232001022324E1021317180016
:1036F000B307A7002322F10293971600232CF100B1
:10370000B387E540232AF100B7070080B3CD7701E6
:10371000832501021755100013058594130C000032
:10372000EF60D57C032A4102635090118327010189
:103730006350F00E0325C101EFB0DF1183270107AD
:1037400013040500938405006398071683278101FD
:103750003309FA0083274101B309FA006F008002A0
:1037600013850D00EFC04F67634EA006175510007C
:1037700013054594EF609577130929009389290073
:1037800063084909031D0900039B090013050D0087
:10379000EFB05F0C1306040093860400EF704644FC
:1037A000EFD0CF32930A050013050B00EFB09F0A4C
:1037B0001306040093860400EF708642EFD00F31A9
:1037C0009305050013850A00EFC09F34930505009B
:1037D000930A050013850B00EFC04F6C93850A0018
:1037E000E35005F89305000013850A00EFC00F6B46
:1037F000B3056D416348050A175510001305058B85
:1038000013092900EF60956E93892900E31C49F79D
:103810001305A000EF805E4A8327C100130C1C0033
:10382000330AFA00E3948CF1832701021305A00008
:103830001384170023208102EF801E488327410252
:1038400003278102B387E7002322F1028327C10205
:10385000E39087EC8320C10603248106832441067C
:10386000032901068329C105032A8105832A41050D
:10387000032B0105832BC104032C8104832C4104F9
:10388000032D0104832DC10313010107678000008C
:1038900017231000032343D0032303000323030053
:1038A0006FF05FE1B3056D41174510001305857D8D
:1038B000EF60D5636FF05FEC832781013309FA0075
:1038C00083274101B309FA006F00800213850A00C3
:1038D000EFC0CF5C63480506174510001305857CD3
:1038E000EF60D5601309290093892900E3022AF3C8
:1038F00003150900EFB00F76130604009386040049
:10390000EF70062EEFD08F1C930A05000395090077
:10391000EFB04F741306040093860400EF70462C3A
:10392000EFD0CF1A9305050013850A00EFC05F1E84
:1039300093850B00930A0500EFC00F4A93850D0095
:10394000E356A0F89305000013850A00EFC00F5559
:103950006342050213850A00EFD04F0713060500E6
:1039600093860500174510001305C572EF601558C2
:103970006FF05FF713850A00EFD04F0513060500BF
:10398000938605001745100013054570EF60155626
:103990006FF05FF5930E30002320D3012322030044
:1039A0002324030023260300032E0E00131E2E00E3
:1039B0003303C30123206F006FF0DFCF172E1000F9
:1039C000032E0EC203230E006302031A832E0E0081
:1039D000172F1000032F4FBC03230F00638E0E34EC
:1039E000972E100083AE0EBE83AE0E00938E4EFF58
:1039F00063F46E3417231000032383AC130E1000FE
:103A00002320C301635EC016130101FA2320610560
:103A1000130B0700B38666032328A103232EC100DE
:103A2000138D070013061000B38705013316160126
:103A3000330705012328F100232E7103232CD10025
:103A4000B386A540B3870641232A9103232E110490
:103A5000232C8104232A91042328210523263105C0
:103A60002324410523225105232C81032326B1035E
:103A7000930B08002322C1002326E100232A010022
:103A8000974C1000938C8C5F2324F1008325410117
:103A9000174510001305C55CEF6055452320010054
:103AA000032901018329C100930A0000174C10006B
:103AB000130CCC5E635EA0096350700903254100BE
:103AC000EFB04F59832701001304050093840500CC
:103AD000638A070A832701066394071083278100FE
:103AE000338A37016F00400113050C00130A1A00D6
:103AF000EF60D53F63022A05830D0A0013850D0090
:103B0000EFB04F551306040093860400EF70460D86
:103B1000EFC0DF7B93050000EFC04F3893850D00A9
:103B2000E35405FC1745100013054554130A1A0009
:103B3000EF60D53BE3122AFD1305A000938A1A001B
:103B4000EF809E17B389690133096901E3165DF7B8
:103B50001305A000EF805E1683270100639407160B
:103B6000930710002320F1006FF09FF3172310003C
:103B7000032383A20323030003230300E346C0E8D7
:103B800067800000832701066396070C338A79411A
:103B90006F00400113050C00EF605535130A1A0041
:103BA000E38C49F9830D0A0013850D00EFB08F4AAD
:103BB0001306040093860400EF708602EFC01F71A5
:103BC00093050000EFC08F2D93850D00E35405FC95
:103BD0001745100013058549EF6055316FF01FFC44
:103BE00083278100B38D37016F00400213050A005F
:103BF000EFC0DF5D130605009386050013850C00FA
:103C0000EF60D52E938D1D00E3882DF303850D0005
:103C1000EFB04F441306040093860400EF60567C17
:103C2000EFC0DF6A93050000130A0500EFC00F27FD
:103C3000E35E05FA13050A00EFC05F59130605009D
:103C400093860500174510001305C542EF60152A3D
:103C50006FF05FFBB38D79416F00400213050A00DE
:103C6000EFC0DF56130605009386050013850C0090
:103C7000EF60D527938D1D00E380B9ED03850D001E
:103C8000EFB04F3D1306040093860400EF605675B5
:103C9000EFC0DF6393050000130A0500EFC00F209B
:103CA000E35E05FA13050A00EFC05F521306050034
:103CB00093860500174510001305C53BEF601523DB
:103CC0006FF05FFB832741011305A00013841700E9
:103CD000232A8100EF804E7E0327C10083278101C4
:103CE0003307F7002326E10003270101B307F7009C
:103CF0002328F1008327C101E39A87D88320C105D7
:103D00000324810583244105032901058329C10476
:103D1000032A8104832A4104032B0104832BC1035A
:103D2000032C8103832C4103032D0103832DC10246
:103D30001301010667800000930E30002320D30199
:103D4000232203002324030023260300032E0E0056
:103D5000131E2E003303C30123206F006FF09FCA90
:103D6000172E1000032ECE8703230E006300031AC4
:103D7000832E0E00172F1000032F0F8203230F0036
:103D8000638E0E34972E100083AECE8383AE0E006A
:103D9000938E4EFF63F46E341713100003234372A7
:103DA000130E10002320C301635CC016130101FA37
:103DB00023206105131B1700232A9103938C07000E
:103DC000B387660393061000B396160133070041CC
:103DD0002322D100232C8103232E1104232C8104C0
:103DE000232A910423282105232CF100931718007E
:103DF000B306F500B387F5002328F10093171700E9
:103E0000232631052324410523225105232E710346
:103E10002328A1032326B10323200101232EC1005F
:103E20002326D1002324F100232A0100174C10007F
:103E3000130C4C268325410117451000130545221C
:103E4000130D0000EF60950A974B1000938B0B2623
:103E5000032901018329C100930A0000635E9009D0
:103E600083270100635EF00603254100EFB08F1E3B
:103E700013040500938405008327010663040D0ADB
:103E80006390071083278100330AF9006F00400117
:103E900013850B00130A2A00EF60550563022A05FB
:103EA000831D0A0013850D00EFB0CF1A130604001E
:103EB00093860400EF60D652EFC05F419305000087
:103EC000EFB0DF7D93850D00E35405FC174510002E
:103ED0001305451B130A2A00EF605501E3122AFD62
:103EE0001305A000938A1A00EF800E5DB389690163
:103EF00033096901E3965CF71305A000EF80CE5B00
:103F000063140D16130D10006FF09FF417131000BB
:103F1000032383680323030003230300E348C0E86B
:103F2000678000006398070C83278100338AF900BB
:103F30006F00400113850B00EF60457B130A2A00D8
:103F4000E3003AFB831D0A0013850D00EFB08F10CC
:103F50001306040093860400EF609648EFC01F37F5
:103F600093050000EFB09F7393850D00E35405FCAB
:103F70001745100013050511EF6045776FF01FFC22
:103F800083278100B30DF9006F00400213050A007A
:103F9000EFC0DF23130605009386050013050C0010
:103FA000EF60C574938D2D00E38C2DF303950D0008
:103FB000EFB04F0A1306040093860400EF605642E8
:103FC000EFC0DF3093050000130A0500EFB01F6D4E
:103FD000E35E05FA13050A00EFC05F1F1306050034
:103FE00093860500174510001305450AEF6005701C
:103FF0006FF05FFB83278100B38DF9006F004002F3
:1040000013050A00EFC09F1C1306050093860500E8
:1040100013050C00EF60856D938D2D00E3823DED5F
:1040200003950D00EFB00F03130604009386040000
:10403000EF60163BEFC09F2993050000130A0500AF
:10404000EFB0DF65E35E05FA13050A00EFC01F1845
:104050001306050093860500174510001305050398
:10406000EF60C5686FF05FFB832741011305A00077
:1040700013841700232A8100EF800E440327C10018
:10408000832781013307F7002326E100032701017D
:10409000B307F7002328F1008327C101E39C87D8E9
:1040A0008320C105032481058324410503290105DB
:1040B0008329C104032A8104832A4104032B0104B8
:1040C000832BC103032C8103832C4103032D0103A4
:1040D000832DC1021301010667800000930E30009A
:1040E0002320D301232203002324030023260300DB
:1040F000032E0E00131E2E003303C30123206F0076
:104100006FF09FCA032E010003D30800B336D0001E
:1041100083D82800031F0E00831E2E009396F600FE
:10412000370E0F009395050113178701B3F5C501ED
:104130003336C0003367D700370E0100130EFEFF81
:104140001316E600B3E5E5001303F3FF9388F8FFC9
:1041500033E6C5003373C301131F0F01B3F8C80161
:10416000939E0E01136626341308F8FF3363E301B0
:10417000B3E8D8012320C5002322F500232405013C
:1041800023266500232815016780000017131000FF
:104190000323033A03230300130101FF832F0101CB
:1041A000032E0301B336D00037030F0093950501AA
:1041B000032F81019396F600B3F565003336C000F6
:1041C000B3E5D5001316E60003D30F00832E41019B
:1041D00033E6C500130EFEFF83160F001366262874
:1041E000337EC7019388F8FF2320C5002326F500FE
:1041F000232205012324C50123281501B707010047
:1042000083A50E001387F7FF1303F3FF83D72F0057
:10421000139606013373E30083162F003363C30044
:10422000232AB500232C650003A64E009387F7FFD1
:10423000B3F7E70013970601B3E7E700232EC500A5
:104240002320F502130101016780000037030F00EE
:10425000B336D00093950501832E41009396F60066
:10426000B3F565003336C0001316E600B3E5D5009C
:1042700003D30800032E0100B3E5C50083960E00AA
:1042800093E525471308F8FF2322F5002324E500D2
:104290002320B50023260501B707010083250E0062
:1042A0001387F7FF1303F3FF83D728001396060144
:1042B0003373E30083962E003363C3002328B500D5
:1042C000232A650003264E009387F7FFB3F7E70024
:1042D00013970601B3E7E700232CC500232EF50052
:1042E000678000009395050193E525002320B50024
:1042F000678000009395050193E525102320B50004
:10430000678000003336C00093F5F5001316E60011
:1043100063860600B7860000B3E5D500835E08001B
:10432000035E280003534800835668008392080008
:10433000839F2800039F4800839868003708010086
:104340001308F8FF938EFEFF130EFEFF1303F3FF17
:104350009386F6FF3366B600B3FE0E019392020118
:10436000337E0E01939F0F0133730301131F0F015F
:10437000B3F6060193980801136606269387F7FFA4
:10438000B3EE5E00336EFE013363E301B3E6160164
:104390002320C5002322E5002324F5002326D50190
:1043A0002328C501232A6500232CD500678000003F
:1043B000032301003336C00083C30800835E03007B
:1043C000035E2300835F43000353630083C228001E
:1043D00003CF48001316F60083C8680093960601C1
:1043E0001307F7FFB3E6C600B335B0001317870114
:1043F000370601001306F6FF9395E500B3E6E600E5
:104400001308F8FF938EFEFF130EFEFF938FFFFF3E
:104410001303F3FFB3E6B600939787013378C80020
:10442000B3FECE0093930301337ECE00939202013C
:10443000131F0F01B3FFCF003373C300939808011C
:1044400093E66625B3E70701B3EE7E00336E5E00A8
:10445000336FFF01336313012320D5002322F500BE
:104460002324D5012326C5012328E501232A65003D
:1044700067800000130101FF03230101832F410125
:1044800023268100835E2300035F0300035E430055
:1044900003942F0083934F0083926F0003536300B4
:1044A000232491003336C00083940F0013170701B3
:1044B000B70FFF003377F7011316F60093978701C4
:1044C000B70F0100938FFFFFB335B000B3E7C7000C
:1044D000938EFEFF131404019395E5003367F700F4
:1044E000130FFFFF130EFEFF1303F3FFB3FEFE01D6
:1044F00093940401B3EE8E00B365B7000324C100AA
:10450000337FFF01337EFE01939303013373F30185
:1045100093920201336F9F0093E575279388F8FF0C
:10452000336E7E00336353002320B5002322D50071
:1045300023240501232615012328E501232AD5017B
:10454000232CC501232E6500832481001301010162
:104550006780000017131000032383FD032303006B
:10456000130101FF2324E1002326F100832E010122
:10457000032E410103230301639C0508B787000054
:104580001307802893878728631406009307070082
:104590008325810003960E0003D708002320F50031
:1045A0008327C1001303F3FFB3F565001308F8FF79
:1045B0002322D5002324B5002326F5002328050156
:1045C000B707010003280E009386F7FF1307F7FFD4
:1045D00083D72800931506013377D70003962E0062
:1045E0003367B700232CE500232A050183254E00FD
:1045F0009387F7FFB3F7D70013170601B3E7E70078
:10460000232EB5002320F50213010101678000006D
:1046100037470000B7C7000013078728938787280C
:104620006FF09FF6032E010063900508B785000028
:1046300013038037938585376314060093050300C1
:1046400003560800039308009387F7FF2322D50041
:104650002324E5002326F5002320B500B707010039
:1046600083250E001387F7FF1306F6FF83572800F4
:104670003376E60013130301839628003366660041
:104680002328B500232AC50003264E009387F7FF91
:10469000B3F7E70013970601B3E7E700232CC50043
:1046A000232EF5006780000037430000B7C50000E7
:1046B00013038337938585376FF01FF893950501B2
:1046C00093E585002320B5006780000093950501E0
:1046D00093E585102320B50067800000130101FCDD
:1046E000232011019308080013880700930707008F
:1046F0001387060093060600138605009305050040
:104700001305C101232E1102EFF0DF9F17161000D1
:10471000032646EB17171000032707E88327060038
:104720008326070063E0D7068325C1011387C7FFEF
:1047300023A0B7006362D70C83250102138787FF8C
:1047400023AEB7FE6366D70683254102138747FF72
:1047500023ACB7FE636CD70683258102138707FF5E
:1047600023AAB7FE6360D7088326C1021387C7FE5A
:1047700023A8D7FE8320C1032320E60013010104F0
:10478000678000009717100083A787D313071000D6
:1047900023A0E70023A0E70023A0E7008320C103B4
:1047A00023A0E70023A0E7001301010467800000B5
:1047B0009717100083A7C7D09306100023A0D70037
:1047C00023A0D70023A0D7006FF0DFFA97171000BF
:1047D00083A707CF9306100023A0D70023A0D700FC
:1047E0006FF05FF99717100083A787CD930610002D
:1047F00023A0D7006FF01FF89717100083A747CCAE
:104800009306100023A0D70023A0D70023A0D70031
:1048100023A0D7006FF01FF6130101FA2320110126
:104820009308080013880700832741061303070035
:10483000138706002324F100832701069306060050
:10484000138605002322F10093050500930703005A
:104850001305C102232E1104EFF05F931716100009
:10486000032646D617171000032707D38327060011
:104870000327070063E0E70A8325C1029386C7FF89
:1048800023A0B70063E2E60E83250103938687FF2A
:1048900023AEB7FE63E4E61883254103938647FF02
:1048A00023ACB7FE63E2E61683258103938607FFF8
:1048B00023AAB7FE63E0E6148325C1039386C7FEEF
:1048C00023A8B7FE63E6E61083250104938687FEDE
:1048D00023A6B7FE63EEE60C83254104938647FECC
:1048E00023A4B7FE63E8E60A83258104938607FEC6
:1048F00023A2B7FE63E4E6080327C1049387C7FD3C
:1049000023A2E7008320C1052320F600130101063E
:104910006780000017171000032787BA930610005E
:104920002320D70093050000930610002320D70012
:10493000930610002320D700930610002320D700F1
:10494000930610002320D7002320D7002320D70070
:104950002320D7002320D700E39605FA8320C10542
:10496000130101066780000093870600930510007D
:10497000171710000327C7B46FF01FFB971710001D
:1049800083A707B41307100023A0E700938706004E
:104990006FF05FF79717100083A787B21307100017
:1049A00023A0E70023A0E700938706006FF09FF5A0
:1049B0009717100083A7C7B01307100023A0E700C4
:1049C00023A0E70023A0E700938706006FF09FF382
:1049D0009717100083A7C7AE1307100023A0E700A6
:1049E00023A0E70023A0E70023A0E70093870600A9
:1049F0006FF05FF193870600930510001717100002
:104A0000032707AC6FF0DFF39387060093051000D0
:104A1000171710000327C7AA6FF01FF2938706002D
:104A20009305100017171000032787A96FF05FF098
:104A3000130101FC2320110193080800032801043D
:104A4000232E110223220101138807009307070078
:104A500013870600930606001386050093050500DC
:104A600013050101EFF08FFE17161000032686B51F
:104A700017171000032747B28327060003270700F4
:104A800063E8E708832501019386C7FF23A0B700E9
:104A900063E6E60C83254101938687FF23AEB7FECC
:104AA00063EEE61483258101938647FF23ACB7FEAE
:104AB00063ECE6128325C101938607FF23AAB7FEA4
:104AC00063E2E610832501029386C7FE23A8B7FEA2
:104AD00063EAE60C83254102938687FE23A6B7FE90
:104AE00063E4E60A83258102938647FE23A4B7FE8A
:104AF00063E0E6080327C102938707FE23A2E700CD
:104B00008320C1032320F600130101046780000005
:104B1000171710000327C79A930610002320D70009
:104B200093050000930610002320D7009306100081
:104B30002320D700930610002320D7002320D7007E
:104B40002320D7002320D7002320D700E39A05FA9B
:104B50008320C103130101046780000093870600CE
:104B60009305100017171000032787956FF09FFB20
:104B70009717100083A7C7941307100023A0E7001E
:104B8000938706006FF0DFF79717100083A747930E
:104B90001307100023A0E70023A0E7009387060077
:104BA0006FF01FF69717100083A787911307100067
:104BB00023A0E70023A0E70023A0E70093870600D7
:104BC0006FF01FF49717100083A7878F130710004B
:104BD00023A0E70023A0E70023A0E70023A0E7002D
:104BE000938706006FF0DFF19387060093051000AE
:104BF000171710000327C78C6FF0DFF393870600A9
:104C000093051000171710000327878B6FF01FF212
:104C1000130101FE930505001305C100232E1100A9
:104C2000EFF04FEC171710000327C79997161000E5
:104C300083A686968327070083A6060063F0D70223
:104C40008320C1019717100083A7878713071000DF
:104C500023A0E70013010102678000000326C100C2
:104C60008320C1019386C7FF23A0C7002320D7005C
:104C70001301010267800000130101FE9305050086
:104C80001305C100232E1100EFF0CFE61717100017
:104C9000032747939716100083A6069083270700E3
:104CA00083A6060063F0D7028320C1019717100086
:104CB00083A707811307100023A0E7001301010257
:104CC000678000000326C1008320C1019386C7FFCF
:104CD00023A0C7002320D700130101026780000032
:104CE000130101FD930808001388070093070700CC
:104CF000138706009306060013860500930505003A
:104D00001305410023261102EFF0CFDF1716100024
:104D10000326468B171710000327078883270600F2
:104D20000327070063E0E708832541009386C7FF58
:104D300023A0B70063EAE60A83258100938687FFF4
:104D400023AEB7FE63E8E6128325C100938647FFD2
:104D500023ACB7FE63EEE60E83250101938607FFC1
:104D600023AAB7FE63E6E60C832541019386C7FEBE
:104D700023A8B7FE63E0E60A83258101938687FEB8
:104D800023A6B7FE63ECE6060327C101938747FE1F
:104D900023A2E7008320C1022320F60013010103B0
:104DA0006780000017071000032787719306100023
:104DB0002320D70093050000930610002320D7007E
:104DC000930610002320D7002320D7002320D700EC
:104DD0002320D7002320D700E39E05FA8320C102B9
:104DE00013010103678000009387060093051000FC
:104DF000170710000327C76C6FF01FFC9707100000
:104E000083A7076C1307100023A0E7009387060011
:104E10006FF05FF89707100083A7876A13071000E9
:104E200023A0E70023A0E700938706006FF09FF61A
:104E30009707100083A7C7681307100023A0E70097
:104E400023A0E70023A0E700938706006FF09FF4FC
:104E50009707100083A7C7661307100023A0E70079
:104E600023A0E70023A0E70023A0E7009387060024
:104E70006FF05FF29387060093051000170710008C
:104E8000032707646FF0DFF3130101FC23201101F6
:104E9000930808001388070093070700138706008C
:104EA000930606001386050093050500130581018E
:104EB000232E1102EFF0CFCF1706100003268670C5
:104EC000170710000327476D8327060003270700F5
:104ED00063E8E706832581019386C7FF23A0B70017
:104EE00063EAE6108325C101938687FF23AEB7FEF0
:104EF00063E6E60883250102938647FF23ACB7FEED
:104F000063E0E60A83254102938607FF23AAB7FEE2
:104F100063E8E60A832581029386C7FE23A8B7FECD
:104F200063EEE60A0327C102938787FE23A2E70008
:104F30008320C1032320F6001301010467800000D1
:104F4000170710000327C757930610002320D70028
:104F500093050000930610002320D7002320D700DC
:104F60002320D7002320D7002320D700E39205FC7D
:104F70008320C1031301010467800000970710001C
:104F800083A707541307100023A0E70023A0E7001E
:104F900023A0E70023A0E700938706006FF05FF9E6
:104FA0009707100083A7C7511307100023A0E7003D
:104FB00023A0E70023A0E700938706006FF05FF7C8
:104FC0009707100083A7C74F1307100023A0E7001F
:104FD00023A0E700938706006FF09FF59707100066
:104FE00083A7074E1307100023A0E700938706004E
:104FF0006FF01FF493870600930510001707100049
:105000000327074C6FF01FF5130101FC232011014A
:105010009308080003280104232E11022322010112
:1050200013880700930707001387060093060600FE
:10503000138605009305050013050101EFF08FC3EA
:105040001706100003260658170710000327C75439
:10505000832706000327070063E8E708832501018B
:105060009386C7FF23A0B70063E6E60C83254101C2
:10507000938687FF23AEB7FE63EEE6148325810196
:10508000938647FF23ACB7FE63ECE6128325C1018C
:10509000938607FF23AAB7FE63E2E6108325010289
:1050A0009386C7FE23A8B7FE63EAE60C8325410278
:1050B000938687FE23A6B7FE63E4E60A8325810272
:1050C000938647FE23A4B7FE63E0E6080327C102E8
:1050D000938707FE23A2E7008320C1032320F60065
:1050E0001301010467800000170710000327473DE4
:1050F000930610002320D7009305000093061000AC
:105100002320D700930610002320D7009306100019
:105110002320D7002320D7002320D7002320D70027
:105120002320D700E39A05FA8320C1031301010469
:105130006780000093870600930510001707100092
:10514000032707386FF09FFB9707100083A74737A7
:105150001307100023A0E700938706006FF0DFF726
:105160009707100083A7C7351307100023A0E70097
:1051700023A0E700938706006FF01FF69707100043
:1051800083A707341307100023A0E70023A0E7003C
:1051900023A0E700938706006FF01FF49707100025
:1051A00083A707321307100023A0E70023A0E7001E
:1051B00023A0E70023A0E700938706006FF0DFF14C
:1051C0009387060093051000170710000327472F49
:1051D0006FF0DFF3938706009305100017071000A8
:1051E0000327072E6FF01FF2130101FA232011018C
:1051F000930808001388070083270106130307009C
:10520000138706002322F10093060600930703008C
:1052100013860500930505001305C102232E110412
:10522000EFF04FB3170610000326C639170710001A
:1052300003278736832706000327070063E0E70A72
:105240008325C1029386C7FF23A0B70063E2E60E61
:1052500083250103938687FF23AEB7FE63E4E61838
:1052600083254103938647FF23ACB7FE63E2E6162E
:1052700083258103938607FF23AAB7FE63E0E61424
:105280008325C1039386C7FE23A8B7FE63E6E61015
:1052900083250104938687FE23A6B7FE63EEE60C02
:1052A00083254104938647FE23A4B7FE63E8E60AFC
:1052B00083258104938607FE23A2B7FE63E4E608F4
:1052C0000327C1049387C7FD23A2E7008320C105FC
:1052D0002320F60013010106678000001707100065
:1052E0000327071E930610002320D7009305000014
:1052F000930610002320D700930610002320D70028
:10530000930610002320D700930610002320D70017
:105310002320D7002320D7002320D7002320D70025
:10532000E39605FA8320C10513010106678000009A
:1053300093870600930510001707100003274718EE
:105340006FF01FFB9707100083A787171307100044
:1053500023A0E700938706006FF05FF79707100020
:1053600083A707161307100023A0E70023A0E70078
:10537000938706006FF09FF59707100083A74714E7
:105380001307100023A0E70023A0E70023A0E700F5
:10539000938706006FF09FF39707100083A74712CB
:1053A0001307100023A0E70023A0E70023A0E700D5
:1053B00023A0E700938706006FF05FF19387060054
:1053C00093051000170710000327870F6FF0DFF316
:1053D0009387060093051000170710000327470E58
:1053E0006FF01FF293870600930510001707100057
:1053F0000327070D6FF05FF0130101FC232011015B
:105400009308080013880700930707001387060016
:105410009306060013860500930505001305010198
:10542000232E1102EFF00FA0170610000326861995
:1054300017071000032747168327060003270700D6
:1054400063E8E708832501019386C7FF23A0B7001F
:1054500063E6E60C83254101938687FF23AEB7FE02
:1054600063EEE61483258101938647FF23ACB7FEE4
:1054700063ECE6128325C101938607FF23AAB7FEDA
:1054800063E2E610832501029386C7FE23A8B7FED8
:1054900063EAE60C83254102938687FE23A6B7FEC6
:1054A00063E4E60A83258102938647FE23A4B7FEC0
:1054B00063E0E6080327C102938707FE23A2E70003
:1054C0008320C1032320F60013010104678000003C
:1054D000170710000327C7FE930610002320D700EC
:1054E00093050000930610002320D70093061000B8
:1054F0002320D700930610002320D7002320D700B5
:105500002320D7002320D7002320D700E39A05FAD1
:105510008320C10313010104678000009387060004
:105520009305100017071000032787F96FF09FFB02
:105530009707100083A7C7F81307100023A0E70000
:10554000938706006FF0DFF79707100083A747F7F0
:105550001307100023A0E70023A0E70093870600AD
:105560006FF01FF69707100083A787F51307100049
:1055700023A0E70023A0E70023A0E700938706000D
:105580006FF01FF49707100083A787F3130710002D
:1055900023A0E70023A0E70023A0E70023A0E70063
:1055A000938706006FF0DFF19387060093051000E4
:1055B000170710000327C7F06FF0DFF3938706008B
:1055C0009305100017071000032787EF6FF01FF2F5
:1055D000130101FE930505001305C100232E1100E0
:1055E000EFF0CF8D170710000327C7FD97061000B7
:1055F00083A686FA8327070083A6060063F0D702F6
:105600008320C1019707100083A787EB13071000C1
:1056100023A0E70013010102678000000326C100F8
:105620008320C1019386C7FF23A0C7002320D70092
:105630001301010267800000130101FE93050500BC
:105640001305C100232E1100EFF04F88170710003B
:10565000032747F79706100083A606F48327070061
:1056600083A6060063F0D7028320C10197071000CC
:1056700083A707E51307100023A0E7001301010229
:10568000678000000326C1008320C1019386C7FF05
:1056900023A0C7002320D700130101026780000068
:1056A0009707100083A7C7E883A70700130101FF2E
:1056B0002326110003A7C71503A68705232481000D
:1056C00093064701939626001307170023AEE714AD
:1056D000B387D70023A6C7001305C000EF60DE180C
:1056E0009707100083A7C7E823A0A700630205025D
:1056F0008320C10003248100B70701002320F500A7
:105700002322050023240500130101016780000006
:10571000173510001305859AEF50851617271000CE
:105720001307C7899306E030173610001306469D0D
:1057300093051000173510001305C59DEF40157B2C
:10574000170410000324C4D98327040003A587008D
:10575000EF8045588327040003A58700EF80855715
:105760001305F0FFEF4095679707100083A747DC0C
:1057700003A707008326C715938736019397270051
:10578000B307F70083A7C7009386F6FF232ED7142D
:10579000232CF7046780000067800000678000000A
:1057A00067800000130500006780000013050000FB
:1057B00067800000130101F92324810623261106C6
:1057C0002322910623202107232E3105232C410576
:1057D000232A5105232861052326710523248105E9
:1057E000232291052320A105232EB10313040107D1
:1057F00017031000032303D003230300631C033E9D
:10580000170910000329C9D2138C07008327090048
:10581000930B0700930A060003A7C71503A6870585
:10582000138B060093064701939626001307170073
:1058300023AEE714B387D70023A6C700930905005A
:1058400013054001138A0500930C0800138D08000E
:10585000EF30857393880C0013080C0093870B00BE
:1058600013070B0093860A0013060A0093850900AC
:10587000930D05002320A1011305C4FAEFE09F88D2
:10588000170710000327C7D58327070093051000CB
:1058900017081000032848D19708100083A808D2E1
:1058A00017051000032505CE832E080003AF08005E
:1058B000832F0500170E1000032ECED02320B80032
:1058C00023A0B8002320B5009304010083260E0016
:1058D00017061000032646CC6396071A8327060096
:1058E000938646FF9305200023A0B7009305100080
:1058F00023A2B70023A4B70023A6B700832507007F
:105900000323070093952500B387B7002320F600F3
:105910006304030063E4F6300323C4FAB7550100BF
:105920009385454023A0B70023A2670023A4070066
:1059300023A6B701832507000323070093824D00A8
:1059400093952500B387B700630A03009305100001
:10595000170310000323C3B663E2F616032304FB08
:10596000B75501009385454023A0B70023A26700E7
:1059700023A4070023A6570083250700032307005D
:1059800093828D0093952500B387B70063040300CD
:1059900063EEF626032344FBB7550100938545408B
:1059A00023A0B70023A2670023A4070023A6570063
:1059B00083250700032307009382CD0093952500DC
:1059C000B387B7006304030063EAF622032384FB72
:1059D000B75501009385454023A0B70023A2670077
:1059E00023A4070023A657008325070003230700ED
:1059F00093820D0193952500B387B70063040300DC
:105A000063E4F6228325C4FBB75601009386464023
:105A100023A0D70023A2B70023A4070023A6570082
:105A20008326070093962600B387D70097061000B9
:105A300083A606B483A50600832607002320F6006C
:105A40002320D80123A0E8012320F50183A5050028
:105A5000638C060C83260E00938646FF63F6F60CD5
:105A60009306100017031000032383A52320D300FF
:105A700083260700638A060E930710002320F30095
:105A80006F00001183270600938646FFE3FCF6E4CF
:105A9000170310000323C3A22320B30083250700AC
:105AA000E38C05E6930510002320B300832507004F
:105AB00093824D00E38405EA9305000093021000F1
:105AC000232053008323070093828D00E38403EC9B
:105AD0009302100023205300832307009382CD00FC
