:1000000017C11F001301C1FFB7423000938202A045
:1000100083A2020063880200B70200809382A200DC
:10002000232250009302100037433000130303A033
:100030002320530097611000938141F2172511008E
:100040001305458517361100130636493306A640B9
:1000500093050000EF00400917C505001305C50C06
:100060006308050017D5050013058584EFC0850BCF
:10007000EF8055540325010093054100130600004D
:10008000EF80D52A6F80954F130101FF23202101B6
:10009000371900002324810003240981232611003D
:1000A0002322910013050400EF1080316310050234
:1000B000130504008320C100032481008324410030
:1000C000032901001301010167800000930405006A
:1000D0009305050013850100EF80555B13040000B4
:1000E000232299806FF0DFFC1303F0001307050053
:1000F000637EC3029377F7006390070A6392050853
:10010000937606FF1376F600B386E6002320B70049
:100110002322B7002324B7002326B70013070701C3
:10012000E366D7FE6314060067800000B306C34091
:100130009396260097020000B38656006780C6009B
:100140002307B700A306B7002306B700A305B7002F
:100150002305B700A304B7002304B700A303B70027
:100160002303B700A302B7002302B700A301B7001F
:100170002301B700A300B7002300B7006780000089
:1001800093F5F50F93968500B3E5D5009396050199
:10019000B3E5D5006FF0DFF69396270097020000D5
:1001A000B386560093820000E78006FA938002002F
:1001B000938707FF3307F7403306F600E378C3F66B
:1001C0006FF0DFF33367B5009303F0FF1377370069
:1001D00063100710B7877F7F9387F7F70326050023
:1001E00083A60500B372F6003363F600B382F20013
:1001F000B3E26200639272106316D60803264500CC
:1002000083A64500B372F6003363F600B382F200B2
:10021000B3E26200639E720C6316D6060326850065
:1002200083A68500B372F6003363F600B382F20052
:10023000B3E262006398720C6316D6040326C5000D
:1002400083A6C500B372F6003363F600B382F200F2
:10025000B3E262006392720C6316D60203260501B4
:1002600083A60501B372F6003363F600B382F20091
:10027000B3E26200639C720A130545019385450150
:10028000E30ED6F41317060193970601631EF700D9
:100290001357060193D706013305F7409375F50F01
:1002A00063900502678000001357070193D7070189
:1002B0003305F7409375F50F6394050067800000E0
:1002C0001377F70F93F7F70F3305F74067800000B8
:1002D0000346050083C60500130515009385150028
:1002E0006314D600E31606FE3305D640678000008F
:1002F0001305450093854500E31CD6FC130500005B
:10030000678000001305850093858500E312D6FC05
:1003100013050000678000001305C5009385C50024
:10032000E318D6FA130500006780000013050501E5
:1003300093850501E31ED6F81305000067800000D1
:10034000130605001305000093F6150063840600EC
:100350003305C50093D5150013161600E39605FE68
:10036000678000006340050663C605061386050026
:10037000930505001305F0FF630C060293061000B9
:10038000637AB6006358C0001316160093961600E1
:10039000E36AB6FE1305000063E6C500B385C540F9
:1003A0003365D50093D6160013561600E39606FE65
:1003B0006780000093820000EFF05FFB138505006B
:1003C000678002003305A04063D80500B305B04044
:1003D0006FF0DFF9B305B04093820000EFF01FF932
:1003E0003305A040678002009382000063CA0500C5
:1003F000634C0500EFF09FF713850500678002004E
:10040000B305B040E35805FE3305A040EFF01FF6FA
:100410003305B04067800200130101FE232A9100DA
:100420009734100083A4C47883A70400232C810090
:10043000232631011304C002938905009385170018
:10044000B385850223282101173910000329496B40
:1004500023244101130A050003250900232E11005E
:10046000EFA08E6A83A704002320A9001386F9FF5A
:10047000B307F4023306CA0093050A00930610007E
:100480003305F50013054500EF10804183A70400F4
:10049000032709008320C101338487029387170053
:1004A000032901018329C100032A81003304870045
:1004B000232004000324810123A0F40083244101AC
:1004C0001301010267800000130101FF2322910044
:1004D0009734100083A4C46D83A5040023248100F5
:1004E0001304C00293851500B385850223202101E2
:1004F000173910000329C9600325090023261100BC
:10050000EFA08E6083A704002320A9008320C100F0
:100510003384870213071000938717000329010013
:1005200033058500032481002320E50023A0F40087
:100530008324410013010101678000009307C0027A
:100540003305F5029737100083A7875B83A7070061
:100550003385A700130545006F10005F9307C002A5
:100560003305F5029737100083A7875983A7070043
:100570003385A700130545006F100060130101FCCF
:10058000232C81021304C00233048502232A910222
:10059000232821032326310323244103232251034B
:1005A00023206103232E7101232C8101232A910131
:1005B000232E1102138C0500130B0600938A0600EC
:1005C000130A0700930CC1009739100083A94953FF
:1005D0001309F0FF93042000976B1000938B0BA678
:1005E00003A5090013070A0093860A003305850056
:1005F00013060B0093850C001305450023262101EB
:10060000EF10C07D630C0500630E95009305050097
:1006100013850B00EF8095076FF09FFC8327C100C7
:10062000E39087FD8320C1030324810383244103D6
:10063000032901038329C102032A8102832A41027B
:10064000032B0102832BC101032C8101832C410167
:100650001301010467800000130101FE232C8100B7
:10066000232A91002328210123263101232441013B
:1006700023225101232E1100930A0500138A05003D
:100680009309060013890600930407001304200051
:1006900013870400930609001386090093050A00D6
:1006A00013850A00EFF09FEDE30485FE8320C1016E
:1006B0000324810183244101032901018329C1000D
:1006C000032A8100832A4100130101026780000090
:1006D0009307C0023305F5029737100083A74742FE
:1006E00083A707003385A700130545006F108068B6
:1006F000130101FE9306000013060000930500009D
:10070000232A9100232E1100232C8100930405003D
:10071000EFF01FFC631E05021306C10013850400E1
:100720001307000093060000930510002326010024
:10073000EFF09FF213040500130504008320C101AC
:100740000324810183244101130101026780000019
:1007500013040500130605009385040017651000B7
:1007600013058592EF808572130504008320C10173
:1007700003248101832441011301010267800000E9
:100780009307C0023305F5029737100083A7473758
:1007900083A707003385A700130545006F10C040ED
:1007A0009307000F63EEC722130101ED232E3111D1
:1007B0009739100083A9C93F2322911283A409000D
:1007C000232021132328611193D7F44123261112EA
:1007D00023248112232C4111232A51112326711124
:1007E0002324811123229111232C9100232EF10027
:1007F000130B06001309050063060600130501022A
:10080000EF00062637050080130B0B013369A900A2
:10081000635E9012930B000013040000130A0000A3
:10082000973A100083AACA2D130C010183A70A006E
:100830001307140023288100B387770183A70700DB
:10084000232A4101B3368700638807141304070085
:10085000338A4601938BCB02E34A97FC6358900E90
:10086000930B000013040000130A0000930C010115
:10087000176C1000130C4C846F00C0019307140018
:1008800033B78700330A470113840700938BCB02E9
:1008900063D6970483A70A0023288100232A4101F5
:1008A000B387770183A70700E38A07FC13860C0050
:1008B00093050B0013050900EF10100E6312050CD1
:1008C00083A409009307140033B78700330A470154
:1008D00013840700938BCB02E3CE97FA63589006FC
:1008E000130A000013040000130C8100130BC10055
:1008F000975B1000938B4B7C6F00C00013041400B7
:100900006356940483A70A00B387470183A70700AF
:10091000130ACA02E39407FE9305090013070C00AB
:100920009306400013060B00130504002324010066
:1009300023260100EFF05FD283258100639805082C
:1009400083A4090013041400E34E94FA8320C11217
:100950000324811283244112032901128329C11126
:10096000032A8111832A4111032B0111832BC1100A
:10097000032C8110832C41101301011367800000A8
:10098000930505001306040013050C00EF800550C5
:1009900083A409006FF01FF31305040093060C00F5
:1009A00013060B0093050900EFF09FD283A4090002
:1009B0009307140033B78700330A470113840700F5
:1009C000938BCB02E3C497E66FF05FE91306040054
:1009D00013850B00EF80854B83A409006FF09FF611
:1009E00067800000130101FF23248100232291006E
:1009F0001304050023202101232611008327C400AE
:100A000003258500173710000327C712832407002A
:100A10003305F5001315350013890500EF60D55037
:100A200023A6A416032884009736100083A6061B6D
:100A300083A50600131838003308050123A80417FE
:100A4000032684008327C400B307F60013973700FA
:100A5000638205189737100083A7C71683A807007D
:100A60009735100083A5451383A70500938848FF99
:100A700063F8F816130310009738100083A8C80411
:100A800023A0680003A306006312031A3786000040
:100A90001306160023A0C70023A2070023A4A70063
:100AA00023A6E70003A706000326840013172700E8
:100AB000B387E70023A0F500930600001303C01AD4
:100AC000635AC0060327C402832744033307E400A4
:100AD000B307F4006362D616139626003307C700E7
:100AE00083250700B387C70003A60700B385650207
:100AF00003A704019317460093983600B387C700F5
:100B0000139627001307F7FFB30715013377F70094
:100B100093861600B307B40083A74714B307F40005
:100B2000B387C70023AAE70223AC07020326840089
:100B3000E3CAC6F88325C400130600009308C01A50
:100B4000635EB0060327C40283274403B306E400B0
:100B50003307F40063E2C50E8327840083A50401F4
:100B600013133600B307F60093972700B386F600F9
:100B700003A50600B307F70083A607003305150396
:100B80001387F5FF93974600B387D7009396270006
:100B9000B30768003377F70013061600B307A40005
:100BA00083A74714B307F400B387D70023AAE7024B
:100BB00023AC07028325C400E346B6F88320C100B6
:100BC0000324810083244100032901001301010152
:100BD000678000009735100083A505FC83A70500FA
:100BE0003706050023A0C70023A2270123A407007E
:100BF00023A6070003A6060083A8060013162600F6
:100C0000B387C70023A0F500E38208E81736100079
:100C1000032646FB03260600130646FFE378F6E6A6
:100C2000032684009738100083A808EA9307100071
:100C300023A0F8006FF05FE8232A00027300100081
:100C4000130101FB232E3103232861032326110402
:100C5000232481042322910423202105232C4103F2
:100C6000232A510323267103232481032322910382
:100C70002320A103232EB101832705019309050039
:100C8000138B0500639407186392052803AC0904CD
:100C900083A58904338C8901B305BC0093070C023A
:100CA0002324FC0023260C00232CBC00232E0C0044
:100CB00013058C00130D0C00EF609535973C100068
:100CC00083AC4CE783A70C001385090003A7C71565
:100CD00003A6870583A587169306470193962600EA
:100CE0001307170023AEE714B387D70023A6C70066
:100CF000EFF05FCF83A7C903635EF0041389090F88
:100D000013040000130A0000930B0100975A10000F
:100D1000938A4A4063160B081306000193850B0063
:100D2000370500802324810023264101232031013F
:100D300023220100EFF0DFA603A7C90393071400E5
:100D4000B3B68700338A4601138407001309C91A12
:100D5000E3C2E7FC17371000032747E883270700A3
:100D6000638C070A032607009736100083A6C6E2A5
:100D700083A706006300061217361000032686E4D8
:100D800003260600130646FF6376F6109737100019
:100D900083A787D31307100023A0E7006F00C008C4
:100DA000930409F69305100013850400EF100079F1
:100DB0001306050093050400175510001305C534EC
:100DC000EF80C50C832789FF0327090093040000E7
:100DD000B38DF9006356E00213850D00EF10804CCF
:100DE000130605009385040013850A00EF80050AA9
:100DF0000327090093841400938DCD0FE3CEE4FC08
:100E00001305A000EF901E4E6FF01FF1130C0000B1
:100E1000130D00006FF09FEA9737100083A7C7D724
:100E200083A7070083A7070003A70C008326C71525
:100E30009387360193972700B307F70083A7C7006E
:100E40009386F6FF232ED714232CF70483A70901DA
:100E5000638607068320C10403248104832441049C
:100E6000032901048329C103032A8103832A41033F
:100E7000032B0103832BC102032C8102832C41022B
:100E8000032D0102832DC10113050000130101058B
:100E9000678000001306300023A0C70023A20700CC
:100EA00023A4070023A60700032707001317270022
:100EB000B387E70023A0F6006FF01FF703258D002E
:100EC00013068D0193050D01EF60551B6318050492
:100ED00083278D01338C874123A48905B70706003A
:100EE00023A8F90083268D00930700FF338737413D
:100EF000B387364123AAF90083270D0123AE0900E9
:100F0000B387E70023ACF9006FF0DFF4175510004A
:100F10001305051DEF80C5106FF05FD79305050021
:100F2000175510001305C51FEF7055766FF01FFBA6
:100F30000327C502832745038326C5001736100003
:100F4000032646BF032606003307E500B307F50076
:100F500063E0B6060328850083260600B3850501F5
:100F6000939525003307B70003270700B387B70021
:100F700003A607009307C01A3307F702931746002A
:100F8000B387C700939727003307E500032747146B
:100F90003305E5003305F500032745038327850363
:100FA000B386E60003A506003305F5006780000060
:100FB00083274003730010000327C50283274503DE
:100FC00083268500173610000326C6B603280600C0
:100FD0003307E500B307F50063ECB60493952500ED
:100FE0003307B700032707009306C01AB387B7007B
:100FF0003307D70203A6070083260800931746008D
:10100000B387C700939727003307E50003274714EA
:101010003305E5003305F5000327450383278503E2
:10102000B386E60003A506003305F50067800000DF
:1010300083274003730010000327C502832745035D
:10104000832685003307E500B307F50063E4B604A3
:10105000939525003307B700032707009306C01AAE
:10106000B387B7003307D70283A6070093974600DC
:10107000B387D700939727003307E500032747146A
:101080003305E5003305F50063060500032505007B
:101090006780000013054000678000000327C50239
:1010A000832745038326C5003307E500B307F50012
:1010B00063E8B60483268500B385D50093952500A3
:1010C0003307B70003270700B387B70083A60700DD
:1010D0009307C01A3307F70293974600B387D700E8
:1010E000939727003307E500032747143305E500EE
:1010F0003305F50063060500032505006780000041
:1011000013054000678000000327C50283274503BD
:10111000832685003307E500B307F50063E6B606CE
:10112000939525003307B700832607001307C01ADD
:10113000B387B700B386E60203A7070093174700FB
:10114000B387E70013972700B307D50083A7471499
:10115000B307F500B387E7006388070283A6C701DA
:101160006358D00293962600B386D700130510006B
:1011700003A74700938747006354E0003305E50267
:10118000E398F6FE678000001305F0FF678000001B
:1011900013051000678000000327C502832745035D
:1011A0008326C5003307E500B307F50063EAB606FA
:1011B00083268500B385D500939525003307B700B6
:1011C00083260700B387B70003A707009307C01A59
:1011D000B386F60293174700B387E70013972700FB
:1011E000B307D50083A74714B307F500B387E7001B
:1011F0006388070283A6C7016358D002939626002E
:10120000B386D7001305100003A747009387470054
:101210006354E0003305E502E398F6FE67800000C2
:101220001305F0FF678000001305100067800000C1
:101230000327C502832745038326C5003307E5003E
:10124000B307F50063E6B60483268500B385D500B1
:10125000939525003307B70003270700B387B7002E
:1012600083A607009307C01A3307F7029397460037
:10127000B387D70093972700B387A7003305E5000E
:1012800003274514B387E70003A507026780000022
:1012900083270002730010000327C502832745033C
:1012A000832685003307E500B307F50063E2B60443
:1012B000939525003307B700032707009306C01A4C
:1012C000B387B7003307D70283A60700939746007A
:1012D000B387D70093972700B387A7003305E500AE
:1012E00003274514B387E70003A5070267800000C2
:1012F00083270002730010000327C50283274503DC
:101300008326C5003307E500B307F50063E6B6049E
:1013100083268500B385D500939525003307B70054
:1013200003270700B387B70083A607009307C01AF7
:101330003307F70293974600B387D70093972700A8
:10134000B387A7003305E50003274514B387E700FB
:1013500003A58702678000008327800273001000C6
:101360000327C50283274503832685003307E5004D
:10137000B307F50063E2B604939525003307B70081
:10138000032707009306C01AB387B7003307D702B5
:1013900083A6070093974600B387D700939727004B
:1013A000B387A7003305E50003274514B387E7009B
:1013B00003A5870267800000832780027300100066
:1013C0000327C504B717BE1A9387D71E6312F70AFF
:1013D000130101FD232481022326110223229102FD
:1013E00023202103232E3101232C4101232A5101E3
:1013F000232861012326710123248101832505000F
:101400003706037F1306F673130405006398C5328D
:10141000B717000083A787820327450013059000B4
:1014200093D7870093F7F70F631CF7008327C41245
:101430000327041313050000B3E7E700638E0702D8
:101440008320C10203248102832441020329010273
:101450008329C101032A8101832A4101032B010150
:10146000832BC100032C810013010103678000005E
:101470001305700067800000172A1000032A8A6B8A
:1014800083270A009724100083A44475972A10002C
:1014900083AA8A7003A7C71503A687059306470189
:1014A000939626001307170023AEE714B387D700DF
:1014B00023A6C70083290404EF6005311309050042
:1014C0009305050003258404B3093401EFE09FE987
:1014D000930B050013050900EF6005259726100002
:1014E00083A6866C23A02601130710009726100000
:1014F00083A6C66C83A7040023A0E60097261000ED
:1015000083A6466823A0E600130C05006388070C39
:101510009727100083A7076B83A6070083A70A00FD
:10152000938646FF63FEF60A9726100083A6C659E7
:1015300023A0E60003A70400631A070E3707010083
:101540001307471C23A0E70023A2070023A40700DA
:1015500023A6870103A7040013172700B387E7001A
:1015600023A0FA00175510001305C5C0EF70552BC6
:10157000172B1000032B8B5783270B0003A5870025
:10158000EFA0556F6344202303A7040083A70A003C
:101590006304070A172710000327C7620327070001
:1015A000130747FF637AF708130710009726100008
:1015B00083A6865123A0E60003A704006304070C5A
:1015C0001307100023A0E60003A704006300071020
:1015D0009307100023A0F6006F00801183A70A0074
:1015E0001307200023A0E70023A227011307100000
:1015F00023A4E70023A6E70003A7040083A60400B2
:1016000013172700B387E70023A0FA00E38806F248
:10161000172710000327075B0327070097261000F2
:1016200083A6864A130747FFE37AF7F09307100073
:1016300023A0F6006FF01FF3378701001307170090
:1016400023A0E70023A2070023A4770123A6070015
:1016500003A7040083A6040013172700B387E7003D
:1016600023A0FA006380060217271000032787557E
:10167000032707009726100083A60645130747FF98
:10168000E360F7F43707010023A0E70023A2270156
:1016900023A4070023A6070003A7040083A60400D1
:1016A00013172700B387E70023A0FA006380060220
:1016B000172710000327075103270700972610005C
:1016C00083A68640130747FFE364F7F0370704005B
:1016D00023A0E70023A2370123A4870123A6270123
:1016E00003A7040013172700B387E70023A0FA001D
:1016F000330979030324840433042441631204125C
:1017000083A704006386070403A7040083A70A00D5
:10171000630A0706172710000327C74A0327070095
:10172000130747FF6370F7069727100083A7C73991
:101730001307100023A0E7006F00000217551000E8
:101740001305C59FEF708574130580006FF05FCFA0
:1017500083A70A0083A7070003270A0013050000D8
:101760008326C7159387360193972700B307F700A1
:1017700083A7C7009386F6FF232ED714232CF704E4
:101780006FF01FCC1307300023A0E70023A207004F
:1017900023A4070023A6070003A7040013172700AC
:1017A000B387E70023A0FA006FF01FFBE35270F548
:1017B0009727100083A7074103A507001386090098
:1017C00083A70A00130545FF9305000013070000D7
:1017D00093081000172810000328082F6F008001BD
:1017E000637EF50023201801130717003306260136
:1017F000638EEB0683A60400E39406FE23A0070095
:1018000023A2C70023A4870123A6270183A60400DF
:101810009305100093962600B387D7006FF0DFFC86
:101820001755100013050595EF70857F83270B0072
:1018300003A58700EFA0154483A70400638C07026B
:101840009727100083A7073803A7070083A70A007C
:10185000130747FF6372F7029727100083A7C72675
:101860001307100023A0E7006FF09FE9E39005E85D
:101870006FF01FE883A70A0023A00700338929011E
:1018800023A2270123A4870123A6870003A704001E
:1018900013172700B387E70023A0FA006FF05FE675
:1018A0003306B640930716FF1306160033B6C7007B
:1018B0001306F6FF1316F60193D71700B367F60069
:1018C0001387F7FF93870501130101FB3388E700B6
:1018D000138E4500138385009388C5002326810459
:1018E000232491042322210523203105232E4103A3
:1018F000232C5103232A6103232871032326810308
:10190000232491032322A1032320B10313061800EB
:101910002300D5003307E60093DD850013DD0501C4
:1019200093DC8501135C8E00935B0E01135B8E01CB
:10193000935A8300135A03019359830113D98800E2
:1019400093D4080113D4880193D3870093D207015D
:1019500093DF8701135F8800638E0610935608019A
:101960002324D100A302F500832781009356880128
:101970002326D100935686002328D100A305F50025
:10198000935606018327C100232AD100935686016E
:10199000232CD10093568700232ED1002306F50077
:1019A000A306B5002307B501A307A50123089501E8
:1019B000A308C50123098501A3097501230A65014F
:1019C000A30E6500230F5501A30F45012300350326
:1019D000A300150323012503A30195022302850219
:1019E00023037500A30355002304F501A304050197
:1019F0002305E501A30AC5008327010193560701CA
:101A0000935E8701230BF50083274101A30CE500BA
:101A1000A30DD500A30BF50083278101230ED5016B
:101A2000230CF5008327C101230DF50023A0050039
:101A300023A2050023A4050023A605000324C10456
:101A4000832481040329410483290104032AC10357
:101A5000832A8103032B4103832B0103032CC1023F
:101A6000832C8102032D4102832D01021301010504
:101A700067800000935608012324D100A30AF500D3
:101A800083278100935688012326D1009356860030
:101A90002328D100A30DF500935606018327C1002A
:101AA000232AD10093568601232CD1009356870018
:101AB000232ED100230EF500A30EB500230FB50190
:101AC000A30FA50123009503A300C50323018503EC
:101AD000A301750323026503A306650023075501CF
:101AE000A307450123083501A30815012309250192
:101AF000A3099500230A8500230B7500A30B55004D
:101B0000230CF501A30C0501230DE501A302C5007B
:101B10008327010193560701935E87012303F50094
:101B200083274101A304E500A305D500A303F50025
:101B3000832781012306D5012304F5008327C101F2
:101B40002305F5006FF09FEF032785008347C5004D
:101B5000032545009356870093978701B3E7D70085
:101B60001317870113558500938797FF3365A700E7
:101B70003385A74067800000032785018347C5019F
:101B8000032545019356870093978701B3E7D70054
:101B90001317870113558500938797FF3365A700B7
:101BA0003385A74067800000130101FD23248102D3
:101BB0002322910223202103232E31012326110207
:101BC0001309060013040500938905009384060099
:101BD000EFF09FF7636025190327C40083470401D2
:101BE0000F00F00F1357870093978701B3E7E700C3
:101BF00003A607000F00F00F8326040103474401EA
:101C00000F00F00F93D68600131787013367D700B4
:101C1000832707000F00F00F0F00F00F3387C74036
:101C20006368F600130785003307F7003307C740E2
:101C300093068900130510006360D71083274400C2
:101C4000034784001305810093D68700931787010B
:101C5000B3E7D700B387C70023243101232621012E
:101C6000130601010F00F00F034705002380E70072
:101C70000F00F00F832584000347C40093871700EB
:101C800093D68500131787013367D7001305150016
:101C9000939585016378F7008327440093D78700E5
:101CA000B3E7F500E310A6FC63080904938604007B
:101CB000338624010F00F00F03C706002380E700DE
:101CC0000F00F00F832584000347C400938717009B
:101CD00013D58500131787013367A7009386160075
:101CE000939585016378F7008327440093D7870095
:101CF000B3E7F500E390C6FC0F00F00F8325440026
:101D0000834684000326C4000347040193D585005D
:101D10009396860113568600B3E6B6001317870123
:101D20003367C700B387D7400F00F00F2320F700B9
:101D30000F00F00F130500008320C102032481026D
:101D400083244102032901028329C10113010103F4
:101D5000678000008320C1020324810283244102A2
:101D6000032901028329C101130530001301010376
:101D700067800000130101FE232C8100232A9100BB
:101D8000232821012326310123244101232E110080
:101D9000130A0500938905001309060093840600C1
:101DA00013041000938604001306090093850900AC
:101DB00013050A00EFF05FDFE30685FE8320C10113
:101DC0000324810183244101032901018329C100E6
:101DD000032A81001301010267800000130101FD45
:101DE000232481022322910223202103930405004E
:101DF000232E3101232C410123261102130A07004F
:101E0000938905001309060013840600EFF0DFD65E
:101E100003A7040283C744020F00F00F1357870083
:101E200093978701B3E7E70003A607000F00F00FC1
:101E300083A6C40103C704020F00F00F93D68600E7
:101E4000131787013367D700032E07000F00F00F29
:101E50000F00F00F6376CE00330EC501130E8E0017
:101E6000330ECE401305200063020E1C9307700052
:101E70001305600063FCC71B03A7440183C78401EB
:101E8000930881001357870093978701B3E7E70012
:101E900023240100B387C700232601001307010193
:101EA0000F00F00F03C307000F00F00F03A8840119
:101EB00003C5C401238068001353880013158501EE
:101EC00093871700336565009388180013188801FD
:101ED0006378F50083A7440193D78700B367F800C0
:101EE000E390E8FC23A009002320090003A70900D0
:101EF000034681000345C100834691003367C70054
:101F000023A0E90083250900139686000347D1002A
:101F1000B3E6A5002320D90083A609001315870086
:101F20000347A100B3E6C60023A0D900832509001A
:101F3000131607018346E10033E7A5002320E900DB
:101F400003A70900139506018346B1003367C70054
:101F500023A0E90083250900139686010347F100B9
:101F6000B3E6A5002320D90083A609001317870133
:101F700013055000B3E6C60023A0D900832609004C
:101F80003367D7002320E900930687006360DE0AE9
:101F900013054000636CE408630A0704130500009E
:101FA0000F00F00F83C607000F00F00F3307AA00E1
:101FB0002300D70083A5840183C6C401938717003B
:101FC00013D7850093968601B3E6E6001305150046
:101FD0009395850163F8F60083A7440193D78700A2
:101FE000B3E7F50083260900E36CD5FA0F00F00F84
:101FF00083A5440183C6840103A6040203C74402E7
:1020000093D585009396860113568600B3E6B600F5
:10201000131787013367C700B387D7400F00F00F4E
:102020002320F7000F00F00F130500008320C102EA
:102030000324810283244102032901028329C1016F
:10204000032A81011301010367800000130101FECF
:10205000232C8100232A91002328210123263101EA
:102060002324410123225101232E1100930A05004C
:10207000138A0500930906001389060093040700DC
:102080001304200013870400930609001386090037
:1020900093050A0013850A00EFF05FD4E30485FE80
:1020A0008320C1010324810183244101032901010B
:1020B0008329C100032A8100832A41001301010200
:1020C00067800000130101FE232C8100232A910068
:1020D000232E11009307F0011304050093840600DA
:1020E00063CAA70693162500973710009387070445
:1020F000B387D70083A70700638E07041387050003
:10210000032506008325860093060601130607FFB4
:10211000E78007002326A1009306C10013064000B4
:102120009305040013850400EFF0DFC4630C05047D
:1021300093050500174510001305850BEF609061AE
:102140008320C10103248101832441011301010281
:10215000678000009305040017451000130505066D
:10216000EF60505F9307F0FF9306C1001306400035
:1021700093050400138504002326F100EFF09FBFB0
:10218000E31805FA8320C10103248101832441015E
:1021900013010102678000009307F00163CAA702E0
:1021A0009316250097371000938747F8B387D70019
:1021B00003A30700630E0300138705000325060031
:1021C0008325860093060601130607FF67000300B8
:1021D000130101FF9305050017451000130505FEC7
:1021E00023261100EF60954A8320C1001305F0FFFC
:1021F0001301010167800000131515001355150028
:102200009307000263C8A70297371000938707F26D
:10221000131525003385A700832705006398070061
:102220002320B50013050000678000001305F0FFB0
:10223000678000001305E0FF678000001305F5FFCD
:102240009357150033E5A70093572500B3E7A70080
:1022500013D54700B367F50013D587003365F50044
:102260009357050133E5A7001305150067800000AB
:102270009357150033E5A7009357250033E5A700D2
:1022800093574500B3E7A70013D587003365F500E2
:1022900093570501B3E7A70013D517003385A7406F
:1022A00067800000832705001307A00C6362F728EE
:1022B00017371000130747FD93972700B387E700F0
:1022C00083A70700B387E700678007001745100062
:1022D0001305C5F567800000174510001305C50DEF
:1022E0006780000017451000130505FA678000009D
:1022F00017451000130545116780000017451000B1
:10230000130545F567800000174510001305850B80
:102310006780000017451000130585F467800000F2
:1023200017451000130545F267800000174510009F
:102330001305050267800000174510001305850B83
:1023400067800000174510001305C5EF6780000087
:102350001745100013058508678000001745100019
:102360001305C5FD6780000017451000130545FBE8
:102370006780000017451000130585FE6780000088
:10238000174510001305C5FA6780000017451000B7
:10239000130585F86780000017451000130545F701
:1023A0006780000017451000130505F867800000DE
:1023B00017451000130545F9678000001745100008
:1023C000130505F06780000017451000130585F31D
:1023D00067800000174510001305050067800000A6
:1023E00017451000130545F76780000017451000DA
:1023F000130545EE678000001745100013054502E0
:102400006780000017451000130545FF6780000036
:1024100017451000130505F96780000017451000E7
:10242000130505F767800000174510001305C5F375
:102430006780000017451000130505E9678000005C
:10244000174510001305C5EA678000001745100006
:10245000130505F367800000174510001305C5EA52
:102460006780000017451000130545F667800000DF
:1024700017451000130585E267800000174510001E
:10248000130545E26780000017451000130585E03D
:102490006780000017451000130545E367800000C2
:1024A00017451000130585DD6780000017451000F3
:1024B000130585E46780000017451000130545D714
:1024C00067800000174510001305C5E16780000014
:1024D000174510001305C5E9678000001745100077
:1024E0001305C5D86780000017451000130545DEA9
:1024F0006780000017451000130505DE67800000A7
:1025000017451000130505DB678000001745100014
:10251000130505ED67800000174510001305C5EC95
:1025200067800000174510001305C5EA67800000AA
:1025300017451000130585CE67800000832705002E
:1025400013073004638CE712634CF7021307700122
:102550006386E718634CF708130730006384E71CB1
:10256000130790006388E71213072000639CE702BB
:1025700017451000130585FA6382051C678000006B
:10258000130710066384E712635AF7021307800CDF
:10259000638AE7121307900C6382E708130760064B
:1025A0006382E70C17451000130505E8E39805FC66
:1025B00017451000130545FA678000001307300522
:1025C000638AE706130780056382E7081307500450
:1025D000E39AE7FC17451000130545EFE39005FA71
:1025E00017451000130585EB6780000013071003E3
:1025F0006382E71013078003638AE7101307C002A2
:10260000E392E7FA174510001305C5EDE39805F6C8
:1026100017451000130505E66780000017451000F8
:102620001305C5F0E39C05F417451000130585E17B
:1026300067800000174510001305C5EDE39005F411
:1026400017451000130505E16780000017451000CD
:10265000130545D7E39405F217451000130505E06F
:102660006780000017451000130545E5E39805F065
:1026700017451000130585E367800000174510001B
:10268000130545E8E39C05EE17451000130585DDAD
:1026900067800000174510001305C5E9E39005EEBB
:1026A00017451000130585D96780000017451000F5
:1026B000130585D5E39405EC17451000130505DCDB
:1026C00067800000174510001305C5E7E39805EA89
:1026D00017451000130545D6678000001745100008
:1026E000130545DFE39C05E817451000130505DADF
:1026F00067800000174510001305C5DCE39005E86E
:1027000017451000130505DA678000001745100013
:10271000130585C3E39405E617451000130585D915
:102720006780000017451000130585E2E39805E473
:10273000174510001305C5CF67800000174510002E
:102740001305C5D067800000130101FF2324810019
:102750001304050017451000130585E0232611001A
:10276000EF60150C8326040103260402832544012F
:1027700017451000130545DFEF6045710326C400BF
:102780008325040017451000130585DFEF600570F1
:10279000032604088325C407032481008320C10085
:1027A000174510001305C5DE130101016F60056EAA
:1027B000B7170000138F976A6378BF0C938EA76AD0
:1027C00037FEFFFF378380803306D50113070000F3
:1027D00093070000130E6E95130313083305C6010B
:1027E000130515008346F5FFB387D7003307F700BD
:1027F000E318C5FE33B86702B385C5013306D501BA
:10280000B33667021358780093188800338808415C
:10281000B387074193D6760013988600B306D84055
:102820003307D740E36CBFFA63860504B305B500F0
:10283000130515008346F5FFB387D7003307F7006C
:10284000E318B5FEB78680809386160833B6D702A4
:10285000B336D70213567600931586003386C540EB
:10286000B387C74093D6760013968600B306D6404A
:102870003307D74013178700B367F7001395070195
:10288000135505016780000013070000930700003F
:102890006FF09FF99307701663F2B70C37830080CF
:1028A0001306052D13070000930700001303130000
:1028B000130E7016130506D3130525008356E5FF86
:1028C000B387D7003307F700E318C5FE33B86702B4
:1028D000938585E91306052DB33667021358F80072
:1028E0009318080133880841B387074193D6F6004F
:1028F00013980601B306D8403307D740E36CBEFAFD
:102900006388050493961500B306D50013052500CA
:102910000356E5FFB387C7003307F700E398A6FE29
:10292000B78600809386160033B6D702B336D70237
:102930001356F600931506013386C540B387C7408A
:1029400093D6F60013960601B306D6403307D74058
:10295000131707013365F7006780000013070000B5
:10296000930700006FF0DFF9130101FA23206105DE
:10297000232A9103232E1104232C8104232A91045A
:10298000232821052326310523244105232251052F
:10299000232E7103232C81032328A1032326B103B3
:1029A000232CB10023261101938C0600138B060003
:1029B00063C4F600138B0700130C07006354E60092
:1029C000130C060017171000032747218327070061
:1029D000638C071E832607009715100083A5C51B6F
:1029E00083A70500639606149306300023A0D70042
:1029F00023A2070023A4070023A60700032707003C
:102A000013172700B387E70023A0F5008327810170
:102A10006352F00EB3079603130D1000331D0D0122
:102A200023280100974B1000938B8BB9974A100015
:102A3000938A0AB8232EF100B3076501232AF10017
:102A400083250101174510001305C5B5130A0000C1
:102A5000EF60C5430324410163588007635C600550
:102A600013050D00EFA0DF418327C1001309050006
:102A7000938905006392070EB304644183CD04007B
:102A80009384140013850D00EFA09F3F13060900E7
:102A900093860900EF60D60EEFC00F669305000025
:102AA000EFB09F2293850D0013850A00EF60053E6D
:102AB000E31694FC1305A000130A1A00EF808E029F
:102AC00033049401E31C4CF9832701011305A00092
:102AD0001384170023288100EF80CE008327410153
:102AE0000327C101B387E700232AF100832781016F
:102AF000E39887F48320C1050324810583244105DD
:102B0000032901058329C104032A8104832A41047E
:102B1000032B0104832BC103032C8103832C41036A
:102B2000032D0103832DC1021301010667800000FC
:102B30009716100083A6060983A60600938646FF13
:102B4000E3F4F6EA9717100083A707F813071000BD
:102B500023A0E7006FF09FEBB30D64416F004002CC
:102B600013850400EFC04F49130605009386050046
:102B700013850B00EF608531938D1D00E38C8DF282
:102B800003C50D00EFA0DF2F13060900938609008F
:102B9000EF60067FEFC04F569305000093040500D9
:102BA000EFB09F12E35E05FA13850400EFC0CF4437
:102BB0001306050093860500174510001305C59FF1
:102BC000EF60C52C6FF05FFB9717100083A7C7FC61
:102BD00083A7070083A707006FF05FE3130101FAE3
:102BE00023206105232A9103232E1104232C810421
:102BF000232A910423282105232631052324410576
:102C000023225105232E7103232C81032328A103A2
:102C10002326B103232CB10023261101938C060037
:102C2000138B060063C4F600138B0700130C070018
:102C30006354E600130C060017171000032707FA69
:102C400083270700638C071E832607009715100053
:102C500083A585F483A705006396061493063000C8
:102C600023A0D70023A2070023A4070023A6070060
:102C70000327070013172700B387E70023A0F500F9
:102C8000832781016352F00EB3079603130D1000E2
:102C9000331D0D0123280100974B1000938B4B929D
:102CA000974A1000938ACA90232EF100B30765015A
:102CB000232AF10083250101174510001305858E95
:102CC000130A0000EF60851C03244101635880074C
:102CD000635C600513050D00EFA09F1A8327C100F8
:102CE00013090500938905006392070EB30464413C
:102CF000838D04009384140013850D00EFA05F18EA
:102D00001306090093860900EF608667EFC0CF3E87
:102D100093050000EFB04F7B93850D0013850A00EB
:102D2000EF60C516E39684FC1305A000130A1A0091
:102D3000EF705E5B33049401E31C4CF983270101BF
:102D40001305A0001384170023288100EF709E59FB
:102D5000832741010327C101B387E700232AF1003C
:102D600083278101E39887F48320C105032481052B
:102D700083244105032901058329C104032A810411
:102D8000832A4104032B0104832BC103032C8103F9
:102D9000832C4103032D0103832DC102130101067E
:102DA000678000009716100083A6C6E183A6060080
:102DB000938646FFE3F4F6EA9717100083A7C7D07F
:102DC0001307100023A0E7006FF09FEBB30D6441E1
:102DD0006F00400213850400EFC00F2213060500A8
:102DE0009386050013850B00EF60450A938D1D0047
:102DF000E38C8DF203850D00EFA09F0813060900F8
:102E000093860900EF60C657EFC00F2F93050000AF
:102E100093040500EFB04F6BE35E05FA13850400E1
:102E2000EFC08F1D130605009386050017351000AF
:102E300013058578EF6085056FF05FFB971710002D
:102E400083A787D583A7070083A707006FF05FE3F9
:102E5000171E1000032E8ED803230E00630A0324CE
:102E6000832E0E00171F1000032F0FD303230F0014
:102E700063820E1A971E100083AECED483AE0E006E
:102E8000938E4EFF63F86E18171310000323C3C30D
:102E9000130E10002320C3016352B01A130101FA6C
:102EA000232C8103139C1600232A9103938C070083
:102EB000B3078603232E7103930B0700130710003B
:102EC0002328A10333170701330D90412322510515
:102ED00023206105232E1104232CF10093971C005D
:102EE000B307F500232C8104232A9104232821050C
:102EF00023263105232441052326B103232611016E
:102F0000232EB1002324E100232AF100131D1D000C
:102F100023280100173B1000130B0B6C973A10008D
:102F2000938A8A6A83250101173510001305856786
:102F3000130A0000EF509575032441016358700790
:102F4000635C900503258100EFA08F738327C10088
:102F500013090500938905006394070EB304A401C7
:102F6000839D04009384240013850D00EFA04F710E
:102F70001306090093860900EF608640EFC0CF1763
:102F800093050000EFB04F5493850D0013850A00A0
:102F9000EF50D56FE39684FC1305A000130A1A00C6
:102FA000EF705E3433048401E39C4BF98327010105
:102FB0001305A0001384170023288100EF709E32B0
:102FC0008327410103278101B387E700232AF1000A
:102FD0008327C101E39887F48320C1050324810579
:102FE00083244105032901058329C104032A81049F
:102FF000832A4104032B0104832BC103032C810387
:10300000832C4103032D0103832DC102130101060B
:1030100067800000930E30002320D3012322030099
:103020002324030023260300032E0E00131E2E006C
:103030003303C30123206F00E342B0E66780000042
:10304000B30DA4016F00400213850400EFB0DF7AD6
:10305000130605009386050013050B00EF5015635A
:10306000938D2D00E38A8DF203950D00EFA04F6143
:103070001306090093860900EF608630EFC0CF0782
:103080009305000093040500EFB00F44E35E05FADA
:1030900013850400EFB05F761306050093860500E4
:1030A000173510001305C552EF50555E6FF05FFBEA
:1030B00017131000032343AE03230300032303006D
:1030C0006FF09FDD171E1000032E4EB103230E007C
:1030D000130101F9232671052326110623248106F5
:1030E0002322910623202107232E3105232C41057D
:1030F000232A5105232861052324810523229105D4
:103100002320A105232EB103832B4107630803204D
:10311000832E0E00171F1000032F0FA803230F008C
:10312000638E0E2E971E100083AECEA983AE0E00C6
:10313000938E4EFF63F46E2E171310000323C39873
:10314000130E10002320C301635CC018232AE10082
:103150003387E6022328F100B385A540B3070501B4
:103160002322F102B3870541232CF100B707008029
:10317000232601012326C1022324E10213071000A4
:1031800033171701232EE10023200102B3CD77016D
:1031900083250102173510001305C540130C0000EC
:1031A000EF50D54E83270101032A4102973C1000BE
:1031B000938C8C436350F0108327C100635EF00C46
:1031C0000325C101EFA0CF4B83270107130405009E
:1031D00093840500639807168327C1003309FA40DA
:1031E00083278101B38947016F00400213850D00D9
:1031F000EFB04F21634CA00613850C00EF5015492A
:10320000130919009389190063084909030D09007E
:10321000038B090013050D00EFA08F461306040071
:1032200093860400EF60C615EFB01F6D930A05008A
:1032300013050B00EFA0CF4413060400938604008F
:10324000EF600614EFB05F6B9305050013850A006D
:10325000EFB0CF6E93050500930A050013850B00B0
:10326000EFB08F2693850A00E35205F8930500001E
:1032700013850A00EFB04F25B3056D41634A050A77
:10328000173510001305C53513091900EF50154007
:1032900093891900E31C49F71305A000EF709E0401
:1032A00083274101130C1C00330AFA008327010114
:1032B000E39487F1832701021305A000138417000C
:1032C00023208102EF701E0283274102032781021F
:1032D000B387E7002322F1028327C102E39A87EA3A
:1032E0008320C106032481068324410603290106A5
:1032F0008329C105032A8105832A4105032B010582
:10330000832BC104032C8104832C4104032D01046D
:10331000832DC103130101076780000017131000FC
:103320000323838703230300032303006FF0DFE1FC
:10333000B3056D411735100013058527EF5015357E
:103340006FF01FEC8327C1003309FA408327810106
:10335000B38947016F00400213850A00EFB0CF1612
:103360006346050613850C00EF505532130919000A
:1033700093891900E30249F303050900EFA04F30D8
:103380001306040093860400EF50967FEFB0DF56DB
:10339000930A050003850900EFA08F2E1306040091
:1033A00093860400EF50D67DEFB01F5593050500BE
:1033B00013850A00EFB08F5893850B00930A050020
:1033C000EFB04F0493850D00E358A0F8930500007B
:1033D00013850A00EFB04F0F6342050213850A0000
:1033E000EFB09F41130605009386050017351000C6
:1033F0001305051DEF5095296FF05FF713850A003F
:10340000EFB09F3F130605009386050017351000A7
:103410001305851AEF5095276FF05FF5930E300076
:103420002320D301232203002324030023260300A7
:10343000032E0E00131E2E003303C30123206F0042
:103440006FF09FD0170E1000032E4E7903230E004D
:10345000130101F923267105232611062324810671
:103460002322910623202107232E3105232C4105F9
:10347000232A510523286105232481052322910550
:103480002320A105232EB103832B4107630C0320C6
:10349000832E0E00170F1000032F0F7003230F0051
:1034A00063840E30970E100083AECE7183AE0E0093
:1034B000938E4EFF63FA6E2E170310000323C36032
:1034C000130E10002320C3016350C01A13171700F6
:1034D0002326E1003387E602938C0700B306004100
:1034E000B385A5402326C10213061000331616012A
:1034F00023280101232EC100232001022324E102FD
:1035000013171800B307A7002322F10293971600A0
:10351000232CF100B387E540232AF100B707008090
:10352000B3CD7701832501021735100013058507F8
:10353000130C0000EF509515032A410263509011BF
:10354000832701016350F00E0325C101EFA04F1343
:103550008327010713040500938405006398071669
:10356000832781013309FA0083274101B309FA0057
:103570006F00800213850D00EFA0DF68634EA00688
:103580001735100013054507EF5055101309290092
:103590009389290063084909031D0900039B090059
:1035A00013050D00EFA0CF0D130604009386040051
:1035B000EF50165DEFB05F34930A050013050B0062
:1035C000EFA00F0C1306040093860400EF50565B27
:1035D000EFB09F329305050013850A00EFB00F3658
:1035E00093050500930A050013850B00EFA0DF6D1E
:1035F00093850A00E35005F89305000013850A003F
:10360000EFA09F6CB3056D416348050A17351000A4
:10361000130505FE13092900EF505507938929006A
:10362000E31C49F71305A000EF70CE4B8327C100C0
:10363000130C1C00330AFA00E3948CF18327010277
:103640001305A0001384170023208102EF708E4918
:103650008327410203278102B387E7002322F10277
:103660008327C102E39087EC8320C10603248106EF
:1036700083244106032901068329C105032A810504
:10368000832A4105032B0105832BC104032C8104EC
:10369000832C4104032D0104832DC1031301010771
:1036A00067800000170310000323034F0323030068
:1036B000032303006FF05FE1B3056D411735100080
:1036C000130585F0EF50857C6FF05FEC8327810157
:1036D0003309FA0083274101B309FA006F00800221
:1036E00013850A00EFA05F5E6348050617351000DA
:1036F000130585EFEF508579130929009389290077
:10370000E3022AF303150900EF909F7713060400E4
:1037100093860400EF50D646EFB01F1E930A0500B3
:1037200003950900EF90DF751306040093860400EB
:10373000EF501645EFB05F1C9305050013850A0096
:10374000EFB0CF1F93850B00930A0500EFA09F4BAE
:1037500093850D00E356A0F89305000013850A0039
:10376000EFA09F566342050213850A00EFB0DF0801
:103770001306050093860500173510001305C5E5EF
:10378000EF50C5706FF05FF713850A00EFB0DF06EA
:10379000130605009386050017351000130545E351
:1037A000EF50C56E6FF05FF5930E30002320D3010C
:1037B000232203002324030023260300032E0E00EC
:1037C000131E2E003303C30123206F006FF0DFCFE1
:1037D000170E1000032E8E4003230E006302031AFF
:1037E000832E0E00170F1000032F0F3B03230F0033
:1037F000638E0E34970E100083AECE3C83AE0E0067
:10380000938E4EFF63F46E34170310000323C32B13
:10381000130E10002320C301635EC016130101FACA
:1038200023206105130B0700B38666032328A10339
:10383000232EC100138D070013061000B387050166
:1038400033161601330705012328F100232E7103D7
:10385000232CD100B386A540B3870641232A9103C8
:10386000232E1104232C8104232A910423282105CB
:10387000232631052324410523225105232C8103CE
:103880002326B103930B08002322C1002326E10065
:10389000232A0100973C1000938C8CD22324F10042
:1038A00083254101173510001305C5CFEF50055E84
:1038B00023200100032901018329C100930A00008C
:1038C000173C1000130CCCD1635EA0096350700943
:1038D00003254100EF90DF5A832701001304050000
:1038E00093840500638A070A8327010663940710FF
:1038F00083278100338A37016F00400113050C00D4
:10390000130A1A00EF50855863022A05830D0A0036
:1039100013850D00EF90DF56130604009386040014
:10392000EF501626EFB04F7D93050000EFA0DF3972
:1039300093850D00E35405FC17351000130545C7AA
:10394000130A1A00EF508554E3122AFD1305A00054
:10395000938A1A00EF700E19B3896901330969015E
:10396000E3165DF71305A000EF70CE178327010063
:1039700063940716930710002320F1006FF09FF364
:103980001703100003234321032303000323030031
:10399000E346C0E867800000832701066396070CB2
:1039A000338A79416F00400113050C00EF50054E3A
:1039B000130A1A00E38C49F9830D0A0013850D00E0
:1039C000EF901F4C1306040093860400EF50561B23
:1039D000EFB08F7293050000EFA01F2F93850D00AD
:1039E000E35405FC17351000130585BCEF50054A5C
:1039F0006FF01FFC83278100B38D37016F004002F9
:103A000013050A00EFB04F5F13060500938605000B
:103A100013850C00EF508547938D1D00E3882DF32F
:103A200003850D00EF90DF45130604009386040024
:103A3000EF501615EFB04F6C93050000130A050008
:103A4000EFA09F28E35E05FA13050A00EFB0CF5AF6
:103A50001306050093860500173510001305C5B53C
:103A6000EF50C5426FF05FFBB38D79416F004002AC
:103A700013050A00EFB04F581306050093860500A2
:103A800013850C00EF508540938D1D00E380B9ED48
:103A900003850D00EF90DF3E1306040093860400BB
:103AA000EF50160EEFB04F6593050000130A0500A6
:103AB000EFA09F21E35E05FA13050A00EFB0CF5394
:103AC0001306050093860500173510001305C5AED3
:103AD000EF50C53B6FF05FFB832741011305A0004A
:103AE00013841700232A8100EF60DE7F0327C100C3
:103AF000832781013307F7002326E1000327010113
:103B0000B307F7002328F1008327C101E39A87D880
:103B10008320C10503248105832441050329010570
:103B20008329C104032A8104832A4104032B01044D
:103B3000832BC103032C8103832C4103032D010339
:103B4000832DC1021301010667800000930E30002F
:103B50002320D30123220300232403002326030070
:103B6000032E0E00131E2E003303C30123206F000B
:103B70006FF09FCA170E1000032E4E0603230E008F
:103B80006300031A832E0E00170F1000032FCF00BF
:103B900003230F00638E0E34970E100083AE8E0247
:103BA00083AE0E00938E4EFF63F46E341703100045
:103BB000032383F1130E10002320C301635CC0169E
:103BC000130101FA23206105131B1700232A910317
:103BD000938C0700B387660393061000B396160113
:103BE000330700412322D100232C8103232E11040B
:103BF000232C8104232A910423282105232CF1005E
:103C000093171800B306F500B387F5002328F100D9
:103C1000931717002326310523244105232251053C
:103C2000232E71032328A1032326B103232001019E
:103C3000232EC1002326D1002324F100232A0100D2
:103C4000173C1000130C4C998325410117351000C7
:103C500013054595130D0000EF504523973B1000C9
:103C6000938B0B99032901018329C100930A00005A
:103C7000635E900983270100635EF006032541001F
:103C8000EF901F201304050093840500832701068D
:103C900063040D0A6390071083278100330AF9003B
:103CA0006F00400113850B00130A2A00EF50051E18
:103CB00063022A05831D0A0013850D00EF905F1C27
:103CC0001306040093860400EF50866BEFB0CF42DA
:103CD00093050000EFA04F7F93850D00E35405FC92
:103CE000173510001305458E130A2A00EF50051AE8
:103CF000E3122AFD1305A000938A1A00EF609E5E6E
:103D0000B389690133096901E3965CF71305A000E3
:103D1000EF605E5D63140D16130D10006FF09FF4DD
:103D200017031000032343E70323030003230300C7
:103D3000E348C0E8678000006398070C8327810090
:103D4000338AF9006F00400113850B00EF50051412
:103D5000130A2A00E3003AFB831D0A0013850D00B5
:103D6000EF901F121306040093860400EF50466183
:103D7000EFB08F3893050000EFA00F7593850D000D
:103D8000E35405FC1735100013050584EF500510AA
:103D90006FF01FFC83278100B30DF9006F00400214
:103DA00013050A00EFB04F251306050093860500A2
:103DB00013050C00EF50850D938D2D00E38C2DF332
:103DC00003950D00EF90DF0B1306040093860400AB
:103DD000EF50065BEFB04F3293050000130A050069
:103DE000EFA08F6EE35E05FA13050A00EFB0CF2057
:103DF0001306050093860500172510001305457D61
:103E0000EF50C5086FF05FFB83278100B38DF90089
:103E10006F00400213050A00EFB00F1E13060500E5
:103E20009386050013050C00EF504506938D2D0079
:103E3000E3823DED03950D00EF909F04130604000F
:103E400093860400EF50C653EFB00F2B930500008C
:103E5000130A0500EFA04F67E35E05FA13050A0099
:103E6000EFB08F1913060500938605001725100083
:103E700013050576EF5085016FF05FFB8327410145
:103E80001305A00013841700232A8100EF609E45CC
:103E90000327C100832781013307F7002326E100B0
:103EA00003270101B307F7002328F1008327C1018D
:103EB000E39C87D88320C105032481058324410521
:103EC000032901058329C104032A8104832A4104AB
:103ED000032B0104832BC103032C8103832C410397
:103EE000032D0103832DC102130101066780000029
:103EF000930E30002320D301232203002324030048
:103F000023260300032E0E00131E2E003303C301CD
:103F100023206F006FF09FCA032E010003D3080017
:103F2000B336D00083D82800031F0E00831E2E0056
:103F30009396F600370E0F0093950501131787012E
:103F4000B3F5C5013336C0003367D700370E010023
:103F5000130EFEFF1316E600B3E5E5001303F3FFAF
:103F60009388F8FF33E6C5003373C301131F0F01B5
:103F7000B3F8C801939E0E01136626341308F8FFA8
:103F80003363E301B3E8D8012320C5002322F50001
:103F900023240501232665002328150167800000DE
:103FA00017031000032303B903230300130101FFC8
:103FB000832F0101032E0301B336D00037030F0016
:103FC00093950501032F81019396F600B3F56500E3
:103FD0003336C000B3E5D5001316E60003D30F0057
:103FE000832E410133E6C500130EFEFF83160F003A
:103FF00013662628337EC7019388F8FF2320C50067
:104000002326F500232205012324C50123281501B9
:10401000B707010083A50E001387F7FF1303F3FF13
:1040200083D72F00139606013373E30083162F0006
:104030003363C300232AB500232C650003A64E007A
:104040009387F7FFB3F7E70013970601B3E7E7009D
:10405000232EC5002320F502130101016780000013
:1040600037030F00B336D00093950501832E41002E
:104070009396F600B3F565003336C0001316E600DC
:10408000B3E5D50003D30800032E0100B3E5C50056
:1040900083960E0093E525471308F8FF2322F500C9
:1040A0002324E5002320B50023260501B7070100DE
:1040B00083250E001387F7FF1303F3FF83D7280030
:1040C000139606013373E30083962E003363C30017
:1040D0002328B500232A650003264E009387F7FFA7
:1040E000B3F7E70013970601B3E7E700232CC500F9
:1040F000232EF500678000009395050193E52500C8
:104100002320B500678000009395050193E52510F5
:104110002320B500678000003336C00093F5F5001A
:104120001316E60063860600B7860000B3E5D500E7
:10413000835E0800035E280003534800835668002E
:1041400083920800839F2800039F4800839868009B
:10415000370801001308F8FF938EFEFF130EFEFFD1
:104160001303F3FF9386F6FF3366B600B3FE0E012A
:1041700093920201337E0E01939F0F01337303016B
:10418000131F0F01B3F60601939808011366062664
:104190009387F7FFB3EE5E00336EFE013363E301F6
:1041A000B3E616012320C5002322E5002324F500F1
:1041B0002326D5012328C501232A6500232CD500F9
:1041C00067800000032301003336C00083C308006A
:1041D000835E0300035E2300835F43000353630099
:1041E00083C2280003CF48001316F60083C8680076
:1041F000939606011307F7FFB3E6C600B335B00088
:1042000013178701370601001306F6FF9395E500A3
:10421000B3E6E6001308F8FF938EFEFF130EFEFFD1
:10422000938FFFFF1303F3FFB3E6B6009397870165
:104230003378C800B3FECE0093930301337ECE00E3
:1042400093920201131F0F01B3FFCF003373C3001A
:104250009398080193E66625B3E70701B3EE7E0065
:10426000336E5E00336FFF01336313012320D500EB
:104270002322F5002324D5012326C5012328E501A7
:10428000232A650067800000130101FF0323010159
:10429000832F410123268100835E2300035F0300F7
:1042A000035E430003942F0083934F0083926F00BB
:1042B00003536300232491003336C00083940F001E
:1042C00013170701B70FFF003377F7011316F60036
:1042D00093978701B70F0100938FFFFFB335B000AD
:1042E000B3E7C700938EFEFF131404019395E50016
:1042F0003367F700130FFFFF130EFEFF1303F3FFE7
:10430000B3FEFE0193940401B3EE8E00B365B700D3
:104310000324C100337FFF01337EFE019393030129
:104320003373F30193920201336F9F0093E5752776
:104330009388F8FF336E7E00336353002320B5006B
:104340002322D50023240501232615012328E50176
:10435000232AD501232CC501232E65008324810047
:10436000130101016780000017F30F000323837C12
:1043700003230300130101FF2324E1002326F1009E
:10438000832E0101032E410103230301639C0508D1
:10439000B7870000130780289387872863140600D7
:1043A000930707008325810003960E0003D70800BA
:1043B0002320F5008327C1001303F3FFB3F5650045
:1043C0001308F8FF2322D5002324B5002326F50087
:1043D00023280501B707010003280E009386F7FF85
:1043E0001307F7FF83D72800931506013377D7000B
:1043F00003962E003367B700232CE500232A05011E
:1044000083254E009387F7FFB3F7D70013170601F4
:10441000B3E7E700232EB5002320F50213010101C5
:104420006780000037470000B7C7000013078728E0
:10443000938787286FF09FF6032E0100639005088D
:10444000B785000013038037938585376314060012
:104450009305030003560800039308009387F7FFB2
:104460002322D5002324E5002326F5002320B500D0
:10447000B707010083250E001387F7FF1306F6FF29
:10448000835728003376E600131303018396280030
:10449000336666002328B500232AC50003264E0094
:1044A0009387F7FFB3F7E70013970601B3E7E70039
:1044B000232CC500232EF500678000003743000041
:1044C000B7C5000013038337938585376FF01FF856
:1044D0009395050193E585002320B50067800000D2
:1044E0009395050193E585102320B50067800000B2
:1044F000130101FC23201101930808001388070011
:10450000930707001387060093060600138605002D
:10451000930505001305C101232E1102EFF0DF9F63
:1045200017F60F000326066A17F70F000327C76662
:10453000832706008326070063E0D7068325C10191
:104540001387C7FF23A0B7006362D70C832501023E
:10455000138787FF23AEB7FE6366D7068325410224
:10456000138747FF23ACB7FE636CD7068325810210
:10457000138707FF23AAB7FE6360D7088326C1020B
:104580001387C7FE23A8D7FE8320C1032320E6009C
:10459000130101046780000097F70F0083A7C7523B
:1045A0001307100023A0E70023A0E70023A0E700E3
:1045B0008320C10323A0E70023A0E7001301010427
:1045C0006780000097F70F0083A70750930610003D
:1045D00023A0D70023A0D70023A0D7006FF0DFFAD5
:1045E00097F70F0083A7474E9306100023A0D7002C
:1045F00023A0D7006FF05FF997F70F0083A7C74C90
:104600009306100023A0D7006FF01FF897F70F0054
:1046100083A7874B9306100023A0D70023A0D700C1
:1046200023A0D70023A0D7006FF01FF6130101FAD3
:1046300023201101930808001388070083274106EF
:1046400013030700138706002324F10083270106C4
:1046500093060600138605002322F100930505004A
:10466000930703001305C102232E1104EFF05F939B
:1046700017F60F000326065517F70F000327C7513B
:10468000832706000327070063E0E70A8325C102AA
:104690009386C7FF23A0B70063E2E60E83250103DC
:1046A000938687FF23AEB7FE63E4E61883254103B4
:1046B000938647FF23ACB7FE63E2E61683258103AA
:1046C000938607FF23AAB7FE63E0E6148325C103A0
:1046D0009386C7FE23A8B7FE63E6E6108325010490
:1046E000938687FE23A6B7FE63EEE60C832541047E
:1046F000938647FE23A4B7FE63E8E60A8325810478
:10470000938607FE23A2B7FE63E4E6080327C104ED
:104710009387C7FD23A2E7008320C1052320F6006D
:10472000130101066780000017F70F000327C73940
:10473000930610002320D700930500009306100075
:104740002320D700930610002320D70093061000E3
:104750002320D700930610002320D7002320D70062
:104760002320D7002320D7002320D700E39605FA83
:104770008320C105130101066780000093870600AE
:104780009305100017F70F00032707346FF01FFB86
:1047900097F70F0083A747331307100023A0E70004
:1047A000938706006FF05FF797F70F0083A7C73175
:1047B0001307100023A0E70023A0E700938706005B
:1047C0006FF09FF597F70F0083A7073013071000CE
:1047D00023A0E70023A0E70023A0E70093870600BB
:1047E0006FF09FF397F70F0083A7072E13071000B2
:1047F00023A0E70023A0E70023A0E70023A0E70011
:10480000938706006FF05FF1938706009305100011
:1048100017F70F000327472B6FF0DFF3938706008E
:104820009305100017F70F000327072A6FF01FF2F8
:10483000938706009305100017F70F000327C7287A
:104840006FF05FF0130101FC2320110193080800B1
:1048500003280104232E11022322010113880700DB
:1048600093070700138706009306060013860500CA
:104870009305050013050101EFF08FFE17F60F00F9
:104880000326463417F70F00032707318327060056
:104890000327070063E8E708832501019386C7FF24
:1048A00023A0B70063E6E60C83254101938687FFCA
:1048B00023AEB7FE63EEE61483258101938647FF9E
:1048C00023ACB7FE63ECE6128325C101938607FF94
:1048D00023AAB7FE63E2E610832501029386C7FE92
:1048E00023A8B7FE63EAE60C83254102938687FE80
:1048F00023A6B7FE63E4E60A83258102938647FE7A
:1049000023A4B7FE63E0E6080327C102938707FEEE
:1049100023A2E7008320C1032320F6001301010432
:104920006780000017F70F000327071A930610008F
:104930002320D70093050000930610002320D70002
:10494000930610002320D700930610002320D700E1
:104950002320D7002320D7002320D7002320D700EF
:10496000E39A05FA8320C103130101046780000064
:10497000938706009305100017F70F000327C7144D
:104980006FF09FFB97F70F0083A707141307100022
:1049900023A0E700938706006FF0DFF797F70F007B
:1049A00083A787121307100023A0E70023A0E700C6
:1049B000938706006FF01FF697F70F0083A7C710C5
:1049C0001307100023A0E70023A0E70023A0E700BF
:1049D000938706006FF01FF497F70F0083A7C70EA9
:1049E0001307100023A0E70023A0E70023A0E7009F
:1049F00023A0E700938706006FF0DFF1938706009E
:104A00009305100017F70F000327070C6FF0DFF373
:104A1000938706009305100017F70F000327C70AB6
:104A20006FF01FF2130101FE930505001305C1008D
:104A3000232E1100EFF04FEC17F70F000327871814
:104A400097F60F0083A646158327070083A6060066
:104A500063F0D7028320C10197F70F0083A7C70631
:104A60001307100023A0E700130101026780000074
:104A70000326C1008320C1019386C7FF23A0C7007E
:104A80002320D7001301010267800000130101FEFB
:104A9000930505001305C100232E1100EFF0CFE6AA
:104AA00017F70F000327071297F60F0083A6C60E0D
:104AB0008327070083A6060063F0D7028320C10185
:104AC00097F70F0083A747001307100023A0E70004
:104AD00013010102678000000326C1008320C10189
:104AE0009386C7FF23A0C7002320D700130101022C
:104AF00067800000130101FD930808001388070078
:104B00009307070013870600930606001386050027
:104B1000930505001305410023261102EFF0CFDFB6
:104B200017F60F000326060A17F70F000327C7061C
:104B3000832706000327070063E0E7088325410079
:104B40009386C7FF23A0B70063EAE60A83258100A6
:104B5000938687FF23AEB7FE63E8E6128325C10084
:104B6000938647FF23ACB7FE63EEE60E8325010173
:104B7000938607FF23AAB7FE63E6E60C832541016F
:104B80009386C7FE23A8B7FE63E0E60A832581016A
:104B9000938687FE23A6B7FE63ECE6060327C101D2
:104BA000938747FE23A2E7008320C1022320F6005B
:104BB000130101036780000017F70F000327C7F0F8
:104BC000930610002320D7009305000093061000E1
:104BD0002320D700930610002320D7002320D700DE
:104BE0002320D7002320D7002320D700E39E05FAF7
:104BF0008320C10213010103678000009387060030
:104C00009305100017F70F00032707EC6FF01FFC48
:104C100097F70F0083A747EB1307100023A0E700C7
:104C2000938706006FF05FF897F70F0083A7C7E937
:104C30001307100023A0E70023A0E70093870600D6
:104C40006FF09FF697F70F0083A707E81307100090
:104C500023A0E70023A0E70023A0E7009387060036
:104C60006FF09FF497F70F0083A707E61307100074
:104C700023A0E70023A0E70023A0E70023A0E7008C
:104C8000938706006FF05FF293870600930510008C
:104C900017F70F00032747E36FF0DFF3130101FC61
:104CA00023201101930808001388070093070700C9
:104CB000138706009306060013860500930505007A
:104CC00013058101232E1102EFF0CFCF17F60F004D
:104CD000032646EF17F70F00032707EC832706008C
:104CE0000327070063E8E706832581019386C7FF52
:104CF00023A0B70063EAE6108325C101938687FFEE
:104D000023AEB7FE63E6E60883250102938647FFDC
:104D100023ACB7FE63E0E60A83254102938607FFD2
:104D200023AAB7FE63E8E60A832581029386C7FEBD
:104D300023A8B7FE63EEE60A0327C102938787FE26
:104D400023A2E7008320C1032320F60013010104FE
:104D50006780000017F70F00032707D7930610009E
:104D60002320D70093050000930610002320D700CE
:104D70002320D7002320D7002320D7002320D700CB
:104D8000E39205FC8320C103130101046780000046
:104D900097F70F0083A747D31307100023A0E7005E
:104DA00023A0E70023A0E70023A0E70093870600E5
:104DB0006FF05FF997F70F0083A707D11307100073
:104DC00023A0E70023A0E70023A0E70093870600C5
:104DD0006FF05FF797F70F0083A707CF1307100057
:104DE00023A0E70023A0E700938706006FF09FF55C
:104DF00097F70F0083A747CD1307100023A0E70004
:104E0000938706006FF01FF4938706009305100048
:104E100017F70F00032747CB6FF01FF5130101FCB5
:104E2000232011019308080003280104232E1102F6
:104E30002322010113880700930707001387060048
:104E4000930606001386050093050500130501016E
:104E5000EFF08FC317F60F000326C6D617F70F0023
:104E6000032787D3832706000327070063E8E708A3
:104E7000832501019386C7FF23A0B70063E6E60CF4
:104E800083254101938687FF23AEB7FE63EEE614C8
:104E900083258101938647FF23ACB7FE63ECE612BE
:104EA0008325C101938607FF23AAB7FE63E2E610BC
:104EB000832501029386C7FE23A8B7FE63EAE60CAA
:104EC00083254102938687FE23A6B7FE63E4E60AA4
:104ED00083258102938647FE23A4B7FE63E0E6089C
:104EE0000327C102938707FE23A2E7008320C103A3
:104EF0002320F600130101046780000017F70F005C
:104F0000032787BC930610002320D70093050000D9
:104F1000930610002320D700930610002320D7000B
:104F2000930610002320D7002320D7002320D7008A
:104F30002320D7002320D700E39A05FA8320C1035A
:104F40001301010467800000938706009305100099
:104F500017F70F00032747B76FF09FFB97F70F0076
:104F600083A787B61307100023A0E70093870600E6
:104F70006FF0DFF797F70F0083A707B5130710004F
:104F800023A0E70023A0E700938706006FF01FF639
:104F900097F70F0083A747B31307100023A0E7007C
:104FA00023A0E70023A0E700938706006FF01FF41B
:104FB00097F70F0083A747B11307100023A0E7005E
:104FC00023A0E70023A0E70023A0E70093870600C3
:104FD0006FF0DFF1938706009305100017F70F00BD
:104FE000032787AE6FF0DFF3938706009305100069
:104FF00017F70F00032747AD6FF01FF2130101FAF7
:105000002320110193080800138807008327010655
:1050100013030700138706002322F10093060600FE
:105020009307030013860500930505001305C102CD
:10503000232E1104EFF04FB317F60F00032686B8A6
:1050400017F70F00032747B583270600032707003C
:1050500063E0E70A8325C1029386C7FF23A0B70058
:1050600063E2E60E83250103938687FF23AEB7FE36
:1050700063E4E61883254103938647FF23ACB7FE1C
:1050800063E2E61683258103938607FF23AAB7FE12
:1050900063E0E6148325C1039386C7FE23A8B7FE09
:1050A00063E6E61083250104938687FE23A6B7FEF8
:1050B00063EEE60C83254104938647FE23A4B7FEE6
:1050C00063E8E60A83258104938607FE23A2B7FEE0
:1050D00063E4E6080327C1049387C7FD23A2E70022
:1050E0008320C1052320F60013010106678000001C
:1050F00017F70F000327479D930610002320D700C2
:1051000093050000930610002320D700930610009B
:105110002320D700930610002320D7009306100009
:105120002320D7002320D7002320D7002320D70017
:105130002320D700E39605FA8320C1051301010659
:1051400067800000938706009305100017F70F0093
:10515000032787976FF01FFB97F70F0083A7C7966A
:105160001307100023A0E700938706006FF05FF796
:1051700097F70F0083A747951307100023A0E700B8
:1051800023A0E700938706006FF09FF597F70F00C5
:1051900083A787931307100023A0E70023A0E7004D
:1051A00023A0E700938706006FF09FF397F70F00A7
:1051B00083A787911307100023A0E70023A0E7002F
:1051C00023A0E70023A0E700938706006FF05FF1BC
:1051D000938706009305100017F70F000327C78E6B
:1051E0006FF0DFF3938706009305100017F70F00A9
:1051F0000327878D6FF01FF2938706009305100039
:1052000017F70F000327478C6FF05FF0130101FCC5
:105210002320110193080800138807009307070053
:105220001387060093060600138605009305050004
:1052300013050101232E1102EFF00FA017F60F0046
:105240000326469817F70F000327079583270600C4
:105250000327070063E8E708832501019386C7FF5A
:1052600023A0B70063E6E60C83254101938687FF00
:1052700023AEB7FE63EEE61483258101938647FFD4
:1052800023ACB7FE63ECE6128325C101938607FFCA
:1052900023AAB7FE63E2E610832501029386C7FEC8
:1052A00023A8B7FE63EAE60C83254102938687FEB6
:1052B00023A6B7FE63E4E60A83258102938647FEB0
:1052C00023A4B7FE63E0E6080327C102938707FE25
:1052D00023A2E7008320C1032320F6001301010469
:1052E0006780000017E70F000327077E9306100072
:1052F0002320D70093050000930610002320D70039
:10530000930610002320D700930610002320D70017
:105310002320D7002320D7002320D7002320D70025
:10532000E39A05FA8320C10313010104678000009A
:10533000938706009305100017E70F000327C7782F
:105340006FF09FFB97E70F0083A707781307100004
:1053500023A0E700938706006FF0DFF797E70F00C1
:1053600083A787761307100023A0E70023A0E70098
:10537000938706006FF01FF697E70F0083A7C774A7
:105380001307100023A0E70023A0E70023A0E700F5
:10539000938706006FF01FF497E70F0083A7C7728B
:1053A0001307100023A0E70023A0E70023A0E700D5
:1053B00023A0E700938706006FF0DFF193870600D4
:1053C0009305100017E70F00032707706FF0DFF356
:1053D000938706009305100017E70F000327C76E99
:1053E0006FF01FF2130101FE930505001305C100C4
:1053F000232E1100EFF0CF8D17E70F000327877CD6
:1054000097E60F0083A646798327070083A6060048
:1054100063F0D7028320C10197E70F0083A7C76A13
:105420001307100023A0E7001301010267800000AA
:105430000326C1008320C1019386C7FF23A0C700B4
:105440002320D7001301010267800000130101FE31
:10545000930505001305C100232E1100EFF04F88BE
:1054600017E70F000327077697E60F0083A6C6729B
:105470008327070083A6060063F0D7028320C101BB
:1054800097E70F0083A747641307100023A0E700E6
:1054900013010102678000000326C1008320C101BF
:1054A0009386C7FF23A0C7002320D7001301010262
:1054B0006780000097E70F0083A7C76783A70700EF
:1054C000130101FF2326110003A7C71503A68705B3
:1054D00023248100930647019396260013071700A3
:1054E00023AEE714B387D70023A6C7001305C00077
:1054F000EF504E1A97E70F0083A7C76723A0A700B6
:10550000630205028320C10003248100B707010064
:105510002320F500232205002324050013010101A7
:1055200067800000171510001305850DEF30552F0B
:1055300017071000130707089306E030171610002E
:105540001306D610930510001715100013058511CA
:10555000EF30D51317E40F000324445983270400C8
:1055600003A58700EF6015718327040003A587005A
:10557000EF6055701305F0FFEF30550097E70F000F
:1055800083A7475B03A707008326C71593873601C8
:1055900093972700B307F70083A7C7009386F6FF0A
:1055A000232ED714232CF7046780000067800000A7
:1055B0006780000067800000130101F92324810641
:1055C000232611062322910623202107232E3105AD
:1055D000232C4105232A5105232861052326710523
:1055E00023248105232291052320A105232EB10325
:1055F0001304010717E30F000323435003230300A1
:10560000631C033E17E90F000329C952138C0700DE
:1056100083270900930B0700930A060003A7C71509
:1056200003A68705138B0600930647019396260071
:105630001307170023AEE714B387D70023A6C700CC
:105640009309050013054001138A0500930C080017
:10565000138D0800EF20450D93880C0013080C00F3
:1056600093870B0013070B0093860A0013060A00AA
:1056700093850900930D05002320A1011305C4FAA9
:10568000EFE09F8917E70F0003274755832707009F
:105690009305100017E80F000328085197E80F0042
:1056A00083A8C85117E50F000325C54D832E0800B8
:1056B00003AF0800832F050017EE0F00032E8E5056
:1056C0002320B80023A0B8002320B50093040100D4
:1056D00083260E0017E60F000326064C6396071A72
:1056E00083270600938646FF9305200023A0B7007A
:1056F0009305100023A2B70023A4B70023A6B70088
:10570000832507000323070093952500B387B7007F
:105710002320F6006304030063E4F6300323C4FA95
:10572000B75501009385454023A0B70023A2670029
:1057300023A4070023A6B70183250700032307003E
:1057400093824D0093952500B387B700630A030049
:105750009305100017E30F000323033763E2F616E7
:10576000032304FBB75501009385454023A0B700F0
:1057700023A2670023A4070023A657008325070060
:105780000323070093828D0093952500B387B7000C
:105790006304030063EEF626032344FBB7550100C0
:1057A0009385454023A0B70023A2670023A40700E8
:1057B00023A6570083250700032307009382CD000B
:1057C00093952500B387B7006304030063EAF622CC
:1057D000032384FBB75501009385454023A0B70000
:1057E00023A2670023A4070023A6570083250700F0
:1057F0000323070093820D0193952500B387B7001B
:105800006304030063E4F6228325C4FBB75601005A
:105810009386464023A0D70023A2B70023A4070005
:1058200023A657008326070093962600B387D70048
:1058300097E60F0083A6063483A50600832607009B
:105840002320F6002320D80123A0E8012320F5011E
:1058500083A50500638C060C83260E00938646FF05
:1058600063F6F60C9306100017E30F000323C3251D
:105870002320D30083260700638A060E93071000B7
:105880002320F3006F00001183270600938646FF54
:10589000E3FCF6E417E30F00032303232320B30004
:1058A00083250700E38C05E6930510002320B30051
:1058B0008325070093824D00E38405EA93050000E9
:1058C00093021000232053008323070093828D004E
:1058D000E38403EC9302100023205300832307008A
:1058E0009382CD00E38603EE930610002320D300BD
:1058F0008323070093820D01E38803F02320D30064
:10590000E39805F297E60F0083A6C62683A5060056
:10591000832607002320D80123A0E8012320F501D6
:105920008327060083A50500E39806F2930620006E
:1059300023A0D70023A2D70123A4E70123A6F701C0
:10594000832607000325070093962600B387D70018
:105950002320F600630C050083260E0017E30F00DA
:1059600003238316938646FFE3EAF6F0B7060200A8
:1059700023A0D70023A2B70023A4B70193064001B8
:1059800023A6D7000327070013172700B387E700D4
:105990002320F600032709008326C71593873601C5
:1059A00093972700B307F70083A7C7009386F6FFF6
:1059B000232ED714232CF704138104008320C1065F
:1059C0000324810683244106032901068329C10596
:1059D000032A8105832A4105032B0105832BC1047A
:1059E000032C8104832C4104032D0104832DC10366
:1059F0001301010767800000EFE09FAF6FF01FFC0D
:105A00009305100017E30F000323030C6FF0DFED85
:105A10009305100017E30F000323030B6FF09FEBB8
:105A200017E30F000323430A6FF01FE817E30F008B
:105A300003238309930610002320D3006FF05FDF58
:105A4000130101F8232C8106232E1106232A910627
:105A50002328210723263107232441072322510726
:105A600023206107232E7105232C8105232A91050C
:105A70001304010817E30F00032343080323030063
:105A8000232CD4F8232EE4F86314035217E90F00F3
:105A90000329490A138B070083270900930A06008C
:105AA0009309050003A7C71583A6870513054002C0
:105AB00013064701131626001307170023AEE71439
:105AC000B387C70023A6D700138A0500930B0800ED
:105AD000138C0800EF1055458327440093880B0072
