:1000000017C11F001301C1FFB7D22F009382420F07
:1000100083A2020063880200B70200809382A200DC
:10002000232250009302100037D32F001303430FF5
:100030002320530097F10F009381815917B51000C9
:10004000130545D817D610001306369C3306A64074
:1000500093050000EF00400917550500130545669C
:100060006308050017650500130505DEEF500565FB
:10007000EF20C52D03250100930541001306000064
:10008000EF2045046F200529130101FF23202101E2
:10009000371900002324810003240981232611003D
:1000A0002322910013050400EF1040506310050255
:1000B000130504008320C100032481008324410030
:1000C000032901001301010167800000930405006A
:1000D0009305050013850100EF20C53413040000CB
:1000E000232299806FF0DFFC1303F0001307050053
:1000F000637EC3029377F7006390070A6392050853
:10010000937606FF1376F600B386E6002320B70049
:100110002322B7002324B7002326B70013070701C3
:10012000E366D7FE6314060067800000B306C34091
:100130009396260097020000B38656006780C6009B
:100140002307B700A306B7002306B700A305B7002F
:100150002305B700A304B7002304B700A303B70027
:100160002303B700A302B7002302B700A301B7001F
:100170002301B700A300B7002300B7006780000089
:1001800093F5F50F93968500B3E5D5009396050199
:10019000B3E5D5006FF0DFF69396270097020000D5
:1001A000B386560093820000E78006FA938002002F
:1001B000938707FF3307F7403306F600E378C3F66B
:1001C0006FF0DFF33367B5009303F0FF1377370069
:1001D00063100710B7877F7F9387F7F70326050023
:1001E00083A60500B372F6003363F600B382F20013
:1001F000B3E26200639272106316D60803264500CC
:1002000083A64500B372F6003363F600B382F200B2
:10021000B3E26200639E720C6316D6060326850065
:1002200083A68500B372F6003363F600B382F20052
:10023000B3E262006398720C6316D6040326C5000D
:1002400083A6C500B372F6003363F600B382F200F2
:10025000B3E262006392720C6316D60203260501B4
:1002600083A60501B372F6003363F600B382F20091
:10027000B3E26200639C720A130545019385450150
:10028000E30ED6F41317060193970601631EF700D9
:100290001357060193D706013305F7409375F50F01
:1002A00063900502678000001357070193D7070189
:1002B0003305F7409375F50F6394050067800000E0
:1002C0001377F70F93F7F70F3305F74067800000B8
:1002D0000346050083C60500130515009385150028
:1002E0006314D600E31606FE3305D640678000008F
:1002F0001305450093854500E31CD6FC130500005B
:10030000678000001305850093858500E312D6FC05
:1003100013050000678000001305C5009385C50024
:10032000E318D6FA130500006780000013050501E5
:1003300093850501E31ED6F81305000067800000D1
:10034000130605001305000093F6150063840600EC
:100350003305C50093D5150013161600E39605FE68
:10036000678000006340050663C605061386050026
:10037000930505001305F0FF630C060293061000B9
:10038000637AB6006358C0001316160093961600E1
:10039000E36AB6FE1305000063E6C500B385C540F9
:1003A0003365D50093D6160013561600E39606FE65
:1003B0006780000093820000EFF05FFB138505006B
:1003C000678002003305A04063D80500B305B04044
:1003D0006FF0DFF9B305B04093820000EFF01FF932
:1003E0003305A040678002009382000063CA0500C5
:1003F000634C0500EFF09FF713850500678002004E
:10040000B305B040E35805FE3305A040EFF01FF6FA
:100410003305B04067800200130101FE232A9100DA
:1004200097D40F0083A484E883A70400232C8100C1
:10043000232631011304C002938905009385170018
:10044000B38585022328210117D90F00032909DB71
:1004500023244101130A050003250900232E11005E
:10046000EF305E5B83A704002320A9001386F9FF09
:10047000B307F4023306CA0093050A00930610007E
:100480003305F50013054500EF10406083A7040015
:10049000032709008320C101338487029387170053
:1004A000032901018329C100032A81003304870045
:1004B000232004000324810123A0F40083244101AC
:1004C0001301010267800000130101FF2322910044
:1004D00097D40F0083A484DD83A504002324810026
:1004E0001304C00293851500B385850223202101E2
:1004F00017D90F00032989D00325090023261100ED
:10050000EF305E5183A704002320A9008320C1009F
:100510003384870213071000938717000329010013
:1005200033058500032481002320E50023A0F40087
:100530008324410013010101678000009307C0027A
:100540003305F50297D70F0083A747CB83A7070092
:100550003385A700130545006F10C07D9307C002C7
:100560003305F50297D70F0083A747C983A7070074
:100570003385A700130545006F10C07E130101FCF1
:10058000232C81021304C00233048502232A910222
:10059000232821032326310323244103232251034B
:1005A00023206103232E7101232C8101232A910131
:1005B000232E1102138C0500130B0600938A0600EC
:1005C000130A0700930CC10097D90F0083A909C330
:1005D0001309F0FF9304200097FB0F00938B4B0D42
:1005E00003A5090013070A0093860A003305850056
:1005F00013060B0093850C001305450023262101EB
:10060000EF10901C630C0500630E95009305050028
:1006100013850B00EF1015616FF09FFC8327C1005D
:10062000E39087FD8320C1030324810383244103D6
:10063000032901038329C102032A8102832A41027B
:10064000032B0102832BC101032C8101832C410167
:100650001301010467800000130101FE232C8100B7
:10066000232A91002328210123263101232441013B
:1006700023225101232E1100930A0500138A05003D
:100680009309060013890600930407001304200051
:1006900013870400930609001386090093050A00D6
:1006A00013850A00EFF09FEDE30485FE8320C1016E
:1006B0000324810183244101032901018329C1000D
:1006C000032A8100832A4100130101026780000090
:1006D0009307C0023305F50297D70F0083A707B22F
:1006E00083A707003385A700130545006F10500747
:1006F000130101FE9306000013060000930500009D
:10070000232A9100232E1100232C8100930405003D
:10071000EFF01FFC631E05021306C10013850400E1
:100720001307000093060000930510002326010024
:10073000EFF09FF213040500130504008320C101AC
:100740000324810183244101130101026780000019
:1007500013040500130605009385040017F50F0028
:100760001305C5F9EF10154C130504008320C101D2
:1007700003248101832441011301010267800000E9
:100780009307C0023305F50297D70F0083A707A789
:1007900083A707003385A700130545006F10805F0E
:1007A0009307000F63EEC722130101ED232E3111D1
:1007B00097D90F0083A989AF2322911283A409003E
:1007C000232021132328611193D7F44123261112EA
:1007D00023248112232C4111232A51112326711124
:1007E0002324811123229111232C9100232EF10027
:1007F000130B06001309050063060600130501022A
:10080000EF90857F37050080130B0B013369A9003A
:10081000635E9012930B000013040000130A0000A3
:1008200097DA0F0083AA8A9D130C010183A70A009F
:100830001307140023288100B387770183A70700DB
:10084000232A4101B3368700638807141304070085
:10085000338A4601938BCB02E34A97FC6358900E90
:10086000930B000013040000130A0000930C010115
:1008700017FC0F00130C8CEB6F00C00193071400E2
:1008800033B78700330A470113840700938BCB02E9
:1008900063D6970483A70A0023288100232A4101F5
:1008A000B387770183A70700E38A07FC13860C0050
:1008B00093050B0013050900EF10D02C6312050CF3
:1008C00083A409009307140033B78700330A470154
:1008D00013840700938BCB02E3CE97FA63589006FC
:1008E000130A000013040000130C8100130BC10055
:1008F00097FB0F00938B8BE36F00C0001304140071
:100900006356940483A70A00B387470183A70700AF
:10091000130ACA02E39407FE9305090013070C00AB
:100920009306400013060B00130504002324010066
:1009300023260100EFF05FD283258100639805082C
:1009400083A4090013041400E34E94FA8320C11217
:100950000324811283244112032901128329C11126
:10096000032A8111832A4111032B0111832BC1100A
:10097000032C8110832C41101301011367800000A8
:10098000930505001306040013050C00EF109529CC
:1009900083A409006FF01FF31305040093060C00F5
:1009A00013060B0093050900EFF09FD283A4090002
:1009B0009307140033B78700330A470113840700F5
:1009C000938BCB02E3C497E66FF05FE91306040054
:1009D00013850B00EF10152583A409006FF09FF617
:1009E00067800000130101FF23248100232291006E
:1009F0001304050023202101232611008327C400AE
:100A00000325850017D70F0003278782832407005B
:100A10003305F5001315350013890500EF00452A4D
:100A200023A6A4160328840097D60F0083A6068B5E
:100A300083A50600131838003308050123A80417FE
:100A4000032684008327C400B307F60013973700FA
:100A5000638E051697D70F0083A7878683A80700A4
:100A600097D50F0083A5458383A70500938848FF8A
:100A700063F4F8161303100097C80F0083A8487496
:100A800023A0680003A30600631E03183786000036
:100A90001306160023A0C70023A2070023A4A70063
:100AA00023A6E70003A706000326840013172700E8
:100AB000B387E70023A0F500930600001303401B53
:100AC0009308C0046356C0060327C4028327440367
:100AD0003307E400B307F400636CD6149395260043
:100AE0003307B70003260700B387B70003A7040145
:100AF0003306660283A7070093953600B305B50059
:100B00001307F7FF3377B70093861600B385F80213
:100B10003306C4008327C614B307F400B387B700B5
:100B200023AEE70223A0070403268400E3CEC6F821
:100B30008325C400130600009308401B1305C0045E
:100B4000635AB0060327C40283274403B306E400B4
:100B50003307F40063EEC50C8327840083A50401EA
:100B600013133600B307F60093972700B386F600F9
:100B700083A60600B307F70083A70700B386160312
:100B80001387F5FFB30568003377B7001306160027
:100B9000B305F502B306D40083A7C614B307F40067
:100BA000B387B70023AEE70223A007048325C40060
:100BB000E34AB6F88320C100032481008324410066
:100BC00003290100130101016780000097C50F0090
:100BD00083A5856C83A705003706050023A0C70001
:100BE00023A2270123A4070023A6070003A60600CB
:100BF00083A8060013162600B387C70023A0F500BC
:100C0000E38608E817C60F000326866B0326060056
:100C1000130646FFE37CF6E60326840097C80F0020
:100C200083A8085A9307100023A0F8006FF0DFE8AC
:100C3000232E000273001000130101FB2324810402
:100C4000232291032326110423229104232021052A
:100C5000232E3103232C4103232A5103232861032C
:100C600023267103232481032320A103232EB10112
:100C70008327050113040500938C0500639A072E52
:100C8000639A0546832A040483258404B30A540125
:100C9000B385BA0093870A0223A4FA0023A60A00A8
:100CA00023ACBA0023AE0A0013858A00938B0A0096
:100CB000EF00850F17C90F00032989578327090003
:100CC0001305040003A7C71503A6870583A5871688
:100CD00093064701939626001307170023AEE714E7
:100CE000B387D70023A6C700EFF0DFCFEF80003B2C
:100CF0008327C405639E07328327C403635EF00421
:100D0000130A840F93090000130B0000130D010058
:100D100017FC0F00130C4CAD639E0C14130600015E
:100D200093050D003705008023243101232661013E
:100D30002320810023220100EFF09FA60327C40394
:100D400093871900B3B63701338B66019389070087
:100D5000130A4A1BE3C2E7FC8324C4020326C4002F
:100D6000B3049400630E0616130A0405930D0000E5
:100D70009309401B130BC00497FC0F00938C8CA7A6
:100D800017FC0F00130CCCA86F00C0060327440308
:100D9000B307F400B387E70083A70700B307FB029C
:100DA000330DFD00032709008326CD0303250D0421
:100DB000032607016362D63683274D0003288D0082
:100DC0000326CD0083250D01B38707030327070002
:100DD0003307D700032707003305A700B387C702EF
:100DE000B385B702EF80002B0326C400938D1D004E
:100DF00063F8CD0E83278400B387FD009397270007
:100E00003387F400032707003387E9023307EA003A
:100E10008326C700E38C06FC032DC70F03270401BC
:100E2000330DA401E30407F693850D0013850C0030
:100E3000EF10455F832784000327440313050C004C
:100E4000B387FD0093972700B307F400B387E7004B
:100E500083A70700B307FB02330DFD0003270D0135
:100E60008326CD0003268D0083254D00EF10855B82
:100E70006FF05FF393048AF5930510001385040067
:100E8000EF10900A130605009385090017F50F006F
:100E90001305C594EF10055983278AFF03270A001D
:100EA00093040000B30DF4006356E00213850D00B7
:100EB000EF10005E130605009385040013050C0077
:100EC000EF10455603270A0093841400938DCD0F2D
:100ED000E3CEE4FC1305A000EF308E316FF01FE489
:100EE000EF80001C17C70F000327473F8327070029
:100EF0006396070897C70F0083A7073A83A70700E1
:100F000083A70700032709008326C71593873601A7
:100F100093972700B307F70083A7C7009386F6FFD0
:100F2000232ED714232CF70483270401638A070A8E
:100F30008320C10403248104832441040329010480
:100F40008329C103032A8103832A4103032B01035D
:100F5000832BC102032C8102832C4102032D010249
:100F6000832DC101130500001301010567800000F6
:100F7000930A0000930B00006FF0DFD303260700F5
:100F800097C60F0083A6463183A7060063060602B4
:100F900017C60F000326C63203260600130646FFB7
:100FA000637CF60097C70F0083A787211307100003
:100FB00023A0E7006FF01FF51306300023A0C70041
:100FC00023A2070023A4070023A607000327070086
:100FD00013172700B387E70023A0F6006FF09FF2F6
:100FE00003A58B0013868B0193850B01EFF09462B0
:100FF000631A051083A78B01B38A57412324540534
:10100000B70706002328F40083A68B00930700FF90
:1010100033878740B3878640232AF40083A70B01D8
:10102000232E0400B387E700232CF4006FF05FF059
:101030008329C41483270414B3093401E35EF0CA7E
:101040000327090083A5C90303A809040326070190
:101050006366B60C8327070083A6C9019304C00406
:10106000B387B70003A50700130A0000B384344117
:1010700033050501635CD00693962600B3863601DE
:10108000938709009305100003A747006354E0000D
:10109000B385E50293874700E398F6FEEF70507F33
:1010A00083270414130A1A00E358FAC48327C414CC
:1010B00003270900B3863401B307F400B387D700D0
:1010C00083A5C7030326070103A807049389C9045E
:1010D0006366B6048327070083A6C901B387B700F8
:1010E00003A5070033050501E348D0F89305100078
:1010F0006FF0DFFA17E50F001305C565EF10C54B5C
:101100006FF05FB89305050017E50F001305C57272
:10111000EF1045316FF0DFEE9385060017E50F0005
:101120001305C565EF10053097C70F0083A7470B60
:1011300083A7070003A58700EF40550D1305F0FFB7
:10114000EF10451D0327C502832745038326C500ED
:1011500017C60F000326C60D032606003307E50059
:10116000B307F50063EEB60483268500B385D5008A
:10117000939525003307B70003270700B387B7000F
:1011800083A507009307401BB307F7029306C0042B
:1011900003270600B386B602B307F50083A7C7147A
:1011A0003305F5003305D5008326C50383270504E1
:1011B0003307D700032507003305F50067800000DB
:1011C0008327C003730010000327C502832745034C
:1011D0008326850017C60F00032686050328060010
:1011E0003307E500B307F50063EAB60493952500DD
:1011F0003307B700032707009306401BB387B700E8
:101200003307D70283A707001306C004832608000C
:101210003306F602B307E50083A7C7143305F500CC
:101220003305C5000327C50383270504B386E600FD
:1012300003A506003305F500678000008327C0037F
:10124000730010000327C50283274503832685000A
:101250003307E500B307F50063E2B6049395250074
:101260003307B700032707009306401BB387B70077
:101270003307D70283A707009306C004B386F6029C
:10128000B307E50083A7C7143305F5003305D50080
:101290006306050003250500678000001305400074
:1012A000678000000327C502832745038326C50006
:1012B0003307E500B307F50063E6B604832685002F
:1012C000B385D500939525003307B70003270700A2
:1012D000B387B70083A607009307401BB307F70245
:1012E0001307C0043307D702B307F50083A7C71459
:1012F0003305F5003305E500630605000325050009
:101300006780000013054000678000000327C502C6
:1013100083274503832685003307E500B307F500DF
:1013200063E4B606939525003307B700032707004B
:101330009306401BB387B7003307D70283A6070085
:101340009307C004B386D7023307E5008327C71489
:10135000B307F500B387D7006388070283A6C701E8
:101360006358D00293962600B386D7001305100069
:1013700003A74700938747006354E0003305E50265
:10138000E398F6FE678000001305F0FF6780000019
:1013900013051000678000000327C502832745035B
:1013A0008326C5003307E500B307F50063E8B606FA
:1013B00083268500B385D500939525003307B700B4
:1013C00003270700B387B70083A607009307401BD6
:1013D0003307F7029307C004B386D7023307E5004B
:1013E0008327C714B307F500B387D70063880702C4
:1013F00083A6C7016358D00293962600B386D70010
:101400001305100003A74700938747006354E000CB
:101410003305E502E398F6FE678000001305F0FF50
:101420006780000013051000678000000327C502D5
:10143000832745038326C5003307E500B307F5007E
:1014400063E4B60483268500B385D5009395250013
:101450003307B70003270700B387B7009306401B85
:1014600083A707003307D7029306C004B387D702C8
:101470003307E5000327C7143385A7003305E500CC
:101480000325850267800000832780027300100017
:101490000327C50283274503832685003307E5001C
:1014A000B307F50063E0B604939525003307B70052
:1014B00003270700B387B7009306401B3307D70203
:1014C00083A707009306C004B387D7023307E5005C
:1014D0000327C7143385A7003305E50003258502DC
:1014E0006780000083278002730010000327C50275
:1014F000832745038326C5003307E500B307F500BE
:1015000063E4B60483268500B385D5009395250052
:101510003307B70003270700B387B7009306401BC4
:1015200083A707003307D7029306C004B387D70207
:101530003307E5000327C7143385A7003305E5000B
:101540000325050367800000832700037300100054
:101550000327C50283274503832685003307E5005B
:10156000B307F50063E0B604939525003307B70091
:1015700003270700B387B7009306401B3307D70242
:1015800083A707009306C004B387D7023307E5009B
:101590000327C7143385A7003305E500032505039A
:1015A0006780000083270003730010000327C50431
:1015B000B717BE1A9387D71E6312F70A130101FDEE
:1015C00023248102232611022322910223202103B6
:1015D000232E3101232C4101232A510123286101AB
:1015E0002326710123248101832505003776A06716
:1015F000130686C1130405006398C532B7170000AF
:1016000083A78782032745001305900093D787009F
:1016100093F7F70F631CF700832744130327841302
:1016200013050000B3E7E700638E07028320C102C1
:101630000324810283244102032901028329C10179
:10164000032A8101832A4101032B0101832BC1005D
:10165000032C810013010103678000001305700053
:101660006780000017CA0F00032A8ABC83270A007C
:1016700097C40F0083A484C697CA0F0083AACAC167
:1016800003A7C71503A6870593064701939626006F
:101690001307170023AEE714B387D70023A6C700AC
:1016A00083290404EFF0C46B1309050093050500BA
:1016B00003258404B3093401EFE0DFCA930B05006E
:1016C00013050900EFF0C45F97C60F0083A686BD1F
:1016D00023A026011307100097C60F0083A6C6BDDE
:1016E00083A7040023A0E60097C60F0083A686B94F
:1016F00023A0E600130C05006388070C97C70F00B2
:1017000083A707BC83A6070083A70A00938646FF2A
:1017100063FEF60A97C60F0083A686AA23A0E600FA
:1017200003A70400631A070E370701001307471CBD
:1017300023A0E70023A2070023A4070023A6870114
:1017400003A7040013172700B387E70023A0FA00BC
:1017500017E50F0013058513EF00156617CB0F0073
:10176000032B0BA883270B0003A58700EF40052A56
:101770006344202303A7040083A70A006304070A25
:1017800017C70F000327C7B303270700130747FF37
:10179000637AF7081307100097C60F0083A646A2C6
:1017A00023A0E60003A704006304070C130710003E
:1017B00023A0E60003A704006300071093071000AE
:1017C00023A0F6006F00801183A70A0013072000F2
:1017D00023A0E70023A227011307100023A4E7009A
:1017E00023A6E70003A7040083A60400131727001D
:1017F000B387E70023A0FA00E38806F217C70F00BB
:10180000032707AC0327070097C60F0083A6469B54
:10181000130747FFE37AF7F09307100023A0F600C1
:101820006FF01FF3378701001307170023A0E700AD
:1018300023A2070023A4770123A6070003A704001F
:1018400083A6040013172700B387E70023A0FA003C
:101850006380060217C70F00032787A60327070028
:1018600097C60F0083A6C695130747FFE360F7F4FA
:101870003707010023A0E70023A2270123A40700C4
:1018800023A6070003A7040083A60400131727005C
:10189000B387E70023A0FA006380060217C70F0092
:1018A000032707A20327070097C60F0083A64691C8
:1018B000130747FFE364F7F03707040023A0E700AE
:1018C00023A2370123A4870123A6270103A704002D
:1018D00013172700B387E70023A0FA003309790321
:1018E00003248404330424416312041283A70400F4
:1018F0006386070403A7040083A70A00630A070698
:1019000017C70F000327C79B03270700130747FFCD
:101910006370F70697C70F0083A7878A1307100025
:1019200023A0E7006F00000217E50F00130585F202
:10193000EF00552F130580006FF05FCF83A70A00DB
:1019400083A7070003270A00130500008326C71595
:101950009387360193972700B307F70083A7C70043
:101960009386F6FF232ED714232CF7046FF01FCC99
:101970001307300023A0E70023A2070023A40700D9
:1019800023A6070003A7040013172700B387E70067
:1019900023A0FA006FF01FFBE35270F597C70F000A
:1019A00083A7079203A507001386090083A70A00EF
:1019B000130545FF9305000013070000930810006E
:1019C00017B80F000328C87F6F008001637EF50001
:1019D000232018011307170033062601638EEB0638
:1019E00083A60400E39406FE23A0070023A2C700F9
:1019F00023A4870123A6270183A6040093051000D2
:101A000093962600B387D7006FF0DFFC17E50F0031
:101A10001305C5E7EF00553A83270B0003A58700A0
:101A2000EF30D57E83A70400638C070297C70F00B1
:101A300083A7078903A7070083A70A00130747FFA7
:101A40006372F70297B70F0083A787771307100019
:101A500023A0E7006FF09FE9E39005E86FF01FE82F
:101A600083A70A0023A007003389290123A22701A5
:101A700023A4870123A6870003A7040013172700C8
:101A8000B387E70023A0FA006FF05FE63306B640A5
:101A9000930716FF1306160033B6C7001306F6FFAA
:101AA0001316F60193D71700B367F6001387F7FFF5
:101AB00093870501130101FB3388E700138E45006E
:101AC000138385009388C500232681042324910471
:101AD0002322210523203105232E4103232C5103EA
:101AE000232A6103232871032326810323249103DE
:101AF0002322A1032320B103130618002300D500DD
:101B00003307E60093DD850013DD050193DC8501D5
:101B1000135C8E00935B0E01135B8E01935A83005E
:101B2000135A03019359830113D9880093D40801F0
:101B300013D4880193D3870093D2070193DF8701E1
:101B4000135F8800638E0610935608012324D1008A
:101B5000A302F50083278100935688012326D10034
:101B6000935686002328D100A305F500935606015D
:101B70008327C100232AD10093568601232CD1004C
:101B800093568700232ED1002306F500A306B50047
:101B90002307B501A307A50123089501A308C501E3
:101BA00023098501A3097501230A6501A30E6500B8
:101BB000230F5501A30F450123003503A30015038F
:101BC00023012503A3019502230285022303750047
:101BD000A30355002304F501A30405012305E50132
:101BE000A30AC5008327010193560701935E87016D
:101BF000230BF50083274101A30CE500A30DD500BD
:101C0000A30BF50083278101230ED501230CF500DA
:101C10008327C101230DF50023A0050023A20500A1
:101C200023A4050023A605000324C1048324810402
:101C30000329410483290104032AC103832A810360
:101C4000032B4103832B0103032CC102832C81024C
:101C5000032D4102832D010213010105678000005D
:101C6000935608012324D100A30AF500832781009D
:101C7000935688012326D100935686002328D1004D
:101C8000A30DF500935606018327C100232AD10036
:101C900093568601232CD10093568700232ED10022
:101CA000230EF500A30EB500230FB501A30FA50168
:101CB00023009503A300C50323018503A301750336
:101CC00023026503A306650023075501A307450109
:101CD00023083501A308150123092501A30995004F
:101CE000230A8500230B7500A30B5500230CF50177
:101CF000A30C0501230DE501A302C5008327010103
:101D000093560701935E87012303F5008327410162
:101D1000A304E500A305D500A303F50083278101F3
:101D20002306D5012304F5008327C1012305F5000F
:101D30006FF09FEF032785008347C500032545000B
:101D40009356870093978701B3E7D700131787014E
:101D500013558500938797FF3365A7003385A74008
:101D600067800000032785018347C50103254501DE
:101D70009356870093978701B3E7D700131787011E
:101D800013558500938797FF3365A7003385A740D8
:101D900067800000130101FD2324810223229102A8
:101DA00023202103232E31012326110213090600CB
:101DB000130405009389050093840600EFF09FF754
:101DC000636025190327C400834704010F00F00F47
:101DD0001357870093978701B3E7E70003A607002F
:101DE0000F00F00F83260401034744010F00F00F9A
:101DF00093D68600131787013367D7008327070020
:101E00000F00F00F0F00F00F3387C7406368F60034
:101E1000130785003307F7003307C740930689008F
:101E2000130510006360D710832744000347840024
:101E30001305810093D6870093178701B3E7D70076
:101E4000B387C70023243101232621011306010192
:101E50000F00F00F034705002380E7000F00F00F8D
:101E6000832584000347C4009387170093D6850019
:101E7000131787013367D700130515009395850164
:101E80006378F7008327440093D78700B3E7F50012
:101E9000E310A6FC6308090493860400338624013A
:101EA0000F00F00F03C706002380E7000F00F00FBC
:101EB000832584000347C4009387170013D585004A
:101EC000131787013367A700938616009395850142
:101ED0006378F7008327440093D78700B3E7F500C2
:101EE000E390C6FC0F00F00F832544008346840076
:101EF0000326C4000347040193D585009396860109
:101F000013568600B3E6B600131787013367C70080
:101F1000B387D7400F00F00F2320F7000F00F00F1A
:101F2000130500008320C10203248102832441029F
:101F3000032901028329C101130101036780000005
:101F40008320C10203248102832441020329010268
:101F50008329C101130530001301010367800000CC
:101F6000130101FE232C8100232A91002328210143
:101F70002326310123244101232E1100130A0500D9
:101F800093890500130906009384060013041000CA
:101F900093860400130609009385090013050A00BF
:101FA000EFF05FDFE30685FE8320C101032481019A
:101FB00083244101032901018329C100032A8100EF
:101FC0001301010267800000130101FD2324810237
:101FD000232291022320210393040500232E3101A3
:101FE000232C410123261102130A070093890500BF
:101FF0001309060013840600EFF0DFD603A70402DE
:1020000083C744020F00F00F13578700939787018F
:10201000B3E7E70003A607000F00F00F83A6C40193
:1020200003C704020F00F00F93D686001317870131
:102030003367D700032E07000F00F00F0F00F00FDB
:102040006376CE00330EC501130E8E00330ECE40E4
:102050001305200063020E1C930770001305600037
:1020600063FCC71B03A7440183C784019308810055
:102070001357870093978701B3E7E70023240100F4
:10208000B387C70023260100130701010F00F00FDB
:1020900003C307000F00F00F03A8840103C5C401A8
:1020A0002380680013538800131585019387170058
:1020B0003365650093881800131888016378F5006C
:1020C00083A7440193D78700B367F800E390E8FC47
:1020D00023A009002320090003A70900034681006B
:1020E0000345C100834691003367C70023A0E90080
:1020F00083250900139686000347D100B3E6A500A7
:102100002320D90083A60900131587000347A100E7
:10211000B3E6C60023A0D9008325090013160701E2
:102120008346E10033E7A5002320E90003A7090067
:10213000139506018346B1003367C70023A0E90069
:1021400083250900139686010347F100B3E6A50035
:102150002320D90083A60900131787011305500017
:10216000B3E6C60023A0D900832609003367D70051
:102170002320E900930687006360DE0A1305400010
:10218000636CE408630A0704130500000F00F00FF6
:1021900083C607000F00F00F3307AA002300D70003
:1021A00083A5840183C6C4019387170013D78500D4
:1021B00093968601B3E6E600130515009395850115
:1021C00063F8F60083A7440193D78700B3E7F500CF
:1021D00083260900E36CD5FA0F00F00F83A54401B4
:1021E00083C6840103A6040203C7440293D5850075
:1021F0009396860113568600B3E6B600131787013F
:102200003367C700B387D7400F00F00F2320F700D4
:102210000F00F00F130500008320C1020324810288
:1022200083244102032901028329C101032A810178
:102230001301010367800000130101FE232C8100BC
:10224000232A91002328210123263101232441013F
:1022500023225101232E1100930A0500138A050041
:102260009309060013890600930407001304200055
:1022700013870400930609001386090093050A00DA
:1022800013850A00EFF05FD4E30485FE8320C101CB
:102290000324810183244101032901018329C10011
:1022A000032A8100832A4100130101026780000094
:1022B000130101FE232C8100232A9100232E1100FB
:1022C0009307F001130405009384060063CAA70670
:1022D0009316250097C70F0093874755B387D700FC
:1022E00083A70700638E07041387050003250600F4
:1022F0008325860093060601130607FFE780070083
:102300002326A1009306C100130640009305040094
:1023100013850400EFF0DFC4630C0504930505008A
:1023200017D50F001305455EEF6010648320C101CF
:10233000032481018324410113010102678000000D
:102340009305040017D50F001305C558EF60D06141
:102350009307F0FF9306C1001306400093050400A5
:10236000138504002326F100EFF09FBFE31805FA60
:102370008320C1010324810183244101130101024F
:10238000678000009307F00163CAA7029316250037
:1023900097C70F0093878749B387D70003A3070028
:1023A000630E0300138705000325060083258600BE
:1023B00093060601130607FF67000300130101FFE0
:1023C0009305050017D50F001305C55023261100EE
:1023D000EF0045058320C1001305F0FF1301010143
:1023E00067800000131515001355150093070002B0
:1023F00063C8A70297C70F009387474313152500AB
:102400003385A70083270500639807002320B500C4
:1024100013050000678000001305F0FF67800000CF
:102420001305E0FF678000001305F5FF93571500C3
:1024300033E5A70093572500B3E7A70013D547005E
:10244000B367F50013D587003365F5009357050191
:1024500033E5A700130515006780000093571500AA
:1024600033E5A7009357250033E5A70093574500B0
:10247000B3E7A70013D587003365F500935705012F
:10248000B3E7A70013D517003385A7406780000086
:10249000832705001307A00C6362F72817C70F00F6
:1024A0001307874E93972700B387E70083A707009A
:1024B000B387E7006780070017D50F00130585482D
:1024C0006780000017D50F00130585606780000046
:1024D00017D50F001305C54C6780000017D50F00F6
:1024E000130505646780000017D50F001305054824
:1024F0006780000017D50F001305455E6780000058
:1025000017D50F00130545476780000017D50F004A
:10251000130505456780000017D50F001305C55446
:102520006780000017D50F001305455E6780000027
:1025300017D50F00130585426780000017D50F00DF
:102540001305455B6780000017D50F001305855004
:102550006780000017D50F001305054E6780000047
:1025600017D50F00130545516780000017D50F00E0
:102570001305854D6780000017D50F001305454BE7
:102580006780000017D50F001305054A678000001B
:1025900017D50F001305C54A6780000017D50F0037
:1025A0001305054C6780000017D50F001305C542C1
:1025B0006780000017D50F001305454667800000AF
:1025C00017D50F001305C5526780000017D50F00FF
:1025D0001305054A6780000017D50F001305054154
:1025E0006780000017D50F001305055567800000B0
:1025F00017D50F00130505526780000017D50F008F
:102600001305C54B6780000017D50F001305C5499A
:102610006780000017D50F0013058546678000000E
:1026200017D50F001305C53B6780000017D50F00B5
:102630001305853D6780000017D50F001305C545BC
:102640006780000017D50F001305853D67800000E7
:1026500017D50F00130505496780000017D50F0037
:10266000130545356780000017D50F0013050535A4
:102670006780000017D50F00130545336780000001
:1026800017D50F00130505366780000017D50F001A
:10269000130545306780000017D50F001305453737
:1026A0006780000017D50F001305052A678000001A
:1026B00017D50F00130585346780000017D50F006C
:1026C0001305853C6780000017D50F001305852B87
:1026D0006780000017D50F001305053167800000E3
:1026E00017D50F001305C5306780000017D50F0000
:1026F0001305C52D6780000017D50F001305C53FD2
:102700006780000017D50F001305853F6780000024
:1027100017D50F001305853D6780000017D50F0002
:102720001305452167800000832705001307300447
:10273000638CE712634CF702130770016386E71896
:10274000634CF708130730006384E71C13079000FD
:102750006388E71213072000639CE70217D50F0078
:102760001305454D6382051C6780000013071006A2
:102770006384E712635AF7021307800C638AE71237
:102780001307900C6382E708130760066382E70C67
:1027900017D50F001305C53AE39805FC17D50F00B0
:1027A0001305054D6780000013073005638AE706AF
:1027B000130780056382E70813075004E39AE7FCD8
:1027C00017D50F0013050542E39005FA17D50F0042
:1027D0001305453E67800000130710036382E7106E
:1027E00013078003638AE7101307C002E392E7FA36
:1027F00017D50F0013058540E39805F617D50F0090
:102800001305C5386780000017D50F0013058543F1
:10281000E39C05F417D50F001305453467800000CD
:1028200017D50F0013058540E39005F417D50F0069
:102830001305C5336780000017D50F001305052A5F
:10284000E39405F217D50F001305C5326780000029
:1028500017D50F0013050538E39805F017D50F00BD
:10286000130545366780000017D50F001305053B9B
:10287000E39C05EE17D50F00130545306780000077
:1028800017D50F001305853CE39005EE17D50F0013
:102890001305452C6780000017D50F001305452848
:1028A000E39405EC17D50F001305C52E67800000D3
:1028B00017D50F001305853AE39805EA17D50F00E1
:1028C000130505296780000017D50F001305053291
:1028D000E39C05E817D50F001305C52C67800000A1
:1028E00017D50F001305852FE39005E817D50F00C6
:1028F0001305C52C6780000017D50F00130545167A
:10290000E39405E617D50F001305452C67800000FA
:1029100017D50F0013054535E39805E417D50F00CB
:10292000130585226780000017D50F001305852346
:1029300067800000130101FF2324810013040500B8
:1029400017D50F001305453323261100EFF0D446A9
:1029500083260401032604028325440117D50F00B2
:1029600013050532EFF0142C0326C4008325040060
:1029700017D50F0013054532EFF0D42A03260408BB
:102980008325C407032481008320C10017D50F00CD
:1029900013058531130101016FF0D428B71700002A
:1029A000138F976A6378BF0C938EA76A37FEFFFF79
:1029B000378380803306D50113070000930700009A
:1029C000130E6E95130313083305C6011305150086
:1029D0008346F5FFB387D7003307F700E318C5FE3A
:1029E00033B86702B385C5013306D501B336670234
:1029F000135878009318880033880841B38707413B
:102A000093D6760013988600B306D8403307D74094
:102A1000E36CBFFA63860504B305B5001305150022
:102A20008346F5FFB387D7003307F700E318B5FEF9
:102A3000B78680809386160833B6D702B336D7029E
:102A400013567600931586003386C540B387C7407A
:102A500093D6760013968600B306D6403307D74048
:102A600013178700B367F700139507011355050186
:102A70006780000013070000930700006FF09FF9C4
:102A80009307701663F2B70C378300801306052D89
:102A9000130700009307000013031300130E7016B2
:102AA000130506D3130525008356E5FFB387D7002A
:102AB0003307F700E318C5FE33B86702938585E94D
:102AC0001306052DB33667021358F8009318080152
:102AD00033880841B387074193D6F600139806015F
:102AE000B306D8403307D740E36CBEFA63880504C9
:102AF00093961500B306D500130525000356E5FF90
:102B0000B387C7003307F700E398A6FEB7860080B7
:102B10009386160033B6D702B336D7021356F600A3
:102B2000931506013386C540B387C74093D6F60098
:102B300013960601B306D6403307D7401317070193
:102B40003365F7006780000013070000930700005B
:102B50006FF0DFF9130101FA23206105232A9103A5
:102B6000232E1104232C8104232A910423282105D8
:102B7000232631052324410523225105232E7103E9
:102B8000232C81032328A1032326B103232CB10086
:102B900023261101938C0600138B060063C4F600F4
:102BA000138B0700130C07006354E600130C060098
:102BB00017A70F000327877283270700638C071E60
:102BC0008326070097A50F0083A5056D83A7050041
:102BD000639606149306300023A0D70023A20700B3
:102BE00023A4070023A607000327070013172700C5
:102BF000B387E70023A0F500832781016352F00E1D
:102C0000B3079603130D1000331D0D012328010097
:102C100097DB0F00938B4B0C97DA0F00938ACA0A4D
:102C2000232EF100B3076501232AF100832501015A
:102C300017D50F0013058508130A0000EFF0847EF6
:102C40000324410163588007635C600513050D0090
:102C5000EF40CF138327C1001309050093890500B6
:102C60006392070EB304644183CD0400938414007F
:102C700013850D00EF408F1113060900938609009C
:102C8000EFF09549EF501F3893050000EF409F7417
:102C900093850D0013850A00EFF0C478E31694FCC9
:102CA0001305A000130A1A00EF108E543304940188
:102CB000E31C4CF9832701011305A00013841700BE
:102CC00023288100EF10CE52832741010327C10141
:102CD000B387E700232AF10083278101E39887F473
:102CE0008320C105032481058324410503290105AF
:102CF0008329C104032A8104832A4104032B01048C
:102D0000832BC103032C8103832C4103032D010377
:102D1000832DC102130101066780000097A60F00F2
:102D200083A6065A83A60600938646FFE3F4F6EAD6
:102D300097A70F0083A7C7481307100023A0E70039
:102D40006FF09FEBB30D64416F00400213850400E8
:102D5000EF505F1B130605009386050013850B00DB
:102D6000EFF0446C938D1D00E38C8DF203C50D00D4
:102D7000EF40CF011306090093860900EFF0D53923
:102D8000EF505F289305000093040500EF409F6417
:102D9000E35E05FA13850400EF50DF161306050005
:102DA0009386050017D50F00130585F2EFF08467B1
:102DB0006FF05FFB97A70F0083A7074E83A707005D
:102DC00083A707006FF05FE3130101FA2320610579
:102DD000232A9103232E1104232C8104232A9104F6
:102DE00023282105232631052324410523225105CB
:102DF000232E7103232C81032328A1032326B1034F
:102E0000232CB10023261101938C0600138B06009E
:102E100063C4F600138B0700130C07006354E6002D
:102E2000130C060017A70F000327474B8327070043
:102E3000638C071E8326070097A50F0083A5C54551
:102E400083A70500639606149306300023A0D700DD
:102E500023A2070023A4070023A6070003270700D7
:102E600013172700B387E70023A0F500832781010C
:102E70006352F00EB3079603130D1000331D0D01BE
:102E80002328010097DB0F00938B0BE597DA0F00E7
:102E9000938A8AE3232EF100B3076501232AF10008
:102EA0008325010117D50F00130545E1130A000022
:102EB000EFF044570324410163588007635C6005C9
:102EC00013050D00EF309F6C8327C1001309050027
:102ED000938905006392070EB3046441838D040057
:102EE0009384140013850D00EF305F6A1306090008
:102EF00093860900EFF05522EF50DF109305000094
:102F0000EF405F4D93850D0013850A00EFF084516B
:102F1000E39684FC1305A000130A1A00EF104E2D4F
:102F200033049401E31C4CF9832701011305A0002D
:102F30001384170023288100EF108E2B8327410173
:102F40000327C101B387E700232AF100832781010A
:102F5000E39887F48320C105032481058324410578
:102F6000032901058329C104032A8104832A41041A
:102F7000032B0104832BC103032C8103832C410306
:102F8000032D0103832DC102130101066780000098
:102F900097A60F0083A6C63283A60600938646FF37
:102FA000E3F4F6EA97A70F0083A787211307100021
:102FB00023A0E7006FF09FEBB30D64416F00400268
:102FC00013850400EF500F74130605009386050067
:102FD00013850B00EFF00445938D1D00E38C8DF2FB
:102FE00003850D00EF309F5A1306090093860900F0
:102FF000EFF09512EF501F019305000093040500B8
:10300000EF405F3DE35E05FA13850400EF508F6FDC
:10301000130605009386050017D50F00130545CB51
:10302000EFF044406FF05FFB97A70F0083A7C72620
:1030300083A7070083A707006FF05FE317AE0F00B9
:10304000032ECE2903230E00630A0324832E0E00D1
:1030500017AF0F00032F4F2403230F0063820E1AB4
:1030600097AE0F0083AECE2583AE0E00938E4EFF3B
:1030700063F86E1817A30F0003238314130E1000B8
:103080002320C3016352B01A130101FA232C8103D8
:10309000139C1600232A9103938C0700B307860321
:1030A000232E7103930B0700130710002328A1039D
:1030B00033170701330D9041232251052320610569
:1030C000232E1104232CF10093971C00B307F50065
:1030D000232C8104232A910423282105232631054A
:1030E000232441052326B10323261101232EB100F9
:1030F0002324E100232AF100131D1D0023280100D1
:1031000017DB0F00130BCBBE97DA0F00938A4ABD73
:103110008325010117D50F00130545BA130A0000D6
:10312000EFF044300324410163587007635C90055D
:1031300003258100EF309F458327C1001309050057
:10314000938905006394070EB304A401839D0400D2
:103150009384240013850D00EF305F4313060900AC
:1031600093860900EFF0457BEF50CF69930500008F
:10317000EF405F2693850D0013850A00EFF0842A47
:10318000E39684FC1305A000130A1A00EF104E0604
:1031900033048401E39C4BF9832701011305A0004C
:1031A0001384170023288100EF108E048327410128
:1031B00003278101B387E700232AF1008327C10198
:1031C000E39887F48320C105032481058324410506
:1031D000032901058329C104032A8104832A4104A8
:1031E000032B0104832BC103032C8103832C410394
:1031F000032D0103832DC102130101066780000026
:10320000930E30002320D301232203002324030044
:1032100023260300032E0E00131E2E003303C301CA
:1032200023206F00E342B0E667800000B30DA401E5
:103230006F00400213850400EF50CF4C13060500C9
:103240009386050013050B00EFF0C41D938D2D0030
:10325000E38A8DF203950D00EF305F33130609000A
:1032600093860900EFF0456BEF50CF5993050000AE
:1032700093040500EF401F16E35E05FA1385040072
:10328000EF504F48130605009386050017D50F0031
:10329000130585A5EFF004196FF05FFB17A30F006E
:1032A000032383FF03230300032303006FF09FDD49
:1032B00017AE0F00032E8E0203230E00130101F937
:1032C0002326710523261106232481062322910635
:1032D00023202107232E3105232C4105232A5105C4
:1032E0002328610523248105232291052320A1059C
:1032F000232EB103832B410763080320832E0E0086
:1033000017AF0F00032F4FF903230F00638E0E2E0C
:1033100097AE0F0083AECEFA83AE0E00938E4EFFB3
:1033200063F46E2E17A30F00032383E9130E10001E
:103330002320C301635CC018232AE1003387E6021F
:103340002328F100B385A540B30705012322F1022C
:10335000B3870541232CF100B70700802326010124
:103360002326C1022324E10213071000331717019B
:10337000232EE10023200102B3CD77018325010232
:1033800017D50F0013058593130C0000EFF0840987
:1033900083270101032A410297DC0F00938C4C968E
:1033A0006350F0108327C100635EF00C0325C10158
:1033B000EF30DF1D83270107130405009384050008
:1033C000639807168327C1003309FA4083278101D8
:1033D000B38947016F00400213850D00EF404F7322
:1033E000634CA00613850C00EFF0C4031309190009
:1033F0009389190063084909030D0900038B09002B
:1034000013050D00EF309F18130604009386040087
:10341000EFF08550EF500F3F930A050013050B00A6
:10342000EF30DF161306040093860400EFF0C54E5C
:10343000EF504F3D9305050013850A00EF40DF4034
:1034400093050500930A050013850B00EF408F7864
:1034500093850A00E35205F89305000013850A00DE
:10346000EF404F77B3056D41634A050A17D50F004A
:103470001305858813091900EFE0D47A93891900A0
:10348000E31C49F71305A000EF009E568327410176
:10349000130C1C00330AFA0083270101E39487F11F
:1034A000832701021305A000138417002320810243
:1034B000EF001E548327410203278102B387E700F0
:1034C0002322F1028327C102E39A87EA8320C106FF
:1034D0000324810683244106032901068329C105AB
:1034E000032A8105832A4105032B0105832BC1048F
:1034F000032C8104832C4104032D0104832DC1037B
:10350000130101076780000017A30F000323C3D82E
:1035100003230300032303006FF0DFE1B3056D41D4
:1035200017C50F001305457AEFE0D46F6FF01FEC5D
:103530008327C1003309FA4083278101B3894701FA
:103540006F00400213850A00EF40CF68634605060E
:1035500013850C00EFE0146D13091900938919000D
:10356000E30249F303050900EF305F02130604008C
:1035700093860400EFF0453AEF50CF28930A0500F8
:1035800003850900EF309F001306040093860400B2
:10359000EFF08538EF500F279305050013850A00DB
:1035A000EF409F2A93850B00930A0500EF404F568A
:1035B00093850D00E358A0F89305000013850A00D9
:1035C000EF404F616342050213850A00EF508F13ED
:1035D000130605009386050017C50F001305C56F78
:1035E000EFE054646FF05FF713850A00EF508F111E
:1035F000130605009386050017C50F001305456DDA
:10360000EFE054626FF05FF5930E30002320D3019A
:10361000232203002324030023260300032E0E008D
:10362000131E2E003303C30123206F006FF09FD0C1
:1036300017AE0F00032E8ECA03230E00130101F9EB
:1036400023267105232611062324810623229106B1
:1036500023202107232E3105232C4105232A510540
:103660002328610523248105232291052320A10518
:10367000232EB103832B4107630C0320832E0E00FE
:1036800017AF0F00032F4FC103230F0063840E30C9
:1036900097AE0F0083AECEC283AE0E00938E4EFF68
:1036A00063FA6E2E17A30F00032383B1130E1000CD
:1036B0002320C3016350C01A131717002326E1000B
:1036C0003387E602938C0700B3060041B385A5401B
:1036D0002326C10213061000331616012328010108
:1036E000232EC100232001022324E1021317180016
:1036F000B307A7002322F10293971600232CF100B1
:10370000B387E540232AF100B7070080B3CD7701E6
:103710008325010217C50F001305455A130C00003D
:10372000EFE05450032A41026350901183270101B6
:103730006350F00E0325C101EF304F658327010769
:1037400013040500938405006398071683278101FD
:103750003309FA0083274101B309FA006F008002A0
:1037600013850D00EF40CF3A634EA00617C50F003A
:103770001305055AEFE0144B13092900938929001A
:1037800063084909031D0900039B090013050D0087
:10379000EF30CF5F1306040093860400EFF0C517E7
:1037A000EF504F06930A050013050B00EF300F5E34
:1037B0001306040093860400EFF00516EF508F0403
:1037C0009305050013850A00EF401F0893050500C7
:1037D000930A050013850B00EF40CF3F93850A0045
:1037E000E35005F89305000013850A00EF408F3E73
:1037F000B3056D416348050A17C50F001305C55091
:1038000013092900EFE0144293892900E31C49F7CA
:103810001305A000EF00DE1D8327C100130C1C0060
:10382000330AFA00E3948CF1832701021305A00008
:103830001384170023208102EF009E1B832741027F
:1038400003278102B387E7002322F1028327C10205
:10385000E39087EC8320C10603248106832441067C
:10386000032901068329C105032A8105832A41050D
:10387000032B0105832BC104032C8104832C4104F9
:10388000032D0104832DC10313010107678000008C
:1038900017A30F00032343A0032303000323030004
:1038A0006FF05FE1B3056D4117C50F001305454388
:1038B000EFE054376FF05FEC832781013309FA00A2
:1038C00083274101B309FA006F00800213850A00C3
:1038D000EF404F306348050617C50F0013054542FA
:1038E000EFE054341309290093892900E3022AF3F5
:1038F00003150900EF308F49130604009386040076
:10390000EFF08501EF401F70930A05000395090051
:10391000EF30CF471306040093860400EFE0D57F15
:10392000EF405F6E9305050013850A00EF40CF71ED
:1039300093850B00930A0500EF408F1D93850D00C2
:10394000E356A0F89305000013850A00EF408F2886
:103950006342050213850A00EF40DF5A1306050093
:103960009386050017C50F0013058538EFE0942BEB
:103970006FF05FF713850A00EF40DF58130605006C
:103980009386050017C50F0013050536EFE094294F
:103990006FF05FF5930E30002320D3012322030044
:1039A0002324030023260300032E0E00131E2E00E3
:1039B0003303C30123206F006FF0DFCF17AE0F007A
:1039C000032ECE9103230E006302031A832E0E00F2
:1039D00017AF0F00032F4F8C03230F00638E0E349D
:1039E00097AE0F0083AECE8D83AE0E00938E4EFF4A
:1039F00063F46E3417930F000323837C130E1000BF
:103A00002320C301635EC016130101FA2320610560
:103A1000130B0700B38666032328A103232EC100DE
:103A2000138D070013061000B38705013316160126
:103A3000330705012328F100232E7103232CD10025
:103A4000B386A540B3870641232A9103232E110490
:103A5000232C8104232A91042328210523263105C0
:103A60002324410523225105232C81032326B1035E
:103A7000930B08002322C1002326E100232A010022
:103A800097CC0F00938C4C252324F1008325410112
:103A900017C50F0013058522EFE0D418232001007D
:103AA000032901018329C100930A000017CC0F00EC
:103AB000130C8C24635EA009635070090325410038
:103AC000EF30CF2C832701001304050093840500F9
:103AD000638A070A832701066394071083278100FE
:103AE000338A37016F00400113050C00130A1A00D6
:103AF000EFE0541363022A05830D0A0013850D00BD
:103B0000EF30CF281306040093860400EFE0D56061
:103B1000EF405F4F93050000EF40CF0B93850D0002
:103B2000E35405FC17C50F001305051A130A1A0004
:103B3000EFE0540FE3122AFD1305A000938A1A0048
:103B4000EF000E6BB389690133096901E3165DF774
:103B50001305A000EF00CE698327010063940716C8
:103B6000930710002320F1006FF09FF317930F00CD
:103B7000032383720323030003230300E346C0E807
:103B800067800000832701066396070C338A79411A
:103B90006F00400113050C00EFE0D408130A1A006F
:103BA000E38C49F9830D0A0013850D00EF300F1ED9
:103BB0001306040093860400EFE01556EF409F447F
:103BC00093050000EF400F0193850D00E35405FCC1
:103BD00017C50F001305450FEFE0D4046FF01FFC6D
:103BE00083278100B38D37016F00400213050A005F
:103BF000EF405F31130605009386050013850C0026
:103C0000EFE05402938D1D00E3882DF303850D0032
:103C1000EF30CF171306040093860400EFE0D54F72
:103C2000EF405F3E93050000130A0500EF309F7AD6
:103C3000E35E05FA13050A00EF40DF2C13060500CA
:103C40009386050017C50F0013058508EFE0847DF6
:103C50006FF05FFBB38D79416F00400213050A00DE
:103C6000EF405F2A130605009386050013850C00BC
:103C7000EFE0447B938D1D00E380B9ED03850D00DB
:103C8000EF30CF101306040093860400EFE0D54810
:103C9000EF405F3793050000130A0500EF309F7374
:103CA000E35E05FA13050A00EF40DF251306050061
:103CB0009386050017C50F0013058501EFE0847694
:103CC0006FF05FFB832741011305A00013841700E9
:103CD000232A8100EF00CE510327C10083278101F1
:103CE0003307F7002326E10003270101B307F7009C
:103CF0002328F1008327C101E39A87D88320C105D7
:103D00000324810583244105032901058329C10476
:103D1000032A8104832A4104032B0104832BC1035A
:103D2000032C8103832C4103032D0103832DC10246
:103D30001301010667800000930E30002320D30199
:103D4000232203002324030023260300032E0E0056
:103D5000131E2E003303C30123206F006FF09FCA90
:103D6000179E0F00032E8E5703230E006300031AC5
:103D7000832E0E00179F0F00032F0F5203230F00F7
:103D8000638E0E34979E0F0083AE8E5383AE0E006B
:103D9000938E4EFF63F46E3417930F000323434258
:103DA000130E10002320C301635CC016130101FA37
:103DB00023206105131B1700232A9103938C07000E
:103DC000B387660393061000B396160133070041CC
:103DD0002322D100232C8103232E1104232C8104C0
:103DE000232A910423282105232CF100931718007E
:103DF000B306F500B387F5002328F10093171700E9
:103E0000232631052324410523225105232E710346
:103E10002328A1032326B10323200101232EC1005F
:103E20002326D1002324F100232A010017CC0F0000
:103E3000130C0CEC8325410117C50F00130505E891
:103E4000130D0000EFE0045E97CB0F00938BCBEBDC
:103E5000032901018329C100930A0000635E9009D0
:103E600083270100635EF00603254100EF201F72E7
:103E700013040500938405008327010663040D0ADB
:103E80006390071083278100330AF9006F00400117
:103E900013850B00130A2A00EFE0C45863022A05B9
:103EA000831D0A0013850D00EF205F6E13060400CA
:103EB00093860400EFE05526EF40DF1493050000E1
:103EC000EF305F5193850D00E35405FC17C50F00DB
:103ED000130505E1130A2A00EFE0C454E3122AFD9A
:103EE0001305A000938A1A00EF008E30B389690190
:103EF00033096901E3965CF71305A000EF004E2F2C
:103F000063140D16130D10006FF09FF417930F003C
:103F1000032383380323030003230300E348C0E89B
:103F2000678000006398070C83278100338AF900BB
:103F30006F00400113850B00EFE0C44E130A2A0006
:103F4000E3003AFB831D0A0013850D00EF201F6478
:103F50001306040093860400EFE0151CEF409F0A4F
:103F600093050000EF301F4793850D00E35405FCD7
:103F700017C50F001305C5D6EFE0C44A6FF01FFC4C
:103F800083278100B30DF9006F00400213050A007A
:103F9000EF404F77130605009386050013050C00CC
:103FA000EFE04448938D2D00E38C2DF303950D0035
:103FB000EF20DF5D1306040093860400EFE0D515C3
:103FC000EF405F0493050000130A0500EF309F40A7
:103FD000E35E05FA13050A00EF40CF7213060500F1
:103FE0009386050017C50F00130505D0EFE0844345
:103FF0006FF05FFB83278100B38DF9006F004002F3
:1040000013050A00EF400F701306050093860500A4
:1040100013050C00EFE00441938D2D00E3823DED8C
:1040200003950D00EF209F561306040093860400AD
:10403000EFE0950EEF400F7D93050000130A050099
:10404000EF305F39E35E05FA13050A00EF408F6B2E
:10405000130605009386050017C50F001305C5C894
:10406000EFE0443C6FF05FFB832741011305A000A4
:1040700013841700232A8100EF008E170327C10045
:10408000832781013307F7002326E100032701017D
:10409000B307F7002328F1008327C101E39C87D8E9
:1040A0008320C105032481058324410503290105DB
:1040B0008329C104032A8104832A4104032B0104B8
:1040C000832BC103032C8103832C4103032D0103A4
:1040D000832DC1021301010667800000930E30009A
:1040E0002320D301232203002324030023260300DB
:1040F000032E0E00131E2E003303C30123206F0076
:104100006FF09FCA032E010003D30800B336D0001E
:1041100083D82800031F0E00831E2E009396F600FE
:10412000370E0F009395050113178701B3F5C501ED
:104130003336C0003367D700370E0100130EFEFF81
:104140001316E600B3E5E5001303F3FF9388F8FFC9
:1041500033E6C5003373C301131F0F01B3F8C80161
:10416000939E0E01136626341308F8FF3363E301B0
:10417000B3E8D8012320C5002322F500232405013C
:1041800023266500232815016780000017930F0080
:104190000323030A03230300130101FF832F0101FB
:1041A000032E0301B336D00037030F0093950501AA
:1041B000032F81019396F600B3F565003336C000F6
:1041C000B3E5D5001316E60003D30F00832E41019B
:1041D00033E6C500130EFEFF83160F001366262874
:1041E000337EC7019388F8FF2320C5002326F500FE
:1041F000232205012324C50123281501B707010047
:1042000083A50E001387F7FF1303F3FF83D72F0057
:10421000139606013373E30083162F003363C30044
:10422000232AB500232C650003A64E009387F7FFD1
:10423000B3F7E70013970601B3E7E700232EC500A5
:104240002320F502130101016780000037030F00EE
:10425000B336D00093950501832E41009396F60066
:10426000B3F565003336C0001316E600B3E5D5009C
:1042700003D30800032E0100B3E5C50083960E00AA
:1042800093E525471308F8FF2322F5002324E500D2
:104290002320B50023260501B707010083250E0062
:1042A0001387F7FF1303F3FF83D728001396060144
:1042B0003373E30083962E003363C3002328B500D5
:1042C000232A650003264E009387F7FFB3F7E70024
:1042D00013970601B3E7E700232CC500232EF50052
:1042E000678000009395050193E525002320B50024
:1042F000678000009395050193E525102320B50004
:10430000678000003336C00093F5F5001316E60011
:1043100063860600B7860000B3E5D500835E08001B
:10432000035E280003534800835668008392080008
:10433000839F2800039F4800839868003708010086
:104340001308F8FF938EFEFF130EFEFF1303F3FF17
:104350009386F6FF3366B600B3FE0E019392020118
:10436000337E0E01939F0F0133730301131F0F015F
:10437000B3F6060193980801136606269387F7FFA4
:10438000B3EE5E00336EFE013363E301B3E6160164
:104390002320C5002322E5002324F5002326D50190
:1043A0002328C501232A6500232CD500678000003F
:1043B000032301003336C00083C30800835E03007B
:1043C000035E2300835F43000353630083C228001E
:1043D00003CF48001316F60083C8680093960601C1
:1043E0001307F7FFB3E6C600B335B0001317870114
:1043F000370601001306F6FF9395E500B3E6E600E5
:104400001308F8FF938EFEFF130EFEFF938FFFFF3E
:104410001303F3FFB3E6B600939787013378C80020
:10442000B3FECE0093930301337ECE00939202013C
:10443000131F0F01B3FFCF003373C300939808011C
:1044400093E66625B3E70701B3EE7E00336E5E00A8
:10445000336FFF01336313012320D5002322F500BE
:104460002324D5012326C5012328E501232A65003D
:1044700067800000130101FF03230101832F410125
:1044800023268100835E2300035F0300035E430055
:1044900003942F0083934F0083926F0003536300B4
:1044A000232491003336C00083940F0013170701B3
:1044B000B70FFF003377F7011316F60093978701C4
:1044C000B70F0100938FFFFFB335B000B3E7C7000C
:1044D000938EFEFF131404019395E5003367F700F4
:1044E000130FFFFF130EFEFF1303F3FFB3FEFE01D6
:1044F00093940401B3EE8E00B365B7000324C100AA
:10450000337FFF01337EFE01939303013373F30185
:1045100093920201336F9F0093E575279388F8FF0C
:10452000336E7E00336353002320B5002322D50071
:1045300023240501232615012328E501232AD5017B
:10454000232CC501232E6500832481001301010162
:104550006780000017930F00032383CD032303001C
:10456000130101FF2324E1002326F100832E010122
:10457000032E410103230301639C0508B787000054
:104580001307802893878728631406009307070082
:104590008325810003960E0003D708002320F50031
:1045A0008327C1001303F3FFB3F565001308F8FF79
:1045B0002322D5002324B5002326F5002328050156
:1045C000B707010003280E009386F7FF1307F7FFD4
:1045D00083D72800931506013377D70003962E0062
:1045E0003367B700232CE500232A050183254E00FD
:1045F0009387F7FFB3F7D70013170601B3E7E70078
:10460000232EB5002320F50213010101678000006D
:1046100037470000B7C7000013078728938787280C
:104620006FF09FF6032E010063900508B785000028
:1046300013038037938585376314060093050300C1
:1046400003560800039308009387F7FF2322D50041
:104650002324E5002326F5002320B500B707010039
:1046600083250E001387F7FF1306F6FF83572800F4
:104670003376E60013130301839628003366660041
:104680002328B500232AC50003264E009387F7FF91
:10469000B3F7E70013970601B3E7E700232CC50043
:1046A000232EF5006780000037430000B7C50000E7
:1046B00013038337938585376FF01FF893950501B2
:1046C00093E585002320B5006780000093950501E0
:1046D00093E585102320B50067800000130101FCDD
:1046E000232011019308080013880700930707008F
:1046F0001387060093060600138605009305050040
:104700001305C101232E1102EFF0DF9F17960F0052
:10471000032606BB17970F00032707B88327060059
:104720008326070063E0D7068325C1011387C7FFEF
:1047300023A0B7006362D70C83250102138787FF8C
:1047400023AEB7FE6366D70683254102138747FF72
:1047500023ACB7FE636CD70683258102138707FF5E
:1047600023AAB7FE6360D7088326C1021387C7FE5A
:1047700023A8D7FE8320C1032320E60013010104F0
:104780006780000097970F0083A787A31307100087
:1047900023A0E70023A0E70023A0E7008320C103B4
:1047A00023A0E70023A0E7001301010467800000B5
:1047B00097970F0083A7C7A09306100023A0D700E8
:1047C00023A0D70023A0D7006FF0DFFA97970F0040
:1047D00083A7079F9306100023A0D70023A0D7002C
:1047E0006FF05FF997970F0083A7879D93061000DE
:1047F00023A0D7006FF01FF897970F0083A7479C5F
:104800009306100023A0D70023A0D70023A0D70031
:1048100023A0D7006FF01FF6130101FA2320110126
:104820009308080013880700832741061303070035
:10483000138706002324F100832701069306060050
:10484000138605002322F10093050500930703005A
:104850001305C102232E1104EFF05F9317960F008A
:10486000032606A617970F00032707A38327060032
:104870000327070063E0E70A8325C1029386C7FF89
:1048800023A0B70063E2E60E83250103938687FF2A
:1048900023AEB7FE63E4E61883254103938647FF02
:1048A00023ACB7FE63E2E61683258103938607FFF8
:1048B00023AAB7FE63E0E6148325C1039386C7FEEF
:1048C00023A8B7FE63E6E61083250104938687FEDE
:1048D00023A6B7FE63EEE60C83254104938647FECC
:1048E00023A4B7FE63E8E60A83258104938607FEC6
:1048F00023A2B7FE63E4E6080327C1049387C7FD3C
:1049000023A2E7008320C1052320F600130101063E
:104910006780000017970F000327878A930610000F
:104920002320D70093050000930610002320D70012
:10493000930610002320D700930610002320D700F1
:10494000930610002320D7002320D7002320D70070
:104950002320D7002320D700E39605FA8320C10542
:10496000130101066780000093870600930510007D
:1049700017970F000327C7846FF01FFB97970F004F
:1049800083A707841307100023A0E700938706007E
:104990006FF05FF797970F0083A7878213071000C8
:1049A00023A0E70023A0E700938706006FF09FF5A0
:1049B00097970F0083A7C7801307100023A0E70075
:1049C00023A0E70023A0E700938706006FF09FF382
:1049D00097870F0083A7C77E1307100023A0E70067
:1049E00023A0E70023A0E70023A0E70093870600A9
:1049F0006FF05FF1938706009305100017870F0093
:104A00000327077C6FF0DFF3938706009305100000
:104A100017870F000327C77A6FF01FF293870600EE
:104A20009305100017870F00032787796FF05FF059
:104A3000130101FC2320110193080800032801043D
:104A4000232E110223220101138807009307070078
:104A500013870600930606001386050093050500DC
:104A600013050101EFF08FFE17960F000326468510
:104A700017970F00032747828327060003270700A5
:104A800063E8E708832501019386C7FF23A0B700E9
:104A900063E6E60C83254101938687FF23AEB7FECC
:104AA00063EEE61483258101938647FF23ACB7FEAE
:104AB00063ECE6128325C101938607FF23AAB7FEA4
:104AC00063E2E610832501029386C7FE23A8B7FEA2
:104AD00063EAE60C83254102938687FE23A6B7FE90
:104AE00063E4E60A83258102938647FE23A4B7FE8A
:104AF00063E0E6080327C102938707FE23A2E700CD
:104B00008320C1032320F600130101046780000005
:104B100017870F000327C76A930610002320D700CA
:104B200093050000930610002320D7009306100081
:104B30002320D700930610002320D7002320D7007E
:104B40002320D7002320D7002320D700E39A05FA9B
:104B50008320C103130101046780000093870600CE
:104B60009305100017870F00032787656FF09FFBE1
:104B700097870F0083A7C7641307100023A0E700DF
:104B8000938706006FF0DFF797870F0083A74763CF
:104B90001307100023A0E70023A0E7009387060077
:104BA0006FF01FF697870F0083A787611307100028
:104BB00023A0E70023A0E70023A0E70093870600D7
:104BC0006FF01FF497870F0083A7875F130710000C
:104BD00023A0E70023A0E70023A0E70023A0E7002D
:104BE000938706006FF0DFF19387060093051000AE
:104BF00017870F000327C75C6FF0DFF3938706006A
:104C00009305100017870F000327875B6FF01FF2D3
:104C1000130101FE930505001305C100232E1100A9
:104C2000EFF04FEC17870F000327876997860F0077
:104C300083A686668327070083A6060063F0D70253
:104C40008320C10197870F0083A7875713071000A0
:104C500023A0E70013010102678000000326C100C2
:104C60008320C1019386C7FF23A0C7002320D7005C
:104C70001301010267800000130101FE9305050086
:104C80001305C100232E1100EFF0CFE617870F00A8
:104C90000327076397860F0083A606608327070014
:104CA00083A6060063F0D7028320C10197870F0017
:104CB00083A707511307100023A0E7001301010287
:104CC000678000000326C1008320C1019386C7FFCF
:104CD00023A0C7002320D700130101026780000032
:104CE000130101FD930808001388070093070700CC
:104CF000138706009306060013860500930505003A
:104D00001305410023261102EFF0CFDF17860F00B5
:104D10000326065B17870F00032707588327060023
:104D20000327070063E0E708832541009386C7FF58
:104D300023A0B70063EAE60A83258100938687FFF4
:104D400023AEB7FE63E8E6128325C100938647FFD2
:104D500023ACB7FE63EEE60E83250101938607FFC1
:104D600023AAB7FE63E6E60C832541019386C7FEBE
:104D700023A8B7FE63E0E60A83258101938687FEB8
:104D800023A6B7FE63ECE6060327C101938747FE1F
:104D900023A2E7008320C1022320F60013010103B0
:104DA0006780000017870F000327874193061000D4
:104DB0002320D70093050000930610002320D7007E
:104DC000930610002320D7002320D7002320D700EC
:104DD0002320D7002320D700E39E05FA8320C102B9
:104DE00013010103678000009387060093051000FC
:104DF00017870F000327C73C6FF01FFC97870F0032
:104E000083A7073C1307100023A0E7009387060041
:104E10006FF05FF897870F0083A7873A130710009A
:104E200023A0E70023A0E700938706006FF09FF61A
:104E300097870F0083A7C7381307100023A0E70048
:104E400023A0E70023A0E700938706006FF09FF4FC
:104E500097870F0083A7C7361307100023A0E7002A
:104E600023A0E70023A0E70023A0E7009387060024
:104E70006FF05FF2938706009305100017870F000D
:104E8000032707346FF0DFF3130101FC2320110126
:104E9000930808001388070093070700138706008C
:104EA000930606001386050093050500130581018E
:104EB000232E1102EFF0CFCF17860F0003264640B6
:104EC00017870F000327473D8327060003270700A6
:104ED00063E8E706832581019386C7FF23A0B70017
:104EE00063EAE6108325C101938687FF23AEB7FEF0
:104EF00063E6E60883250102938647FF23ACB7FEED
:104F000063E0E60A83254102938607FF23AAB7FEE2
:104F100063E8E60A832581029386C7FE23A8B7FECD
:104F200063EEE60A0327C102938787FE23A2E70008
:104F30008320C1032320F6001301010467800000D1
:104F400017870F000327C727930610002320D700D9
:104F500093050000930610002320D7002320D700DC
:104F60002320D7002320D7002320D700E39205FC7D
:104F70008320C103130101046780000097870F009D
:104F800083A707241307100023A0E70023A0E7004E
:104F900023A0E70023A0E700938706006FF05FF9E6
:104FA00097870F0083A7C7211307100023A0E700EE
:104FB00023A0E70023A0E700938706006FF05FF7C8
:104FC00097870F0083A7C71F1307100023A0E700D0
:104FD00023A0E700938706006FF09FF597870F00E7
:104FE00083A7071E1307100023A0E700938706007E
:104FF0006FF01FF4938706009305100017870F00CA
:105000000327071C6FF01FF5130101FC232011017A
:105010009308080003280104232E11022322010112
:1050200013880700930707001387060093060600FE
:10503000138605009305050013050101EFF08FC3EA
:1050400017860F000326C62717870F000327C724DC
:10505000832706000327070063E8E708832501018B
:105060009386C7FF23A0B70063E6E60C83254101C2
:10507000938687FF23AEB7FE63EEE6148325810196
:10508000938647FF23ACB7FE63ECE6128325C1018C
:10509000938607FF23AAB7FE63E2E6108325010289
:1050A0009386C7FE23A8B7FE63EAE60C8325410278
:1050B000938687FE23A6B7FE63E4E60A8325810272
:1050C000938647FE23A4B7FE63E0E6080327C102E8
:1050D000938707FE23A2E7008320C1032320F60065
:1050E000130101046780000017870F000327470D95
:1050F000930610002320D7009305000093061000AC
:105100002320D700930610002320D7009306100019
:105110002320D7002320D7002320D7002320D70027
:105120002320D700E39A05FA8320C1031301010469
:1051300067800000938706009305100017870F0013
:10514000032707086FF09FFB97870F0083A7470788
:105150001307100023A0E700938706006FF0DFF726
:1051600097870F0083A7C7051307100023A0E70048
:1051700023A0E700938706006FF01FF697870F00C4
:1051800083A707041307100023A0E70023A0E7006C
:1051900023A0E700938706006FF01FF497870F00A6
:1051A00083A707021307100023A0E70023A0E7004E
:1051B00023A0E70023A0E700938706006FF0DFF14C
:1051C000938706009305100017870F00032747FFFA
:1051D0006FF0DFF3938706009305100017870F0029
:1051E000032707FE6FF01FF2130101FA23201101BC
:1051F000930808001388070083270106130307009C
:10520000138706002322F10093060600930703008C
:1052100013860500930505001305C102232E110412
:10522000EFF04FB317860F000326860917870F008C
:1052300003278706832706000327070063E0E70AA2
:105240008325C1029386C7FF23A0B70063E2E60E61
:1052500083250103938687FF23AEB7FE63E4E61838
:1052600083254103938647FF23ACB7FE63E2E6162E
:1052700083258103938607FF23AAB7FE63E0E61424
:105280008325C1039386C7FE23A8B7FE63E6E61015
:1052900083250104938687FE23A6B7FE63EEE60C02
:1052A00083254104938647FE23A4B7FE63E8E60AFC
:1052B00083258104938607FE23A2B7FE63E4E608F4
:1052C0000327C1049387C7FD23A2E7008320C105FC
:1052D0002320F600130101066780000017870F00E6
:1052E000032707EE930610002320D7009305000044
:1052F000930610002320D700930610002320D70028
:10530000930610002320D700930610002320D70017
:105310002320D7002320D7002320D7002320D70025
:10532000E39605FA8320C10513010106678000009A
:10533000938706009305100017870F00032747E89F
:105340006FF01FFB97870F0083A787E713071000F5
:1053500023A0E700938706006FF05FF797870F00A1
:1053600083A707E61307100023A0E70023A0E700A8
:10537000938706006FF09FF597870F0083A747E498
:105380001307100023A0E70023A0E70023A0E700F5
:10539000938706006FF09FF397870F0083A747E27C
:1053A0001307100023A0E70023A0E70023A0E700D5
:1053B00023A0E700938706006FF05FF19387060054
:1053C0009305100017870F00032787DF6FF0DFF3C7
:1053D000938706009305100017870F00032747DE09
:1053E0006FF01FF2938706009305100017870F00D8
:1053F000032707DD6FF05FF0130101FC232011018B
:105400009308080013880700930707001387060016
:105410009306060013860500930505001305010198
:10542000232E1102EFF00FA017860F00032646E986
:1054300017870F00032747E6832706000327070087
:1054400063E8E708832501019386C7FF23A0B7001F
:1054500063E6E60C83254101938687FF23AEB7FE02
:1054600063EEE61483258101938647FF23ACB7FEE4
:1054700063ECE6128325C101938607FF23AAB7FEDA
:1054800063E2E610832501029386C7FE23A8B7FED8
:1054900063EAE60C83254102938687FE23A6B7FEC6
:1054A00063E4E60A83258102938647FE23A4B7FEC0
:1054B00063E0E6080327C102938707FE23A2E70003
:1054C0008320C1032320F60013010104678000003C
:1054D00017870F000327C7CE930610002320D7009D
:1054E00093050000930610002320D70093061000B8
:1054F0002320D700930610002320D7002320D700B5
:105500002320D7002320D7002320D700E39A05FAD1
:105510008320C10313010104678000009387060004
:105520009305100017870F00032787C96FF09FFBB3
:1055300097870F0083A7C7C81307100023A0E700B1
:10554000938706006FF0DFF797870F0083A747C7A1
:105550001307100023A0E70023A0E70093870600AD
:105560006FF01FF697870F0083A787C513071000FA
:1055700023A0E70023A0E70023A0E700938706000D
:105580006FF01FF497870F0083A787C313071000DE
:1055900023A0E70023A0E70023A0E70023A0E70063
:1055A000938706006FF0DFF19387060093051000E4
:1055B00017870F000327C7C06FF0DFF3938706003C
:1055C0009305100017870F00032787BF6FF01FF2A6
:1055D000130101FE930505001305C100232E1100E0
:1055E000EFF0CF8D17870F00032787CD97860F0029
:1055F00083A686CA8327070083A6060063F0D70226
:105600008320C10197870F0083A787BB1307100072
:1056100023A0E70013010102678000000326C100F8
:105620008320C1019386C7FF23A0C7002320D70092
:105630001301010267800000130101FE93050500BC
:105640001305C100232E1100EFF04F8817870F00BC
:10565000032707C797860F0083A606C48327070082
:1056600083A6060063F0D7028320C10197870F004D
:1056700083A707B51307100023A0E7001301010259
:10568000678000000326C1008320C1019386C7FF05
:1056900023A0C7002320D700130101026780000068
:1056A00097870F0083A7C7B883A70700130101FFDF
:1056B0002326110003A7C71503A68705232481000D
:1056C00093064701939626001307170023AEE714AD
:1056D000B387D70023A6C7001305C000EFE04D6CC9
:1056E00097870F0083A7C7B823A0A700630205020E
:1056F0008320C10003248100B70701002320F500A7
:105700002322050023240500130101016780000006
:1057100017A50F0013054560EFC0146A17970F0017
:10572000130747599306E03017A60F001306D663F8
:105730009305100017A50F0013058564EFC0944E64
:1057400017840F000324C4A98327040003A587003E
:10575000EF00C52B8327040003A58700EF00052B6E
:105760001305F0FFEFC0143B97870F0083A747ACEA
:1057700003A707008326C715938736019397270051
:10578000B307F70083A7C7009386F6FF232ED7142D
:10579000232CF7046780000067800000678000000A
:1057A000678000006780000013050000678000002C
:1057B0001305000067800000130101F9232481060E
:1057C000232611062322910623202107232E3105AB
:1057D000232C4105232A5105232861052326710521
:1057E00023248105232291052320A105232EB10323
:1057F0001304010717830F00032303A003230300EF
:10580000631C033E17890F00032989A2138C07002C
:1058100083270900930B0700930A060003A7C71507
:1058200003A68705138B060093064701939626006F
:105830001307170023AEE714B387D70023A6C700CA
:105840009309050013054001138A0500930C080015
:10585000138D0800EFB0C44693880C0013080C00A9
:1058600093870B0013070B0093860A0013060A00A8
:1058700093850900930D05002320A1011305C4FAA7
:10588000EFE05F8817870F00032747A583270700EE
:105890009305100017880F000328C8A097880F00F1
:1058A00083A888A117850F000325C59D832E0800B6
:1058B00003AF0800832F0500178E0F00032E4EA0A4
:1058C0002320B80023A0B8002320B50093040100D2
:1058D00083260E0017860F000326069C6396071A80
:1058E00083270600938646FF9305200023A0B70078
:1058F0009305100023A2B70023A4B70023A6B70086
:10590000832507000323070093952500B387B7007D
:105910002320F6006304030063E4F6300323C4FA93
:10592000B75501009385454023A0B70023A2670027
:1059300023A4070023A6B70183250700032307003C
:1059400093824D0093952500B387B700630A030047
:105950009305100017830F000323838663E2F61676
:10596000032304FBB75501009385454023A0B700EE
:1059700023A2670023A4070023A65700832507005E
:105980000323070093828D0093952500B387B7000A
:105990006304030063EEF626032344FBB7550100BE
:1059A0009385454023A0B70023A2670023A40700E6
:1059B00023A6570083250700032307009382CD0009
:1059C00093952500B387B7006304030063EAF622CA
:1059D000032384FBB75501009385454023A0B700FE
:1059E00023A2670023A4070023A6570083250700EE
:1059F0000323070093820D0193952500B387B70019
:105A00006304030063E4F6228325C4FBB756010058
:105A10009386464023A0D70023A2B70023A4070003
:105A200023A657008326070093962600B387D70046
:105A300097860F0083A6C68383A5060083260700EA
:105A40002320F6002320D80123A0E8012320F5011C
:105A500083A50500638C060C83260E00938646FF03
:105A600063F6F60C9306100017730F0003234375BB
:105A70002320D30083260700638A060E93071000B5
:105A80002320F3006F00001183270600938646FF52
:105A9000E3FCF6E417730F00032383722320B300A3
:105AA00083250700E38C05E6930510002320B3004F
:105AB0008325070093824D00E38405EA93050000E7
:105AC00093021000232053008323070093828D004C
:105AD000E38403EC93021000232053008323070088
